{
  "contractName": "Bonding",
  "abi": [
    {
      "anonymous": false,
      "inputs": [
        {
          "indexed": true,
          "internalType": "address",
          "name": "account",
          "type": "address"
        },
        {
          "indexed": false,
          "internalType": "uint256",
          "name": "start",
          "type": "uint256"
        },
        {
          "indexed": false,
          "internalType": "uint256",
          "name": "value",
          "type": "uint256"
        },
        {
          "indexed": false,
          "internalType": "uint256",
          "name": "valueUnderlying",
          "type": "uint256"
        }
      ],
      "name": "Bond",
      "type": "event"
    },
    {
      "anonymous": false,
      "inputs": [
        {
          "indexed": true,
          "internalType": "address",
          "name": "account",
          "type": "address"
        },
        {
          "indexed": false,
          "internalType": "uint256",
          "name": "value",
          "type": "uint256"
        }
      ],
      "name": "Deposit",
      "type": "event"
    },
    {
      "anonymous": false,
      "inputs": [
        {
          "indexed": true,
          "internalType": "address",
          "name": "from",
          "type": "address"
        },
        {
          "indexed": true,
          "internalType": "address",
          "name": "to",
          "type": "address"
        },
        {
          "indexed": false,
          "internalType": "uint256",
          "name": "value",
          "type": "uint256"
        }
      ],
      "name": "Transfer",
      "type": "event"
    },
    {
      "anonymous": false,
      "inputs": [
        {
          "indexed": true,
          "internalType": "address",
          "name": "account",
          "type": "address"
        },
        {
          "indexed": false,
          "internalType": "uint256",
          "name": "start",
          "type": "uint256"
        },
        {
          "indexed": false,
          "internalType": "uint256",
          "name": "value",
          "type": "uint256"
        },
        {
          "indexed": false,
          "internalType": "uint256",
          "name": "valueUnderlying",
          "type": "uint256"
        }
      ],
      "name": "Unbond",
      "type": "event"
    },
    {
      "anonymous": false,
      "inputs": [
        {
          "indexed": true,
          "internalType": "address",
          "name": "account",
          "type": "address"
        },
        {
          "indexed": false,
          "internalType": "uint256",
          "name": "value",
          "type": "uint256"
        }
      ],
      "name": "Withdraw",
      "type": "event"
    },
    {
      "constant": true,
      "inputs": [
        {
          "internalType": "address",
          "name": "owner",
          "type": "address"
        },
        {
          "internalType": "address",
          "name": "spender",
          "type": "address"
        }
      ],
      "name": "allowance",
      "outputs": [
        {
          "internalType": "uint256",
          "name": "",
          "type": "uint256"
        }
      ],
      "payable": false,
      "stateMutability": "view",
      "type": "function"
    },
    {
      "constant": true,
      "inputs": [
        {
          "internalType": "address",
          "name": "owner",
          "type": "address"
        },
        {
          "internalType": "address",
          "name": "spender",
          "type": "address"
        }
      ],
      "name": "allowanceCoupons",
      "outputs": [
        {
          "internalType": "uint256",
          "name": "",
          "type": "uint256"
        }
      ],
      "payable": false,
      "stateMutability": "view",
      "type": "function"
    },
    {
      "constant": false,
      "inputs": [
        {
          "internalType": "address",
          "name": "spender",
          "type": "address"
        },
        {
          "internalType": "uint256",
          "name": "amount",
          "type": "uint256"
        }
      ],
      "name": "approve",
      "outputs": [
        {
          "internalType": "bool",
          "name": "",
          "type": "bool"
        }
      ],
      "payable": false,
      "stateMutability": "nonpayable",
      "type": "function"
    },
    {
      "constant": true,
      "inputs": [
        {
          "internalType": "address",
          "name": "candidate",
          "type": "address"
        }
      ],
      "name": "approveFor",
      "outputs": [
        {
          "internalType": "uint256",
          "name": "",
          "type": "uint256"
        }
      ],
      "payable": false,
      "stateMutability": "view",
      "type": "function"
    },
    {
      "constant": true,
      "inputs": [
        {
          "internalType": "address",
          "name": "account",
          "type": "address"
        }
      ],
      "name": "balanceOf",
      "outputs": [
        {
          "internalType": "uint256",
          "name": "",
          "type": "uint256"
        }
      ],
      "payable": false,
      "stateMutability": "view",
      "type": "function"
    },
    {
      "constant": true,
      "inputs": [
        {
          "internalType": "address",
          "name": "account",
          "type": "address"
        }
      ],
      "name": "balanceOfBonded",
      "outputs": [
        {
          "internalType": "uint256",
          "name": "",
          "type": "uint256"
        }
      ],
      "payable": false,
      "stateMutability": "view",
      "type": "function"
    },
    {
      "constant": true,
      "inputs": [
        {
          "internalType": "address",
          "name": "account",
          "type": "address"
        },
        {
          "internalType": "uint256",
          "name": "epoch",
          "type": "uint256"
        }
      ],
      "name": "balanceOfCoupons",
      "outputs": [
        {
          "internalType": "uint256",
          "name": "",
          "type": "uint256"
        }
      ],
      "payable": false,
      "stateMutability": "view",
      "type": "function"
    },
    {
      "constant": true,
      "inputs": [
        {
          "internalType": "address",
          "name": "account",
          "type": "address"
        }
      ],
      "name": "balanceOfStaged",
      "outputs": [
        {
          "internalType": "uint256",
          "name": "",
          "type": "uint256"
        }
      ],
      "payable": false,
      "stateMutability": "view",
      "type": "function"
    },
    {
      "constant": true,
      "inputs": [
        {
          "internalType": "uint256",
          "name": "epoch",
          "type": "uint256"
        }
      ],
      "name": "bootstrappingAt",
      "outputs": [
        {
          "internalType": "bool",
          "name": "",
          "type": "bool"
        }
      ],
      "payable": false,
      "stateMutability": "view",
      "type": "function"
    },
    {
      "constant": true,
      "inputs": [
        {
          "internalType": "uint256",
          "name": "epoch",
          "type": "uint256"
        }
      ],
      "name": "couponsExpiration",
      "outputs": [
        {
          "internalType": "uint256",
          "name": "",
          "type": "uint256"
        }
      ],
      "payable": false,
      "stateMutability": "view",
      "type": "function"
    },
    {
      "constant": true,
      "inputs": [],
      "name": "decimals",
      "outputs": [
        {
          "internalType": "uint8",
          "name": "",
          "type": "uint8"
        }
      ],
      "payable": false,
      "stateMutability": "view",
      "type": "function"
    },
    {
      "constant": true,
      "inputs": [],
      "name": "dollar",
      "outputs": [
        {
          "internalType": "contract IDollar",
          "name": "",
          "type": "address"
        }
      ],
      "payable": false,
      "stateMutability": "view",
      "type": "function"
    },
    {
      "constant": true,
      "inputs": [],
      "name": "epoch",
      "outputs": [
        {
          "internalType": "uint256",
          "name": "",
          "type": "uint256"
        }
      ],
      "payable": false,
      "stateMutability": "view",
      "type": "function"
    },
    {
      "constant": true,
      "inputs": [],
      "name": "epochTime",
      "outputs": [
        {
          "internalType": "uint256",
          "name": "",
          "type": "uint256"
        }
      ],
      "payable": false,
      "stateMutability": "view",
      "type": "function"
    },
    {
      "constant": true,
      "inputs": [
        {
          "internalType": "uint256",
          "name": "epoch",
          "type": "uint256"
        }
      ],
      "name": "expiringCoupons",
      "outputs": [
        {
          "internalType": "uint256",
          "name": "",
          "type": "uint256"
        }
      ],
      "payable": false,
      "stateMutability": "view",
      "type": "function"
    },
    {
      "constant": true,
      "inputs": [
        {
          "internalType": "uint256",
          "name": "epoch",
          "type": "uint256"
        },
        {
          "internalType": "uint256",
          "name": "i",
          "type": "uint256"
        }
      ],
      "name": "expiringCouponsAtIndex",
      "outputs": [
        {
          "internalType": "uint256",
          "name": "",
          "type": "uint256"
        }
      ],
      "payable": false,
      "stateMutability": "view",
      "type": "function"
    },
    {
      "constant": true,
      "inputs": [],
      "name": "implementation",
      "outputs": [
        {
          "internalType": "address",
          "name": "impl",
          "type": "address"
        }
      ],
      "payable": false,
      "stateMutability": "view",
      "type": "function"
    },
    {
      "constant": true,
      "inputs": [
        {
          "internalType": "address",
          "name": "candidate",
          "type": "address"
        }
      ],
      "name": "isInitialized",
      "outputs": [
        {
          "internalType": "bool",
          "name": "",
          "type": "bool"
        }
      ],
      "payable": false,
      "stateMutability": "view",
      "type": "function"
    },
    {
      "constant": true,
      "inputs": [
        {
          "internalType": "address",
          "name": "candidate",
          "type": "address"
        }
      ],
      "name": "isNominated",
      "outputs": [
        {
          "internalType": "bool",
          "name": "",
          "type": "bool"
        }
      ],
      "payable": false,
      "stateMutability": "view",
      "type": "function"
    },
    {
      "constant": true,
      "inputs": [],
      "name": "name",
      "outputs": [
        {
          "internalType": "string",
          "name": "",
          "type": "string"
        }
      ],
      "payable": false,
      "stateMutability": "view",
      "type": "function"
    },
    {
      "constant": true,
      "inputs": [],
      "name": "oracle",
      "outputs": [
        {
          "internalType": "contract IOracle",
          "name": "",
          "type": "address"
        }
      ],
      "payable": false,
      "stateMutability": "view",
      "type": "function"
    },
    {
      "constant": true,
      "inputs": [
        {
          "internalType": "uint256",
          "name": "epoch",
          "type": "uint256"
        }
      ],
      "name": "outstandingCoupons",
      "outputs": [
        {
          "internalType": "uint256",
          "name": "",
          "type": "uint256"
        }
      ],
      "payable": false,
      "stateMutability": "view",
      "type": "function"
    },
    {
      "constant": true,
      "inputs": [
        {
          "internalType": "address",
          "name": "candidate",
          "type": "address"
        }
      ],
      "name": "periodFor",
      "outputs": [
        {
          "internalType": "uint256",
          "name": "",
          "type": "uint256"
        }
      ],
      "payable": false,
      "stateMutability": "view",
      "type": "function"
    },
    {
      "constant": true,
      "inputs": [],
      "name": "pool",
      "outputs": [
        {
          "internalType": "address",
          "name": "",
          "type": "address"
        }
      ],
      "payable": false,
      "stateMutability": "view",
      "type": "function"
    },
    {
      "constant": true,
      "inputs": [
        {
          "internalType": "address",
          "name": "account",
          "type": "address"
        },
        {
          "internalType": "address",
          "name": "candidate",
          "type": "address"
        }
      ],
      "name": "recordedVote",
      "outputs": [
        {
          "internalType": "enum Candidate.Vote",
          "name": "",
          "type": "uint8"
        }
      ],
      "payable": false,
      "stateMutability": "view",
      "type": "function"
    },
    {
      "constant": true,
      "inputs": [
        {
          "internalType": "address",
          "name": "candidate",
          "type": "address"
        }
      ],
      "name": "rejectFor",
      "outputs": [
        {
          "internalType": "uint256",
          "name": "",
          "type": "uint256"
        }
      ],
      "payable": false,
      "stateMutability": "view",
      "type": "function"
    },
    {
      "constant": true,
      "inputs": [
        {
          "internalType": "address",
          "name": "candidate",
          "type": "address"
        }
      ],
      "name": "startFor",
      "outputs": [
        {
          "internalType": "uint256",
          "name": "",
          "type": "uint256"
        }
      ],
      "payable": false,
      "stateMutability": "view",
      "type": "function"
    },
    {
      "constant": true,
      "inputs": [
        {
          "internalType": "address",
          "name": "account",
          "type": "address"
        }
      ],
      "name": "statusOf",
      "outputs": [
        {
          "internalType": "enum Account.Status",
          "name": "",
          "type": "uint8"
        }
      ],
      "payable": false,
      "stateMutability": "view",
      "type": "function"
    },
    {
      "constant": true,
      "inputs": [],
      "name": "symbol",
      "outputs": [
        {
          "internalType": "string",
          "name": "",
          "type": "string"
        }
      ],
      "payable": false,
      "stateMutability": "view",
      "type": "function"
    },
    {
      "constant": true,
      "inputs": [],
      "name": "totalBonded",
      "outputs": [
        {
          "internalType": "uint256",
          "name": "",
          "type": "uint256"
        }
      ],
      "payable": false,
      "stateMutability": "view",
      "type": "function"
    },
    {
      "constant": true,
      "inputs": [
        {
          "internalType": "uint256",
          "name": "epoch",
          "type": "uint256"
        }
      ],
      "name": "totalBondedAt",
      "outputs": [
        {
          "internalType": "uint256",
          "name": "",
          "type": "uint256"
        }
      ],
      "payable": false,
      "stateMutability": "view",
      "type": "function"
    },
    {
      "constant": true,
      "inputs": [],
      "name": "totalCoupons",
      "outputs": [
        {
          "internalType": "uint256",
          "name": "",
          "type": "uint256"
        }
      ],
      "payable": false,
      "stateMutability": "view",
      "type": "function"
    },
    {
      "constant": true,
      "inputs": [],
      "name": "totalDebt",
      "outputs": [
        {
          "internalType": "uint256",
          "name": "",
          "type": "uint256"
        }
      ],
      "payable": false,
      "stateMutability": "view",
      "type": "function"
    },
    {
      "constant": true,
      "inputs": [],
      "name": "totalNet",
      "outputs": [
        {
          "internalType": "uint256",
          "name": "",
          "type": "uint256"
        }
      ],
      "payable": false,
      "stateMutability": "view",
      "type": "function"
    },
    {
      "constant": true,
      "inputs": [],
      "name": "totalRedeemable",
      "outputs": [
        {
          "internalType": "uint256",
          "name": "",
          "type": "uint256"
        }
      ],
      "payable": false,
      "stateMutability": "view",
      "type": "function"
    },
    {
      "constant": true,
      "inputs": [],
      "name": "totalStaged",
      "outputs": [
        {
          "internalType": "uint256",
          "name": "",
          "type": "uint256"
        }
      ],
      "payable": false,
      "stateMutability": "view",
      "type": "function"
    },
    {
      "constant": true,
      "inputs": [],
      "name": "totalSupply",
      "outputs": [
        {
          "internalType": "uint256",
          "name": "",
          "type": "uint256"
        }
      ],
      "payable": false,
      "stateMutability": "view",
      "type": "function"
    },
    {
      "constant": false,
      "inputs": [
        {
          "internalType": "address",
          "name": "recipient",
          "type": "address"
        },
        {
          "internalType": "uint256",
          "name": "amount",
          "type": "uint256"
        }
      ],
      "name": "transfer",
      "outputs": [
        {
          "internalType": "bool",
          "name": "",
          "type": "bool"
        }
      ],
      "payable": false,
      "stateMutability": "nonpayable",
      "type": "function"
    },
    {
      "constant": false,
      "inputs": [
        {
          "internalType": "address",
          "name": "sender",
          "type": "address"
        },
        {
          "internalType": "address",
          "name": "recipient",
          "type": "address"
        },
        {
          "internalType": "uint256",
          "name": "amount",
          "type": "uint256"
        }
      ],
      "name": "transferFrom",
      "outputs": [
        {
          "internalType": "bool",
          "name": "",
          "type": "bool"
        }
      ],
      "payable": false,
      "stateMutability": "nonpayable",
      "type": "function"
    },
    {
      "constant": true,
      "inputs": [
        {
          "internalType": "address",
          "name": "candidate",
          "type": "address"
        }
      ],
      "name": "votesFor",
      "outputs": [
        {
          "internalType": "uint256",
          "name": "",
          "type": "uint256"
        }
      ],
      "payable": false,
      "stateMutability": "view",
      "type": "function"
    },
    {
      "constant": false,
      "inputs": [
        {
          "internalType": "uint256",
          "name": "value",
          "type": "uint256"
        }
      ],
      "name": "deposit",
      "outputs": [],
      "payable": false,
      "stateMutability": "nonpayable",
      "type": "function"
    },
    {
      "constant": false,
      "inputs": [
        {
          "internalType": "uint256",
          "name": "value",
          "type": "uint256"
        }
      ],
      "name": "withdraw",
      "outputs": [],
      "payable": false,
      "stateMutability": "nonpayable",
      "type": "function"
    },
    {
      "constant": false,
      "inputs": [
        {
          "internalType": "uint256",
          "name": "value",
          "type": "uint256"
        }
      ],
      "name": "bond",
      "outputs": [],
      "payable": false,
      "stateMutability": "nonpayable",
      "type": "function"
    },
    {
      "constant": false,
      "inputs": [
        {
          "internalType": "uint256",
          "name": "value",
          "type": "uint256"
        }
      ],
      "name": "unbond",
      "outputs": [],
      "payable": false,
      "stateMutability": "nonpayable",
      "type": "function"
    },
    {
      "constant": false,
      "inputs": [
        {
          "internalType": "uint256",
          "name": "value",
          "type": "uint256"
        }
      ],
      "name": "unbondUnderlying",
      "outputs": [],
      "payable": false,
      "stateMutability": "nonpayable",
      "type": "function"
    }
  ],
  "bytecode": "0x608060405234801561001057600080fd5b50611962806100206000396000f3fe608060405234801561001057600080fd5b506004361061027f5760003560e01c806375d5024b1161015c578063a6c409f1116100ce578063d60b347f11610087578063d60b347f14610517578063dd62ed3e1461052a578063df9a2b1c14610538578063f1b7cf491461054b578063fc7b9c181461055e578063ffbe3b73146105665761027f565b8063a6c409f1146104ce578063a9059cbb146102a2578063b6b55f25146104d6578063bc7513e2146104e9578063c9aff70c146104fc578063cf0237791461050f5761027f565b806395d89b411161012057806395d89b411461047257806397a5d5b51461047a5780639940686e1461048d5780639a649edc146104a05780639f6e1b26146104a8578063a50cd8e7146104bb5761027f565b806375d5024b146104295780637dc0d1d01461043c578063825ad6071461044457806386cf9f1414610457578063900cf0cf1461046a5761027f565b8063353a420c116101f55780635053e461116101b95780635053e461146103cb57806351adeb57146103d35780635c60da1b146103e857806364668022146103f05780636a39e3281461040357806370a08231146104165761027f565b8063353a420c1461036a5780633a3e6c811461037d5780633fbba9a61461039057806344d96e95146103b05780634c736099146103b85761027f565b806318160ddd1161024757806318160ddd1461030a5780631edbcf6c1461031257806323b872dd1461031a57806327de9e321461032d5780632e1a7d4d14610342578063313ce567146103555761027f565b806306fdde0314610284578063095ea7b3146102a257806310e95b6c146102c257806315e14bf6146102e257806316f0115b146102f5575b600080fd5b61028c610579565b604051610299919061177d565b60405180910390f35b6102b56102b03660046114ce565b610599565b6040516102999190611753565b6102d56102d036600461151c565b6105a2565b60405161029991906117ae565b6102d56102f0366004611421565b6105ba565b6102fd6105d8565b6040516102999190611702565b6102d56105e7565b6102d56105ed565b6102b5610328366004611481565b6105f3565b61034061033b36600461151c565b6105fd565b005b61034061035036600461151c565b610747565b61035d61087f565b60405161029991906117d7565b6102d5610378366004611421565b610884565b6102b561038b366004611421565b6108a2565b6103a361039e366004611447565b6108bf565b604051610299919061176f565b6102d56108f2565b6102d56103c6366004611558565b6108f8565b6102d5610928565b6103db61094b565b6040516102999190611761565b6102fd61095a565b6102d56103fe366004611421565b61097f565b6102d561041136600461151c565b61099d565b6102d5610424366004611421565b6109b2565b6102b561043736600461151c565b6109d0565b6103db6109e3565b6102d5610452366004611421565b6109f2565b6102d5610465366004611421565b610a32565b6102d5610a4d565b61028c610a53565b6103a3610488366004611421565b610a72565b61034061049b36600461151c565b610ad7565b6102d5610ba5565b6102d56104b6366004611447565b610bab565b6102d56104c9366004611421565b610bda565b6102d5610bf1565b6103406104e436600461151c565b610c87565b6102d56104f73660046114ce565b610d5f565b6102d561050a36600461151c565b610da3565b6102d5610db8565b6102b5610525366004611421565b610dbe565b6102d56102b0366004611447565b61034061054636600461151c565b610ddf565b6102d5610559366004611421565b610e9d565b6102d5610eb8565b6102d561057436600461151c565b610ebe565b60606040518060600160405280602181526020016118dd60219139905090565b60005b92915050565b6000818152600d60205260409020600201545b919050565b6001600160a01b03166000908152600e602052604090206001015490565b600b546001600160a01b031690565b60035490565b60065490565b60005b9392505050565b3361064460025b61060d83610a72565b600281111561061857fe5b1415692832b936b4b9b9b4b7b760b11b72139bdd08199c9bde995b881bdc88199b1d5a59606a1b610ed0565b61064d33610f33565b600061068061065b336109b2565b610674610667336109f2565b869063ffffffff610f6516565b9063ffffffff610f9f16565b905061068c3382610fe1565b6106ae816040518060600160405280602281526020016118fe6022913961103d565b6106ee33846040518060400160405280601d81526020017f426f6e64696e673a20696e73756666696369656e742062616c616e6365000000815250611058565b337f93530ac0ee8c50e696e13c5ac62355d0c0ba4bd943620d5bda1eb08b64ae7512610729600161071d610a4d565b9063ffffffff61110316565b858460405161073a939291906117bc565b60405180910390a2505050565b3361078f60015b61075783610a72565b600281111561076257fe5b1415692832b936b4b9b9b4b7b760b11b73139bdd08199c9bde995b881bdc881b1bd8dad95960621b610ed0565b61079761094b565b6001600160a01b031663a9059cbb33846040518363ffffffff1660e01b81526004016107c4929190611738565b602060405180830381600087803b1580156107de57600080fd5b505af11580156107f2573d6000803e3d6000fd5b505050506040513d601f19601f8201168201806040525061081691908101906114fe565b5061083a33836040518060600160405280602481526020016118b960249139611128565b336001600160a01b03167f884edad9ce6fa2440d8a54cc123490eb96d2768479d49ff9c7366125a94243648360405161087391906117ae565b60405180910390a25050565b601290565b6001600160a01b03166000908152600e602052604090206003015490565b6001600160a01b03166000908152600e6020526040902054151590565b6001600160a01b038082166000908152600e60209081526040808320938616835260049093019052205460ff1692915050565b60045490565b6000828152600d6020526040812060030180548390811061091557fe5b9060005260206000200154905092915050565b60006109326113d4565b61093a611187565b9050610945816111b6565b91505090565b6009546001600160a01b031690565b7f360894a13ba1a3210667c828492db98dca3e2076cc3735a920a3ca505d382bbc5490565b6001600160a01b03166000908152600e602052604090206002015490565b6000908152600d602052604090206003015490565b6001600160a01b03166000908152600c602052604090206001015490565b60006109da6111d8565b90911115919050565b600a546001600160a01b031690565b6000806109fd6105e7565b905080610a0e5760009150506105b5565b6105f681610674610a1e866109b2565b610a266108f2565b9063ffffffff610f6516565b6001600160a01b03166000908152600c602052604090205490565b60025490565b6040805180820190915260058152644551442d5360d81b602082015290565b6000610a7c610a4d565b6001600160a01b0383166000908152600c60205260409020600501541115610aa6575060026105b5565b6001600160a01b0382166000908152600c6020526040902060040154610aca610a4d565b101561059957600161059c565b33610ae26002610604565b610aeb33610f33565b6000610af56108f2565b15610b1557610b10610b056108f2565b6106746106676105e7565b610b2d565b610b2d610b206111de565b849063ffffffff610f6516565b9050610b3933826111e5565b610b428361128d565b610b6533846040518060600160405280602481526020016118b960249139611128565b337f44002fdef5a0c2d2e4e05572e9780b95aef97e0e93ffd7cc076b09fa78ff2b46610b94600161071d610a4d565b838660405161073a939291906117bc565b60085490565b6001600160a01b039182166000908152600c602090815260408083209390941682526003909201909152205490565b600061059c610be883610884565b61071d8461097f565b6000610c82610bfe610eb8565b610c0661094b565b6001600160a01b03166318160ddd6040518163ffffffff1660e01b815260040160206040518083038186803b158015610c3e57600080fd5b505afa158015610c52573d6000803e3d6000fd5b505050506040513d601f19601f82011682018060405250610c76919081019061153a565b9063ffffffff6112a616565b905090565b33610c92600161074e565b610c9a61094b565b6001600160a01b03166323b872dd3330856040518463ffffffff1660e01b8152600401610cc993929190611710565b602060405180830381600087803b158015610ce357600080fd5b505af1158015610cf7573d6000803e3d6000fd5b505050506040513d601f19601f82011682018060405250610d1b91908101906114fe565b50610d263383610fe1565b336001600160a01b03167fe1fffcc4923d04b559f4d29a8bfc6cda04eb5b0d3c460751c2402c5c5cc9109c8360405161087391906117ae565b6000610d6a82610da3565b610d765750600061059c565b506001600160a01b03919091166000908152600c6020908152604080832093835260029093019052205490565b6000908152600d602052604090206001015490565b60055490565b6001600160a01b03166000908152600e602052604090206005015460ff1690565b33610dea6002610604565b610df333610f33565b6000610e00610b056108f2565b9050610e0c3384610fe1565b610e2e836040518060600160405280602281526020016118fe6022913961103d565b610e6e33826040518060400160405280601d81526020017f426f6e64696e673a20696e73756666696369656e742062616c616e6365000000815250611058565b337f93530ac0ee8c50e696e13c5ac62355d0c0ba4bd943620d5bda1eb08b64ae7512610b94600161071d610a4d565b6001600160a01b03166000908152600e602052604090205490565b60075490565b6000908152600d602052604090205490565b82610f2e57610ede826112e8565b6101d160f51b610eed836112e8565b604051602001610eff939291906116d1565b60408051601f198184030181529082905262461bcd60e51b8252610f259160040161177d565b60405180910390fd5b505050565b610f46610f3e611368565b61071d610a4d565b6001600160a01b039091166000908152600c6020526040902060040155565b600082610f745750600061059c565b82820282848281610f8157fe5b04146105f65760405162461bcd60e51b8152600401610f259061179e565b60006105f683836040518060400160405280601a81526020017f536166654d6174683a206469766973696f6e206279207a65726f00000000000081525061136d565b6001600160a01b0382166000908152600c602052604090205461100a908263ffffffff61110316565b6001600160a01b0383166000908152600c6020526040902055600554611036908263ffffffff61110316565b6005555050565b60045461105190838363ffffffff6113a416565b6004555050565b6001600160a01b0383166000908152600c602052604090206001015461108590838363ffffffff6113a416565b6001600160a01b0384166000908152600c60205260409020600101556003546110b590838363ffffffff6113a416565b6003556040516000906001600160a01b038516907fddf252ad1be2c89b69c2b068fc378daa952ba7f163c4a11628f55a4df523b3ef906110f69086906117ae565b60405180910390a3505050565b6000828201838110156105f65760405162461bcd60e51b8152600401610f259061178e565b6001600160a01b0383166000908152600c602052604090205461115290838363ffffffff6113a416565b6001600160a01b0384166000908152600c602052604090205560055461117f90838363ffffffff6113a416565b600555505050565b61118f6113d4565b60405180606001604052806000815260200163600450f08152602001610e10815250905090565b600061059c826000015161071d84604001516106748660200151610c766113d0565b61016890565b620f424090565b6001600160a01b0382166000908152600c6020526040902060010154611211908263ffffffff61110316565b6001600160a01b0383166000908152600c6020526040902060010155600354611240908263ffffffff61110316565b6003556040516001600160a01b038316906000907fddf252ad1be2c89b69c2b068fc378daa952ba7f163c4a11628f55a4df523b3ef906112819085906117ae565b60405180910390a35050565b6004546112a0908263ffffffff61110316565b60045550565b60006105f683836040518060400160405280601e81526020017f536166654d6174683a207375627472616374696f6e206f766572666c6f7700008152506113a4565b606080826040516020016112fc91906116bc565b60408051601f19818403018152919052905060205b80156113515781516000199091019082908290811061132c57fe5b01602001516001600160f81b0319161561134c57600101815290506105b5565b611311565b505060408051600081526020810190915292915050565b601890565b6000818361138e5760405162461bcd60e51b8152600401610f25919061177d565b50600083858161139a57fe5b0495945050505050565b600081848411156113c85760405162461bcd60e51b8152600401610f25919061177d565b505050900390565b4290565b60405180606001604052806000815260200160008152602001600081525090565b803561059c81611892565b805161059c816118a6565b803561059c816118af565b805161059c816118af565b60006020828403121561143357600080fd5b600061143f84846113f5565b949350505050565b6000806040838503121561145a57600080fd5b600061146685856113f5565b9250506020611477858286016113f5565b9150509250929050565b60008060006060848603121561149657600080fd5b60006114a286866113f5565b93505060206114b3868287016113f5565b92505060406114c48682870161140b565b9150509250925092565b600080604083850312156114e157600080fd5b60006114ed85856113f5565b92505060206114778582860161140b565b60006020828403121561151057600080fd5b600061143f8484611400565b60006020828403121561152e57600080fd5b600061143f848461140b565b60006020828403121561154c57600080fd5b600061143f8484611416565b6000806040838503121561156b57600080fd5b60006114ed858561140b565b6115808161182e565b82525050565b611580816117f2565b611580816117fd565b6115806115a482611802565b61180f565b6115806115a48261180f565b60006115c0826117e5565b6115ca81856105b5565b93506115da81856020860161184b565b9290920192915050565b61158081611835565b61158081611840565b6000611601826117e5565b61160b81856117e9565b935061161b81856020860161184b565b6116248161187b565b9093019392505050565b600061163b601b836117e9565b7f536166654d6174683a206164646974696f6e206f766572666c6f770000000000815260200192915050565b60006116746021836117e9565b7f536166654d6174683a206d756c7469706c69636174696f6e206f766572666c6f8152607760f81b602082015260400192915050565b6115808161180f565b61158081611828565b60006116c882846115a9565b50602001919050565b60006116dd82866115b5565b91506116e98285611598565b6002820191506116f982846115b5565b95945050505050565b6020810161059c8284611586565b6060810161171e8286611577565b61172b6020830185611586565b61143f60408301846116aa565b604081016117468285611577565b6105f660208301846116aa565b6020810161059c828461158f565b6020810161059c82846115e4565b6020810161059c82846115ed565b602080825281016105f681846115f6565b6020808252810161059c8161162e565b6020808252810161059c81611667565b6020810161059c82846116aa565b606081016117ca82866116aa565b61172b60208301856116aa565b6020810161059c82846116b3565b5190565b90815260200190565b600061059c8261181c565b151590565b6001600160f01b03191690565b90565b806105b581611885565b6001600160a01b031690565b60ff1690565b600061059c825b600061059c826117f2565b600061059c82611812565b60005b8381101561186657818101518382015260200161184e565b83811115611875576000848401525b50505050565b601f01601f191690565b6003811061188f57fe5b50565b61189b816117f2565b811461188f57600080fd5b61189b816117fd565b61189b8161180f56fe426f6e64696e673a20696e73756666696369656e74207374616765642062616c616e6365457175696c69627269756d20446f6c6c61722050726f746f636f6c205374616b65426f6e64696e673a20696e73756666696369656e7420746f74616c20626f6e646564a365627a7a723158205313961d5af1b6c7f8ee88b2cf91dececd03fbd491cf5e2e5be5ddd6a2c484be6c6578706572696d656e74616cf564736f6c63430005110040",
  "source": "/*\r\n    Copyright 2021 Equilibrium Dollar Protocol, based on the works of the Empty Set Squad and Dynamic Dollar Devs\r\n\r\n    Licensed under the Apache License, Version 2.0 (the \"License\");\r\n    you may not use this file except in compliance with the License.\r\n    You may obtain a copy of the License at\r\n\r\n    http://www.apache.org/licenses/LICENSE-2.0\r\n\r\n    Unless required by applicable law or agreed to in writing, software\r\n    distributed under the License is distributed on an \"AS IS\" BASIS,\r\n    WITHOUT WARRANTIES OR CONDITIONS OF ANY KIND, either express or implied.\r\n    See the License for the specific language governing permissions and\r\n    limitations under the License.\r\n*/\r\n\r\npragma solidity ^0.5.17;\r\npragma experimental ABIEncoderV2;\r\n\r\nimport \"@openzeppelin/contracts/math/SafeMath.sol\";\r\nimport \"./Setters.sol\";\r\nimport \"./Permission.sol\";\r\nimport \"../external/Require.sol\";\r\nimport \"../Constants.sol\";\r\n\r\ncontract Bonding is Setters, Permission {\r\n    using SafeMath for uint256;\r\n\r\n    bytes32 private constant FILE = \"Bonding\";\r\n\r\n    event Deposit(address indexed account, uint256 value);\r\n    event Withdraw(address indexed account, uint256 value);\r\n    event Bond(address indexed account, uint256 start, uint256 value, uint256 valueUnderlying);\r\n    event Unbond(address indexed account, uint256 start, uint256 value, uint256 valueUnderlying);\r\n\r\n    function step() internal {\r\n        Require.that(\r\n            epochTime() > epoch(),\r\n            FILE,\r\n            \"Still current epoch\"\r\n        );\r\n\r\n        snapshotTotalBonded();\r\n        incrementEpoch();\r\n    }\r\n\r\n    function deposit(uint256 value) external onlyFrozenOrLocked(msg.sender) {\r\n        dollar().transferFrom(msg.sender, address(this), value);\r\n        incrementBalanceOfStaged(msg.sender, value);\r\n\r\n        emit Deposit(msg.sender, value);\r\n    }\r\n\r\n    function withdraw(uint256 value) external onlyFrozenOrLocked(msg.sender) {\r\n        dollar().transfer(msg.sender, value);\r\n        decrementBalanceOfStaged(msg.sender, value, \"Bonding: insufficient staged balance\");\r\n\r\n        emit Withdraw(msg.sender, value);\r\n    }\r\n\r\n    function bond(uint256 value) external onlyFrozenOrFluid(msg.sender) {\r\n        unfreeze(msg.sender);\r\n\r\n        uint256 balance = totalBonded() == 0 ?\r\n            value.mul(Constants.getInitialStakeMultiple()) :\r\n            value.mul(totalSupply()).div(totalBonded());\r\n        incrementBalanceOf(msg.sender, balance);\r\n        incrementTotalBonded(value);\r\n        decrementBalanceOfStaged(msg.sender, value, \"Bonding: insufficient staged balance\");\r\n\r\n        emit Bond(msg.sender, epoch().add(1), balance, value);\r\n    }\r\n\r\n    function unbond(uint256 value) external onlyFrozenOrFluid(msg.sender) {\r\n        unfreeze(msg.sender);\r\n\r\n        uint256 staged = value.mul(balanceOfBonded(msg.sender)).div(balanceOf(msg.sender));\r\n        incrementBalanceOfStaged(msg.sender, staged);\r\n        decrementTotalBonded(staged, \"Bonding: insufficient total bonded\");\r\n        decrementBalanceOf(msg.sender, value, \"Bonding: insufficient balance\");\r\n\r\n        emit Unbond(msg.sender, epoch().add(1), value, staged);\r\n    }\r\n\r\n    function unbondUnderlying(uint256 value) external onlyFrozenOrFluid(msg.sender) {\r\n        unfreeze(msg.sender);\r\n\r\n        uint256 balance = value.mul(totalSupply()).div(totalBonded());\r\n        incrementBalanceOfStaged(msg.sender, value);\r\n        decrementTotalBonded(value, \"Bonding: insufficient total bonded\");\r\n        decrementBalanceOf(msg.sender, balance, \"Bonding: insufficient balance\");\r\n\r\n        emit Unbond(msg.sender, epoch().add(1), balance, value);\r\n    }\r\n}\r\n",
  "sourcePath": "D:\\10012021\\fix-project\\equilibrium-protocol\\contracts\\dao\\Bonding.sol",
  "compiler": {
    "name": "solc",
    "version": "0.5.17+commit.d19bba13.Emscripten.clang"
  },
  "schemaVersion": "3.3.3",
  "updatedAt": "2021-01-16T11:55:50.958Z",
  "devdoc": {
    "methods": {}
  },
  "userdoc": {
    "methods": {
      "balanceOfStaged(address)": {
        "notice": "Account"
      },
      "dollar()": {
        "notice": "Global"
      },
      "epoch()": {
        "notice": "Epoch"
      },
      "name()": {
        "notice": "ERC20 Interface"
      },
      "recordedVote(address,address)": {
        "notice": "Governance"
      },
      "transfer(address,uint256)": {
        "notice": "ERC20 Interface"
      }
    }
  }
}