{
  "contractName": "Implementation",
  "abi": [
    {
      "anonymous": false,
      "inputs": [
        {
          "indexed": true,
          "internalType": "uint256",
          "name": "epoch",
          "type": "uint256"
        },
        {
          "indexed": false,
          "internalType": "uint256",
          "name": "block",
          "type": "uint256"
        },
        {
          "indexed": false,
          "internalType": "uint256",
          "name": "timestamp",
          "type": "uint256"
        }
      ],
      "name": "Advance",
      "type": "event"
    },
    {
      "anonymous": false,
      "inputs": [
        {
          "indexed": true,
          "internalType": "address",
          "name": "account",
          "type": "address"
        },
        {
          "indexed": false,
          "internalType": "uint256",
          "name": "start",
          "type": "uint256"
        },
        {
          "indexed": false,
          "internalType": "uint256",
          "name": "value",
          "type": "uint256"
        },
        {
          "indexed": false,
          "internalType": "uint256",
          "name": "valueUnderlying",
          "type": "uint256"
        }
      ],
      "name": "Bond",
      "type": "event"
    },
    {
      "anonymous": false,
      "inputs": [
        {
          "indexed": true,
          "internalType": "address",
          "name": "account",
          "type": "address"
        },
        {
          "indexed": true,
          "internalType": "address",
          "name": "candidate",
          "type": "address"
        }
      ],
      "name": "Commit",
      "type": "event"
    },
    {
      "anonymous": false,
      "inputs": [
        {
          "indexed": true,
          "internalType": "address",
          "name": "owner",
          "type": "address"
        },
        {
          "indexed": true,
          "internalType": "address",
          "name": "spender",
          "type": "address"
        },
        {
          "indexed": false,
          "internalType": "uint256",
          "name": "value",
          "type": "uint256"
        }
      ],
      "name": "CouponApproval",
      "type": "event"
    },
    {
      "anonymous": false,
      "inputs": [
        {
          "indexed": true,
          "internalType": "address",
          "name": "account",
          "type": "address"
        },
        {
          "indexed": true,
          "internalType": "uint256",
          "name": "epoch",
          "type": "uint256"
        },
        {
          "indexed": false,
          "internalType": "uint256",
          "name": "couponAmount",
          "type": "uint256"
        }
      ],
      "name": "CouponBurn",
      "type": "event"
    },
    {
      "anonymous": false,
      "inputs": [
        {
          "indexed": true,
          "internalType": "uint256",
          "name": "epoch",
          "type": "uint256"
        },
        {
          "indexed": false,
          "internalType": "uint256",
          "name": "couponsExpired",
          "type": "uint256"
        },
        {
          "indexed": false,
          "internalType": "uint256",
          "name": "lessRedeemable",
          "type": "uint256"
        },
        {
          "indexed": false,
          "internalType": "uint256",
          "name": "lessDebt",
          "type": "uint256"
        },
        {
          "indexed": false,
          "internalType": "uint256",
          "name": "newBonded",
          "type": "uint256"
        }
      ],
      "name": "CouponExpiration",
      "type": "event"
    },
    {
      "anonymous": false,
      "inputs": [
        {
          "indexed": true,
          "internalType": "address",
          "name": "account",
          "type": "address"
        },
        {
          "indexed": true,
          "internalType": "uint256",
          "name": "epoch",
          "type": "uint256"
        },
        {
          "indexed": false,
          "internalType": "uint256",
          "name": "dollarAmount",
          "type": "uint256"
        },
        {
          "indexed": false,
          "internalType": "uint256",
          "name": "couponAmount",
          "type": "uint256"
        }
      ],
      "name": "CouponPurchase",
      "type": "event"
    },
    {
      "anonymous": false,
      "inputs": [
        {
          "indexed": true,
          "internalType": "address",
          "name": "account",
          "type": "address"
        },
        {
          "indexed": true,
          "internalType": "uint256",
          "name": "epoch",
          "type": "uint256"
        },
        {
          "indexed": false,
          "internalType": "uint256",
          "name": "couponAmount",
          "type": "uint256"
        }
      ],
      "name": "CouponRedemption",
      "type": "event"
    },
    {
      "anonymous": false,
      "inputs": [
        {
          "indexed": true,
          "internalType": "address",
          "name": "from",
          "type": "address"
        },
        {
          "indexed": true,
          "internalType": "address",
          "name": "to",
          "type": "address"
        },
        {
          "indexed": true,
          "internalType": "uint256",
          "name": "epoch",
          "type": "uint256"
        },
        {
          "indexed": false,
          "internalType": "uint256",
          "name": "value",
          "type": "uint256"
        }
      ],
      "name": "CouponTransfer",
      "type": "event"
    },
    {
      "anonymous": false,
      "inputs": [
        {
          "indexed": true,
          "internalType": "address",
          "name": "account",
          "type": "address"
        },
        {
          "indexed": false,
          "internalType": "uint256",
          "name": "value",
          "type": "uint256"
        }
      ],
      "name": "Deposit",
      "type": "event"
    },
    {
      "anonymous": false,
      "inputs": [
        {
          "indexed": true,
          "internalType": "address",
          "name": "account",
          "type": "address"
        },
        {
          "indexed": false,
          "internalType": "uint256",
          "name": "amount",
          "type": "uint256"
        }
      ],
      "name": "Incentivization",
      "type": "event"
    },
    {
      "anonymous": false,
      "inputs": [
        {
          "indexed": true,
          "internalType": "address",
          "name": "candidate",
          "type": "address"
        },
        {
          "indexed": true,
          "internalType": "address",
          "name": "account",
          "type": "address"
        },
        {
          "indexed": true,
          "internalType": "uint256",
          "name": "start",
          "type": "uint256"
        },
        {
          "indexed": false,
          "internalType": "uint256",
          "name": "period",
          "type": "uint256"
        }
      ],
      "name": "Proposal",
      "type": "event"
    },
    {
      "anonymous": false,
      "inputs": [
        {
          "indexed": true,
          "internalType": "uint256",
          "name": "epoch",
          "type": "uint256"
        },
        {
          "indexed": false,
          "internalType": "uint256",
          "name": "price",
          "type": "uint256"
        },
        {
          "indexed": false,
          "internalType": "uint256",
          "name": "newDebt",
          "type": "uint256"
        }
      ],
      "name": "SupplyDecrease",
      "type": "event"
    },
    {
      "anonymous": false,
      "inputs": [
        {
          "indexed": true,
          "internalType": "uint256",
          "name": "epoch",
          "type": "uint256"
        },
        {
          "indexed": false,
          "internalType": "uint256",
          "name": "price",
          "type": "uint256"
        },
        {
          "indexed": false,
          "internalType": "uint256",
          "name": "newRedeemable",
          "type": "uint256"
        },
        {
          "indexed": false,
          "internalType": "uint256",
          "name": "lessDebt",
          "type": "uint256"
        },
        {
          "indexed": false,
          "internalType": "uint256",
          "name": "newBonded",
          "type": "uint256"
        }
      ],
      "name": "SupplyIncrease",
      "type": "event"
    },
    {
      "anonymous": false,
      "inputs": [
        {
          "indexed": true,
          "internalType": "uint256",
          "name": "epoch",
          "type": "uint256"
        }
      ],
      "name": "SupplyNeutral",
      "type": "event"
    },
    {
      "anonymous": false,
      "inputs": [
        {
          "indexed": true,
          "internalType": "address",
          "name": "from",
          "type": "address"
        },
        {
          "indexed": true,
          "internalType": "address",
          "name": "to",
          "type": "address"
        },
        {
          "indexed": false,
          "internalType": "uint256",
          "name": "value",
          "type": "uint256"
        }
      ],
      "name": "Transfer",
      "type": "event"
    },
    {
      "anonymous": false,
      "inputs": [
        {
          "indexed": true,
          "internalType": "address",
          "name": "account",
          "type": "address"
        },
        {
          "indexed": false,
          "internalType": "uint256",
          "name": "start",
          "type": "uint256"
        },
        {
          "indexed": false,
          "internalType": "uint256",
          "name": "value",
          "type": "uint256"
        },
        {
          "indexed": false,
          "internalType": "uint256",
          "name": "valueUnderlying",
          "type": "uint256"
        }
      ],
      "name": "Unbond",
      "type": "event"
    },
    {
      "anonymous": false,
      "inputs": [
        {
          "indexed": true,
          "internalType": "address",
          "name": "implementation",
          "type": "address"
        }
      ],
      "name": "Upgraded",
      "type": "event"
    },
    {
      "anonymous": false,
      "inputs": [
        {
          "indexed": true,
          "internalType": "address",
          "name": "account",
          "type": "address"
        },
        {
          "indexed": true,
          "internalType": "address",
          "name": "candidate",
          "type": "address"
        },
        {
          "indexed": false,
          "internalType": "enum Candidate.Vote",
          "name": "vote",
          "type": "uint8"
        },
        {
          "indexed": false,
          "internalType": "uint256",
          "name": "bonded",
          "type": "uint256"
        }
      ],
      "name": "Vote",
      "type": "event"
    },
    {
      "anonymous": false,
      "inputs": [
        {
          "indexed": true,
          "internalType": "address",
          "name": "account",
          "type": "address"
        },
        {
          "indexed": false,
          "internalType": "uint256",
          "name": "value",
          "type": "uint256"
        }
      ],
      "name": "Withdraw",
      "type": "event"
    },
    {
      "constant": true,
      "inputs": [
        {
          "internalType": "address",
          "name": "owner",
          "type": "address"
        },
        {
          "internalType": "address",
          "name": "spender",
          "type": "address"
        }
      ],
      "name": "allowance",
      "outputs": [
        {
          "internalType": "uint256",
          "name": "",
          "type": "uint256"
        }
      ],
      "payable": false,
      "stateMutability": "view",
      "type": "function"
    },
    {
      "constant": true,
      "inputs": [
        {
          "internalType": "address",
          "name": "owner",
          "type": "address"
        },
        {
          "internalType": "address",
          "name": "spender",
          "type": "address"
        }
      ],
      "name": "allowanceCoupons",
      "outputs": [
        {
          "internalType": "uint256",
          "name": "",
          "type": "uint256"
        }
      ],
      "payable": false,
      "stateMutability": "view",
      "type": "function"
    },
    {
      "constant": false,
      "inputs": [
        {
          "internalType": "address",
          "name": "spender",
          "type": "address"
        },
        {
          "internalType": "uint256",
          "name": "amount",
          "type": "uint256"
        }
      ],
      "name": "approve",
      "outputs": [
        {
          "internalType": "bool",
          "name": "",
          "type": "bool"
        }
      ],
      "payable": false,
      "stateMutability": "nonpayable",
      "type": "function"
    },
    {
      "constant": false,
      "inputs": [
        {
          "internalType": "address",
          "name": "spender",
          "type": "address"
        },
        {
          "internalType": "uint256",
          "name": "amount",
          "type": "uint256"
        }
      ],
      "name": "approveCoupons",
      "outputs": [],
      "payable": false,
      "stateMutability": "nonpayable",
      "type": "function"
    },
    {
      "constant": true,
      "inputs": [
        {
          "internalType": "address",
          "name": "candidate",
          "type": "address"
        }
      ],
      "name": "approveFor",
      "outputs": [
        {
          "internalType": "uint256",
          "name": "",
          "type": "uint256"
        }
      ],
      "payable": false,
      "stateMutability": "view",
      "type": "function"
    },
    {
      "constant": true,
      "inputs": [
        {
          "internalType": "address",
          "name": "account",
          "type": "address"
        }
      ],
      "name": "balanceOf",
      "outputs": [
        {
          "internalType": "uint256",
          "name": "",
          "type": "uint256"
        }
      ],
      "payable": false,
      "stateMutability": "view",
      "type": "function"
    },
    {
      "constant": true,
      "inputs": [
        {
          "internalType": "address",
          "name": "account",
          "type": "address"
        }
      ],
      "name": "balanceOfBonded",
      "outputs": [
        {
          "internalType": "uint256",
          "name": "",
          "type": "uint256"
        }
      ],
      "payable": false,
      "stateMutability": "view",
      "type": "function"
    },
    {
      "constant": true,
      "inputs": [
        {
          "internalType": "address",
          "name": "account",
          "type": "address"
        },
        {
          "internalType": "uint256",
          "name": "epoch",
          "type": "uint256"
        }
      ],
      "name": "balanceOfCoupons",
      "outputs": [
        {
          "internalType": "uint256",
          "name": "",
          "type": "uint256"
        }
      ],
      "payable": false,
      "stateMutability": "view",
      "type": "function"
    },
    {
      "constant": true,
      "inputs": [
        {
          "internalType": "address",
          "name": "account",
          "type": "address"
        }
      ],
      "name": "balanceOfStaged",
      "outputs": [
        {
          "internalType": "uint256",
          "name": "",
          "type": "uint256"
        }
      ],
      "payable": false,
      "stateMutability": "view",
      "type": "function"
    },
    {
      "constant": false,
      "inputs": [
        {
          "internalType": "uint256",
          "name": "value",
          "type": "uint256"
        }
      ],
      "name": "bond",
      "outputs": [],
      "payable": false,
      "stateMutability": "nonpayable",
      "type": "function"
    },
    {
      "constant": true,
      "inputs": [
        {
          "internalType": "uint256",
          "name": "epoch",
          "type": "uint256"
        }
      ],
      "name": "bootstrappingAt",
      "outputs": [
        {
          "internalType": "bool",
          "name": "",
          "type": "bool"
        }
      ],
      "payable": false,
      "stateMutability": "view",
      "type": "function"
    },
    {
      "constant": false,
      "inputs": [
        {
          "internalType": "address",
          "name": "candidate",
          "type": "address"
        }
      ],
      "name": "commit",
      "outputs": [],
      "payable": false,
      "stateMutability": "nonpayable",
      "type": "function"
    },
    {
      "constant": true,
      "inputs": [
        {
          "internalType": "uint256",
          "name": "amount",
          "type": "uint256"
        }
      ],
      "name": "couponPremium",
      "outputs": [
        {
          "internalType": "uint256",
          "name": "",
          "type": "uint256"
        }
      ],
      "payable": false,
      "stateMutability": "view",
      "type": "function"
    },
    {
      "constant": true,
      "inputs": [
        {
          "internalType": "uint256",
          "name": "couponEpoch",
          "type": "uint256"
        },
        {
          "internalType": "uint256",
          "name": "couponAmount",
          "type": "uint256"
        }
      ],
      "name": "couponRedemptionPenalty",
      "outputs": [
        {
          "internalType": "uint256",
          "name": "",
          "type": "uint256"
        }
      ],
      "payable": false,
      "stateMutability": "view",
      "type": "function"
    },
    {
      "constant": true,
      "inputs": [
        {
          "internalType": "uint256",
          "name": "epoch",
          "type": "uint256"
        }
      ],
      "name": "couponsExpiration",
      "outputs": [
        {
          "internalType": "uint256",
          "name": "",
          "type": "uint256"
        }
      ],
      "payable": false,
      "stateMutability": "view",
      "type": "function"
    },
    {
      "constant": true,
      "inputs": [],
      "name": "decimals",
      "outputs": [
        {
          "internalType": "uint8",
          "name": "",
          "type": "uint8"
        }
      ],
      "payable": false,
      "stateMutability": "view",
      "type": "function"
    },
    {
      "constant": false,
      "inputs": [
        {
          "internalType": "uint256",
          "name": "value",
          "type": "uint256"
        }
      ],
      "name": "deposit",
      "outputs": [],
      "payable": false,
      "stateMutability": "nonpayable",
      "type": "function"
    },
    {
      "constant": true,
      "inputs": [],
      "name": "dollar",
      "outputs": [
        {
          "internalType": "contract IDollar",
          "name": "",
          "type": "address"
        }
      ],
      "payable": false,
      "stateMutability": "view",
      "type": "function"
    },
    {
      "constant": false,
      "inputs": [
        {
          "internalType": "address",
          "name": "candidate",
          "type": "address"
        }
      ],
      "name": "emergencyCommit",
      "outputs": [],
      "payable": false,
      "stateMutability": "nonpayable",
      "type": "function"
    },
    {
      "constant": true,
      "inputs": [],
      "name": "epoch",
      "outputs": [
        {
          "internalType": "uint256",
          "name": "",
          "type": "uint256"
        }
      ],
      "payable": false,
      "stateMutability": "view",
      "type": "function"
    },
    {
      "constant": true,
      "inputs": [],
      "name": "epochTime",
      "outputs": [
        {
          "internalType": "uint256",
          "name": "",
          "type": "uint256"
        }
      ],
      "payable": false,
      "stateMutability": "view",
      "type": "function"
    },
    {
      "constant": true,
      "inputs": [
        {
          "internalType": "uint256",
          "name": "epoch",
          "type": "uint256"
        }
      ],
      "name": "expiringCoupons",
      "outputs": [
        {
          "internalType": "uint256",
          "name": "",
          "type": "uint256"
        }
      ],
      "payable": false,
      "stateMutability": "view",
      "type": "function"
    },
    {
      "constant": true,
      "inputs": [
        {
          "internalType": "uint256",
          "name": "epoch",
          "type": "uint256"
        },
        {
          "internalType": "uint256",
          "name": "i",
          "type": "uint256"
        }
      ],
      "name": "expiringCouponsAtIndex",
      "outputs": [
        {
          "internalType": "uint256",
          "name": "",
          "type": "uint256"
        }
      ],
      "payable": false,
      "stateMutability": "view",
      "type": "function"
    },
    {
      "constant": true,
      "inputs": [],
      "name": "implementation",
      "outputs": [
        {
          "internalType": "address",
          "name": "impl",
          "type": "address"
        }
      ],
      "payable": false,
      "stateMutability": "view",
      "type": "function"
    },
    {
      "constant": true,
      "inputs": [
        {
          "internalType": "address",
          "name": "candidate",
          "type": "address"
        }
      ],
      "name": "isInitialized",
      "outputs": [
        {
          "internalType": "bool",
          "name": "",
          "type": "bool"
        }
      ],
      "payable": false,
      "stateMutability": "view",
      "type": "function"
    },
    {
      "constant": true,
      "inputs": [
        {
          "internalType": "address",
          "name": "candidate",
          "type": "address"
        }
      ],
      "name": "isNominated",
      "outputs": [
        {
          "internalType": "bool",
          "name": "",
          "type": "bool"
        }
      ],
      "payable": false,
      "stateMutability": "view",
      "type": "function"
    },
    {
      "constant": true,
      "inputs": [],
      "name": "name",
      "outputs": [
        {
          "internalType": "string",
          "name": "",
          "type": "string"
        }
      ],
      "payable": false,
      "stateMutability": "view",
      "type": "function"
    },
    {
      "constant": true,
      "inputs": [],
      "name": "oracle",
      "outputs": [
        {
          "internalType": "contract IOracle",
          "name": "",
          "type": "address"
        }
      ],
      "payable": false,
      "stateMutability": "view",
      "type": "function"
    },
    {
      "constant": true,
      "inputs": [
        {
          "internalType": "uint256",
          "name": "epoch",
          "type": "uint256"
        }
      ],
      "name": "outstandingCoupons",
      "outputs": [
        {
          "internalType": "uint256",
          "name": "",
          "type": "uint256"
        }
      ],
      "payable": false,
      "stateMutability": "view",
      "type": "function"
    },
    {
      "constant": true,
      "inputs": [
        {
          "internalType": "address",
          "name": "candidate",
          "type": "address"
        }
      ],
      "name": "periodFor",
      "outputs": [
        {
          "internalType": "uint256",
          "name": "",
          "type": "uint256"
        }
      ],
      "payable": false,
      "stateMutability": "view",
      "type": "function"
    },
    {
      "constant": true,
      "inputs": [],
      "name": "pool",
      "outputs": [
        {
          "internalType": "address",
          "name": "",
          "type": "address"
        }
      ],
      "payable": false,
      "stateMutability": "view",
      "type": "function"
    },
    {
      "constant": false,
      "inputs": [
        {
          "internalType": "uint256",
          "name": "dollarAmount",
          "type": "uint256"
        }
      ],
      "name": "purchaseCoupons",
      "outputs": [
        {
          "internalType": "uint256",
          "name": "",
          "type": "uint256"
        }
      ],
      "payable": false,
      "stateMutability": "nonpayable",
      "type": "function"
    },
    {
      "constant": true,
      "inputs": [
        {
          "internalType": "address",
          "name": "account",
          "type": "address"
        },
        {
          "internalType": "address",
          "name": "candidate",
          "type": "address"
        }
      ],
      "name": "recordedVote",
      "outputs": [
        {
          "internalType": "enum Candidate.Vote",
          "name": "",
          "type": "uint8"
        }
      ],
      "payable": false,
      "stateMutability": "view",
      "type": "function"
    },
    {
      "constant": false,
      "inputs": [
        {
          "internalType": "uint256",
          "name": "couponEpoch",
          "type": "uint256"
        },
        {
          "internalType": "uint256",
          "name": "couponAmount",
          "type": "uint256"
        },
        {
          "internalType": "uint256",
          "name": "minOutput",
          "type": "uint256"
        }
      ],
      "name": "redeemCoupons",
      "outputs": [],
      "payable": false,
      "stateMutability": "nonpayable",
      "type": "function"
    },
    {
      "constant": false,
      "inputs": [
        {
          "internalType": "uint256",
          "name": "couponEpoch",
          "type": "uint256"
        },
        {
          "internalType": "uint256",
          "name": "couponAmount",
          "type": "uint256"
        }
      ],
      "name": "redeemCoupons",
      "outputs": [],
      "payable": false,
      "stateMutability": "nonpayable",
      "type": "function"
    },
    {
      "constant": true,
      "inputs": [
        {
          "internalType": "address",
          "name": "candidate",
          "type": "address"
        }
      ],
      "name": "rejectFor",
      "outputs": [
        {
          "internalType": "uint256",
          "name": "",
          "type": "uint256"
        }
      ],
      "payable": false,
      "stateMutability": "view",
      "type": "function"
    },
    {
      "constant": true,
      "inputs": [
        {
          "internalType": "address",
          "name": "candidate",
          "type": "address"
        }
      ],
      "name": "startFor",
      "outputs": [
        {
          "internalType": "uint256",
          "name": "",
          "type": "uint256"
        }
      ],
      "payable": false,
      "stateMutability": "view",
      "type": "function"
    },
    {
      "constant": true,
      "inputs": [
        {
          "internalType": "address",
          "name": "account",
          "type": "address"
        }
      ],
      "name": "statusOf",
      "outputs": [
        {
          "internalType": "enum Account.Status",
          "name": "",
          "type": "uint8"
        }
      ],
      "payable": false,
      "stateMutability": "view",
      "type": "function"
    },
    {
      "constant": true,
      "inputs": [],
      "name": "symbol",
      "outputs": [
        {
          "internalType": "string",
          "name": "",
          "type": "string"
        }
      ],
      "payable": false,
      "stateMutability": "view",
      "type": "function"
    },
    {
      "constant": true,
      "inputs": [],
      "name": "totalBonded",
      "outputs": [
        {
          "internalType": "uint256",
          "name": "",
          "type": "uint256"
        }
      ],
      "payable": false,
      "stateMutability": "view",
      "type": "function"
    },
    {
      "constant": true,
      "inputs": [
        {
          "internalType": "uint256",
          "name": "epoch",
          "type": "uint256"
        }
      ],
      "name": "totalBondedAt",
      "outputs": [
        {
          "internalType": "uint256",
          "name": "",
          "type": "uint256"
        }
      ],
      "payable": false,
      "stateMutability": "view",
      "type": "function"
    },
    {
      "constant": true,
      "inputs": [],
      "name": "totalCoupons",
      "outputs": [
        {
          "internalType": "uint256",
          "name": "",
          "type": "uint256"
        }
      ],
      "payable": false,
      "stateMutability": "view",
      "type": "function"
    },
    {
      "constant": true,
      "inputs": [],
      "name": "totalDebt",
      "outputs": [
        {
          "internalType": "uint256",
          "name": "",
          "type": "uint256"
        }
      ],
      "payable": false,
      "stateMutability": "view",
      "type": "function"
    },
    {
      "constant": true,
      "inputs": [],
      "name": "totalNet",
      "outputs": [
        {
          "internalType": "uint256",
          "name": "",
          "type": "uint256"
        }
      ],
      "payable": false,
      "stateMutability": "view",
      "type": "function"
    },
    {
      "constant": true,
      "inputs": [],
      "name": "totalRedeemable",
      "outputs": [
        {
          "internalType": "uint256",
          "name": "",
          "type": "uint256"
        }
      ],
      "payable": false,
      "stateMutability": "view",
      "type": "function"
    },
    {
      "constant": true,
      "inputs": [],
      "name": "totalStaged",
      "outputs": [
        {
          "internalType": "uint256",
          "name": "",
          "type": "uint256"
        }
      ],
      "payable": false,
      "stateMutability": "view",
      "type": "function"
    },
    {
      "constant": true,
      "inputs": [],
      "name": "totalSupply",
      "outputs": [
        {
          "internalType": "uint256",
          "name": "",
          "type": "uint256"
        }
      ],
      "payable": false,
      "stateMutability": "view",
      "type": "function"
    },
    {
      "constant": false,
      "inputs": [
        {
          "internalType": "address",
          "name": "recipient",
          "type": "address"
        },
        {
          "internalType": "uint256",
          "name": "amount",
          "type": "uint256"
        }
      ],
      "name": "transfer",
      "outputs": [
        {
          "internalType": "bool",
          "name": "",
          "type": "bool"
        }
      ],
      "payable": false,
      "stateMutability": "nonpayable",
      "type": "function"
    },
    {
      "constant": false,
      "inputs": [
        {
          "internalType": "address",
          "name": "sender",
          "type": "address"
        },
        {
          "internalType": "address",
          "name": "recipient",
          "type": "address"
        },
        {
          "internalType": "uint256",
          "name": "epoch",
          "type": "uint256"
        },
        {
          "internalType": "uint256",
          "name": "amount",
          "type": "uint256"
        }
      ],
      "name": "transferCoupons",
      "outputs": [],
      "payable": false,
      "stateMutability": "nonpayable",
      "type": "function"
    },
    {
      "constant": false,
      "inputs": [
        {
          "internalType": "address",
          "name": "sender",
          "type": "address"
        },
        {
          "internalType": "address",
          "name": "recipient",
          "type": "address"
        },
        {
          "internalType": "uint256",
          "name": "amount",
          "type": "uint256"
        }
      ],
      "name": "transferFrom",
      "outputs": [
        {
          "internalType": "bool",
          "name": "",
          "type": "bool"
        }
      ],
      "payable": false,
      "stateMutability": "nonpayable",
      "type": "function"
    },
    {
      "constant": false,
      "inputs": [
        {
          "internalType": "uint256",
          "name": "value",
          "type": "uint256"
        }
      ],
      "name": "unbond",
      "outputs": [],
      "payable": false,
      "stateMutability": "nonpayable",
      "type": "function"
    },
    {
      "constant": false,
      "inputs": [
        {
          "internalType": "uint256",
          "name": "value",
          "type": "uint256"
        }
      ],
      "name": "unbondUnderlying",
      "outputs": [],
      "payable": false,
      "stateMutability": "nonpayable",
      "type": "function"
    },
    {
      "constant": false,
      "inputs": [
        {
          "internalType": "address",
          "name": "candidate",
          "type": "address"
        },
        {
          "internalType": "enum Candidate.Vote",
          "name": "vote",
          "type": "uint8"
        }
      ],
      "name": "vote",
      "outputs": [],
      "payable": false,
      "stateMutability": "nonpayable",
      "type": "function"
    },
    {
      "constant": true,
      "inputs": [
        {
          "internalType": "address",
          "name": "candidate",
          "type": "address"
        }
      ],
      "name": "votesFor",
      "outputs": [
        {
          "internalType": "uint256",
          "name": "",
          "type": "uint256"
        }
      ],
      "payable": false,
      "stateMutability": "view",
      "type": "function"
    },
    {
      "constant": false,
      "inputs": [
        {
          "internalType": "uint256",
          "name": "value",
          "type": "uint256"
        }
      ],
      "name": "withdraw",
      "outputs": [],
      "payable": false,
      "stateMutability": "nonpayable",
      "type": "function"
    },
    {
      "constant": false,
      "inputs": [],
      "name": "initialize",
      "outputs": [],
      "payable": false,
      "stateMutability": "nonpayable",
      "type": "function"
    },
    {
      "constant": false,
      "inputs": [],
      "name": "advance",
      "outputs": [],
      "payable": false,
      "stateMutability": "nonpayable",
      "type": "function"
    }
  ],
  "bytecode": "0x608060405234801561001057600080fd5b5061451c806100206000396000f3fe608060405234801561001057600080fd5b50600436106103825760003560e01c80638129fc1c116101de578063bc0b1df61161010f578063d8f54138116100ad578063ea105ac71161007c578063ea105ac714610714578063f1b7cf491461071c578063fc7b9c181461072f578063ffbe3b731461073757610382565b8063d8f54138146106cd578063dd62ed3e146106e0578063df9a2b1c146106ee578063e5f55c7e1461070157610382565b8063c9aff70c116100e9578063c9aff70c1461068c578063cf0237791461069f578063d60b347f146106a7578063d6a9cf08146106ba57610382565b8063bc0b1df614610653578063bc7513e214610666578063bceb514d1461067957610382565b80639a649edc1161017c578063a50cd8e711610156578063a50cd8e714610625578063a6c409f114610638578063a9059cbb146103ba578063b6b55f251461064057610382565b80639a649edc146105f75780639f6e1b26146105ff578063a1eb31e81461061257610382565b8063900cf0cf116101b8578063900cf0cf146105c157806395d89b41146105c957806397a5d5b5146105d15780639940686e146105e457610382565b80638129fc1c14610593578063825ad6071461059b57806386cf9f14146105ae57610382565b8063369e8c1d116102b857806351adeb57116102565780636a39e328116102305780636a39e3281461055257806370a082311461056557806375d5024b146105785780637dc0d1d01461058b57610382565b806351adeb57146105225780635c60da1b14610537578063646680221461053f57610382565b806344d96e951161029257806344d96e95146104ec57806347c05069146104f45780634c736099146105075780635053e4611461051a57610382565b8063369e8c1d146104a65780633a3e6c81146104b95780633fbba9a6146104cc57610382565b80631edbcf6c116103255780632e1a7d4d116102ff5780632e1a7d4d146104585780632f7f889e1461046b578063313ce5671461047e578063353a420c1461049357610382565b80631edbcf6c1461042a57806323b872dd1461043257806327de9e321461044557610382565b806310e95b6c1161036157806310e95b6c146103da57806315e14bf6146103fa57806316f0115b1461040d57806318160ddd1461042257610382565b80625edd371461038757806306fdde031461039c578063095ea7b3146103ba575b600080fd5b61039a610395366004613c89565b61074a565b005b6103a461086d565b6040516103b191906141e1565b60405180910390f35b6103cd6103c8366004613d1a565b61088e565b6040516103b191906141a9565b6103ed6103e8366004613d98565b610897565b6040516103b19190614262565b6103ed610408366004613be4565b6108af565b6104156108cd565b6040516103b1919061413c565b6103ed6108dc565b6103ed6108e2565b6103cd610440366004613c3c565b6108e8565b61039a610453366004613d98565b6108f2565b61039a610466366004613d98565b610a3c565b61039a610479366004613d1a565b610b74565b610486610bf4565b6040516103b191906142ce565b6103ed6104a1366004613be4565b610bf9565b61039a6104b4366004613be4565b610c17565b6103cd6104c7366004613be4565b610d65565b6104df6104da366004613c02565b610d82565b6040516103b191906141c5565b6103ed610db5565b61039a610502366004613be4565b610dbb565b6103ed610515366004613dd4565b610eae565b6103ed610ede565b61052a610f01565b6040516103b191906141b7565b610415610f10565b6103ed61054d366004613be4565b610f35565b6103ed610560366004613d98565b610f53565b6103ed610573366004613be4565b610f68565b6103cd610586366004613d98565b610f86565b61052a610f99565b61039a610fa8565b6103ed6105a9366004613be4565b611054565b6103ed6105bc366004613be4565b611094565b6103ed6110af565b6103a46110b5565b6104df6105df366004613be4565b6110d4565b61039a6105f2366004613d98565b611139565b6103ed611207565b6103ed61060d366004613c02565b61120d565b6103ed610620366004613dd4565b61123c565b6103ed610633366004613be4565b611362565b6103ed611379565b61039a61064e366004613d98565b611403565b61039a610661366004613df3565b6114db565b6103ed610674366004613d1a565b61160f565b61039a610687366004613cea565b611653565b6103ed61069a366004613d98565b6118ee565b6103ed611903565b6103cd6106b5366004613be4565b611909565b61039a6106c8366004613dd4565b61192a565b6103ed6106db366004613d98565b611a26565b6103ed6103c8366004613c02565b61039a6106fc366004613d98565b611ab1565b6103ed61070f366004613d98565b611b6f565b61039a611c61565b6103ed61072a366004613be4565b611d14565b6103ed611d2f565b6103ed610745366004613d98565b611d35565b6001600160a01b0384166107795760405162461bcd60e51b815260040161077090614242565b60405180910390fd5b6001600160a01b03831661079f5760405162461bcd60e51b815260040161077090614202565b6107c38483836040518060600160405280602381526020016143da60239139611d47565b6107ce838383611df2565b336001600160a01b038516148015906107f257506000196107ef853361120d565b14155b1561081b5761081b84338360405180606001604052806024815260200161442160249139611e99565b81836001600160a01b0316856001600160a01b03167f0f1dbb1ccbe57a1590c7baad7b01d581b730c9ebc535dcde4345e6db424063d88460405161085f9190614262565b60405180910390a450505050565b60606040518060600160405280602181526020016144456021913990505b90565b60005b92915050565b6000818152600d60205260409020600201545b919050565b6001600160a01b03166000908152600e602052604090206001015490565b600b546001600160a01b031690565b60035490565b60065490565b60005b9392505050565b3361093960025b610902836110d4565b600281111561090d57fe5b1415692832b936b4b9b9b4b7b760b11b72139bdd08199c9bde995b881bdc88199b1d5a59606a1b611f0a565b61094233611f5f565b600061097561095033610f68565b61096961095c33611054565b869063ffffffff611f8916565b9063ffffffff611fc316565b90506109813382612005565b6109a38160405180606001604052806022815260200161446660229139612061565b6109e333846040518060400160405280601d81526020017f426f6e64696e673a20696e73756666696369656e742062616c616e636500000081525061207c565b337f93530ac0ee8c50e696e13c5ac62355d0c0ba4bd943620d5bda1eb08b64ae7512610a1e6001610a126110af565b9063ffffffff61212716565b8584604051610a2f9392919061427e565b60405180910390a2505050565b33610a8460015b610a4c836110d4565b6002811115610a5757fe5b1415692832b936b4b9b9b4b7b760b11b73139bdd08199c9bde995b881bdc881b1bd8dad95960621b611f0a565b610a8c610f01565b6001600160a01b031663a9059cbb33846040518363ffffffff1660e01b8152600401610ab9929190614172565b602060405180830381600087803b158015610ad357600080fd5b505af1158015610ae7573d6000803e3d6000fd5b505050506040513d601f19601f82011682018060405250610b0b9190810190613d4a565b50610b2f33836040518060600160405280602481526020016143fd6024913961214c565b336001600160a01b03167f884edad9ce6fa2440d8a54cc123490eb96d2768479d49ff9c7366125a942436483604051610b689190614262565b60405180910390a25050565b6001600160a01b038216610b9a5760405162461bcd60e51b815260040161077090614232565b610ba53383836121ab565b816001600160a01b0316336001600160a01b03167f8ff27e6b95060c1ca851e7c2c28af8b413eb1a8bcb637b0290da9543a709cce383604051610be89190614262565b60405180910390a35050565b601290565b6001600160a01b03166000908152600e602052604090206003015490565b610c43610c2382610d65565b6523b7bb32b93760d11b6c139bdd081b9bdb5a5b985d1959609a1b611f0a565b6000610c6b6001610c5f610c56856108af565b610a1286611d14565b9063ffffffff6121db16565b9050610c9681610c796110af565b116523b7bb32b93760d11b68139bdd08195b99195960ba1b611f0a565b610ced610cca610ca461221d565b610cbe610cb086611362565b610cb986611d35565b61223f565b9063ffffffff61226e16565b6523b7bb32b93760d11b6f4d75737420686176652071756f726f6d60801b611f0a565b610d22610cf983610bf9565b610d0284610f35565b116523b7bb32b93760d11b6b139bdd08185c1c1c9bdd995960a21b611f0a565b610d2b82612284565b6040516001600160a01b0383169033907f815ca4497ab9fc80c76f210e6e842a5e198e195aa136034557eee144f790e7bb90600090a35050565b6001600160a01b03166000908152600e6020526040902054151590565b6001600160a01b038082166000908152600e60209081526040808320938616835260049093019052205460ff1692915050565b60045490565b610dc7610c2382610d65565b610e05610ddd610dd5612370565b610a126110af565b610de5610ede565b116523b7bb32b93760d11b6b115c1bd8da081cde5b98d95960a21b611f0a565b610e57610e27610e13612375565b610cbe610e1f85610f35565b610cb96108dc565b6523b7bb32b93760d11b7f4d7573742068617665207375706572206d616a6f726974790000000000000000611f0a565b610e6c610e6382610bf9565b610d0283610f35565b610e7581612284565b6040516001600160a01b0382169033907f815ca4497ab9fc80c76f210e6e842a5e198e195aa136034557eee144f790e7bb90600090a350565b6000828152600d60205260408120600301805483908110610ecb57fe5b9060005260206000200154905092915050565b6000610ee8613b46565b610ef0612397565b9050610efb816123c6565b91505090565b6009546001600160a01b031690565b7f360894a13ba1a3210667c828492db98dca3e2076cc3735a920a3ca505d382bbc5490565b6001600160a01b03166000908152600e602052604090206002015490565b6000908152600d602052604090206003015490565b6001600160a01b03166000908152600c602052604090206001015490565b6000610f906123e8565b90911115919050565b600a546001600160a01b031690565b610fe1610fb66106b5610f10565b15692832b936b4b9b9b4b7b760b11b72105b1c9958591e481a5b9a5d1a585b1a5e9959606a1b611f0a565b610ff1610fec610f10565b6123ee565b61100433680ad78ebc5ac6200000612415565b61102b7380cd8eadfd7e7829c087ee614901820807c72633680ad78ebc5ac6200000612415565b61105273407d2c4aac97511347d0678f293a1d50ad69ce1168056bc75e2d63100000612415565b565b60008061105f6108dc565b9050806110705760009150506108aa565b6108eb8161096961108086610f68565b611088610db5565b9063ffffffff611f8916565b6001600160a01b03166000908152600c602052604090205490565b60025490565b6040805180820190915260058152644551442d5360d81b602082015290565b60006110de6110af565b6001600160a01b0383166000908152600c60205260409020600501541115611108575060026108aa565b6001600160a01b0382166000908152600c602052604090206004015461112c6110af565b101561088e576001610891565b3361114460026108f9565b61114d33611f5f565b6000611157610db5565b1561117757611172611167610db5565b61096961095c6108dc565b61118f565b61118f6111826124c1565b849063ffffffff611f8916565b905061119b33826124c8565b6111a483612564565b6111c733846040518060600160405280602481526020016143fd6024913961214c565b337f44002fdef5a0c2d2e4e05572e9780b95aef97e0e93ffd7cc076b09fa78ff2b466111f66001610a126110af565b8386604051610a2f9392919061427e565b60085490565b6001600160a01b039182166000908152600c602090815260408083209390941682526003909201909152205490565b600080611247612397565b60400151428161125357fe5b0690506000846112616110af565b039050600061126e61257d565b8261127761257d565b03611280612583565b028161128857fe5b0490508083111561129f5760009350505050610891565b6112a7613b67565b6112fa6040518060200160405280856112be61257d565b038152506112ee60405180602001604052806112d861257d565b90526112e2612589565b9063ffffffff6125ab16565b9063ffffffff6125d916565b9050611304613b67565b604080516020808201835287860382528251908101909252848252611334916112ee90859063ffffffff6125ab16565b6040805160208101909152888152909150611355908263ffffffff6125d916565b5198975050505050505050565b600061089161137083610bf9565b610a1284610f35565b60006113fe611386611d2f565b61138e610f01565b6001600160a01b03166318160ddd6040518163ffffffff1660e01b815260040160206040518083038186803b1580156113c657600080fd5b505afa1580156113da573d6000803e3d6000fd5b505050506040513d601f19601f82011682018060405250610c5f9190810190613db6565b905090565b3361140e6001610a43565b611416610f01565b6001600160a01b03166323b872dd3330856040518463ffffffff1660e01b81526004016114459392919061414a565b602060405180830381600087803b15801561145f57600080fd5b505af1158015611473573d6000803e3d6000fd5b505050506040513d601f19601f820116820180604052506114979190810190613d4a565b506114a23383612005565b336001600160a01b03167fe1fffcc4923d04b559f4d29a8bfc6cda04eb5b0d3c460751c2402c5c5cc9109c83604051610b689190614262565b60026114e984610c5f6110af565b10156115075760405162461bcd60e51b815260040161077090614252565b61152b3384846040518060600160405280602381526020016143da60239139611d47565b6000611537848461123c565b9050808303611573838210156513585c9ad95d60d21b7f496e73756666696369656e74206f757470757420616d6f756e74000000000000611f0a565b61157d3382612607565b81156115c65784336001600160a01b03167f1cd1213d4276c260e84170b4a39025dc8398fbf744edee0709261769b456b94b846040516115bd9190614262565b60405180910390a35b84336001600160a01b03167f46e9903ae8ac9e9f0c9bc321b05965c1c036e7d4783758703f5cdfc4133c51b6836040516116009190614262565b60405180910390a35050505050565b600061161a826118ee565b61162657506000610891565b506001600160a01b03919091166000908152600c6020908152604080832093835260029093019052205490565b3361165e6001610a43565b61168f600061166c33610f68565b116523b7bb32b93760d11b6e4d7573742068617665207374616b6560881b611f0a565b61169883610d65565b61173b576116d86116a8336126b1565b6523b7bb32b93760d11b7f4e6f7420656e6f756768207374616b6520746f2070726f706f73650000000000611f0a565b6116e9836116e46126f9565b6126fe565b6116f16110af565b336001600160a01b0385167fd15e38a680a427478883cd2d32eb664cb6bb2090b0126a23ebaf3e3784b8c56b6117256126f9565b6040516117329190614262565b60405180910390a45b61176b61174a610c56856108af565b6117526110af565b106523b7bb32b93760d11b64115b99195960da1b611f0a565b600061177633610f68565b905060006117843386610d82565b905080600281111561179257fe5b84600281111561179e57fe5b14156117ab5750506118e9565b60028160028111156117b957fe5b14156117ff576117ff85836040518060400160405280601b81526020017f476f7665726e3a20496e73756666696369656e742072656a656374000000000081525061272a565b600181600281111561180d57fe5b14156118535761185385836040518060400160405280601c81526020017f476f7665726e3a20496e73756666696369656e7420617070726f76650000000081525061277b565b600284600281111561186157fe5b14156118715761187185836127cc565b600184600281111561187f57fe5b141561188f5761188f858361281b565b61189a33868661286a565b6118a433866128b4565b846001600160a01b0316336001600160a01b03167fbe50c78cbc15b0864819aadea36c6499da421b33c38e2ef19bebda583c708c7886856040516116009291906141d3565b505050565b6000908152600d602052604090206001015490565b60055490565b6001600160a01b03166000908152600e602052604090206005015460ff1690565b600261193883610c5f6110af565b10156119565760405162461bcd60e51b815260040161077090614252565b61197a3383836040518060600160405280602381526020016143da60239139611d47565b6000611986838361123c565b90508082036119953382612607565b81156119de5783336001600160a01b03167f1cd1213d4276c260e84170b4a39025dc8398fbf744edee0709261769b456b94b846040516119d59190614262565b60405180910390a35b83336001600160a01b03167f46e9903ae8ac9e9f0c9bc321b05965c1c036e7d4783758703f5cdfc4133c51b683604051611a189190614262565b60405180910390a350505050565b6000610891611a33610f01565b6001600160a01b03166318160ddd6040518163ffffffff1660e01b815260040160206040518083038186803b158015611a6b57600080fd5b505afa158015611a7f573d6000803e3d6000fd5b505050506040513d601f19601f82011682018060405250611aa39190810190613db6565b611aab611d2f565b84612915565b33611abc60026108f9565b611ac533611f5f565b6000611ad2611167610db5565b9050611ade3384612005565b611b008360405180606001604052806022815260200161446660229139612061565b611b4033826040518060400160405280601d81526020017f426f6e64696e673a20696e73756666696369656e742062616c616e636500000081525061207c565b337f93530ac0ee8c50e696e13c5ac62355d0c0ba4bd943620d5bda1eb08b64ae75126111f66001610a126110af565b6000611ba8600083116513585c9ad95d60d21b7f4d757374207075726368617365206e6f6e2d7a65726f20616d6f756e74000000611f0a565b611bd882611bb4611d2f565b10156513585c9ad95d60d21b6e139bdd08195b9bdd59da081919589d608a1b611f0a565b6000611be26110af565b90506000611bff611bf285611a26565b859063ffffffff61212716565b9050611c0b3385612942565b611c16338383611df2565b81336001600160a01b03167fbce252db29f761f815dc2e9ea60005af065efba6eb619d2a0b2a113fdeb614148684604051611c52929190614270565b60405180910390a39392505050565b6000611c6b612a53565b9050611c773382612415565b336001600160a01b03167fbb4f656853bc420ad6e4321622c07eefb4ed40e3f91b35553ce14a6dff4c098182604051611cb09190614262565b60405180910390a2611cc0612a5f565b611cc8612aaa565b611cd0612b3d565b611cd86110af565b7fc30b728d1c19e5db3678b8ea9e9a063a5655071e1a325c2f7fdbca48baa906004342604051611d09929190614270565b60405180910390a250565b6001600160a01b03166000908152600e602052604090205490565b60075490565b6000908152600d602052604090205490565b6001600160a01b0384166000908152600c60209081526040808320868452600201909152902054611d7f90838363ffffffff612b9716565b6001600160a01b0385166000908152600c60209081526040808320878452600201825280832093909355600d90522060010154611dc390838363ffffffff612b9716565b6000848152600d6020526040902060010155600854611de990838363ffffffff612b9716565b60085550505050565b6001600160a01b0383166000908152600c60209081526040808320858452600201909152902054611e29908263ffffffff61212716565b6001600160a01b0384166000908152600c60209081526040808320868452600201825280832093909355600d90522060010154611e6c908263ffffffff61212716565b6000838152600d6020526040902060010155600854611e91908263ffffffff61212716565b600855505050565b6001600160a01b038085166000908152600c602090815260408083209387168352600390930190522054611ed490838363ffffffff612b9716565b6001600160a01b039485166000908152600c60209081526040808320969097168252600390950190945293909220929092555050565b826118e957611f1882612bc3565b6101d160f51b611f2783612bc3565b604051602001611f399392919061410b565b60408051601f198184030181529082905262461bcd60e51b8252610770916004016141e1565b611f6a610dd5612c43565b6001600160a01b039091166000908152600c6020526040902060040155565b600082611f9857506000610891565b82820282848281611fa557fe5b04146108eb5760405162461bcd60e51b815260040161077090614212565b60006108eb83836040518060400160405280601a81526020017f536166654d6174683a206469766973696f6e206279207a65726f000000000000815250612c48565b6001600160a01b0382166000908152600c602052604090205461202e908263ffffffff61212716565b6001600160a01b0383166000908152600c602052604090205560055461205a908263ffffffff61212716565b6005555050565b60045461207590838363ffffffff612b9716565b6004555050565b6001600160a01b0383166000908152600c60205260409020600101546120a990838363ffffffff612b9716565b6001600160a01b0384166000908152600c60205260409020600101556003546120d990838363ffffffff612b9716565b6003556040516000906001600160a01b038516907fddf252ad1be2c89b69c2b068fc378daa952ba7f163c4a11628f55a4df523b3ef9061211a908690614262565b60405180910390a3505050565b6000828201838110156108eb5760405162461bcd60e51b8152600401610770906141f2565b6001600160a01b0383166000908152600c602052604090205461217690838363ffffffff612b9716565b6001600160a01b0384166000908152600c60205260409020556005546121a390838363ffffffff612b9716565b600555505050565b6001600160a01b039283166000908152600c60209081526040808320949095168252600390930190925291902055565b60006108eb83836040518060400160405280601e81526020017f536166654d6174683a207375627472616374696f6e206f766572666c6f770000815250612b97565b612225613b67565b506040805160208101909152670494654067e10000815290565b612247613b67565b604051806020016040528061226585670de0b6b3a764000086612c7f565b90529392505050565b600061227a8383612c95565b6002149392505050565b61228d81612cc7565b60408051600481526024810182526020810180516001600160e01b031663204a7f0760e21b17905290516000916060916001600160a01b038516916122d1916140ff565b600060405180830381855af49150503d806000811461230c576040519150601f19603f3d011682016040523d82523d6000602084013e612311565b606091505b50915091508181906123365760405162461bcd60e51b815260040161077091906141e1565b506040516001600160a01b038416907fbc7cd75a20ee27fd9adebab32041f755214dbc6bffa90cc0225b39da2e5c2d3b90600090a2505050565b600690565b61237d613b67565b506040805160208101909152670928ca80cfc20000815290565b61239f613b46565b60405180606001604052806000815260200163600450f08152602001610e10815250905090565b60006108918260000151610a1284604001516109698660200151610c5f612d10565b61016890565b6001600160a01b03166000908152600e60205260409020600501805460ff19166001179055565b61241d610f01565b6001600160a01b03166340c10f1983836040518363ffffffff1660e01b815260040161244a92919061419b565b602060405180830381600087803b15801561246457600080fd5b505af1158015612478573d6000803e3d6000fd5b505050506040513d601f19601f8201168201806040525061249c9190810190613d4a565b506124a86105866110af565b6124b5576124b581612d14565b6124bd612d31565b5050565b620f424090565b6001600160a01b0382166000908152600c60205260409020600101546124f4908263ffffffff61212716565b6001600160a01b0383166000908152600c6020526040902060010155600354612523908263ffffffff61212716565b6003556040516001600160a01b038316906000907fddf252ad1be2c89b69c2b068fc378daa952ba7f163c4a11628f55a4df523b3ef90610be8908590614262565b600454612577908263ffffffff61212716565b60045550565b6102d090565b610e1090565b612591613b67565b5060408051602081019091526706f05b59d3b20000815290565b6125b3613b67565b60405180602001604052806122658560000151670de0b6b3a76400008660000151612c7f565b6125e1613b67565b604051806020016040528061226585600001518560000151670de0b6b3a7640000612c7f565b61260f610f01565b6001600160a01b031663a9059cbb83836040518363ffffffff1660e01b815260040161263c92919061419b565b602060405180830381600087803b15801561265657600080fd5b505af115801561266a573d6000803e3d6000fd5b505050506040513d601f19601f8201168201806040525061268e9190810190613d4a565b506124b5816040518060600160405280602a81526020016144b0602a9139612e04565b60006126bb610db5565b6126c7575060006108aa565b6126cf613b67565b6126db610e1f84610f68565b90506108eb6126ec6001606461223f565b829063ffffffff61226e16565b601490565b6127066110af565b6001600160a01b039092166000908152600e60205260409020918255600190910155565b6001600160a01b0383166000908152600e602052604090206003015461275790838363ffffffff612b9716565b6001600160a01b039093166000908152600e60205260409020600301929092555050565b6001600160a01b0383166000908152600e60205260409020600201546127a890838363ffffffff612b9716565b6001600160a01b039093166000908152600e60205260409020600201929092555050565b6001600160a01b0382166000908152600e60205260409020600301546127f8908263ffffffff61212716565b6001600160a01b039092166000908152600e602052604090206003019190915550565b6001600160a01b0382166000908152600e6020526040902060020154612847908263ffffffff61212716565b6001600160a01b039092166000908152600e602052604090206002019190915550565b6001600160a01b038083166000908152600e6020908152604080832093871683526004909301905220805482919060ff191660018360028111156128aa57fe5b0217905550505050565b6001600160a01b0382166000908152600c6020526040812060050154906128e66128dd846108af565b610a1285611d14565b90508181111561290f576001600160a01b0384166000908152600c602052604090206005018190555b50505050565b600061293a61293583612929878787612e1f565b9063ffffffff612f8c16565b612fb3565b949350505050565b61294a610f01565b6001600160a01b03166323b872dd8330846040518463ffffffff1660e01b81526004016129799392919061418d565b602060405180830381600087803b15801561299357600080fd5b505af11580156129a7573d6000803e3d6000fd5b505050506040513d601f19601f820116820180604052506129cb9190810190613d4a565b506129d4610f01565b6001600160a01b03166342966c68826040518263ffffffff1660e01b81526004016129ff9190614262565b600060405180830381600087803b158015612a1957600080fd5b505af1158015612a2d573d6000803e3d6000fd5b505050506124b58160405180606001604052806028815260200161448860289139612fd0565b671bc16d674ec8000090565b612a9a612a6a6110af565b612a72610ede565b1166426f6e64696e6760c81b720a6e8d2d8d840c6eae4e4cadce840cae0dec6d606b1b611f0a565b612aa2612feb565b611052613012565b612ab2613b67565b612aba61302b565b9050612ac76126ec6130f3565b15612ae357612ad4613115565b612add8161311c565b50611052565b612afb612aee6130f3565b829063ffffffff6131d216565b15612b0957612add816131e6565b612b116110af565b6040517fff7db5a0dc69b02c191ba632db46961b7d0daa1bd30709ddba9b80ad0a15d2c090600090a250565b60005b612b4b6105606110af565b811015612b7357612b6b612b66612b606110af565b83610eae565b613260565b600101612b40565b506000612b81610dd561257d565b9050612b94612b8e6110af565b8261330c565b50565b60008184841115612bbb5760405162461bcd60e51b815260040161077091906141e1565b505050900390565b60608082604051602001612bd791906140ea565b60408051601f19818403018152919052905060205b8015612c2c57815160001990910190829082908110612c0757fe5b01602001516001600160f81b03191615612c2757600101815290506108aa565b612bec565b505060408051600081526020810190915292915050565b601890565b60008183612c695760405162461bcd60e51b815260040161077091906141e1565b506000838581612c7557fe5b0495945050505050565b600061293a82610969868663ffffffff611f8916565b805182516000911415612caa57506001610891565b8151835111612cba576000612cbd565b60025b60ff169392505050565b612cd08161333e565b612cec5760405162461bcd60e51b815260040161077090614222565b7f360894a13ba1a3210667c828492db98dca3e2076cc3735a920a3ca505d382bbc55565b4290565b612d1d81613344565b612d2d612d2861335d565b61337f565b612b945b611052612d52612d3f6108e2565b610a12612d4a611903565b610a12610db5565b612d5a610f01565b6001600160a01b03166370a08231306040518263ffffffff1660e01b8152600401612d85919061413c565b60206040518083038186803b158015612d9d57600080fd5b505afa158015612db1573d6000803e3d6000fd5b505050506040513d601f19601f82011682018060405250612dd59190810190613db6565b10156a21b7b6b83a3937b63632b960a91b74496e636f6e73697374656e742062616c616e63657360581b611f0a565b600654612e1890838363ffffffff612b9716565b6006555050565b612e27613b67565b612e2f613b67565b612e39848661223f565b9050612e43613b67565b612e4b61335d565b90506000612e5f878663ffffffff6121db16565b90506000612e73878763ffffffff6121db16565b9050612e7d613b67565b612e87828461223f565b9050612e99858563ffffffff61226e16565b15612f7557612eae818563ffffffff61226e16565b15612ec857612ebc84613432565b955050505050506108eb565b612ed0613b67565b612eda828661347e565b9050612ee4613b67565b612ef4868463ffffffff6134db16565b9050612efe613b67565b612f0787613432565b9050612f11613b67565b612f21898963ffffffff6134db16565b9050612f65612f36848363ffffffff61350416565b6112e2612f49858563ffffffff6125d916565b612f59888863ffffffff6125d916565b9063ffffffff61350416565b99505050505050505050506108eb565b612f7f818661347e565b9998505050505050505050565b612f94613b67565b604080516020810190915283518190612265908563ffffffff611f8916565b805160009061089190670de0b6b3a764000063ffffffff611fc316565b600754612fe490838363ffffffff612b9716565b6007555050565b612ff36108dc565b600d6000612fff6110af565b8152602081019190915260400160002055565b60025461302690600163ffffffff61212716565b600255565b613033613b67565b61303b613b67565b6000613045610f99565b6001600160a01b031663d4a3e9d76040518163ffffffff1660e01b81526004016040805180830381600087803b15801561307e57600080fd5b505af1158015613092573d6000803e3d6000fd5b505050506040513d601f19601f820116820180604052506130b69190810190613d68565b915091506130ca6105866001610c5f6110af565b156130e0576130d761352d565b9250505061088b565b806130ed576130d76130f3565b50905090565b6130fb613b67565b506040805160208101909152670de0b6b3a7640000815290565b6000600755565b613124613b67565b61314f61314a61313261354f565b6112e261313d6130f3565b869063ffffffff6134db16565b613571565b9050600061316e612935613161611379565b849063ffffffff612f8c16565b9050600080600061317e846135a5565b92509250925061318c6110af565b86516040517f32fcaa1e76ed9517f4749d8ec9a77dd5e7329456d740b9bf9665d900eef5e283916131c291879087908790614299565b60405180910390a2505050505050565b60006131de8383612c95565b159392505050565b6131ee613b67565b61320961314a836131fd6130f3565b9063ffffffff6134db16565b9050600061321b612935613161611379565b905061322681612d14565b61322e6110af565b83516040517f5e139d4b8080a4a00dcc151e8217694aeebae893936326aa22096924a990667791610a2f918590614270565b600061326b826118ee565b90506000808061327a85613711565b60006132846108e2565b90506000613290611207565b9050808211156132c5576132aa828263ffffffff6121db16565b94506132b585613754565b6132be856135a5565b9095509350505b867f753df65b37159bf237ae1fca97ba1bd57cf83bc9498f271a514a4d7bafe87bda878787876040516132fb9493929190614299565b60405180910390a250505050505050565b6000828152600d6020908152604080832060020184905592825291812060030180546001810182559082529190200155565b3b151590565b600754613357908263ffffffff61212716565b60075550565b613365613b67565b5060408051602081019091526704db732547630000815290565b60006133ff61293561338f610f01565b6001600160a01b03166318160ddd6040518163ffffffff1660e01b815260040160206040518083038186803b1580156133c757600080fd5b505afa1580156133db573d6000803e3d6000fd5b505050506040513d601f19601f820116820180604052506131619190810190613db6565b9050600061340b611d2f565b9050818111156118e9576000613427828463ffffffff6121db16565b905061290f816137db565b61343a613b67565b6108916134496001600361223f565b6131fd61347661346c6002613460886131fd6130f3565b9063ffffffff61381a16565b6112ee6003613870565b6112e26130f3565b613486613b67565b613496838363ffffffff6138a416565b156134ab576134a483613432565b9050610891565b6108eb6134ba6001600361223f565b6131fd6134766134cc876131fd6130f3565b6112ee61346c886131fd6130f3565b6134e3613b67565b6040805160208101909152825184518291612265919063ffffffff6121db16565b61350c613b67565b6040805160208101909152825184518291612265919063ffffffff61212716565b613535613b67565b5060408051602081019091526710ee4f8941fa0000815290565b613557613b67565b506040805160208101909152678ac7230489e80000815290565b613579613b67565b613581613b67565b6135896138ab565b905061359b838263ffffffff61226e16565b61089157826108eb565b60008080808080806135b56108e2565b905060006135c1611207565b90508082101561367e576135db818363ffffffff6121db16565b94506136036135f260646135ed6138cc565b6121db565b61096987606463ffffffff611f8916565b94508885116136125784613614565b885b945061363360646109696136266138cc565b889063ffffffff611f8916565b9250613645858463ffffffff6121db16565b9450613650836138d1565b61365985613965565b613669898463ffffffff6121db16565b985061367b898663ffffffff6121db16565b98505b6000613688611d2f565b905060008a11801561369a5750600081115b156136cc578981116136ac57806136ae565b895b94506136b9856137db565b6136c98a8663ffffffff6121db16565b99505b6136d4610db5565b6136dd57600099505b89156136ec576136ec8a6139f6565b85856136fe8c8763ffffffff61212716565b9850985098505050505050509193909250565b600061371c826118ee565b9050806137295750612b94565b60085461373c908263ffffffff6121db16565b600855506000908152600d6020526040812060010155565b61375c610f01565b6001600160a01b03166342966c68826040518263ffffffff1660e01b81526004016137879190614262565b600060405180830381600087803b1580156137a157600080fd5b505af11580156137b5573d6000803e3d6000fd5b50505050612d2d816040518060600160405280602a81526020016144b0602a9139612e04565b612d2d816040518060400160405280601c81526020017f436f6d7074726f6c6c65723a206e6f7420656e6f756768206465627400000000815250612fd0565b613822613b67565b81613831576134a46001613870565b613839613b67565b5060408051602081019091528351815260015b838110156138685761385e82866125d9565b915060010161384c565b509392505050565b613878613b67565b60408051602081019091528061389c84670de0b6b3a764000063ffffffff611f8916565b905292915050565b5190511490565b6138b3613b67565b506040805160208101909152666a94d74f430000815290565b602890565b8015612b94576138df610f01565b6001600160a01b03166340c10f196138f56108cd565b836040518363ffffffff1660e01b815260040161391392919061419b565b602060405180830381600087803b15801561392d57600080fd5b505af1158015613941573d6000803e3d6000fd5b505050506040513d601f19601f820116820180604052506124bd9190810190613d4a565b61396d610f01565b6001600160a01b03166340c10f1930836040518363ffffffff1660e01b815260040161399a92919061419b565b602060405180830381600087803b1580156139b457600080fd5b505af11580156139c8573d6000803e3d6000fd5b505050506040513d601f19601f820116820180604052506139ec9190810190613d4a565b50612d2d81613a96565b613a396000613a03610db5565b116a21b7b6b83a3937b63632b960a91b7f43616e74206d696e7420746f20656d70747920706f6f6c000000000000000000611f0a565b6000613a586064610969613a4b6138cc565b859063ffffffff611f8916565b90506000818311613a6a576000613a7a565b613a7a838363ffffffff6121db16565b9050613a85826138d1565b613a8e81613aaf565b6118e9612d31565b600654613aa9908263ffffffff61212716565b60065550565b8015612b9457613abd610f01565b6001600160a01b03166340c10f1930836040518363ffffffff1660e01b8152600401613aea92919061419b565b602060405180830381600087803b158015613b0457600080fd5b505af1158015613b18573d6000803e3d6000fd5b505050506040513d601f19601f82011682018060405250613b3c9190810190613d4a565b50612b9481612564565b60405180606001604052806000815260200160008152602001600081525090565b6040518060200160405280600081525090565b8035610891816143a6565b8051610891816143ba565b8035610891816143c3565b600060208284031215613bad57600080fd5b613bb760206142dc565b90506000613bc58484613bd9565b82525092915050565b8035610891816143d0565b8051610891816143d0565b600060208284031215613bf657600080fd5b600061293a8484613b7a565b60008060408385031215613c1557600080fd5b6000613c218585613b7a565b9250506020613c3285828601613b7a565b9150509250929050565b600080600060608486031215613c5157600080fd5b6000613c5d8686613b7a565b9350506020613c6e86828701613b7a565b9250506040613c7f86828701613bce565b9150509250925092565b60008060008060808587031215613c9f57600080fd5b6000613cab8787613b7a565b9450506020613cbc87828801613b7a565b9350506040613ccd87828801613bce565b9250506060613cde87828801613bce565b91505092959194509250565b60008060408385031215613cfd57600080fd5b6000613d098585613b7a565b9250506020613c3285828601613b90565b60008060408385031215613d2d57600080fd5b6000613d398585613b7a565b9250506020613c3285828601613bce565b600060208284031215613d5c57600080fd5b600061293a8484613b85565b60008060408385031215613d7b57600080fd5b6000613d878585613b9b565b9250506020613c3285828601613b85565b600060208284031215613daa57600080fd5b600061293a8484613bce565b600060208284031215613dc857600080fd5b600061293a8484613bd9565b60008060408385031215613de757600080fd5b6000613d398585613bce565b600080600060608486031215613e0857600080fd5b6000613e148686613bce565b9350506020613c6e86828701613bce565b613e2e81614349565b82525050565b613e2e81614310565b613e2e8161431b565b613e2e613e5282614320565b61088b565b613e2e613e528261088b565b6000613e6e82614303565b613e7881856108aa565b9350613e88818560208601614366565b9290920192915050565b613e2e81614350565b613e2e8161435b565b6000613eaf82614303565b613eb98185614307565b9350613ec9818560208601614366565b613ed281614392565b9093019392505050565b6000613ee9601b83614307565b7f536166654d6174683a206164646974696f6e206f766572666c6f770000000000815260200192915050565b6000613f22602b83614307565b7f4d61726b65743a20436f75706f6e207472616e7366657220746f20746865207a81526a65726f206164647265737360a81b602082015260400192915050565b6000613f6f602183614307565b7f536166654d6174683a206d756c7469706c69636174696f6e206f766572666c6f8152607760f81b602082015260400192915050565b6000613fb2603b83614307565b7f43616e6e6f742073657420612070726f787920696d706c656d656e746174696f81527f6e20746f2061206e6f6e2d636f6e747261637420616464726573730000000000602082015260400192915050565b6000614011602a83614307565b7f4d61726b65743a20436f75706f6e20617070726f766520746f20746865207a65815269726f206164647265737360b01b602082015260400192915050565b600061405d602d83614307565b7f4d61726b65743a20436f75706f6e207472616e736665722066726f6d2074686581526c207a65726f206164647265737360981b602082015260400192915050565b60006140ac601b83614307565b7f4d61726b65743a20546f6f206561726c7920746f2072656465656d0000000000815260200192915050565b613e2e8161088b565b613e2e81614343565b60006140f68284613e57565b50602001919050565b60006108eb8284613e63565b60006141178286613e63565b91506141238285613e46565b6002820191506141338284613e63565b95945050505050565b602081016108918284613e34565b606081016141588286613e25565b6141656020830185613e34565b61293a60408301846140d8565b604081016141808285613e25565b6108eb60208301846140d8565b606081016141588286613e34565b604081016141808285613e34565b602081016108918284613e3d565b602081016108918284613e92565b602081016108918284613e9b565b604081016141808285613e9b565b602080825281016108eb8184613ea4565b6020808252810161089181613edc565b6020808252810161089181613f15565b6020808252810161089181613f62565b6020808252810161089181613fa5565b6020808252810161089181614004565b6020808252810161089181614050565b602080825281016108918161409f565b6020810161089182846140d8565b6040810161418082856140d8565b6060810161428c82866140d8565b61416560208301856140d8565b608081016142a782876140d8565b6142b460208301866140d8565b6142c160408301856140d8565b61413360608301846140d8565b6020810161089182846140e1565b60405181810167ffffffffffffffff811182821017156142fb57600080fd5b604052919050565b5190565b90815260200190565b600061089182614337565b151590565b6001600160f01b03191690565b806108aa8161439c565b6001600160a01b031690565b60ff1690565b6000610891825b600061089182614310565b60006108918261432d565b60005b83811015614381578181015183820152602001614369565b8381111561290f5750506000910152565b601f01601f191690565b60038110612b9457fe5b6143af81614310565b8114612b9457600080fd5b6143af8161431b565b60038110612b9457600080fd5b6143af8161088b56fe4d61726b65743a20496e73756666696369656e7420636f75706f6e2062616c616e6365426f6e64696e673a20696e73756666696369656e74207374616765642062616c616e63654d61726b65743a20496e73756666696369656e7420636f75706f6e20617070726f76616c457175696c69627269756d20446f6c6c61722050726f746f636f6c205374616b65426f6e64696e673a20696e73756666696369656e7420746f74616c20626f6e646564436f6d7074726f6c6c65723a206e6f7420656e6f756768206f75747374616e64696e672064656274436f6d7074726f6c6c65723a206e6f7420656e6f7567682072656465656d61626c652062616c616e6365a365627a7a72315820aa8e4b7e921cce5ad1bd98aac0e7835ff6dfcc407f997a8d24d14358a9965dd86c6578706572696d656e74616cf564736f6c63430005110040",
  "source": "/*\r\n    Copyright 2021 Equilibrium Dollar Protocol, based on the works of the Empty Set Squad and Dynamic Dollar Devs\r\n\r\n    Licensed under the Apache License, Version 2.0 (the \"License\");\r\n    you may not use this file except in compliance with the License.\r\n    You may obtain a copy of the License at\r\n\r\n    http://www.apache.org/licenses/LICENSE-2.0\r\n\r\n    Unless required by applicable law or agreed to in writing, software\r\n    distributed under the License is distributed on an \"AS IS\" BASIS,\r\n    WITHOUT WARRANTIES OR CONDITIONS OF ANY KIND, either express or implied.\r\n    See the License for the specific language governing permissions and\r\n    limitations under the License.\r\n*/\r\n\r\npragma solidity ^0.5.17;\r\npragma experimental ABIEncoderV2;\r\n\r\nimport \"@openzeppelin/contracts/math/SafeMath.sol\";\r\nimport \"./Market.sol\";\r\nimport \"./Regulator.sol\";\r\nimport \"./Bonding.sol\";\r\nimport \"./Govern.sol\";\r\nimport \"../Constants.sol\";\r\n\r\ncontract Implementation is State, Bonding, Market, Regulator, Govern {\r\n    using SafeMath for uint256;\r\n\r\n    event Advance(uint256 indexed epoch, uint256 block, uint256 timestamp);\r\n    event Incentivization(address indexed account, uint256 amount);\r\n\r\n    function initialize() initializer public {\r\n        // committer reward:\r\n        mintToAccount(msg.sender, 200e18); // 200 EQD to Deployer\r\n        // contributor  rewards:\r\n        mintToAccount(0x80cD8EAdFD7e7829c087EE614901820807c72633, 200e18); // 150 EQD to Airdrop\r\n        mintToAccount(0x407D2C4AAc97511347D0678F293A1d50aD69cE11, 100e18); // 150 EQD to Team\r\n    }\r\n\r\n    function advance() external incentivized {\r\n        Bonding.step();\r\n        Regulator.step();\r\n        Market.step();\r\n\r\n        emit Advance(epoch(), block.number, block.timestamp);\r\n    }\r\n\r\n    modifier incentivized {\r\n        // Mint advance reward to sender\r\n        uint256 incentive = Constants.getAdvanceIncentive();\r\n        mintToAccount(msg.sender, incentive);\r\n        emit Incentivization(msg.sender, incentive);\r\n        _;\r\n    }\r\n}\r\n",
  "sourcePath": "D:/10012021/fix-project/equilibrium-protocol/contracts/dao/Implementation.sol",
  "compiler": {
    "name": "solc",
    "version": "0.5.17+commit.d19bba13.Emscripten.clang"
  },
  "schemaVersion": "3.3.3",
  "updatedAt": "2021-01-16T10:15:21.103Z",
  "networkType": "ethereum",
  "devdoc": {
    "methods": {}
  },
  "userdoc": {
    "methods": {
      "balanceOfStaged(address)": {
        "notice": "Account"
      },
      "dollar()": {
        "notice": "Global"
      },
      "epoch()": {
        "notice": "Epoch"
      },
      "name()": {
        "notice": "ERC20 Interface"
      },
      "recordedVote(address,address)": {
        "notice": "Governance"
      },
      "transfer(address,uint256)": {
        "notice": "ERC20 Interface"
      }
    }
  }
}