{
  "contractName": "Market",
  "abi": [
    {
      "anonymous": false,
      "inputs": [
        {
          "indexed": true,
          "internalType": "address",
          "name": "owner",
          "type": "address"
        },
        {
          "indexed": true,
          "internalType": "address",
          "name": "spender",
          "type": "address"
        },
        {
          "indexed": false,
          "internalType": "uint256",
          "name": "value",
          "type": "uint256"
        }
      ],
      "name": "CouponApproval",
      "type": "event"
    },
    {
      "anonymous": false,
      "inputs": [
        {
          "indexed": true,
          "internalType": "address",
          "name": "account",
          "type": "address"
        },
        {
          "indexed": true,
          "internalType": "uint256",
          "name": "epoch",
          "type": "uint256"
        },
        {
          "indexed": false,
          "internalType": "uint256",
          "name": "couponAmount",
          "type": "uint256"
        }
      ],
      "name": "CouponBurn",
      "type": "event"
    },
    {
      "anonymous": false,
      "inputs": [
        {
          "indexed": true,
          "internalType": "uint256",
          "name": "epoch",
          "type": "uint256"
        },
        {
          "indexed": false,
          "internalType": "uint256",
          "name": "couponsExpired",
          "type": "uint256"
        },
        {
          "indexed": false,
          "internalType": "uint256",
          "name": "lessRedeemable",
          "type": "uint256"
        },
        {
          "indexed": false,
          "internalType": "uint256",
          "name": "lessDebt",
          "type": "uint256"
        },
        {
          "indexed": false,
          "internalType": "uint256",
          "name": "newBonded",
          "type": "uint256"
        }
      ],
      "name": "CouponExpiration",
      "type": "event"
    },
    {
      "anonymous": false,
      "inputs": [
        {
          "indexed": true,
          "internalType": "address",
          "name": "account",
          "type": "address"
        },
        {
          "indexed": true,
          "internalType": "uint256",
          "name": "epoch",
          "type": "uint256"
        },
        {
          "indexed": false,
          "internalType": "uint256",
          "name": "dollarAmount",
          "type": "uint256"
        },
        {
          "indexed": false,
          "internalType": "uint256",
          "name": "couponAmount",
          "type": "uint256"
        }
      ],
      "name": "CouponPurchase",
      "type": "event"
    },
    {
      "anonymous": false,
      "inputs": [
        {
          "indexed": true,
          "internalType": "address",
          "name": "account",
          "type": "address"
        },
        {
          "indexed": true,
          "internalType": "uint256",
          "name": "epoch",
          "type": "uint256"
        },
        {
          "indexed": false,
          "internalType": "uint256",
          "name": "couponAmount",
          "type": "uint256"
        }
      ],
      "name": "CouponRedemption",
      "type": "event"
    },
    {
      "anonymous": false,
      "inputs": [
        {
          "indexed": true,
          "internalType": "address",
          "name": "from",
          "type": "address"
        },
        {
          "indexed": true,
          "internalType": "address",
          "name": "to",
          "type": "address"
        },
        {
          "indexed": true,
          "internalType": "uint256",
          "name": "epoch",
          "type": "uint256"
        },
        {
          "indexed": false,
          "internalType": "uint256",
          "name": "value",
          "type": "uint256"
        }
      ],
      "name": "CouponTransfer",
      "type": "event"
    },
    {
      "anonymous": false,
      "inputs": [
        {
          "indexed": true,
          "internalType": "address",
          "name": "from",
          "type": "address"
        },
        {
          "indexed": true,
          "internalType": "address",
          "name": "to",
          "type": "address"
        },
        {
          "indexed": false,
          "internalType": "uint256",
          "name": "value",
          "type": "uint256"
        }
      ],
      "name": "Transfer",
      "type": "event"
    },
    {
      "constant": true,
      "inputs": [
        {
          "internalType": "address",
          "name": "owner",
          "type": "address"
        },
        {
          "internalType": "address",
          "name": "spender",
          "type": "address"
        }
      ],
      "name": "allowance",
      "outputs": [
        {
          "internalType": "uint256",
          "name": "",
          "type": "uint256"
        }
      ],
      "payable": false,
      "stateMutability": "view",
      "type": "function"
    },
    {
      "constant": true,
      "inputs": [
        {
          "internalType": "address",
          "name": "owner",
          "type": "address"
        },
        {
          "internalType": "address",
          "name": "spender",
          "type": "address"
        }
      ],
      "name": "allowanceCoupons",
      "outputs": [
        {
          "internalType": "uint256",
          "name": "",
          "type": "uint256"
        }
      ],
      "payable": false,
      "stateMutability": "view",
      "type": "function"
    },
    {
      "constant": false,
      "inputs": [
        {
          "internalType": "address",
          "name": "spender",
          "type": "address"
        },
        {
          "internalType": "uint256",
          "name": "amount",
          "type": "uint256"
        }
      ],
      "name": "approve",
      "outputs": [
        {
          "internalType": "bool",
          "name": "",
          "type": "bool"
        }
      ],
      "payable": false,
      "stateMutability": "nonpayable",
      "type": "function"
    },
    {
      "constant": true,
      "inputs": [
        {
          "internalType": "address",
          "name": "candidate",
          "type": "address"
        }
      ],
      "name": "approveFor",
      "outputs": [
        {
          "internalType": "uint256",
          "name": "",
          "type": "uint256"
        }
      ],
      "payable": false,
      "stateMutability": "view",
      "type": "function"
    },
    {
      "constant": true,
      "inputs": [
        {
          "internalType": "address",
          "name": "account",
          "type": "address"
        }
      ],
      "name": "balanceOf",
      "outputs": [
        {
          "internalType": "uint256",
          "name": "",
          "type": "uint256"
        }
      ],
      "payable": false,
      "stateMutability": "view",
      "type": "function"
    },
    {
      "constant": true,
      "inputs": [
        {
          "internalType": "address",
          "name": "account",
          "type": "address"
        }
      ],
      "name": "balanceOfBonded",
      "outputs": [
        {
          "internalType": "uint256",
          "name": "",
          "type": "uint256"
        }
      ],
      "payable": false,
      "stateMutability": "view",
      "type": "function"
    },
    {
      "constant": true,
      "inputs": [
        {
          "internalType": "address",
          "name": "account",
          "type": "address"
        },
        {
          "internalType": "uint256",
          "name": "epoch",
          "type": "uint256"
        }
      ],
      "name": "balanceOfCoupons",
      "outputs": [
        {
          "internalType": "uint256",
          "name": "",
          "type": "uint256"
        }
      ],
      "payable": false,
      "stateMutability": "view",
      "type": "function"
    },
    {
      "constant": true,
      "inputs": [
        {
          "internalType": "address",
          "name": "account",
          "type": "address"
        }
      ],
      "name": "balanceOfStaged",
      "outputs": [
        {
          "internalType": "uint256",
          "name": "",
          "type": "uint256"
        }
      ],
      "payable": false,
      "stateMutability": "view",
      "type": "function"
    },
    {
      "constant": true,
      "inputs": [
        {
          "internalType": "uint256",
          "name": "epoch",
          "type": "uint256"
        }
      ],
      "name": "bootstrappingAt",
      "outputs": [
        {
          "internalType": "bool",
          "name": "",
          "type": "bool"
        }
      ],
      "payable": false,
      "stateMutability": "view",
      "type": "function"
    },
    {
      "constant": true,
      "inputs": [
        {
          "internalType": "uint256",
          "name": "epoch",
          "type": "uint256"
        }
      ],
      "name": "couponsExpiration",
      "outputs": [
        {
          "internalType": "uint256",
          "name": "",
          "type": "uint256"
        }
      ],
      "payable": false,
      "stateMutability": "view",
      "type": "function"
    },
    {
      "constant": true,
      "inputs": [],
      "name": "decimals",
      "outputs": [
        {
          "internalType": "uint8",
          "name": "",
          "type": "uint8"
        }
      ],
      "payable": false,
      "stateMutability": "view",
      "type": "function"
    },
    {
      "constant": true,
      "inputs": [],
      "name": "dollar",
      "outputs": [
        {
          "internalType": "contract IDollar",
          "name": "",
          "type": "address"
        }
      ],
      "payable": false,
      "stateMutability": "view",
      "type": "function"
    },
    {
      "constant": true,
      "inputs": [],
      "name": "epoch",
      "outputs": [
        {
          "internalType": "uint256",
          "name": "",
          "type": "uint256"
        }
      ],
      "payable": false,
      "stateMutability": "view",
      "type": "function"
    },
    {
      "constant": true,
      "inputs": [],
      "name": "epochTime",
      "outputs": [
        {
          "internalType": "uint256",
          "name": "",
          "type": "uint256"
        }
      ],
      "payable": false,
      "stateMutability": "view",
      "type": "function"
    },
    {
      "constant": true,
      "inputs": [
        {
          "internalType": "uint256",
          "name": "epoch",
          "type": "uint256"
        }
      ],
      "name": "expiringCoupons",
      "outputs": [
        {
          "internalType": "uint256",
          "name": "",
          "type": "uint256"
        }
      ],
      "payable": false,
      "stateMutability": "view",
      "type": "function"
    },
    {
      "constant": true,
      "inputs": [
        {
          "internalType": "uint256",
          "name": "epoch",
          "type": "uint256"
        },
        {
          "internalType": "uint256",
          "name": "i",
          "type": "uint256"
        }
      ],
      "name": "expiringCouponsAtIndex",
      "outputs": [
        {
          "internalType": "uint256",
          "name": "",
          "type": "uint256"
        }
      ],
      "payable": false,
      "stateMutability": "view",
      "type": "function"
    },
    {
      "constant": true,
      "inputs": [],
      "name": "implementation",
      "outputs": [
        {
          "internalType": "address",
          "name": "impl",
          "type": "address"
        }
      ],
      "payable": false,
      "stateMutability": "view",
      "type": "function"
    },
    {
      "constant": true,
      "inputs": [
        {
          "internalType": "address",
          "name": "candidate",
          "type": "address"
        }
      ],
      "name": "isInitialized",
      "outputs": [
        {
          "internalType": "bool",
          "name": "",
          "type": "bool"
        }
      ],
      "payable": false,
      "stateMutability": "view",
      "type": "function"
    },
    {
      "constant": true,
      "inputs": [
        {
          "internalType": "address",
          "name": "candidate",
          "type": "address"
        }
      ],
      "name": "isNominated",
      "outputs": [
        {
          "internalType": "bool",
          "name": "",
          "type": "bool"
        }
      ],
      "payable": false,
      "stateMutability": "view",
      "type": "function"
    },
    {
      "constant": true,
      "inputs": [],
      "name": "name",
      "outputs": [
        {
          "internalType": "string",
          "name": "",
          "type": "string"
        }
      ],
      "payable": false,
      "stateMutability": "view",
      "type": "function"
    },
    {
      "constant": true,
      "inputs": [],
      "name": "oracle",
      "outputs": [
        {
          "internalType": "contract IOracle",
          "name": "",
          "type": "address"
        }
      ],
      "payable": false,
      "stateMutability": "view",
      "type": "function"
    },
    {
      "constant": true,
      "inputs": [
        {
          "internalType": "uint256",
          "name": "epoch",
          "type": "uint256"
        }
      ],
      "name": "outstandingCoupons",
      "outputs": [
        {
          "internalType": "uint256",
          "name": "",
          "type": "uint256"
        }
      ],
      "payable": false,
      "stateMutability": "view",
      "type": "function"
    },
    {
      "constant": true,
      "inputs": [
        {
          "internalType": "address",
          "name": "candidate",
          "type": "address"
        }
      ],
      "name": "periodFor",
      "outputs": [
        {
          "internalType": "uint256",
          "name": "",
          "type": "uint256"
        }
      ],
      "payable": false,
      "stateMutability": "view",
      "type": "function"
    },
    {
      "constant": true,
      "inputs": [],
      "name": "pool",
      "outputs": [
        {
          "internalType": "address",
          "name": "",
          "type": "address"
        }
      ],
      "payable": false,
      "stateMutability": "view",
      "type": "function"
    },
    {
      "constant": true,
      "inputs": [
        {
          "internalType": "address",
          "name": "account",
          "type": "address"
        },
        {
          "internalType": "address",
          "name": "candidate",
          "type": "address"
        }
      ],
      "name": "recordedVote",
      "outputs": [
        {
          "internalType": "enum Candidate.Vote",
          "name": "",
          "type": "uint8"
        }
      ],
      "payable": false,
      "stateMutability": "view",
      "type": "function"
    },
    {
      "constant": true,
      "inputs": [
        {
          "internalType": "address",
          "name": "candidate",
          "type": "address"
        }
      ],
      "name": "rejectFor",
      "outputs": [
        {
          "internalType": "uint256",
          "name": "",
          "type": "uint256"
        }
      ],
      "payable": false,
      "stateMutability": "view",
      "type": "function"
    },
    {
      "constant": true,
      "inputs": [
        {
          "internalType": "address",
          "name": "candidate",
          "type": "address"
        }
      ],
      "name": "startFor",
      "outputs": [
        {
          "internalType": "uint256",
          "name": "",
          "type": "uint256"
        }
      ],
      "payable": false,
      "stateMutability": "view",
      "type": "function"
    },
    {
      "constant": true,
      "inputs": [
        {
          "internalType": "address",
          "name": "account",
          "type": "address"
        }
      ],
      "name": "statusOf",
      "outputs": [
        {
          "internalType": "enum Account.Status",
          "name": "",
          "type": "uint8"
        }
      ],
      "payable": false,
      "stateMutability": "view",
      "type": "function"
    },
    {
      "constant": true,
      "inputs": [],
      "name": "symbol",
      "outputs": [
        {
          "internalType": "string",
          "name": "",
          "type": "string"
        }
      ],
      "payable": false,
      "stateMutability": "view",
      "type": "function"
    },
    {
      "constant": true,
      "inputs": [],
      "name": "totalBonded",
      "outputs": [
        {
          "internalType": "uint256",
          "name": "",
          "type": "uint256"
        }
      ],
      "payable": false,
      "stateMutability": "view",
      "type": "function"
    },
    {
      "constant": true,
      "inputs": [
        {
          "internalType": "uint256",
          "name": "epoch",
          "type": "uint256"
        }
      ],
      "name": "totalBondedAt",
      "outputs": [
        {
          "internalType": "uint256",
          "name": "",
          "type": "uint256"
        }
      ],
      "payable": false,
      "stateMutability": "view",
      "type": "function"
    },
    {
      "constant": true,
      "inputs": [],
      "name": "totalCoupons",
      "outputs": [
        {
          "internalType": "uint256",
          "name": "",
          "type": "uint256"
        }
      ],
      "payable": false,
      "stateMutability": "view",
      "type": "function"
    },
    {
      "constant": true,
      "inputs": [],
      "name": "totalDebt",
      "outputs": [
        {
          "internalType": "uint256",
          "name": "",
          "type": "uint256"
        }
      ],
      "payable": false,
      "stateMutability": "view",
      "type": "function"
    },
    {
      "constant": true,
      "inputs": [],
      "name": "totalNet",
      "outputs": [
        {
          "internalType": "uint256",
          "name": "",
          "type": "uint256"
        }
      ],
      "payable": false,
      "stateMutability": "view",
      "type": "function"
    },
    {
      "constant": true,
      "inputs": [],
      "name": "totalRedeemable",
      "outputs": [
        {
          "internalType": "uint256",
          "name": "",
          "type": "uint256"
        }
      ],
      "payable": false,
      "stateMutability": "view",
      "type": "function"
    },
    {
      "constant": true,
      "inputs": [],
      "name": "totalStaged",
      "outputs": [
        {
          "internalType": "uint256",
          "name": "",
          "type": "uint256"
        }
      ],
      "payable": false,
      "stateMutability": "view",
      "type": "function"
    },
    {
      "constant": true,
      "inputs": [],
      "name": "totalSupply",
      "outputs": [
        {
          "internalType": "uint256",
          "name": "",
          "type": "uint256"
        }
      ],
      "payable": false,
      "stateMutability": "view",
      "type": "function"
    },
    {
      "constant": false,
      "inputs": [
        {
          "internalType": "address",
          "name": "recipient",
          "type": "address"
        },
        {
          "internalType": "uint256",
          "name": "amount",
          "type": "uint256"
        }
      ],
      "name": "transfer",
      "outputs": [
        {
          "internalType": "bool",
          "name": "",
          "type": "bool"
        }
      ],
      "payable": false,
      "stateMutability": "nonpayable",
      "type": "function"
    },
    {
      "constant": false,
      "inputs": [
        {
          "internalType": "address",
          "name": "sender",
          "type": "address"
        },
        {
          "internalType": "address",
          "name": "recipient",
          "type": "address"
        },
        {
          "internalType": "uint256",
          "name": "amount",
          "type": "uint256"
        }
      ],
      "name": "transferFrom",
      "outputs": [
        {
          "internalType": "bool",
          "name": "",
          "type": "bool"
        }
      ],
      "payable": false,
      "stateMutability": "nonpayable",
      "type": "function"
    },
    {
      "constant": true,
      "inputs": [
        {
          "internalType": "address",
          "name": "candidate",
          "type": "address"
        }
      ],
      "name": "votesFor",
      "outputs": [
        {
          "internalType": "uint256",
          "name": "",
          "type": "uint256"
        }
      ],
      "payable": false,
      "stateMutability": "view",
      "type": "function"
    },
    {
      "constant": true,
      "inputs": [
        {
          "internalType": "uint256",
          "name": "amount",
          "type": "uint256"
        }
      ],
      "name": "couponPremium",
      "outputs": [
        {
          "internalType": "uint256",
          "name": "",
          "type": "uint256"
        }
      ],
      "payable": false,
      "stateMutability": "view",
      "type": "function"
    },
    {
      "constant": true,
      "inputs": [
        {
          "internalType": "uint256",
          "name": "couponEpoch",
          "type": "uint256"
        },
        {
          "internalType": "uint256",
          "name": "couponAmount",
          "type": "uint256"
        }
      ],
      "name": "couponRedemptionPenalty",
      "outputs": [
        {
          "internalType": "uint256",
          "name": "",
          "type": "uint256"
        }
      ],
      "payable": false,
      "stateMutability": "view",
      "type": "function"
    },
    {
      "constant": false,
      "inputs": [
        {
          "internalType": "uint256",
          "name": "dollarAmount",
          "type": "uint256"
        }
      ],
      "name": "purchaseCoupons",
      "outputs": [
        {
          "internalType": "uint256",
          "name": "",
          "type": "uint256"
        }
      ],
      "payable": false,
      "stateMutability": "nonpayable",
      "type": "function"
    },
    {
      "constant": false,
      "inputs": [
        {
          "internalType": "uint256",
          "name": "couponEpoch",
          "type": "uint256"
        },
        {
          "internalType": "uint256",
          "name": "couponAmount",
          "type": "uint256"
        },
        {
          "internalType": "uint256",
          "name": "minOutput",
          "type": "uint256"
        }
      ],
      "name": "redeemCoupons",
      "outputs": [],
      "payable": false,
      "stateMutability": "nonpayable",
      "type": "function"
    },
    {
      "constant": false,
      "inputs": [
        {
          "internalType": "uint256",
          "name": "couponEpoch",
          "type": "uint256"
        },
        {
          "internalType": "uint256",
          "name": "couponAmount",
          "type": "uint256"
        }
      ],
      "name": "redeemCoupons",
      "outputs": [],
      "payable": false,
      "stateMutability": "nonpayable",
      "type": "function"
    },
    {
      "constant": false,
      "inputs": [
        {
          "internalType": "address",
          "name": "spender",
          "type": "address"
        },
        {
          "internalType": "uint256",
          "name": "amount",
          "type": "uint256"
        }
      ],
      "name": "approveCoupons",
      "outputs": [],
      "payable": false,
      "stateMutability": "nonpayable",
      "type": "function"
    },
    {
      "constant": false,
      "inputs": [
        {
          "internalType": "address",
          "name": "sender",
          "type": "address"
        },
        {
          "internalType": "address",
          "name": "recipient",
          "type": "address"
        },
        {
          "internalType": "uint256",
          "name": "epoch",
          "type": "uint256"
        },
        {
          "internalType": "uint256",
          "name": "amount",
          "type": "uint256"
        }
      ],
      "name": "transferCoupons",
      "outputs": [],
      "payable": false,
      "stateMutability": "nonpayable",
      "type": "function"
    }
  ],
  "bytecode": "0x608060405234801561001057600080fd5b50612487806100206000396000f3fe608060405234801561001057600080fd5b50600436106102945760003560e01c80637dc0d1d011610167578063bc0b1df6116100ce578063d8f5413811610087578063d8f5413814610552578063dd62ed3e14610565578063e5f55c7e14610573578063f1b7cf4914610586578063fc7b9c1814610599578063ffbe3b73146105a157610294565b8063bc0b1df6146104eb578063bc7513e2146104fe578063c9aff70c14610511578063cf02377914610524578063d60b347f1461052c578063d6a9cf081461053f57610294565b80639a649edc116101205780639a649edc146104a25780639f6e1b26146104aa578063a1eb31e8146104bd578063a50cd8e7146104d0578063a6c409f1146104e3578063a9059cbb146102cc57610294565b80637dc0d1d014610451578063825ad6071461045957806386cf9f141461046c578063900cf0cf1461047f57806395d89b411461048757806397a5d5b51461048f57610294565b8063353a420c1161020b57806351adeb57116101c457806351adeb57146103e85780635c60da1b146103fd57806364668022146104055780636a39e3281461041857806370a082311461042b57806375d5024b1461043e57610294565b8063353a420c1461037f5780633a3e6c81146103925780633fbba9a6146103a557806344d96e95146103c55780634c736099146103cd5780635053e461146103e057610294565b806316f0115b1161025d57806316f0115b1461031f57806318160ddd146103345780631edbcf6c1461033c57806323b872dd146103445780632f7f889e14610357578063313ce5671461036a57610294565b80625edd371461029957806306fdde03146102ae578063095ea7b3146102cc57806310e95b6c146102ec57806315e14bf61461030c575b600080fd5b6102ac6102a7366004611dc9565b6105b4565b005b6102b66106d7565b6040516102c39190612223565b60405180910390f35b6102df6102da366004611e2a565b6106f7565b6040516102c391906121f9565b6102ff6102fa366004611e78565b610700565b6040516102c39190612294565b6102ff61031a366004611d24565b610718565b610327610736565b6040516102c391906121a8565b6102ff610745565b6102ff61074b565b6102df610352366004611d7c565b610751565b6102ac610365366004611e2a565b61075b565b6103726107db565b6040516102c391906122b0565b6102ff61038d366004611d24565b6107e0565b6102df6103a0366004611d24565b6107fe565b6103b86103b3366004611d42565b61081b565b6040516102c39190612215565b6102ff61084e565b6102ff6103db366004611eb4565b610854565b6102ff610884565b6103f06108a7565b6040516102c39190612207565b6103276108b6565b6102ff610413366004611d24565b6108db565b6102ff610426366004611e78565b6108f9565b6102ff610439366004611d24565b61090e565b6102df61044c366004611e78565b61092c565b6103f061093f565b6102ff610467366004611d24565b61094e565b6102ff61047a366004611d24565b61099a565b6102ff6109b5565b6102b66109bb565b6103b861049d366004611d24565b6109da565b6102ff610a3f565b6102ff6104b8366004611d42565b610a45565b6102ff6104cb366004611eb4565b610a74565b6102ff6104de366004611d24565b610b9a565b6102ff610bbd565b6102ac6104f9366004611ed3565b610c53565b6102ff61050c366004611e2a565b610d87565b6102ff61051f366004611e78565b610dcb565b6102ff610de0565b6102df61053a366004611d24565b610de6565b6102ac61054d366004611eb4565b610e07565b6102ff610560366004611e78565b610f03565b6102ff6102da366004611d42565b6102ff610581366004611e78565b610f8e565b6102ff610594366004611d24565b611080565b6102ff61109b565b6102ff6105af366004611e78565b6110a1565b6001600160a01b0384166105e35760405162461bcd60e51b81526004016105da90612274565b60405180910390fd5b6001600160a01b0383166106095760405162461bcd60e51b81526004016105da90612244565b61062d84838360405180606001604052806023815260200161238b602391396110b3565b61063883838361115e565b336001600160a01b0385161480159061065c57506000196106598533610a45565b14155b15610685576106858433836040518060600160405280602481526020016123ae60249139611205565b81836001600160a01b0316856001600160a01b03167f0f1dbb1ccbe57a1590c7baad7b01d581b730c9ebc535dcde4345e6db424063d8846040516106c99190612294565b60405180910390a450505050565b60606040518060600160405280602181526020016123d260219139905090565b60005b92915050565b6000818152600d60205260409020600201545b919050565b6001600160a01b03166000908152600e602052604090206001015490565b600b546001600160a01b031690565b60035490565b60065490565b60005b9392505050565b6001600160a01b0382166107815760405162461bcd60e51b81526004016105da90612264565b61078c338383611276565b816001600160a01b0316336001600160a01b03167f8ff27e6b95060c1ca851e7c2c28af8b413eb1a8bcb637b0290da9543a709cce3836040516107cf9190612294565b60405180910390a35050565b601290565b6001600160a01b03166000908152600e602052604090206003015490565b6001600160a01b03166000908152600e6020526040902054151590565b6001600160a01b038082166000908152600e60209081526040808320938616835260049093019052205460ff1692915050565b60045490565b6000828152600d6020526040812060030180548390811061087157fe5b9060005260206000200154905092915050565b600061088e611cc4565b6108966112a6565b90506108a1816112d5565b91505090565b6009546001600160a01b031690565b7f360894a13ba1a3210667c828492db98dca3e2076cc3735a920a3ca505d382bbc5490565b6001600160a01b03166000908152600e602052604090206002015490565b6000908152600d602052604090206003015490565b6001600160a01b03166000908152600c602052604090206001015490565b60006109366112f7565b90911115919050565b600a546001600160a01b031690565b600080610959610745565b90508061096a576000915050610713565b6107548161098e61097a8661090e565b61098261084e565b9063ffffffff6112fd16565b9063ffffffff61133716565b6001600160a01b03166000908152600c602052604090205490565b60025490565b6040805180820190915260058152644551442d5360d81b602082015290565b60006109e46109b5565b6001600160a01b0383166000908152600c60205260409020600501541115610a0e57506002610713565b6001600160a01b0382166000908152600c6020526040902060040154610a326109b5565b10156106f75760016106fa565b60085490565b6001600160a01b039182166000908152600c602090815260408083209390941682526003909201909152205490565b600080610a7f6112a6565b604001514281610a8b57fe5b069050600084610a996109b5565b0390506000610aa6611379565b82610aaf611379565b03610ab861137f565b0281610ac057fe5b04905080831115610ad757600093505050506106fa565b610adf611ce5565b610b32604051806020016040528085610af6611379565b03815250610b266040518060200160405280610b10611379565b9052610b1a611385565b9063ffffffff6113a716565b9063ffffffff6113de16565b9050610b3c611ce5565b604080516020808201835287860382528251908101909252848252610b6c91610b2690859063ffffffff6113a716565b6040805160208101909152888152909150610b8d908263ffffffff6113de16565b5198975050505050505050565b60006106fa610ba8836107e0565b610bb1846108db565b9063ffffffff61140c16565b6000610c4e610bca61109b565b610bd26108a7565b6001600160a01b03166318160ddd6040518163ffffffff1660e01b815260040160206040518083038186803b158015610c0a57600080fd5b505afa158015610c1e573d6000803e3d6000fd5b505050506040513d601f19601f82011682018060405250610c429190810190611e96565b9063ffffffff61143116565b905090565b6002610c6184610c426109b5565b1015610c7f5760405162461bcd60e51b81526004016105da90612284565b610ca333848460405180606001604052806023815260200161238b602391396110b3565b6000610caf8484610a74565b9050808303610ceb838210156513585c9ad95d60d21b7f496e73756666696369656e74206f757470757420616d6f756e74000000000000611473565b610cf533826114cd565b8115610d3e5784336001600160a01b03167f1cd1213d4276c260e84170b4a39025dc8398fbf744edee0709261769b456b94b84604051610d359190612294565b60405180910390a35b84336001600160a01b03167f46e9903ae8ac9e9f0c9bc321b05965c1c036e7d4783758703f5cdfc4133c51b683604051610d789190612294565b60405180910390a35050505050565b6000610d9282610dcb565b610d9e575060006106fa565b506001600160a01b03919091166000908152600c6020908152604080832093835260029093019052205490565b6000908152600d602052604090206001015490565b60055490565b6001600160a01b03166000908152600e602052604090206005015460ff1690565b6002610e1583610c426109b5565b1015610e335760405162461bcd60e51b81526004016105da90612284565b610e5733838360405180606001604052806023815260200161238b602391396110b3565b6000610e638383610a74565b9050808203610e7233826114cd565b8115610ebb5783336001600160a01b03167f1cd1213d4276c260e84170b4a39025dc8398fbf744edee0709261769b456b94b84604051610eb29190612294565b60405180910390a35b83336001600160a01b03167f46e9903ae8ac9e9f0c9bc321b05965c1c036e7d4783758703f5cdfc4133c51b683604051610ef59190612294565b60405180910390a350505050565b60006106fa610f106108a7565b6001600160a01b03166318160ddd6040518163ffffffff1660e01b815260040160206040518083038186803b158015610f4857600080fd5b505afa158015610f5c573d6000803e3d6000fd5b505050506040513d601f19601f82011682018060405250610f809190810190611e96565b610f8861109b565b84611583565b6000610fc7600083116513585c9ad95d60d21b7f4d757374207075726368617365206e6f6e2d7a65726f20616d6f756e74000000611473565b610ff782610fd361109b565b10156513585c9ad95d60d21b6e139bdd08195b9bdd59da081919589d608a1b611473565b60006110016109b5565b9050600061101e61101185610f03565b859063ffffffff61140c16565b905061102a33856115b0565b61103533838361115e565b81336001600160a01b03167fbce252db29f761f815dc2e9ea60005af065efba6eb619d2a0b2a113fdeb6141486846040516110719291906122a2565b60405180910390a39392505050565b6001600160a01b03166000908152600e602052604090205490565b60075490565b6000908152600d602052604090205490565b6001600160a01b0384166000908152600c602090815260408083208684526002019091529020546110eb90838363ffffffff6116c116565b6001600160a01b0385166000908152600c60209081526040808320878452600201825280832093909355600d9052206001015461112f90838363ffffffff6116c116565b6000848152600d602052604090206001015560085461115590838363ffffffff6116c116565b60085550505050565b6001600160a01b0383166000908152600c60209081526040808320858452600201909152902054611195908263ffffffff61140c16565b6001600160a01b0384166000908152600c60209081526040808320868452600201825280832093909355600d905220600101546111d8908263ffffffff61140c16565b6000838152600d60205260409020600101556008546111fd908263ffffffff61140c16565b600855505050565b6001600160a01b038085166000908152600c60209081526040808320938716835260039093019052205461124090838363ffffffff6116c116565b6001600160a01b039485166000908152600c60209081526040808320969097168252600390950190945293909220929092555050565b6001600160a01b039283166000908152600c60209081526040808320949095168252600390930190925291902055565b6112ae611cc4565b60405180606001604052806000815260200163600450f08152602001610e10815250905090565b60006106fa8260000151610bb1846040015161098e8660200151610c426116ed565b61016890565b60008261130c575060006106fa565b8282028284828161131957fe5b04146107545760405162461bcd60e51b81526004016105da90612254565b600061075483836040518060400160405280601a81526020017f536166654d6174683a206469766973696f6e206279207a65726f0000000000008152506116f1565b6102d090565b610e1090565b61138d611ce5565b5060408051602081019091526706f05b59d3b20000815290565b6113af611ce5565b60405180602001604052806113d58560000151670de0b6b3a76400008660000151611728565b90529392505050565b6113e6611ce5565b60405180602001604052806113d585600001518560000151670de0b6b3a7640000611728565b6000828201838110156107545760405162461bcd60e51b81526004016105da90612234565b600061075483836040518060400160405280601e81526020017f536166654d6174683a207375627472616374696f6e206f766572666c6f7700008152506116c1565b826114c8576114818261173e565b6101d160f51b6114908361173e565b6040516020016114a293929190612177565b60408051601f198184030181529082905262461bcd60e51b82526105da91600401612223565b505050565b6114d56108a7565b6001600160a01b031663a9059cbb83836040518363ffffffff1660e01b81526004016115029291906121de565b602060405180830381600087803b15801561151c57600080fd5b505af1158015611530573d6000803e3d6000fd5b505050506040513d601f19601f820116820180604052506115549190810190611e5a565b50611577816040518060600160405280602a815260200161241b602a91396117be565b61157f6117d9565b5050565b60006115a86115a3836115978787876118ae565b9063ffffffff611a1b16565b611a42565b949350505050565b6115b86108a7565b6001600160a01b03166323b872dd8330846040518463ffffffff1660e01b81526004016115e7939291906121b6565b602060405180830381600087803b15801561160157600080fd5b505af1158015611615573d6000803e3d6000fd5b505050506040513d601f19601f820116820180604052506116399190810190611e5a565b506116426108a7565b6001600160a01b03166342966c68826040518263ffffffff1660e01b815260040161166d9190612294565b600060405180830381600087803b15801561168757600080fd5b505af115801561169b573d6000803e3d6000fd5b50505050611577816040518060600160405280602881526020016123f360289139611a5f565b600081848411156116e55760405162461bcd60e51b81526004016105da9190612223565b505050900390565b4290565b600081836117125760405162461bcd60e51b81526004016105da9190612223565b50600083858161171e57fe5b0495945050505050565b60006115a88261098e868663ffffffff6112fd16565b606080826040516020016117529190612162565b60408051601f19818403018152919052905060205b80156117a75781516000199091019082908290811061178257fe5b01602001516001600160f81b031916156117a25760010181529050610713565b611767565b505060408051600081526020810190915292915050565b6006546117d290838363ffffffff6116c116565b6006555050565b6118ac6117fa6117e761074b565b610bb16117f2610de0565b610bb161084e565b6118026108a7565b6001600160a01b03166370a08231306040518263ffffffff1660e01b815260040161182d91906121a8565b60206040518083038186803b15801561184557600080fd5b505afa158015611859573d6000803e3d6000fd5b505050506040513d601f19601f8201168201806040525061187d9190810190611e96565b10156a21b7b6b83a3937b63632b960a91b74496e636f6e73697374656e742062616c616e63657360581b611473565b565b6118b6611ce5565b6118be611ce5565b6118c88486611a7a565b90506118d2611ce5565b6118da611aa0565b905060006118ee878663ffffffff61143116565b90506000611902878763ffffffff61143116565b905061190c611ce5565b6119168284611a7a565b9050611928858563ffffffff611ac216565b15611a045761193d818563ffffffff611ac216565b156119575761194b84611ad8565b95505050505050610754565b61195f611ce5565b6119698286611b30565b9050611973611ce5565b611983868463ffffffff611b8d16565b905061198d611ce5565b61199687611ad8565b90506119a0611ce5565b6119b0898963ffffffff611b8d16565b90506119f46119c5848363ffffffff611bb616565b610b1a6119d8858563ffffffff6113de16565b6119e8888863ffffffff6113de16565b9063ffffffff611bb616565b9950505050505050505050610754565b611a0e8186611b30565b9998505050505050505050565b611a23611ce5565b6040805160208101909152835181906113d5908563ffffffff6112fd16565b80516000906106fa90670de0b6b3a764000063ffffffff61133716565b600754611a7390838363ffffffff6116c116565b6007555050565b611a82611ce5565b60405180602001604052806113d585670de0b6b3a764000086611728565b611aa8611ce5565b5060408051602081019091526704db732547630000815290565b6000611ace8383611bdf565b6002149392505050565b611ae0611ce5565b6106fa611aef60016003611a7a565b611b06611b28611b1e6002611b1288611b06611c11565b9063ffffffff611b8d16565b9063ffffffff611c3316565b610b266003611c89565b610b1a611c11565b611b38611ce5565b611b48838363ffffffff611cbd16565b15611b5d57611b5683611ad8565b90506106fa565b610754611b6c60016003611a7a565b611b06611b28611b7e87611b06611c11565b610b26611b1e88611b06611c11565b611b95611ce5565b60408051602081019091528251845182916113d5919063ffffffff61143116565b611bbe611ce5565b60408051602081019091528251845182916113d5919063ffffffff61140c16565b805182516000911415611bf4575060016106fa565b8151835111611c04576000611c07565b60025b60ff169392505050565b611c19611ce5565b506040805160208101909152670de0b6b3a7640000815290565b611c3b611ce5565b81611c4a57611b566001611c89565b611c52611ce5565b5060408051602081019091528351815260015b83811015611c8157611c7782866113de565b9150600101611c65565b509392505050565b611c91611ce5565b604080516020810190915280611cb584670de0b6b3a764000063ffffffff6112fd16565b905292915050565b5190511490565b60405180606001604052806000815260200160008152602001600081525090565b6040518060200160405280600081525090565b80356106fa81612364565b80516106fa81612378565b80356106fa81612381565b80516106fa81612381565b600060208284031215611d3657600080fd5b60006115a88484611cf8565b60008060408385031215611d5557600080fd5b6000611d618585611cf8565b9250506020611d7285828601611cf8565b9150509250929050565b600080600060608486031215611d9157600080fd5b6000611d9d8686611cf8565b9350506020611dae86828701611cf8565b9250506040611dbf86828701611d0e565b9150509250925092565b60008060008060808587031215611ddf57600080fd5b6000611deb8787611cf8565b9450506020611dfc87828801611cf8565b9350506040611e0d87828801611d0e565b9250506060611e1e87828801611d0e565b91505092959194509250565b60008060408385031215611e3d57600080fd5b6000611e498585611cf8565b9250506020611d7285828601611d0e565b600060208284031215611e6c57600080fd5b60006115a88484611d03565b600060208284031215611e8a57600080fd5b60006115a88484611d0e565b600060208284031215611ea857600080fd5b60006115a88484611d19565b60008060408385031215611ec757600080fd5b6000611e498585611d0e565b600080600060608486031215611ee857600080fd5b6000611ef48686611d0e565b9350506020611dae86828701611d0e565b611f0e816122cb565b82525050565b611f0e816122d6565b611f0e611f29826122db565b6122e8565b611f0e611f29826122e8565b6000611f45826122be565b611f4f8185610713565b9350611f5f81856020860161231d565b9290920192915050565b611f0e81612307565b611f0e81612312565b6000611f86826122be565b611f9081856122c2565b9350611fa081856020860161231d565b611fa98161234d565b9093019392505050565b6000611fc0601b836122c2565b7f536166654d6174683a206164646974696f6e206f766572666c6f770000000000815260200192915050565b6000611ff9602b836122c2565b7f4d61726b65743a20436f75706f6e207472616e7366657220746f20746865207a81526a65726f206164647265737360a81b602082015260400192915050565b60006120466021836122c2565b7f536166654d6174683a206d756c7469706c69636174696f6e206f766572666c6f8152607760f81b602082015260400192915050565b6000612089602a836122c2565b7f4d61726b65743a20436f75706f6e20617070726f766520746f20746865207a65815269726f206164647265737360b01b602082015260400192915050565b60006120d5602d836122c2565b7f4d61726b65743a20436f75706f6e207472616e736665722066726f6d2074686581526c207a65726f206164647265737360981b602082015260400192915050565b6000612124601b836122c2565b7f4d61726b65743a20546f6f206561726c7920746f2072656465656d0000000000815260200192915050565b611f0e816122e8565b611f0e81612301565b600061216e8284611f2e565b50602001919050565b60006121838286611f3a565b915061218f8285611f1d565b60028201915061219f8284611f3a565b95945050505050565b602081016106fa8284611f05565b606081016121c48286611f05565b6121d16020830185611f05565b6115a86040830184612150565b604081016121ec8285611f05565b6107546020830184612150565b602081016106fa8284611f14565b602081016106fa8284611f69565b602081016106fa8284611f72565b602080825281016107548184611f7b565b602080825281016106fa81611fb3565b602080825281016106fa81611fec565b602080825281016106fa81612039565b602080825281016106fa8161207c565b602080825281016106fa816120c8565b602080825281016106fa81612117565b602081016106fa8284612150565b604081016121ec8285612150565b602081016106fa8284612159565b5190565b90815260200190565b60006106fa826122f5565b151590565b6001600160f01b03191690565b90565b8061071381612357565b6001600160a01b031690565b60ff1690565b60006106fa826122cb565b60006106fa826122eb565b60005b83811015612338578181015183820152602001612320565b83811115612347576000848401525b50505050565b601f01601f191690565b6003811061236157fe5b50565b61236d816122cb565b811461236157600080fd5b61236d816122d6565b61236d816122e856fe4d61726b65743a20496e73756666696369656e7420636f75706f6e2062616c616e63654d61726b65743a20496e73756666696369656e7420636f75706f6e20617070726f76616c457175696c69627269756d20446f6c6c61722050726f746f636f6c205374616b65436f6d7074726f6c6c65723a206e6f7420656e6f756768206f75747374616e64696e672064656274436f6d7074726f6c6c65723a206e6f7420656e6f7567682072656465656d61626c652062616c616e6365a365627a7a723158205882a8da1c63026345674de972048f60114d155771c0be62b62154079cdf694e6c6578706572696d656e74616cf564736f6c63430005110040",
  "source": "/*\r\n    Copyright 2021 Equilibrium Dollar Protocol, based on the works of the Empty Set Squad and Dynamic Dollar Devs\r\n\r\n    Licensed under the Apache License, Version 2.0 (the \"License\");\r\n    you may not use this file except in compliance with the License.\r\n    You may obtain a copy of the License at\r\n\r\n    http://www.apache.org/licenses/LICENSE-2.0\r\n\r\n    Unless required by applicable law or agreed to in writing, software\r\n    distributed under the License is distributed on an \"AS IS\" BASIS,\r\n    WITHOUT WARRANTIES OR CONDITIONS OF ANY KIND, either express or implied.\r\n    See the License for the specific language governing permissions and\r\n    limitations under the License.\r\n*/\r\n\r\npragma solidity ^0.5.17;\r\npragma experimental ABIEncoderV2;\r\n\r\nimport \"@openzeppelin/contracts/math/SafeMath.sol\";\r\nimport \"./Curve.sol\";\r\nimport \"./Comptroller.sol\";\r\nimport \"../Constants.sol\";\r\n\r\ncontract Market is Comptroller, Curve {\r\n    using SafeMath for uint256;\r\n\r\n    bytes32 private constant FILE = \"Market\";\r\n\r\n    event CouponExpiration(uint256 indexed epoch, uint256 couponsExpired, uint256 lessRedeemable, uint256 lessDebt, uint256 newBonded);\r\n    event CouponPurchase(address indexed account, uint256 indexed epoch, uint256 dollarAmount, uint256 couponAmount);\r\n    event CouponRedemption(address indexed account, uint256 indexed epoch, uint256 couponAmount);\r\n    event CouponBurn(address indexed account, uint256 indexed epoch, uint256 couponAmount);\r\n    event CouponTransfer(address indexed from, address indexed to, uint256 indexed epoch, uint256 value);\r\n    event CouponApproval(address indexed owner, address indexed spender, uint256 value);\r\n\r\n    function step() internal {\r\n        // Expire prior coupons\r\n        for (uint256 i = 0; i < expiringCoupons(epoch()); i++) {\r\n            expireCouponsForEpoch(expiringCouponsAtIndex(epoch(), i));\r\n        }\r\n\r\n        // Record expiry for current epoch's coupons\r\n        uint256 expirationEpoch = epoch().add(Constants.getCouponExpiration());\r\n        initializeCouponsExpiration(epoch(), expirationEpoch);\r\n    }\r\n\r\n    function expireCouponsForEpoch(uint256 epoch) private {\r\n        uint256 couponsForEpoch = outstandingCoupons(epoch);\r\n        (uint256 lessRedeemable, uint256 lessDebt, uint256 newBonded) = (0, 0, 0);\r\n\r\n        eliminateOutstandingCoupons(epoch);\r\n\r\n        uint256 totalRedeemable = totalRedeemable();\r\n        uint256 totalCoupons = totalCoupons();\r\n        if (totalRedeemable > totalCoupons) {\r\n            lessRedeemable = totalRedeemable.sub(totalCoupons);\r\n            burnRedeemable(lessRedeemable);\r\n            (, lessDebt, newBonded) = increaseSupply(lessRedeemable);\r\n        }\r\n\r\n        emit CouponExpiration(epoch, couponsForEpoch, lessRedeemable, lessDebt, newBonded);\r\n    }\r\n\r\n    function couponPremium(uint256 amount) public view returns (uint256) {\r\n        return calculateCouponPremium(dollar().totalSupply(), totalDebt(), amount);\r\n    }\r\n\r\n    function couponRedemptionPenalty(uint256 couponEpoch, uint256 couponAmount) public view returns (uint256) {\r\n        uint timeIntoEpoch = block.timestamp % Constants.getEpochStrategy().period;\r\n        uint couponAge = epoch() - couponEpoch;\r\n\r\n        uint couponEpochDecay = Constants.getCouponRedemptionPenaltyDecay() * (Constants.getCouponExpiration() - couponAge) / Constants.getCouponExpiration();\r\n\r\n        if(timeIntoEpoch > couponEpochDecay) {\r\n            return 0;\r\n        }\r\n\r\n        Decimal.D256 memory couponEpochInitialPenalty = Constants.getInitialCouponRedemptionPenalty().div(Decimal.D256({value: Constants.getCouponExpiration() })).mul(Decimal.D256({value: Constants.getCouponExpiration() - couponAge}));\r\n\r\n        Decimal.D256 memory couponEpochDecayedPenalty = couponEpochInitialPenalty.div(Decimal.D256({value: couponEpochDecay})).mul(Decimal.D256({value: couponEpochDecay - timeIntoEpoch}));\r\n\r\n        return Decimal.D256({value: couponAmount}).mul(couponEpochDecayedPenalty).value;\r\n    }\r\n\r\n    function purchaseCoupons(uint256 dollarAmount) external returns (uint256) {\r\n        Require.that(\r\n            dollarAmount > 0,\r\n            FILE,\r\n            \"Must purchase non-zero amount\"\r\n        );\r\n\r\n        Require.that(\r\n            totalDebt() >= dollarAmount,\r\n            FILE,\r\n            \"Not enough debt\"\r\n        );\r\n\r\n        uint256 epoch = epoch();\r\n        uint256 couponAmount = dollarAmount.add(couponPremium(dollarAmount));\r\n        burnFromAccount(msg.sender, dollarAmount);\r\n        incrementBalanceOfCoupons(msg.sender, epoch, couponAmount);\r\n\r\n        emit CouponPurchase(msg.sender, epoch, dollarAmount, couponAmount);\r\n\r\n        return couponAmount;\r\n    }\r\n\r\n    function redeemCoupons(uint256 couponEpoch, uint256 couponAmount) external {\r\n        require(epoch().sub(couponEpoch) >= 2, \"Market: Too early to redeem\");\r\n        decrementBalanceOfCoupons(msg.sender, couponEpoch, couponAmount, \"Market: Insufficient coupon balance\");\r\n        \r\n        uint burnAmount = couponRedemptionPenalty(couponEpoch, couponAmount);\r\n        uint256 redeemAmount = couponAmount - burnAmount;\r\n        \r\n        redeemToAccount(msg.sender, redeemAmount);\r\n\r\n        if(burnAmount > 0){\r\n            emit CouponBurn(msg.sender, couponEpoch, burnAmount);\r\n        }\r\n\r\n        emit CouponRedemption(msg.sender, couponEpoch, redeemAmount);\r\n    }\r\n\r\n    function redeemCoupons(uint256 couponEpoch, uint256 couponAmount, uint256 minOutput) external {\r\n        require(epoch().sub(couponEpoch) >= 2, \"Market: Too early to redeem\");\r\n        decrementBalanceOfCoupons(msg.sender, couponEpoch, couponAmount, \"Market: Insufficient coupon balance\");\r\n        \r\n        uint burnAmount = couponRedemptionPenalty(couponEpoch, couponAmount);\r\n        uint256 redeemAmount = couponAmount - burnAmount;\r\n\r\n        Require.that(\r\n            redeemAmount >= minOutput,\r\n            FILE,\r\n            \"Insufficient output amount\"\r\n        );\r\n        \r\n        redeemToAccount(msg.sender, redeemAmount);\r\n\r\n        if(burnAmount > 0){\r\n            emit CouponBurn(msg.sender, couponEpoch, burnAmount);\r\n        }\r\n\r\n        emit CouponRedemption(msg.sender, couponEpoch, redeemAmount);\r\n    }\r\n\r\n    function approveCoupons(address spender, uint256 amount) external {\r\n        require(spender != address(0), \"Market: Coupon approve to the zero address\");\r\n\r\n        updateAllowanceCoupons(msg.sender, spender, amount);\r\n\r\n        emit CouponApproval(msg.sender, spender, amount);\r\n    }\r\n\r\n    function transferCoupons(address sender, address recipient, uint256 epoch, uint256 amount) external {\r\n        require(sender != address(0), \"Market: Coupon transfer from the zero address\");\r\n        require(recipient != address(0), \"Market: Coupon transfer to the zero address\");\r\n\r\n        decrementBalanceOfCoupons(sender, epoch, amount, \"Market: Insufficient coupon balance\");\r\n        incrementBalanceOfCoupons(recipient, epoch, amount);\r\n\r\n        if (msg.sender != sender && allowanceCoupons(sender, msg.sender) != uint256(-1)) {\r\n            decrementAllowanceCoupons(sender, msg.sender, amount, \"Market: Insufficient coupon approval\");\r\n        }\r\n\r\n        emit CouponTransfer(sender, recipient, epoch, amount);\r\n    }\r\n}\r\n",
  "sourcePath": "D:\\10012021\\fix-project\\equilibrium-protocol\\contracts\\dao\\Market.sol",
  "compiler": {
    "name": "solc",
    "version": "0.5.17+commit.d19bba13.Emscripten.clang"
  },
  "schemaVersion": "3.3.3",
  "updatedAt": "2021-01-16T11:55:51.030Z",
  "devdoc": {
    "methods": {}
  },
  "userdoc": {
    "methods": {
      "balanceOfStaged(address)": {
        "notice": "Account"
      },
      "dollar()": {
        "notice": "Global"
      },
      "epoch()": {
        "notice": "Epoch"
      },
      "name()": {
        "notice": "ERC20 Interface"
      },
      "recordedVote(address,address)": {
        "notice": "Governance"
      },
      "transfer(address,uint256)": {
        "notice": "ERC20 Interface"
      }
    }
  }
}