{
  "contractName": "MockComptroller",
  "abi": [
    {
      "inputs": [
        {
          "internalType": "address",
          "name": "pool",
          "type": "address"
        }
      ],
      "payable": false,
      "stateMutability": "nonpayable",
      "type": "constructor"
    },
    {
      "anonymous": false,
      "inputs": [
        {
          "indexed": true,
          "internalType": "address",
          "name": "from",
          "type": "address"
        },
        {
          "indexed": true,
          "internalType": "address",
          "name": "to",
          "type": "address"
        },
        {
          "indexed": false,
          "internalType": "uint256",
          "name": "value",
          "type": "uint256"
        }
      ],
      "name": "Transfer",
      "type": "event"
    },
    {
      "constant": true,
      "inputs": [
        {
          "internalType": "address",
          "name": "owner",
          "type": "address"
        },
        {
          "internalType": "address",
          "name": "spender",
          "type": "address"
        }
      ],
      "name": "allowance",
      "outputs": [
        {
          "internalType": "uint256",
          "name": "",
          "type": "uint256"
        }
      ],
      "payable": false,
      "stateMutability": "view",
      "type": "function"
    },
    {
      "constant": true,
      "inputs": [
        {
          "internalType": "address",
          "name": "owner",
          "type": "address"
        },
        {
          "internalType": "address",
          "name": "spender",
          "type": "address"
        }
      ],
      "name": "allowanceCoupons",
      "outputs": [
        {
          "internalType": "uint256",
          "name": "",
          "type": "uint256"
        }
      ],
      "payable": false,
      "stateMutability": "view",
      "type": "function"
    },
    {
      "constant": false,
      "inputs": [
        {
          "internalType": "address",
          "name": "spender",
          "type": "address"
        },
        {
          "internalType": "uint256",
          "name": "amount",
          "type": "uint256"
        }
      ],
      "name": "approve",
      "outputs": [
        {
          "internalType": "bool",
          "name": "",
          "type": "bool"
        }
      ],
      "payable": false,
      "stateMutability": "nonpayable",
      "type": "function"
    },
    {
      "constant": true,
      "inputs": [
        {
          "internalType": "address",
          "name": "candidate",
          "type": "address"
        }
      ],
      "name": "approveFor",
      "outputs": [
        {
          "internalType": "uint256",
          "name": "",
          "type": "uint256"
        }
      ],
      "payable": false,
      "stateMutability": "view",
      "type": "function"
    },
    {
      "constant": true,
      "inputs": [
        {
          "internalType": "address",
          "name": "account",
          "type": "address"
        }
      ],
      "name": "balanceOf",
      "outputs": [
        {
          "internalType": "uint256",
          "name": "",
          "type": "uint256"
        }
      ],
      "payable": false,
      "stateMutability": "view",
      "type": "function"
    },
    {
      "constant": true,
      "inputs": [
        {
          "internalType": "address",
          "name": "account",
          "type": "address"
        }
      ],
      "name": "balanceOfBonded",
      "outputs": [
        {
          "internalType": "uint256",
          "name": "",
          "type": "uint256"
        }
      ],
      "payable": false,
      "stateMutability": "view",
      "type": "function"
    },
    {
      "constant": true,
      "inputs": [
        {
          "internalType": "address",
          "name": "account",
          "type": "address"
        },
        {
          "internalType": "uint256",
          "name": "epoch",
          "type": "uint256"
        }
      ],
      "name": "balanceOfCoupons",
      "outputs": [
        {
          "internalType": "uint256",
          "name": "",
          "type": "uint256"
        }
      ],
      "payable": false,
      "stateMutability": "view",
      "type": "function"
    },
    {
      "constant": true,
      "inputs": [
        {
          "internalType": "address",
          "name": "account",
          "type": "address"
        }
      ],
      "name": "balanceOfStaged",
      "outputs": [
        {
          "internalType": "uint256",
          "name": "",
          "type": "uint256"
        }
      ],
      "payable": false,
      "stateMutability": "view",
      "type": "function"
    },
    {
      "constant": true,
      "inputs": [
        {
          "internalType": "uint256",
          "name": "epoch",
          "type": "uint256"
        }
      ],
      "name": "bootstrappingAt",
      "outputs": [
        {
          "internalType": "bool",
          "name": "",
          "type": "bool"
        }
      ],
      "payable": false,
      "stateMutability": "view",
      "type": "function"
    },
    {
      "constant": true,
      "inputs": [
        {
          "internalType": "uint256",
          "name": "epoch",
          "type": "uint256"
        }
      ],
      "name": "couponsExpiration",
      "outputs": [
        {
          "internalType": "uint256",
          "name": "",
          "type": "uint256"
        }
      ],
      "payable": false,
      "stateMutability": "view",
      "type": "function"
    },
    {
      "constant": false,
      "inputs": [
        {
          "internalType": "address",
          "name": "candidate",
          "type": "address"
        },
        {
          "internalType": "uint256",
          "name": "period",
          "type": "uint256"
        }
      ],
      "name": "createCandidateE",
      "outputs": [],
      "payable": false,
      "stateMutability": "nonpayable",
      "type": "function"
    },
    {
      "constant": true,
      "inputs": [],
      "name": "decimals",
      "outputs": [
        {
          "internalType": "uint8",
          "name": "",
          "type": "uint8"
        }
      ],
      "payable": false,
      "stateMutability": "view",
      "type": "function"
    },
    {
      "constant": false,
      "inputs": [
        {
          "internalType": "address",
          "name": "owner",
          "type": "address"
        },
        {
          "internalType": "address",
          "name": "spender",
          "type": "address"
        },
        {
          "internalType": "uint256",
          "name": "amount",
          "type": "uint256"
        },
        {
          "internalType": "string",
          "name": "reason",
          "type": "string"
        }
      ],
      "name": "decrementAllowanceCouponsE",
      "outputs": [],
      "payable": false,
      "stateMutability": "nonpayable",
      "type": "function"
    },
    {
      "constant": false,
      "inputs": [
        {
          "internalType": "address",
          "name": "candidate",
          "type": "address"
        },
        {
          "internalType": "uint256",
          "name": "amount",
          "type": "uint256"
        },
        {
          "internalType": "string",
          "name": "reason",
          "type": "string"
        }
      ],
      "name": "decrementApproveForE",
      "outputs": [],
      "payable": false,
      "stateMutability": "nonpayable",
      "type": "function"
    },
    {
      "constant": false,
      "inputs": [
        {
          "internalType": "address",
          "name": "account",
          "type": "address"
        },
        {
          "internalType": "uint256",
          "name": "epoch",
          "type": "uint256"
        },
        {
          "internalType": "uint256",
          "name": "amount",
          "type": "uint256"
        },
        {
          "internalType": "string",
          "name": "reason",
          "type": "string"
        }
      ],
      "name": "decrementBalanceOfCouponsE",
      "outputs": [],
      "payable": false,
      "stateMutability": "nonpayable",
      "type": "function"
    },
    {
      "constant": false,
      "inputs": [
        {
          "internalType": "address",
          "name": "account",
          "type": "address"
        },
        {
          "internalType": "uint256",
          "name": "amount",
          "type": "uint256"
        },
        {
          "internalType": "string",
          "name": "reason",
          "type": "string"
        }
      ],
      "name": "decrementBalanceOfE",
      "outputs": [],
      "payable": false,
      "stateMutability": "nonpayable",
      "type": "function"
    },
    {
      "constant": false,
      "inputs": [
        {
          "internalType": "address",
          "name": "account",
          "type": "address"
        },
        {
          "internalType": "uint256",
          "name": "amount",
          "type": "uint256"
        },
        {
          "internalType": "string",
          "name": "reason",
          "type": "string"
        }
      ],
      "name": "decrementBalanceOfStagedE",
      "outputs": [],
      "payable": false,
      "stateMutability": "nonpayable",
      "type": "function"
    },
    {
      "constant": false,
      "inputs": [
        {
          "internalType": "address",
          "name": "candidate",
          "type": "address"
        },
        {
          "internalType": "uint256",
          "name": "amount",
          "type": "uint256"
        },
        {
          "internalType": "string",
          "name": "reason",
          "type": "string"
        }
      ],
      "name": "decrementRejectForE",
      "outputs": [],
      "payable": false,
      "stateMutability": "nonpayable",
      "type": "function"
    },
    {
      "constant": false,
      "inputs": [
        {
          "internalType": "uint256",
          "name": "amount",
          "type": "uint256"
        },
        {
          "internalType": "string",
          "name": "reason",
          "type": "string"
        }
      ],
      "name": "decrementTotalBondedE",
      "outputs": [],
      "payable": false,
      "stateMutability": "nonpayable",
      "type": "function"
    },
    {
      "constant": false,
      "inputs": [
        {
          "internalType": "uint256",
          "name": "amount",
          "type": "uint256"
        },
        {
          "internalType": "string",
          "name": "reason",
          "type": "string"
        }
      ],
      "name": "decrementTotalDebtE",
      "outputs": [],
      "payable": false,
      "stateMutability": "nonpayable",
      "type": "function"
    },
    {
      "constant": false,
      "inputs": [
        {
          "internalType": "uint256",
          "name": "amount",
          "type": "uint256"
        },
        {
          "internalType": "string",
          "name": "reason",
          "type": "string"
        }
      ],
      "name": "decrementTotalRedeemableE",
      "outputs": [],
      "payable": false,
      "stateMutability": "nonpayable",
      "type": "function"
    },
    {
      "constant": true,
      "inputs": [],
      "name": "dollar",
      "outputs": [
        {
          "internalType": "contract IDollar",
          "name": "",
          "type": "address"
        }
      ],
      "payable": false,
      "stateMutability": "view",
      "type": "function"
    },
    {
      "constant": false,
      "inputs": [
        {
          "internalType": "uint256",
          "name": "epoch",
          "type": "uint256"
        }
      ],
      "name": "eliminateOutstandingCouponsE",
      "outputs": [],
      "payable": false,
      "stateMutability": "nonpayable",
      "type": "function"
    },
    {
      "constant": true,
      "inputs": [],
      "name": "epoch",
      "outputs": [
        {
          "internalType": "uint256",
          "name": "",
          "type": "uint256"
        }
      ],
      "payable": false,
      "stateMutability": "view",
      "type": "function"
    },
    {
      "constant": true,
      "inputs": [],
      "name": "epochTime",
      "outputs": [
        {
          "internalType": "uint256",
          "name": "",
          "type": "uint256"
        }
      ],
      "payable": false,
      "stateMutability": "view",
      "type": "function"
    },
    {
      "constant": true,
      "inputs": [
        {
          "internalType": "uint256",
          "name": "epoch",
          "type": "uint256"
        }
      ],
      "name": "expiringCoupons",
      "outputs": [
        {
          "internalType": "uint256",
          "name": "",
          "type": "uint256"
        }
      ],
      "payable": false,
      "stateMutability": "view",
      "type": "function"
    },
    {
      "constant": true,
      "inputs": [
        {
          "internalType": "uint256",
          "name": "epoch",
          "type": "uint256"
        },
        {
          "internalType": "uint256",
          "name": "i",
          "type": "uint256"
        }
      ],
      "name": "expiringCouponsAtIndex",
      "outputs": [
        {
          "internalType": "uint256",
          "name": "",
          "type": "uint256"
        }
      ],
      "payable": false,
      "stateMutability": "view",
      "type": "function"
    },
    {
      "constant": true,
      "inputs": [],
      "name": "implementation",
      "outputs": [
        {
          "internalType": "address",
          "name": "impl",
          "type": "address"
        }
      ],
      "payable": false,
      "stateMutability": "view",
      "type": "function"
    },
    {
      "constant": false,
      "inputs": [
        {
          "internalType": "address",
          "name": "candidate",
          "type": "address"
        },
        {
          "internalType": "uint256",
          "name": "amount",
          "type": "uint256"
        }
      ],
      "name": "incrementApproveForE",
      "outputs": [],
      "payable": false,
      "stateMutability": "nonpayable",
      "type": "function"
    },
    {
      "constant": false,
      "inputs": [
        {
          "internalType": "address",
          "name": "account",
          "type": "address"
        },
        {
          "internalType": "uint256",
          "name": "epoch",
          "type": "uint256"
        },
        {
          "internalType": "uint256",
          "name": "amount",
          "type": "uint256"
        }
      ],
      "name": "incrementBalanceOfCouponsE",
      "outputs": [],
      "payable": false,
      "stateMutability": "nonpayable",
      "type": "function"
    },
    {
      "constant": false,
      "inputs": [
        {
          "internalType": "address",
          "name": "account",
          "type": "address"
        },
        {
          "internalType": "uint256",
          "name": "amount",
          "type": "uint256"
        }
      ],
      "name": "incrementBalanceOfE",
      "outputs": [],
      "payable": false,
      "stateMutability": "nonpayable",
      "type": "function"
    },
    {
      "constant": false,
      "inputs": [
        {
          "internalType": "address",
          "name": "account",
          "type": "address"
        },
        {
          "internalType": "uint256",
          "name": "amount",
          "type": "uint256"
        }
      ],
      "name": "incrementBalanceOfStagedE",
      "outputs": [],
      "payable": false,
      "stateMutability": "nonpayable",
      "type": "function"
    },
    {
      "constant": false,
      "inputs": [],
      "name": "incrementEpochE",
      "outputs": [],
      "payable": false,
      "stateMutability": "nonpayable",
      "type": "function"
    },
    {
      "constant": false,
      "inputs": [
        {
          "internalType": "address",
          "name": "candidate",
          "type": "address"
        },
        {
          "internalType": "uint256",
          "name": "amount",
          "type": "uint256"
        }
      ],
      "name": "incrementRejectForE",
      "outputs": [],
      "payable": false,
      "stateMutability": "nonpayable",
      "type": "function"
    },
    {
      "constant": false,
      "inputs": [
        {
          "internalType": "uint256",
          "name": "amount",
          "type": "uint256"
        }
      ],
      "name": "incrementTotalBondedE",
      "outputs": [],
      "payable": false,
      "stateMutability": "nonpayable",
      "type": "function"
    },
    {
      "constant": false,
      "inputs": [
        {
          "internalType": "uint256",
          "name": "amount",
          "type": "uint256"
        }
      ],
      "name": "incrementTotalDebtE",
      "outputs": [],
      "payable": false,
      "stateMutability": "nonpayable",
      "type": "function"
    },
    {
      "constant": false,
      "inputs": [
        {
          "internalType": "uint256",
          "name": "amount",
          "type": "uint256"
        }
      ],
      "name": "incrementTotalRedeemableE",
      "outputs": [],
      "payable": false,
      "stateMutability": "nonpayable",
      "type": "function"
    },
    {
      "constant": false,
      "inputs": [
        {
          "internalType": "uint256",
          "name": "epoch",
          "type": "uint256"
        },
        {
          "internalType": "uint256",
          "name": "expiration",
          "type": "uint256"
        }
      ],
      "name": "initializeCouponsExpirationE",
      "outputs": [],
      "payable": false,
      "stateMutability": "nonpayable",
      "type": "function"
    },
    {
      "constant": false,
      "inputs": [
        {
          "internalType": "address",
          "name": "candidate",
          "type": "address"
        }
      ],
      "name": "initializedE",
      "outputs": [],
      "payable": false,
      "stateMutability": "nonpayable",
      "type": "function"
    },
    {
      "constant": true,
      "inputs": [
        {
          "internalType": "address",
          "name": "candidate",
          "type": "address"
        }
      ],
      "name": "isInitialized",
      "outputs": [
        {
          "internalType": "bool",
          "name": "",
          "type": "bool"
        }
      ],
      "payable": false,
      "stateMutability": "view",
      "type": "function"
    },
    {
      "constant": true,
      "inputs": [
        {
          "internalType": "address",
          "name": "candidate",
          "type": "address"
        }
      ],
      "name": "isNominated",
      "outputs": [
        {
          "internalType": "bool",
          "name": "",
          "type": "bool"
        }
      ],
      "payable": false,
      "stateMutability": "view",
      "type": "function"
    },
    {
      "constant": true,
      "inputs": [],
      "name": "name",
      "outputs": [
        {
          "internalType": "string",
          "name": "",
          "type": "string"
        }
      ],
      "payable": false,
      "stateMutability": "view",
      "type": "function"
    },
    {
      "constant": true,
      "inputs": [],
      "name": "oracle",
      "outputs": [
        {
          "internalType": "contract IOracle",
          "name": "",
          "type": "address"
        }
      ],
      "payable": false,
      "stateMutability": "view",
      "type": "function"
    },
    {
      "constant": true,
      "inputs": [
        {
          "internalType": "uint256",
          "name": "epoch",
          "type": "uint256"
        }
      ],
      "name": "outstandingCoupons",
      "outputs": [
        {
          "internalType": "uint256",
          "name": "",
          "type": "uint256"
        }
      ],
      "payable": false,
      "stateMutability": "view",
      "type": "function"
    },
    {
      "constant": true,
      "inputs": [
        {
          "internalType": "address",
          "name": "candidate",
          "type": "address"
        }
      ],
      "name": "periodFor",
      "outputs": [
        {
          "internalType": "uint256",
          "name": "",
          "type": "uint256"
        }
      ],
      "payable": false,
      "stateMutability": "view",
      "type": "function"
    },
    {
      "constant": false,
      "inputs": [
        {
          "internalType": "address",
          "name": "account",
          "type": "address"
        },
        {
          "internalType": "address",
          "name": "candidate",
          "type": "address"
        }
      ],
      "name": "placeLockE",
      "outputs": [],
      "payable": false,
      "stateMutability": "nonpayable",
      "type": "function"
    },
    {
      "constant": true,
      "inputs": [],
      "name": "pool",
      "outputs": [
        {
          "internalType": "address",
          "name": "",
          "type": "address"
        }
      ],
      "payable": false,
      "stateMutability": "view",
      "type": "function"
    },
    {
      "constant": false,
      "inputs": [
        {
          "internalType": "address",
          "name": "account",
          "type": "address"
        },
        {
          "internalType": "address",
          "name": "candidate",
          "type": "address"
        },
        {
          "internalType": "enum Candidate.Vote",
          "name": "vote",
          "type": "uint8"
        }
      ],
      "name": "recordVoteE",
      "outputs": [],
      "payable": false,
      "stateMutability": "nonpayable",
      "type": "function"
    },
    {
      "constant": true,
      "inputs": [
        {
          "internalType": "address",
          "name": "account",
          "type": "address"
        },
        {
          "internalType": "address",
          "name": "candidate",
          "type": "address"
        }
      ],
      "name": "recordedVote",
      "outputs": [
        {
          "internalType": "enum Candidate.Vote",
          "name": "",
          "type": "uint8"
        }
      ],
      "payable": false,
      "stateMutability": "view",
      "type": "function"
    },
    {
      "constant": true,
      "inputs": [
        {
          "internalType": "address",
          "name": "candidate",
          "type": "address"
        }
      ],
      "name": "rejectFor",
      "outputs": [
        {
          "internalType": "uint256",
          "name": "",
          "type": "uint256"
        }
      ],
      "payable": false,
      "stateMutability": "view",
      "type": "function"
    },
    {
      "constant": false,
      "inputs": [
        {
          "internalType": "uint256",
          "name": "timestamp",
          "type": "uint256"
        }
      ],
      "name": "setBlockTimestamp",
      "outputs": [],
      "payable": false,
      "stateMutability": "nonpayable",
      "type": "function"
    },
    {
      "constant": false,
      "inputs": [
        {
          "internalType": "uint256",
          "name": "start",
          "type": "uint256"
        },
        {
          "internalType": "uint256",
          "name": "period",
          "type": "uint256"
        }
      ],
      "name": "setEpochParamsE",
      "outputs": [],
      "payable": false,
      "stateMutability": "nonpayable",
      "type": "function"
    },
    {
      "constant": false,
      "inputs": [],
      "name": "snapshotTotalBondedE",
      "outputs": [],
      "payable": false,
      "stateMutability": "nonpayable",
      "type": "function"
    },
    {
      "constant": true,
      "inputs": [
        {
          "internalType": "address",
          "name": "candidate",
          "type": "address"
        }
      ],
      "name": "startFor",
      "outputs": [
        {
          "internalType": "uint256",
          "name": "",
          "type": "uint256"
        }
      ],
      "payable": false,
      "stateMutability": "view",
      "type": "function"
    },
    {
      "constant": true,
      "inputs": [
        {
          "internalType": "address",
          "name": "account",
          "type": "address"
        }
      ],
      "name": "statusOf",
      "outputs": [
        {
          "internalType": "enum Account.Status",
          "name": "",
          "type": "uint8"
        }
      ],
      "payable": false,
      "stateMutability": "view",
      "type": "function"
    },
    {
      "constant": true,
      "inputs": [],
      "name": "symbol",
      "outputs": [
        {
          "internalType": "string",
          "name": "",
          "type": "string"
        }
      ],
      "payable": false,
      "stateMutability": "view",
      "type": "function"
    },
    {
      "constant": true,
      "inputs": [],
      "name": "totalBonded",
      "outputs": [
        {
          "internalType": "uint256",
          "name": "",
          "type": "uint256"
        }
      ],
      "payable": false,
      "stateMutability": "view",
      "type": "function"
    },
    {
      "constant": true,
      "inputs": [
        {
          "internalType": "uint256",
          "name": "epoch",
          "type": "uint256"
        }
      ],
      "name": "totalBondedAt",
      "outputs": [
        {
          "internalType": "uint256",
          "name": "",
          "type": "uint256"
        }
      ],
      "payable": false,
      "stateMutability": "view",
      "type": "function"
    },
    {
      "constant": true,
      "inputs": [],
      "name": "totalCoupons",
      "outputs": [
        {
          "internalType": "uint256",
          "name": "",
          "type": "uint256"
        }
      ],
      "payable": false,
      "stateMutability": "view",
      "type": "function"
    },
    {
      "constant": true,
      "inputs": [],
      "name": "totalDebt",
      "outputs": [
        {
          "internalType": "uint256",
          "name": "",
          "type": "uint256"
        }
      ],
      "payable": false,
      "stateMutability": "view",
      "type": "function"
    },
    {
      "constant": true,
      "inputs": [],
      "name": "totalNet",
      "outputs": [
        {
          "internalType": "uint256",
          "name": "",
          "type": "uint256"
        }
      ],
      "payable": false,
      "stateMutability": "view",
      "type": "function"
    },
    {
      "constant": true,
      "inputs": [],
      "name": "totalRedeemable",
      "outputs": [
        {
          "internalType": "uint256",
          "name": "",
          "type": "uint256"
        }
      ],
      "payable": false,
      "stateMutability": "view",
      "type": "function"
    },
    {
      "constant": true,
      "inputs": [],
      "name": "totalStaged",
      "outputs": [
        {
          "internalType": "uint256",
          "name": "",
          "type": "uint256"
        }
      ],
      "payable": false,
      "stateMutability": "view",
      "type": "function"
    },
    {
      "constant": true,
      "inputs": [],
      "name": "totalSupply",
      "outputs": [
        {
          "internalType": "uint256",
          "name": "",
          "type": "uint256"
        }
      ],
      "payable": false,
      "stateMutability": "view",
      "type": "function"
    },
    {
      "constant": false,
      "inputs": [
        {
          "internalType": "address",
          "name": "recipient",
          "type": "address"
        },
        {
          "internalType": "uint256",
          "name": "amount",
          "type": "uint256"
        }
      ],
      "name": "transfer",
      "outputs": [
        {
          "internalType": "bool",
          "name": "",
          "type": "bool"
        }
      ],
      "payable": false,
      "stateMutability": "nonpayable",
      "type": "function"
    },
    {
      "constant": false,
      "inputs": [
        {
          "internalType": "address",
          "name": "sender",
          "type": "address"
        },
        {
          "internalType": "address",
          "name": "recipient",
          "type": "address"
        },
        {
          "internalType": "uint256",
          "name": "amount",
          "type": "uint256"
        }
      ],
      "name": "transferFrom",
      "outputs": [
        {
          "internalType": "bool",
          "name": "",
          "type": "bool"
        }
      ],
      "payable": false,
      "stateMutability": "nonpayable",
      "type": "function"
    },
    {
      "constant": false,
      "inputs": [
        {
          "internalType": "address",
          "name": "account",
          "type": "address"
        }
      ],
      "name": "unfreezeE",
      "outputs": [],
      "payable": false,
      "stateMutability": "nonpayable",
      "type": "function"
    },
    {
      "constant": false,
      "inputs": [
        {
          "internalType": "address",
          "name": "owner",
          "type": "address"
        },
        {
          "internalType": "address",
          "name": "spender",
          "type": "address"
        },
        {
          "internalType": "uint256",
          "name": "amount",
          "type": "uint256"
        }
      ],
      "name": "updateAllowanceCouponsE",
      "outputs": [],
      "payable": false,
      "stateMutability": "nonpayable",
      "type": "function"
    },
    {
      "constant": true,
      "inputs": [
        {
          "internalType": "address",
          "name": "candidate",
          "type": "address"
        }
      ],
      "name": "votesFor",
      "outputs": [
        {
          "internalType": "uint256",
          "name": "",
          "type": "uint256"
        }
      ],
      "payable": false,
      "stateMutability": "view",
      "type": "function"
    },
    {
      "constant": false,
      "inputs": [
        {
          "internalType": "address",
          "name": "account",
          "type": "address"
        },
        {
          "internalType": "uint256",
          "name": "amount",
          "type": "uint256"
        }
      ],
      "name": "mintToAccountE",
      "outputs": [],
      "payable": false,
      "stateMutability": "nonpayable",
      "type": "function"
    },
    {
      "constant": false,
      "inputs": [
        {
          "internalType": "address",
          "name": "account",
          "type": "address"
        },
        {
          "internalType": "uint256",
          "name": "amount",
          "type": "uint256"
        }
      ],
      "name": "burnFromAccountE",
      "outputs": [],
      "payable": false,
      "stateMutability": "nonpayable",
      "type": "function"
    },
    {
      "constant": false,
      "inputs": [
        {
          "internalType": "address",
          "name": "account",
          "type": "address"
        },
        {
          "internalType": "uint256",
          "name": "amount",
          "type": "uint256"
        }
      ],
      "name": "redeemToAccountE",
      "outputs": [],
      "payable": false,
      "stateMutability": "nonpayable",
      "type": "function"
    },
    {
      "constant": false,
      "inputs": [
        {
          "internalType": "uint256",
          "name": "amount",
          "type": "uint256"
        }
      ],
      "name": "burnRedeemableE",
      "outputs": [],
      "payable": false,
      "stateMutability": "nonpayable",
      "type": "function"
    },
    {
      "constant": false,
      "inputs": [
        {
          "internalType": "uint256",
          "name": "amount",
          "type": "uint256"
        }
      ],
      "name": "increaseDebtE",
      "outputs": [],
      "payable": false,
      "stateMutability": "nonpayable",
      "type": "function"
    },
    {
      "constant": false,
      "inputs": [
        {
          "internalType": "uint256",
          "name": "amount",
          "type": "uint256"
        }
      ],
      "name": "decreaseDebtE",
      "outputs": [],
      "payable": false,
      "stateMutability": "nonpayable",
      "type": "function"
    },
    {
      "constant": false,
      "inputs": [
        {
          "internalType": "uint256",
          "name": "percent",
          "type": "uint256"
        }
      ],
      "name": "resetDebtE",
      "outputs": [],
      "payable": false,
      "stateMutability": "nonpayable",
      "type": "function"
    },
    {
      "constant": false,
      "inputs": [
        {
          "internalType": "address",
          "name": "account",
          "type": "address"
        },
        {
          "internalType": "uint256",
          "name": "amount",
          "type": "uint256"
        }
      ],
      "name": "mintToE",
      "outputs": [],
      "payable": false,
      "stateMutability": "nonpayable",
      "type": "function"
    }
  ],
  "bytecode": "0x60806040523480156200001157600080fd5b50604051620046e0380380620046e08339810160408190526200003491620000ba565b42600f55604051620000469062000099565b604051809103906000f08015801562000063573d6000803e3d6000fd5b50600980546001600160a01b039283166001600160a01b031991821617909155600b80549390921692169190911790556200010f565b611c118062002acf83390190565b8051620000b481620000f5565b92915050565b600060208284031215620000cd57600080fd5b6000620000db8484620000a7565b949350505050565b60006001600160a01b038216620000b4565b6200010081620000e3565b81146200010c57600080fd5b50565b6129b0806200011f6000396000f3fe608060405234801561001057600080fd5b506004361061045f5760003560e01c8063825ad6071161024c578063b11ee0e311610146578063d60b347f116100c3578063f1b7cf4911610087578063f1b7cf491461095a578063f35adf7e1461096d578063f7a3181814610975578063fc7b9c1814610988578063ffbe3b73146109905761045f565b8063d60b347f14610900578063d6d8816d14610913578063d83d3ed514610926578063dd62ed3e14610939578063e0abdf66146109475761045f565b8063c2aeb5fe1161010a578063c2aeb5fe146108ac578063c45a3e0a146108bf578063c9aff70c146108d2578063cc8d823c146108e5578063cf023779146108f85761045f565b8063b11ee0e31461084d578063b16144a314610860578063b32a2f9014610873578063bc7513e214610886578063c1410c02146108995761045f565b80639be46493116101d4578063a6f37b5311610198578063a6f37b5314610801578063a9059cbb14610482578063a9b3cf1514610814578063adbff2be14610827578063ae5c23811461083a5761045f565b80639be46493146107ad5780639f6e1b26146107c0578063a00e14d1146107d3578063a50cd8e7146107e6578063a6c409f1146107f95761045f565b8063900cf0cf1161021b578063900cf0cf1461076f57806395d89b411461077757806397a5d5b51461077f5780639a649edc146107925780639b82b49b1461079a5761045f565b8063825ad607146107235780638413e52a1461073657806386cf9f14146107495780638de2e5731461075c5761045f565b80633fbba9a61161035d5780635f14fec8116102e557806371c511eb116102a957806371c511eb146106da57806372924d2a146106e257806375d5024b146106f55780637cb95a32146107085780637dc0d1d01461071b5761045f565b80635f14fec81461067b578063646680221461068e5780636a39e328146106a15780636b862d66146106b457806370a08231146106c75761045f565b80634c7360991161032c5780634c736099146106305780635053e4611461064357806351adeb571461064b5780635c60da1b146106605780635dbf800a146106685761045f565b80633fbba9a6146105e25780633fd4973c14610602578063438735261461061557806344d96e95146106285761045f565b80631fac9732116103eb578063313ce567116103af578063313ce567146105815780633234742214610596578063353a420c146105a95780633a3e6c81146105bc5780633f7bcaf3146105cf5761045f565b80631fac97321461052257806320f6bc901461053557806323b872dd14610548578063259f7adf1461055b578063277805a91461056e5761045f565b806315e14bf61161043257806315e14bf6146104d757806316f0115b146104ea57806318160ddd146104ff5780631a08e22a146105075780631edbcf6c1461051a5761045f565b806306fdde0314610464578063095ea7b3146104825780630dc6d3a3146104a257806310e95b6c146104b7575b600080fd5b61046c6109a3565b60405161047991906127db565b60405180910390f35b610495610490366004612410565b6109c3565b60405161047991906127b1565b6104b56104b0366004612392565b6109cc565b005b6104ca6104c536600461252d565b610a15565b604051610479919061280c565b6104ca6104e53660046122aa565b610a2d565b6104f2610a4b565b6040516104799190612760565b6104ca610a5a565b6104b56105153660046125bf565b610a60565b6104ca610a6e565b6104b561053036600461252d565b610a74565b6104b5610543366004612410565b610a80565b61049561055636600461234f565b610a8a565b6104b561056936600461252d565b610a94565b6104b561057c366004612410565b610a9d565b610589610b29565b604051610479919061281a565b6104b56105a4366004612569565b610b2e565b6104ca6105b73660046122aa565b610b6e565b6104956105ca3660046122aa565b610b8c565b6104b56105dd36600461234f565b610ba9565b6105f56105f03660046122c8565b610bb4565b60405161047991906127cd565b6104b5610610366004612440565b610be7565b6104b561062336600461252d565b610c2e565b6104ca610c37565b6104ca61063e3660046125bf565b610c3d565b6104ca610c6d565b610653610c90565b60405161047991906127bf565b6104f2610c9f565b6104b561067636600461252d565b610cc4565b6104b5610689366004612410565b610ccd565b6104ca61069c3660046122aa565b610cd7565b6104ca6106af36600461252d565b610cf5565b6104b56106c23660046124a8565b610d0a565b6104ca6106d53660046122aa565b610d15565b6104b5610d33565b6104b56106f0366004612569565b610d3d565b61049561070336600461252d565b610d7d565b6104b5610716366004612440565b610d90565b610653610dd1565b6104ca6107313660046122aa565b610de0565b6104b5610744366004612302565b610e2c565b6104ca6107573660046122aa565b610e37565b6104b561076a36600461252d565b610e52565b6104ca610e5b565b61046c610e61565b6105f561078d3660046122aa565b610e80565b6104ca610ee5565b6104b56107a8366004612569565b610eeb565b6104b56107bb3660046122aa565b610f2b565b6104ca6107ce3660046122c8565b610f34565b6104b56107e13660046125bf565b610f63565b6104ca6107f43660046122aa565b610f6e565b6104ca610f91565b6104b561080f3660046122aa565b611027565b6104b561082236600461252d565b611030565b6104b5610835366004612440565b611039565b6104b5610848366004612410565b61107a565b6104b561085b366004612410565b611084565b6104b561086e36600461252d565b61108e565b6104b5610881366004612440565b6110a1565b6104ca610894366004612410565b6110e2565b6104b56108a73660046122c8565b611126565b6104b56108ba3660046124da565b611130565b6104b56108cd366004612410565b611172565b6104ca6108e036600461252d565b61117c565b6104b56108f3366004612410565b611191565b6104ca61119b565b61049561090e3660046122aa565b6111a1565b6104b561092136600461252d565b6111c2565b6104b5610934366004612410565b6111cb565b6104ca6104903660046122c8565b6104b561095536600461252d565b6111d5565b6104ca6109683660046122aa565b6111da565b6104b56111f5565b6104b5610983366004612410565b6111fd565b6104ca611207565b6104ca61099e36600461252d565b61120d565b60606040518060600160405280602181526020016128fb60219139905090565b60005b92915050565b610a0e85858585858080601f01602080910402602001604051908101604052809392919081815260200183838082843760009201919091525061121f92505050565b5050505050565b6000818152600d60205260409020600201545b919050565b6001600160a01b03166000908152600e602052604090206001015490565b600b546001600160a01b031690565b60035490565b610a6a8282611290565b5050565b60065490565b610a7d816112c2565b50565b610a6a8282611309565b60005b9392505050565b610a7d816113b1565b610aa5610c90565b6001600160a01b03166340c10f1983836040518363ffffffff1660e01b8152600401610ad2929190612796565b602060405180830381600087803b158015610aec57600080fd5b505af1158015610b00573d6000803e3d6000fd5b505050506040513d601f19601f82011682018060405250610b24919081019061250f565b505050565b601290565b610b248383838080601f0160208091040260200160405190810160405280939291908181526020018383808284376000920191909152506113ca92505050565b6001600160a01b03166000908152600e602052604090206003015490565b6001600160a01b03166000908152600e6020526040902054151590565b610b248383836113e5565b6001600160a01b038082166000908152600e60209081526040808320938616835260049093019052205460ff1692915050565b610c28848484848080601f01602080910402602001604051908101604052809392919081815260200183838082843760009201919091525061141592505050565b50505050565b610a7d81611466565b60045490565b6000828152600d60205260408120600301805483908110610c5a57fe5b9060005260206000200154905092915050565b6000610c776121f6565b610c7f61147a565b9050610c8a816114a9565b91505090565b6009546001600160a01b031690565b7f360894a13ba1a3210667c828492db98dca3e2076cc3735a920a3ca505d382bbc5490565b610a7d816114cb565b610a6a8282611552565b6001600160a01b03166000908152600e602052604090206002015490565b6000908152600d602052604090206003015490565b610b24838383611663565b6001600160a01b03166000908152600c602052604090206001015490565b610d3b61170a565b565b610b248383838080601f01602080910402602001604051908101604052809392919081815260200183838082843760009201919091525061173192505050565b6000610d8761174c565b90911115919050565b610c28848484848080601f01602080910402602001604051908101604052809392919081815260200183838082843760009201919091525061175292505050565b600a546001600160a01b031690565b600080610deb610a5a565b905080610dfc576000915050610a28565b610a8d81610e20610e0c86610d15565b610e14610c37565b9063ffffffff6117a316565b9063ffffffff6117e616565b610b24838383611828565b6001600160a01b03166000908152600c602052604090205490565b610a7d81611872565b60025490565b6040805180820190915260058152644551442d5360d81b602082015290565b6000610e8a610e5b565b6001600160a01b0383166000908152600c60205260409020600501541115610eb457506002610a28565b6001600160a01b0382166000908152600c6020526040902060040154610ed8610e5b565b10156109c35760016109c6565b60085490565b610b248383838080601f01602080910402602001604051908101604052809392919081815260200183838082843760009201919091525061188b92505050565b610a7d816118a6565b6001600160a01b039182166000908152600c602090815260408083209390941682526003909201909152205490565b600091909155600155565b60006109c6610f7c83610b6e565b610f8584610cd7565b9063ffffffff6118d816565b6000611022610f9e611207565b610fa6610c90565b6001600160a01b03166318160ddd6040518163ffffffff1660e01b815260040160206040518083038186803b158015610fde57600080fd5b505afa158015610ff2573d6000803e3d6000fd5b505050506040513d601f19601f82011682018060405250611016919081019061254b565b9063ffffffff6118fd16565b905090565b610a7d8161193f565b610a7d81611966565b610c28848484848080601f0160208091040260200160405190810160405280939291908181526020018383808284376000920191909152506119a992505050565b610a6a8282611a54565b610a6a8282611afc565b610a7d61109c826064611b58565b611b87565b610c28848484848080601f016020809104026020016040519081016040528093929190818152602001838380828437600092019190915250611c4c92505050565b60006110ed8261117c565b6110f9575060006109c6565b506001600160a01b03919091166000908152600c6020908152604080832093835260029093019052205490565b610a6a8282611cab565b610a0e85858585858080601f016020809104026020016040519081016040528093929190818152602001838380828437600092019190915250611d0b92505050565b610a6a8282611db6565b6000908152600d602052604090206001015490565b610a6a8282611e60565b60055490565b6001600160a01b03166000908152600e602052604090206005015460ff1690565b610a7d81611eaf565b610a6a8282611ec8565b600f55565b6001600160a01b03166000908152600e602052604090205490565b610d3b611ef4565b610a6a8282611f0d565b60075490565b6000908152600d602052604090205490565b6001600160a01b038085166000908152600c60209081526040808320938716835260039093019052205461125a90838363ffffffff611f5c16565b6001600160a01b039485166000908152600c60209081526040808320969097168252600390950190945293909220929092555050565b6000828152600d6020908152604080832060020184905592825291812060030180546001810182559082529190200155565b611301816040518060400160405280601c81526020017f436f6d7074726f6c6c65723a206e6f7420656e6f756768206465627400000000815250611731565b610a7d611f88565b611311610c90565b6001600160a01b03166340c10f1983836040518363ffffffff1660e01b815260040161133e929190612796565b602060405180830381600087803b15801561135857600080fd5b505af115801561136c573d6000803e3d6000fd5b505050506040513d601f19601f82011682018060405250611390919081019061250f565b5061139c610703610e5b565b6113a9576113a981611466565b610a6a611f88565b6004546113c4908263ffffffff6118d816565b60045550565b6006546113de90838363ffffffff611f5c16565b6006555050565b6001600160a01b039283166000908152600c60209081526040808320949095168252600390930190925291902055565b6001600160a01b0383166000908152600e602052604090206003015461144290838363ffffffff611f5c16565b6001600160a01b039093166000908152600e60205260409020600301929092555050565b61146f81611872565b61130161109c61205b565b6114826121f6565b60405180606001604052806000815260200163600450f08152602001610e10815250905090565b60006109c68260000151610f858460400151610e20866020015161101661207d565b6114d3610c90565b6001600160a01b03166342966c68826040518263ffffffff1660e01b81526004016114fe919061280c565b600060405180830381600087803b15801561151857600080fd5b505af115801561152c573d6000803e3d6000fd5b50505050611301816040518060600160405280602a8152602001612944602a91396113ca565b61155a610c90565b6001600160a01b03166323b872dd8330846040518463ffffffff1660e01b81526004016115899392919061276e565b602060405180830381600087803b1580156115a357600080fd5b505af11580156115b7573d6000803e3d6000fd5b505050506040513d601f19601f820116820180604052506115db919081019061250f565b506115e4610c90565b6001600160a01b03166342966c68826040518263ffffffff1660e01b815260040161160f919061280c565b600060405180830381600087803b15801561162957600080fd5b505af115801561163d573d6000803e3d6000fd5b505050506113a98160405180606001604052806028815260200161291c60289139611731565b6001600160a01b0383166000908152600c6020908152604080832085845260020190915290205461169a908263ffffffff6118d816565b6001600160a01b0384166000908152600c60209081526040808320868452600201825280832093909355600d905220600101546116dd908263ffffffff6118d816565b6000838152600d6020526040902060010155600854611702908263ffffffff6118d816565b600855505050565b611712610a5a565b600d600061171e610e5b565b8152602081019190915260400160002055565b60075461174590838363ffffffff611f5c16565b6007555050565b61016890565b6001600160a01b0383166000908152600e602052604090206002015461177f90838363ffffffff611f5c16565b6001600160a01b039093166000908152600e60205260409020600201929092555050565b6000826117b2575060006109c6565b828202828482816117bf57fe5b0414610a8d5760405162461bcd60e51b81526004016117dd906127fc565b60405180910390fd5b6000610a8d83836040518060400160405280601a81526020017f536166654d6174683a206469766973696f6e206279207a65726f000000000000815250612083565b6001600160a01b038083166000908152600e6020908152604080832093871683526004909301905220805482919060ff1916600183600281111561186857fe5b0217905550505050565b600754611885908263ffffffff6118d816565b60075550565b60045461189f90838363ffffffff611f5c16565b6004555050565b6118b96118b16120ba565b610f85610e5b565b6001600160a01b039091166000908152600c6020526040902060040155565b600082820183811015610a8d5760405162461bcd60e51b81526004016117dd906127ec565b6000610a8d83836040518060400160405280601e81526020017f536166654d6174683a207375627472616374696f6e206f766572666c6f770000815250611f5c565b6001600160a01b03166000908152600e60205260409020600501805460ff19166001179055565b60006119718261117c565b90508061197e5750610a7d565b600854611991908263ffffffff6118fd16565b600855506000908152600d6020526040812060010155565b6001600160a01b0383166000908152600c60205260409020600101546119d690838363ffffffff611f5c16565b6001600160a01b0384166000908152600c6020526040902060010155600354611a0690838363ffffffff611f5c16565b6003556040516000906001600160a01b038516907fddf252ad1be2c89b69c2b068fc378daa952ba7f163c4a11628f55a4df523b3ef90611a4790869061280c565b60405180910390a3505050565b6001600160a01b0382166000908152600c6020526040902060010154611a80908263ffffffff6118d816565b6001600160a01b0383166000908152600c6020526040902060010155600354611aaf908263ffffffff6118d816565b6003556040516001600160a01b038316906000907fddf252ad1be2c89b69c2b068fc378daa952ba7f163c4a11628f55a4df523b3ef90611af090859061280c565b60405180910390a35050565b6001600160a01b0382166000908152600c6020526040902054611b25908263ffffffff6118d816565b6001600160a01b0383166000908152600c6020526040902055600554611b51908263ffffffff6118d816565b6005555050565b611b60612217565b6040518060200160405280611b7e85670de0b6b3a7640000866120bf565b90529392505050565b6000611c19611c14611b97610c90565b6001600160a01b03166318160ddd6040518163ffffffff1660e01b815260040160206040518083038186803b158015611bcf57600080fd5b505afa158015611be3573d6000803e3d6000fd5b505050506040513d601f19601f82011682018060405250611c07919081019061254b565b849063ffffffff6120dd16565b612104565b90506000611c25611207565b905081811115610b24576000611c41828463ffffffff6118fd16565b9050610c28816112c2565b6001600160a01b0383166000908152600c6020526040902054611c7690838363ffffffff611f5c16565b6001600160a01b0384166000908152600c6020526040902055600554611ca390838363ffffffff611f5c16565b600555505050565b6001600160a01b0382166000908152600c602052604081206005015490611cdd611cd484610a2d565b610f85856111da565b905081811115610c28576001600160a01b0384166000908152600c6020526040902060050181905550505050565b6001600160a01b0384166000908152600c60209081526040808320868452600201909152902054611d4390838363ffffffff611f5c16565b6001600160a01b0385166000908152600c60209081526040808320878452600201825280832093909355600d90522060010154611d8790838363ffffffff611f5c16565b6000848152600d6020526040902060010155600854611dad90838363ffffffff611f5c16565b60085550505050565b611dbe610c90565b6001600160a01b031663a9059cbb83836040518363ffffffff1660e01b8152600401611deb929190612796565b602060405180830381600087803b158015611e0557600080fd5b505af1158015611e19573d6000803e3d6000fd5b505050506040513d601f19601f82011682018060405250611e3d919081019061250f565b506113a9816040518060600160405280602a8152602001612944602a91396113ca565b6001600160a01b0382166000908152600e6020526040902060030154611e8c908263ffffffff6118d816565b6001600160a01b039092166000908152600e602052604090206003019190915550565b600654611ec2908263ffffffff6118d816565b60065550565b611ed0610e5b565b6001600160a01b039092166000908152600e60205260409020918255600190910155565b600254611f0890600163ffffffff6118d816565b600255565b6001600160a01b0382166000908152600e6020526040902060020154611f39908263ffffffff6118d816565b6001600160a01b039092166000908152600e602052604090206002019190915550565b60008184841115611f805760405162461bcd60e51b81526004016117dd91906127db565b505050900390565b610d3b611fa9611f96610a6e565b610f85611fa161119b565b610f85610c37565b611fb1610c90565b6001600160a01b03166370a08231306040518263ffffffff1660e01b8152600401611fdc9190612760565b60206040518083038186803b158015611ff457600080fd5b505afa158015612008573d6000803e3d6000fd5b505050506040513d601f19601f8201168201806040525061202c919081019061254b565b10156a21b7b6b83a3937b63632b960a91b74496e636f6e73697374656e742062616c616e63657360581b612121565b612063612217565b5060408051602081019091526704db732547630000815290565b600f5490565b600081836120a45760405162461bcd60e51b81526004016117dd91906127db565b5060008385816120b057fe5b0495945050505050565b601890565b60006120d582610e20868663ffffffff6117a316565b949350505050565b6120e5612217565b604080516020810190915283518190611b7e908563ffffffff6117a316565b80516000906109c690670de0b6b3a764000063ffffffff6117e616565b82610b245761212f82612176565b6101d160f51b61213e83612176565b6040516020016121509392919061272f565b60408051601f198184030181529082905262461bcd60e51b82526117dd916004016127db565b6060808260405160200161218a919061271a565b60408051601f19818403018152919052905060205b80156121df578151600019909101908290829081106121ba57fe5b01602001516001600160f81b031916156121da5760010181529050610a28565b61219f565b505060408051600081526020810190915292915050565b60405180606001604052806000815260200160008152602001600081525090565b6040518060200160405280600081525090565b80356109c6816128c7565b80516109c6816128db565b80356109c6816128e4565b60008083601f84011261225d57600080fd5b50813567ffffffffffffffff81111561227557600080fd5b60208301915083600182028301111561228d57600080fd5b9250929050565b80356109c6816128f1565b80516109c6816128f1565b6000602082840312156122bc57600080fd5b60006120d5848461222a565b600080604083850312156122db57600080fd5b60006122e7858561222a565b92505060206122f88582860161222a565b9150509250929050565b60008060006060848603121561231757600080fd5b6000612323868661222a565b93505060206123348682870161222a565b925050604061234586828701612240565b9150509250925092565b60008060006060848603121561236457600080fd5b6000612370868661222a565b93505060206123818682870161222a565b925050604061234586828701612294565b6000806000806000608086880312156123aa57600080fd5b60006123b6888861222a565b95505060206123c78882890161222a565b94505060406123d888828901612294565b935050606086013567ffffffffffffffff8111156123f557600080fd5b6124018882890161224b565b92509250509295509295909350565b6000806040838503121561242357600080fd5b600061242f858561222a565b92505060206122f885828601612294565b6000806000806060858703121561245657600080fd5b6000612462878761222a565b945050602061247387828801612294565b935050604085013567ffffffffffffffff81111561249057600080fd5b61249c8782880161224b565b95989497509550505050565b6000806000606084860312156124bd57600080fd5b60006124c9868661222a565b935050602061238186828701612294565b6000806000806000608086880312156124f257600080fd5b60006124fe888861222a565b95505060206123c788828901612294565b60006020828403121561252157600080fd5b60006120d58484612235565b60006020828403121561253f57600080fd5b60006120d58484612294565b60006020828403121561255d57600080fd5b60006120d5848461229f565b60008060006040848603121561257e57600080fd5b600061258a8686612294565b935050602084013567ffffffffffffffff8111156125a757600080fd5b6125b38682870161224b565b92509250509250925092565b600080604083850312156125d257600080fd5b600061242f8585612294565b6125e781612835565b82525050565b6125e781612840565b6125e761260282612845565b612852565b6125e761260282612852565b600061261e82612828565b6126288185610a28565b9350612638818560208601612887565b9290920192915050565b6125e781612871565b6125e78161287c565b600061265f82612828565b612669818561282c565b9350612679818560208601612887565b612682816128b3565b9093019392505050565b6000612699601b8361282c565b7f536166654d6174683a206164646974696f6e206f766572666c6f770000000000815260200192915050565b60006126d260218361282c565b7f536166654d6174683a206d756c7469706c69636174696f6e206f766572666c6f8152607760f81b602082015260400192915050565b6125e781612852565b6125e78161286b565b60006127268284612607565b50602001919050565b600061273b8286612613565b915061274782856125f6565b6002820191506127578284612613565b95945050505050565b602081016109c682846125de565b6060810161277c82866125de565b61278960208301856125de565b6120d56040830184612708565b604081016127a482856125de565b610a8d6020830184612708565b602081016109c682846125ed565b602081016109c68284612642565b602081016109c6828461264b565b60208082528101610a8d8184612654565b602080825281016109c68161268c565b602080825281016109c6816126c5565b602081016109c68284612708565b602081016109c68284612711565b5190565b90815260200190565b60006109c68261285f565b151590565b6001600160f01b03191690565b90565b80610a28816128bd565b6001600160a01b031690565b60ff1690565b60006109c682612835565b60006109c682612855565b60005b838110156128a257818101518382015260200161288a565b83811115610c285750506000910152565b601f01601f191690565b60038110610a7d57fe5b6128d081612835565b8114610a7d57600080fd5b6128d081612840565b60038110610a7d57600080fd5b6128d08161285256fe457175696c69627269756d20446f6c6c61722050726f746f636f6c205374616b65436f6d7074726f6c6c65723a206e6f7420656e6f756768206f75747374616e64696e672064656274436f6d7074726f6c6c65723a206e6f7420656e6f7567682072656465656d61626c652062616c616e6365a365627a7a7231582066bebf9071736a387abc50707a727430fee17f315ad9eb9ae2d97e071b1d51d56c6578706572696d656e74616cf564736f6c6343000511004060806040523480156200001157600080fd5b506040518060400160405280601b81526020017f457175696c69627269756d20446f6c6c61722050726f746f636f6c00000000008152506040518060400160405280600381526020016211545160ea1b8152506012620000896200007a6200012460201b60201c565b6001600160e01b036200012916565b82516200009e9060019060208601906200031e565b508151620000b49060029060208501906200031e565b506003805460ff191660ff92909216919091179055506200011b9050620000da6200017b565b604051806040016040528060018152602001603160f81b815250620001096200021460201b620016341760201c565b306200021960201b620016391760201c565b60075562000474565b335b90565b620001448160006200027060201b62000d7e1790919060201c565b6040516001600160a01b038216907f6ae172837ea30b801fbfcdd4108aa1d5bf8ff775444fd70256b44e6bf3dfc3f690600090a250565b60018054604080516020601f600260001961010087891615020190951694909404938401819004810282018101909252828152606093909290918301828280156200020a5780601f10620001de576101008083540402835291602001916200020a565b820191906000526020600020905b815481529060010190602001808311620001ec57829003601f168201915b5050505050905090565b603890565b8351602094850120835193850193909320604080517f8b73c3c69bb8fe3d512ecc4cf759cc79239f7b179b0ffacaa9a75d522b39400f815295860194909452928401929092526060830152608082015260a0902090565b6200028582826001600160e01b03620002d316565b15620002ae5760405162461bcd60e51b8152600401620002a59062000441565b60405180910390fd5b6001600160a01b0316600090815260209190915260409020805460ff19166001179055565b60006001600160a01b038216620002fe5760405162461bcd60e51b8152600401620002a59062000459565b506001600160a01b03166000908152602091909152604090205460ff1690565b828054600181600116156101000203166002900490600052602060002090601f016020900481019282601f106200036157805160ff191683800117855562000391565b8280016001018555821562000391579182015b828111156200039157825182559160200191906001019062000374565b506200039f929150620003a3565b5090565b6200012691905b808211156200039f5760008155600101620003aa565b6000620003cf601f836200046b565b7f526f6c65733a206163636f756e7420616c72656164792068617320726f6c6500815260200192915050565b60006200040a6022836200046b565b7f526f6c65733a206163636f756e7420697320746865207a65726f206164647265815261737360f01b602082015260400192915050565b602080825281016200045381620003c0565b92915050565b602080825281016200045381620003fb565b90815260200190565b61178d80620004846000396000f3fe608060405234801561001057600080fd5b506004361061012c5760003560e01c806395d89b41116100ad578063aa271e1a11610071578063aa271e1a14610256578063d505accf14610269578063dab400f31461027c578063dd62ed3e14610284578063e879c19f146102975761012c565b806395d89b411461020d578063983b2d56146102155780639865027514610228578063a457c2d714610230578063a9059cbb146102435761012c565b806339509351116100f457806339509351146101ac57806340c10f19146101bf57806342966c68146101d257806370a08231146101e757806379cc6790146101fa5761012c565b806306fdde0314610131578063095ea7b31461014f57806318160ddd1461016f57806323b872dd14610184578063313ce56714610197575b600080fd5b61013961029f565b60405161014691906114c6565b60405180910390f35b61016261015d366004610ffc565b610334565b604051610146919061141b565b610177610352565b6040516101469190611429565b610162610192366004610f13565b610358565b61019f6103ca565b6040516101469190611587565b6101626101ba366004610ffc565b6103d3565b6101626101cd366004610ffc565b610427565b6101e56101e036600461102c565b610463565b005b6101776101f5366004610eb3565b610477565b6101e5610208366004610ffc565b610496565b6101396104a4565b6101e5610223366004610eb3565b610502565b6101e5610532565b61016261023e366004610ffc565b610544565b610162610251366004610ffc565b6105b2565b610162610264366004610eb3565b6105c6565b6101e5610277366004610f60565b6105d8565b61017761075f565b610177610292366004610ed9565b610765565b610177610790565b60018054604080516020601f6002600019610100878916150201909516949094049384018190048102820181019092528281526060939092909183018282801561032a5780601f106102ff5761010080835404028352916020019161032a565b820191906000526020600020905b81548152906001019060200180831161030d57829003601f168201915b5050505050905090565b60006103486103416107b4565b84846107b8565b5060015b92915050565b60065490565b600061036584848461086c565b600019610374856102926107b4565b146103c0576103c0846103856107b4565b6103bb856040518060600160405280602981526020016116fd602991396103ae8a6102926107b4565b919063ffffffff61098216565b6107b8565b5060019392505050565b60035460ff1690565b60006103486103e06107b4565b846103bb85600560006103f16107b4565b6001600160a01b03908116825260208083019390935260409182016000908120918c16815292529020549063ffffffff6109ae16565b60006104346102646107b4565b6104595760405162461bcd60e51b815260040161045090611517565b60405180910390fd5b61034883836109da565b61047461046e6107b4565b82610a9a565b50565b6001600160a01b0381166000908152600460205260409020545b919050565b6104a08282610b70565b5050565b60028054604080516020601f600019610100600187161502019094168590049384018190048102820181019092528281526060939092909183018282801561032a5780601f106102ff5761010080835404028352916020019161032a565b61050d6102646107b4565b6105295760405162461bcd60e51b815260040161045090611517565b61047481610beb565b61054261053d6107b4565b610c33565b565b60006103486105516107b4565b846103bb85604051806060016040528060258152602001611726602591396005600061057b6107b4565b6001600160a01b03908116825260208083019390935260409182016000908120918d1681529252902054919063ffffffff61098216565b60006103486105bf6107b4565b848461086c565b600061034c818363ffffffff610c7b16565b6007546001600160a01b03881660009081526008602090815260408083208054600181019091559051929361065a93909261063f927f6e71edae12b1b97f4d1f60370fef10105fa2faae0126114a169c64845d6126c9928e928e928e9290918e9101611437565b60405160208183030381529060405280519060200120610cc3565b90506000600182868686604051600081526020016040526040516106819493929190611491565b6020604051602081039080840390855afa1580156106a3573d6000803e3d6000fd5b5050506020604051035190506106f0896001600160a01b0316826001600160a01b0316146a5065726d69747461626c6560a81b70496e76616c6964207369676e617475726560781b610ce2565b6107236001600160a01b03821615156a5065726d69747461626c6560a81b6b5a65726f206164647265737360a01b610ce2565b610749864211156a5065726d69747461626c6560a81b66115e1c1a5c995960ca1b610ce2565b6107548989896107b8565b505050505050505050565b60075481565b6001600160a01b03918216600090815260056020908152604080832093909416825291909152205490565b7f6e71edae12b1b97f4d1f60370fef10105fa2faae0126114a169c64845d6126c981565b3390565b6001600160a01b0383166107de5760405162461bcd60e51b815260040161045090611567565b6001600160a01b0382166108045760405162461bcd60e51b8152600401610450906114f7565b6001600160a01b0380841660008181526005602090815260408083209487168084529490915290819020849055517f8c5be1e5ebec7d5bd14f71427d1e84f3dd0314c0f7b2291e5b200ac8c7c3b9259061085f908590611429565b60405180910390a3505050565b6001600160a01b0383166108925760405162461bcd60e51b815260040161045090611557565b6001600160a01b0382166108b85760405162461bcd60e51b8152600401610450906114d7565b6108fb816040518060600160405280602681526020016116b3602691396001600160a01b038616600090815260046020526040902054919063ffffffff61098216565b6001600160a01b038085166000908152600460205260408082209390935590841681522054610930908263ffffffff6109ae16565b6001600160a01b0380841660008181526004602052604090819020939093559151908516907fddf252ad1be2c89b69c2b068fc378daa952ba7f163c4a11628f55a4df523b3ef9061085f908590611429565b600081848411156109a65760405162461bcd60e51b815260040161045091906114c6565b505050900390565b6000828201838110156109d35760405162461bcd60e51b815260040161045090611507565b9392505050565b6001600160a01b038216610a005760405162461bcd60e51b815260040161045090611577565b600654610a13908263ffffffff6109ae16565b6006556001600160a01b038216600090815260046020526040902054610a3f908263ffffffff6109ae16565b6001600160a01b0383166000818152600460205260408082209390935591519091907fddf252ad1be2c89b69c2b068fc378daa952ba7f163c4a11628f55a4df523b3ef90610a8e908590611429565b60405180910390a35050565b6001600160a01b038216610ac05760405162461bcd60e51b815260040161045090611547565b610b0381604051806060016040528060228152602001611691602291396001600160a01b038516600090815260046020526040902054919063ffffffff61098216565b6001600160a01b038316600090815260046020526040902055600654610b2f908263ffffffff610d3c16565b6006556040516000906001600160a01b038416907fddf252ad1be2c89b69c2b068fc378daa952ba7f163c4a11628f55a4df523b3ef90610a8e908590611429565b610b7a8282610a9a565b6104a082610b866107b4565b6103bb846040518060600160405280602481526020016116d9602491396001600160a01b038816600090815260056020526040812090610bc46107b4565b6001600160a01b03168152602081019190915260400160002054919063ffffffff61098216565b610bfc60008263ffffffff610d7e16565b6040516001600160a01b038216907f6ae172837ea30b801fbfcdd4108aa1d5bf8ff775444fd70256b44e6bf3dfc3f690600090a250565b610c4460008263ffffffff610dca16565b6040516001600160a01b038216907fe94479a9f7e1952cc78f2d6baab678adc1b772d936c6583def489e524cb6669290600090a250565b60006001600160a01b038216610ca35760405162461bcd60e51b815260040161045090611537565b506001600160a01b03166000908152602091909152604090205460ff1690565b60405161190160f01b8152600281019290925260228201526042902090565b82610d3757610cf082610e12565b6101d160f51b610cff83610e12565b604051602001610d11939291906113ea565b60408051601f198184030181529082905262461bcd60e51b8252610450916004016114c6565b505050565b60006109d383836040518060400160405280601e81526020017f536166654d6174683a207375627472616374696f6e206f766572666c6f770000815250610982565b610d888282610c7b565b15610da55760405162461bcd60e51b8152600401610450906114e7565b6001600160a01b0316600090815260209190915260409020805460ff19166001179055565b610dd48282610c7b565b610df05760405162461bcd60e51b815260040161045090611527565b6001600160a01b0316600090815260209190915260409020805460ff19169055565b60608082604051602001610e2691906113d5565b60408051601f19818403018152919052905060205b8015610e7b57815160001990910190829082908110610e5657fe5b01602001516001600160f81b03191615610e765760010181529050610491565b610e3b565b505060408051600081526020810190915292915050565b803561034c8161160e565b803561034c81611622565b803561034c8161162b565b600060208284031215610ec557600080fd5b6000610ed18484610e92565b949350505050565b60008060408385031215610eec57600080fd5b6000610ef88585610e92565b9250506020610f0985828601610e92565b9150509250929050565b600080600060608486031215610f2857600080fd5b6000610f348686610e92565b9350506020610f4586828701610e92565b9250506040610f5686828701610e9d565b9150509250925092565b600080600080600080600060e0888a031215610f7b57600080fd5b6000610f878a8a610e92565b9750506020610f988a828b01610e92565b9650506040610fa98a828b01610e9d565b9550506060610fba8a828b01610e9d565b9450506080610fcb8a828b01610ea8565b93505060a0610fdc8a828b01610e9d565b92505060c0610fed8a828b01610e9d565b91505092959891949750929550565b6000806040838503121561100f57600080fd5b600061101b8585610e92565b9250506020610f0985828601610e9d565b60006020828403121561103e57600080fd5b6000610ed18484610e9d565b611053816115a2565b82525050565b611053816115ad565b61105361106e826115b2565b6115bf565b611053816115bf565b61105361106e826115bf565b600061109382611595565b61109d8185610491565b93506110ad8185602086016115d4565b9290920192915050565b60006110c282611595565b6110cc8185611599565b93506110dc8185602086016115d4565b6110e581611604565b9093019392505050565b60006110fc602383611599565b7f45524332303a207472616e7366657220746f20746865207a65726f206164647281526265737360e81b602082015260400192915050565b6000611141601f83611599565b7f526f6c65733a206163636f756e7420616c72656164792068617320726f6c6500815260200192915050565b600061117a602283611599565b7f45524332303a20617070726f766520746f20746865207a65726f206164647265815261737360f01b602082015260400192915050565b60006111be601b83611599565b7f536166654d6174683a206164646974696f6e206f766572666c6f770000000000815260200192915050565b60006111f7603083611599565b7f4d696e746572526f6c653a2063616c6c657220646f6573206e6f74206861766581526f20746865204d696e74657220726f6c6560801b602082015260400192915050565b6000611249602183611599565b7f526f6c65733a206163636f756e7420646f6573206e6f74206861766520726f6c8152606560f81b602082015260400192915050565b600061128c602283611599565b7f526f6c65733a206163636f756e7420697320746865207a65726f206164647265815261737360f01b602082015260400192915050565b60006112d0602183611599565b7f45524332303a206275726e2066726f6d20746865207a65726f206164647265738152607360f81b602082015260400192915050565b6000611313602583611599565b7f45524332303a207472616e736665722066726f6d20746865207a65726f206164815264647265737360d81b602082015260400192915050565b600061135a602483611599565b7f45524332303a20617070726f76652066726f6d20746865207a65726f206164648152637265737360e01b602082015260400192915050565b60006113a0601f83611599565b7f45524332303a206d696e7420746f20746865207a65726f206164647265737300815260200192915050565b611053816115ce565b60006113e1828461107c565b50602001919050565b60006113f68286611088565b91506114028285611062565b6002820191506114128284611088565b95945050505050565b6020810161034c8284611059565b6020810161034c8284611073565b60c081016114458289611073565b611452602083018861104a565b61145f604083018761104a565b61146c6060830186611073565b6114796080830185611073565b61148660a0830184611073565b979650505050505050565b6080810161149f8287611073565b6114ac60208301866113cc565b6114b96040830185611073565b6114126060830184611073565b602080825281016109d381846110b7565b6020808252810161034c816110ef565b6020808252810161034c81611134565b6020808252810161034c8161116d565b6020808252810161034c816111b1565b6020808252810161034c816111ea565b6020808252810161034c8161123c565b6020808252810161034c8161127f565b6020808252810161034c816112c3565b6020808252810161034c81611306565b6020808252810161034c8161134d565b6020808252810161034c81611393565b6020810161034c82846113cc565b5190565b90815260200190565b600061034c826115c2565b151590565b6001600160f01b03191690565b90565b6001600160a01b031690565b60ff1690565b60005b838110156115ef5781810151838201526020016115d7565b838111156115fe576000848401525b50505050565b601f01601f191690565b611617816115a2565b811461047457600080fd5b611617816115bf565b611617816115ce565b603890565b8351602094850120835193850193909320604080517f8b73c3c69bb8fe3d512ecc4cf759cc79239f7b179b0ffacaa9a75d522b39400f815295860194909452928401929092526060830152608082015260a090209056fe45524332303a206275726e20616d6f756e7420657863656564732062616c616e636545524332303a207472616e7366657220616d6f756e7420657863656564732062616c616e636545524332303a206275726e20616d6f756e74206578636565647320616c6c6f77616e6365446f6c6c61723a207472616e7366657220616d6f756e74206578636565647320616c6c6f77616e636545524332303a2064656372656173656420616c6c6f77616e63652062656c6f77207a65726fa365627a7a723158204694b69abad0392de6c6e24c32ff990134454b52668a4ecc34088fbbb051539e6c6578706572696d656e74616cf564736f6c63430005110040",
  "source": "/*\r\n    Copyright 2021 Equilibrium Dollar Protocol, based on the works of the Empty Set Squad and Dynamic Dollar Devs\r\n\r\n    Licensed under the Apache License, Version 2.0 (the \"License\");\r\n    you may not use this file except in compliance with the License.\r\n    You may obtain a copy of the License at\r\n\r\n    http://www.apache.org/licenses/LICENSE-2.0\r\n\r\n    Unless required by applicable law or agreed to in writing, software\r\n    distributed under the License is distributed on an \"AS IS\" BASIS,\r\n    WITHOUT WARRANTIES OR CONDITIONS OF ANY KIND, either express or implied.\r\n    See the License for the specific language governing permissions and\r\n    limitations under the License.\r\n*/\r\n\r\npragma solidity ^0.5.17;\r\npragma experimental ABIEncoderV2;\r\n\r\nimport \"../dao/Comptroller.sol\";\r\nimport \"../token/Dollar.sol\";\r\nimport \"./MockState.sol\";\r\n\r\ncontract MockComptroller is Comptroller, MockState {\r\n    constructor(address pool) public {\r\n        _state.provider.dollar = new Dollar();\r\n        _state.provider.pool = pool;\r\n    }\r\n\r\n    function mintToAccountE(address account, uint256 amount) external {\r\n        super.mintToAccount(account, amount);\r\n    }\r\n\r\n    function burnFromAccountE(address account, uint256 amount) external {\r\n        super.burnFromAccount(account, amount);\r\n    }\r\n\r\n    function redeemToAccountE(address account, uint256 amount) external {\r\n        super.redeemToAccount(account, amount);\r\n    }\r\n\r\n    function burnRedeemableE(uint256 amount) external {\r\n        super.burnRedeemable(amount);\r\n    }\r\n\r\n    function increaseDebtE(uint256 amount) external {\r\n        super.increaseDebt(amount);\r\n    }\r\n\r\n    function decreaseDebtE(uint256 amount) external {\r\n        super.decreaseDebt(amount);\r\n    }\r\n\r\n    function resetDebtE(uint256 percent) external {\r\n        super.resetDebt(Decimal.ratio(percent, 100));\r\n    }\r\n\r\n    /* For testing only */\r\n    function mintToE(address account, uint256 amount) external {\r\n        dollar().mint(account, amount);\r\n    }\r\n}\r\n",
  "sourcePath": "D:\\10012021\\fix-project\\equilibrium-protocol\\contracts\\mock\\MockComptroller.sol",
  "compiler": {
    "name": "solc",
    "version": "0.5.17+commit.d19bba13.Emscripten.clang"
  },
  "schemaVersion": "3.3.3",
  "updatedAt": "2021-01-16T11:55:51.109Z",
  "devdoc": {
    "methods": {}
  },
  "userdoc": {
    "methods": {
      "balanceOfStaged(address)": {
        "notice": "Account"
      },
      "createCandidateE(address,uint256)": {
        "notice": "Governance"
      },
      "dollar()": {
        "notice": "Global"
      },
      "epoch()": {
        "notice": "Epoch"
      },
      "incrementBalanceOfE(address,uint256)": {
        "notice": "Account"
      },
      "incrementTotalBondedE(uint256)": {
        "notice": "Global"
      },
      "name()": {
        "notice": "ERC20 Interface"
      },
      "recordedVote(address,address)": {
        "notice": "Governance"
      },
      "setBlockTimestamp(uint256)": {
        "notice": "Mock"
      },
      "setEpochParamsE(uint256,uint256)": {
        "notice": "Epoch"
      },
      "transfer(address,uint256)": {
        "notice": "ERC20 Interface"
      }
    }
  }
}