{
  "contractName": "MockRegulator",
  "abi": [
    {
      "inputs": [
        {
          "internalType": "address",
          "name": "oracle",
          "type": "address"
        },
        {
          "internalType": "address",
          "name": "pool",
          "type": "address"
        }
      ],
      "payable": false,
      "stateMutability": "nonpayable",
      "type": "constructor"
    },
    {
      "anonymous": false,
      "inputs": [
        {
          "indexed": true,
          "internalType": "uint256",
          "name": "epoch",
          "type": "uint256"
        },
        {
          "indexed": false,
          "internalType": "uint256",
          "name": "price",
          "type": "uint256"
        },
        {
          "indexed": false,
          "internalType": "uint256",
          "name": "newDebt",
          "type": "uint256"
        }
      ],
      "name": "SupplyDecrease",
      "type": "event"
    },
    {
      "anonymous": false,
      "inputs": [
        {
          "indexed": true,
          "internalType": "uint256",
          "name": "epoch",
          "type": "uint256"
        },
        {
          "indexed": false,
          "internalType": "uint256",
          "name": "price",
          "type": "uint256"
        },
        {
          "indexed": false,
          "internalType": "uint256",
          "name": "newRedeemable",
          "type": "uint256"
        },
        {
          "indexed": false,
          "internalType": "uint256",
          "name": "lessDebt",
          "type": "uint256"
        },
        {
          "indexed": false,
          "internalType": "uint256",
          "name": "newBonded",
          "type": "uint256"
        }
      ],
      "name": "SupplyIncrease",
      "type": "event"
    },
    {
      "anonymous": false,
      "inputs": [
        {
          "indexed": true,
          "internalType": "uint256",
          "name": "epoch",
          "type": "uint256"
        }
      ],
      "name": "SupplyNeutral",
      "type": "event"
    },
    {
      "anonymous": false,
      "inputs": [
        {
          "indexed": true,
          "internalType": "address",
          "name": "from",
          "type": "address"
        },
        {
          "indexed": true,
          "internalType": "address",
          "name": "to",
          "type": "address"
        },
        {
          "indexed": false,
          "internalType": "uint256",
          "name": "value",
          "type": "uint256"
        }
      ],
      "name": "Transfer",
      "type": "event"
    },
    {
      "constant": true,
      "inputs": [
        {
          "internalType": "address",
          "name": "owner",
          "type": "address"
        },
        {
          "internalType": "address",
          "name": "spender",
          "type": "address"
        }
      ],
      "name": "allowance",
      "outputs": [
        {
          "internalType": "uint256",
          "name": "",
          "type": "uint256"
        }
      ],
      "payable": false,
      "stateMutability": "view",
      "type": "function"
    },
    {
      "constant": true,
      "inputs": [
        {
          "internalType": "address",
          "name": "owner",
          "type": "address"
        },
        {
          "internalType": "address",
          "name": "spender",
          "type": "address"
        }
      ],
      "name": "allowanceCoupons",
      "outputs": [
        {
          "internalType": "uint256",
          "name": "",
          "type": "uint256"
        }
      ],
      "payable": false,
      "stateMutability": "view",
      "type": "function"
    },
    {
      "constant": false,
      "inputs": [
        {
          "internalType": "address",
          "name": "spender",
          "type": "address"
        },
        {
          "internalType": "uint256",
          "name": "amount",
          "type": "uint256"
        }
      ],
      "name": "approve",
      "outputs": [
        {
          "internalType": "bool",
          "name": "",
          "type": "bool"
        }
      ],
      "payable": false,
      "stateMutability": "nonpayable",
      "type": "function"
    },
    {
      "constant": true,
      "inputs": [
        {
          "internalType": "address",
          "name": "candidate",
          "type": "address"
        }
      ],
      "name": "approveFor",
      "outputs": [
        {
          "internalType": "uint256",
          "name": "",
          "type": "uint256"
        }
      ],
      "payable": false,
      "stateMutability": "view",
      "type": "function"
    },
    {
      "constant": true,
      "inputs": [
        {
          "internalType": "address",
          "name": "account",
          "type": "address"
        }
      ],
      "name": "balanceOf",
      "outputs": [
        {
          "internalType": "uint256",
          "name": "",
          "type": "uint256"
        }
      ],
      "payable": false,
      "stateMutability": "view",
      "type": "function"
    },
    {
      "constant": true,
      "inputs": [
        {
          "internalType": "address",
          "name": "account",
          "type": "address"
        }
      ],
      "name": "balanceOfBonded",
      "outputs": [
        {
          "internalType": "uint256",
          "name": "",
          "type": "uint256"
        }
      ],
      "payable": false,
      "stateMutability": "view",
      "type": "function"
    },
    {
      "constant": true,
      "inputs": [
        {
          "internalType": "address",
          "name": "account",
          "type": "address"
        },
        {
          "internalType": "uint256",
          "name": "epoch",
          "type": "uint256"
        }
      ],
      "name": "balanceOfCoupons",
      "outputs": [
        {
          "internalType": "uint256",
          "name": "",
          "type": "uint256"
        }
      ],
      "payable": false,
      "stateMutability": "view",
      "type": "function"
    },
    {
      "constant": true,
      "inputs": [
        {
          "internalType": "address",
          "name": "account",
          "type": "address"
        }
      ],
      "name": "balanceOfStaged",
      "outputs": [
        {
          "internalType": "uint256",
          "name": "",
          "type": "uint256"
        }
      ],
      "payable": false,
      "stateMutability": "view",
      "type": "function"
    },
    {
      "constant": false,
      "inputs": [
        {
          "internalType": "address",
          "name": "account",
          "type": "address"
        },
        {
          "internalType": "uint256",
          "name": "amount",
          "type": "uint256"
        }
      ],
      "name": "burnFromAccountE",
      "outputs": [],
      "payable": false,
      "stateMutability": "nonpayable",
      "type": "function"
    },
    {
      "constant": false,
      "inputs": [
        {
          "internalType": "uint256",
          "name": "amount",
          "type": "uint256"
        }
      ],
      "name": "burnRedeemableE",
      "outputs": [],
      "payable": false,
      "stateMutability": "nonpayable",
      "type": "function"
    },
    {
      "constant": true,
      "inputs": [
        {
          "internalType": "uint256",
          "name": "epoch",
          "type": "uint256"
        }
      ],
      "name": "couponsExpiration",
      "outputs": [
        {
          "internalType": "uint256",
          "name": "",
          "type": "uint256"
        }
      ],
      "payable": false,
      "stateMutability": "view",
      "type": "function"
    },
    {
      "constant": false,
      "inputs": [
        {
          "internalType": "address",
          "name": "candidate",
          "type": "address"
        },
        {
          "internalType": "uint256",
          "name": "period",
          "type": "uint256"
        }
      ],
      "name": "createCandidateE",
      "outputs": [],
      "payable": false,
      "stateMutability": "nonpayable",
      "type": "function"
    },
    {
      "constant": true,
      "inputs": [],
      "name": "decimals",
      "outputs": [
        {
          "internalType": "uint8",
          "name": "",
          "type": "uint8"
        }
      ],
      "payable": false,
      "stateMutability": "view",
      "type": "function"
    },
    {
      "constant": false,
      "inputs": [
        {
          "internalType": "uint256",
          "name": "amount",
          "type": "uint256"
        }
      ],
      "name": "decreaseDebtE",
      "outputs": [],
      "payable": false,
      "stateMutability": "nonpayable",
      "type": "function"
    },
    {
      "constant": false,
      "inputs": [
        {
          "internalType": "address",
          "name": "owner",
          "type": "address"
        },
        {
          "internalType": "address",
          "name": "spender",
          "type": "address"
        },
        {
          "internalType": "uint256",
          "name": "amount",
          "type": "uint256"
        },
        {
          "internalType": "string",
          "name": "reason",
          "type": "string"
        }
      ],
      "name": "decrementAllowanceCouponsE",
      "outputs": [],
      "payable": false,
      "stateMutability": "nonpayable",
      "type": "function"
    },
    {
      "constant": false,
      "inputs": [
        {
          "internalType": "address",
          "name": "candidate",
          "type": "address"
        },
        {
          "internalType": "uint256",
          "name": "amount",
          "type": "uint256"
        },
        {
          "internalType": "string",
          "name": "reason",
          "type": "string"
        }
      ],
      "name": "decrementApproveForE",
      "outputs": [],
      "payable": false,
      "stateMutability": "nonpayable",
      "type": "function"
    },
    {
      "constant": false,
      "inputs": [
        {
          "internalType": "address",
          "name": "account",
          "type": "address"
        },
        {
          "internalType": "uint256",
          "name": "epoch",
          "type": "uint256"
        },
        {
          "internalType": "uint256",
          "name": "amount",
          "type": "uint256"
        },
        {
          "internalType": "string",
          "name": "reason",
          "type": "string"
        }
      ],
      "name": "decrementBalanceOfCouponsE",
      "outputs": [],
      "payable": false,
      "stateMutability": "nonpayable",
      "type": "function"
    },
    {
      "constant": false,
      "inputs": [
        {
          "internalType": "address",
          "name": "account",
          "type": "address"
        },
        {
          "internalType": "uint256",
          "name": "amount",
          "type": "uint256"
        },
        {
          "internalType": "string",
          "name": "reason",
          "type": "string"
        }
      ],
      "name": "decrementBalanceOfE",
      "outputs": [],
      "payable": false,
      "stateMutability": "nonpayable",
      "type": "function"
    },
    {
      "constant": false,
      "inputs": [
        {
          "internalType": "address",
          "name": "account",
          "type": "address"
        },
        {
          "internalType": "uint256",
          "name": "amount",
          "type": "uint256"
        },
        {
          "internalType": "string",
          "name": "reason",
          "type": "string"
        }
      ],
      "name": "decrementBalanceOfStagedE",
      "outputs": [],
      "payable": false,
      "stateMutability": "nonpayable",
      "type": "function"
    },
    {
      "constant": false,
      "inputs": [
        {
          "internalType": "address",
          "name": "candidate",
          "type": "address"
        },
        {
          "internalType": "uint256",
          "name": "amount",
          "type": "uint256"
        },
        {
          "internalType": "string",
          "name": "reason",
          "type": "string"
        }
      ],
      "name": "decrementRejectForE",
      "outputs": [],
      "payable": false,
      "stateMutability": "nonpayable",
      "type": "function"
    },
    {
      "constant": false,
      "inputs": [
        {
          "internalType": "uint256",
          "name": "amount",
          "type": "uint256"
        },
        {
          "internalType": "string",
          "name": "reason",
          "type": "string"
        }
      ],
      "name": "decrementTotalBondedE",
      "outputs": [],
      "payable": false,
      "stateMutability": "nonpayable",
      "type": "function"
    },
    {
      "constant": false,
      "inputs": [
        {
          "internalType": "uint256",
          "name": "amount",
          "type": "uint256"
        },
        {
          "internalType": "string",
          "name": "reason",
          "type": "string"
        }
      ],
      "name": "decrementTotalDebtE",
      "outputs": [],
      "payable": false,
      "stateMutability": "nonpayable",
      "type": "function"
    },
    {
      "constant": false,
      "inputs": [
        {
          "internalType": "uint256",
          "name": "amount",
          "type": "uint256"
        },
        {
          "internalType": "string",
          "name": "reason",
          "type": "string"
        }
      ],
      "name": "decrementTotalRedeemableE",
      "outputs": [],
      "payable": false,
      "stateMutability": "nonpayable",
      "type": "function"
    },
    {
      "constant": true,
      "inputs": [],
      "name": "dollar",
      "outputs": [
        {
          "internalType": "contract IDollar",
          "name": "",
          "type": "address"
        }
      ],
      "payable": false,
      "stateMutability": "view",
      "type": "function"
    },
    {
      "constant": false,
      "inputs": [
        {
          "internalType": "uint256",
          "name": "epoch",
          "type": "uint256"
        }
      ],
      "name": "eliminateOutstandingCouponsE",
      "outputs": [],
      "payable": false,
      "stateMutability": "nonpayable",
      "type": "function"
    },
    {
      "constant": true,
      "inputs": [],
      "name": "epoch",
      "outputs": [
        {
          "internalType": "uint256",
          "name": "",
          "type": "uint256"
        }
      ],
      "payable": false,
      "stateMutability": "view",
      "type": "function"
    },
    {
      "constant": true,
      "inputs": [],
      "name": "epochTime",
      "outputs": [
        {
          "internalType": "uint256",
          "name": "",
          "type": "uint256"
        }
      ],
      "payable": false,
      "stateMutability": "view",
      "type": "function"
    },
    {
      "constant": true,
      "inputs": [
        {
          "internalType": "uint256",
          "name": "epoch",
          "type": "uint256"
        }
      ],
      "name": "expiringCoupons",
      "outputs": [
        {
          "internalType": "uint256",
          "name": "",
          "type": "uint256"
        }
      ],
      "payable": false,
      "stateMutability": "view",
      "type": "function"
    },
    {
      "constant": true,
      "inputs": [
        {
          "internalType": "uint256",
          "name": "epoch",
          "type": "uint256"
        },
        {
          "internalType": "uint256",
          "name": "i",
          "type": "uint256"
        }
      ],
      "name": "expiringCouponsAtIndex",
      "outputs": [
        {
          "internalType": "uint256",
          "name": "",
          "type": "uint256"
        }
      ],
      "payable": false,
      "stateMutability": "view",
      "type": "function"
    },
    {
      "constant": true,
      "inputs": [],
      "name": "implementation",
      "outputs": [
        {
          "internalType": "address",
          "name": "impl",
          "type": "address"
        }
      ],
      "payable": false,
      "stateMutability": "view",
      "type": "function"
    },
    {
      "constant": false,
      "inputs": [
        {
          "internalType": "uint256",
          "name": "amount",
          "type": "uint256"
        }
      ],
      "name": "increaseDebtE",
      "outputs": [],
      "payable": false,
      "stateMutability": "nonpayable",
      "type": "function"
    },
    {
      "constant": false,
      "inputs": [
        {
          "internalType": "address",
          "name": "candidate",
          "type": "address"
        },
        {
          "internalType": "uint256",
          "name": "amount",
          "type": "uint256"
        }
      ],
      "name": "incrementApproveForE",
      "outputs": [],
      "payable": false,
      "stateMutability": "nonpayable",
      "type": "function"
    },
    {
      "constant": false,
      "inputs": [
        {
          "internalType": "address",
          "name": "account",
          "type": "address"
        },
        {
          "internalType": "uint256",
          "name": "epoch",
          "type": "uint256"
        },
        {
          "internalType": "uint256",
          "name": "amount",
          "type": "uint256"
        }
      ],
      "name": "incrementBalanceOfCouponsE",
      "outputs": [],
      "payable": false,
      "stateMutability": "nonpayable",
      "type": "function"
    },
    {
      "constant": false,
      "inputs": [
        {
          "internalType": "address",
          "name": "account",
          "type": "address"
        },
        {
          "internalType": "uint256",
          "name": "amount",
          "type": "uint256"
        }
      ],
      "name": "incrementBalanceOfE",
      "outputs": [],
      "payable": false,
      "stateMutability": "nonpayable",
      "type": "function"
    },
    {
      "constant": false,
      "inputs": [
        {
          "internalType": "address",
          "name": "account",
          "type": "address"
        },
        {
          "internalType": "uint256",
          "name": "amount",
          "type": "uint256"
        }
      ],
      "name": "incrementBalanceOfStagedE",
      "outputs": [],
      "payable": false,
      "stateMutability": "nonpayable",
      "type": "function"
    },
    {
      "constant": false,
      "inputs": [],
      "name": "incrementEpochE",
      "outputs": [],
      "payable": false,
      "stateMutability": "nonpayable",
      "type": "function"
    },
    {
      "constant": false,
      "inputs": [
        {
          "internalType": "address",
          "name": "candidate",
          "type": "address"
        },
        {
          "internalType": "uint256",
          "name": "amount",
          "type": "uint256"
        }
      ],
      "name": "incrementRejectForE",
      "outputs": [],
      "payable": false,
      "stateMutability": "nonpayable",
      "type": "function"
    },
    {
      "constant": false,
      "inputs": [
        {
          "internalType": "uint256",
          "name": "amount",
          "type": "uint256"
        }
      ],
      "name": "incrementTotalBondedE",
      "outputs": [],
      "payable": false,
      "stateMutability": "nonpayable",
      "type": "function"
    },
    {
      "constant": false,
      "inputs": [
        {
          "internalType": "uint256",
          "name": "amount",
          "type": "uint256"
        }
      ],
      "name": "incrementTotalDebtE",
      "outputs": [],
      "payable": false,
      "stateMutability": "nonpayable",
      "type": "function"
    },
    {
      "constant": false,
      "inputs": [
        {
          "internalType": "uint256",
          "name": "amount",
          "type": "uint256"
        }
      ],
      "name": "incrementTotalRedeemableE",
      "outputs": [],
      "payable": false,
      "stateMutability": "nonpayable",
      "type": "function"
    },
    {
      "constant": false,
      "inputs": [
        {
          "internalType": "uint256",
          "name": "epoch",
          "type": "uint256"
        },
        {
          "internalType": "uint256",
          "name": "expiration",
          "type": "uint256"
        }
      ],
      "name": "initializeCouponsExpirationE",
      "outputs": [],
      "payable": false,
      "stateMutability": "nonpayable",
      "type": "function"
    },
    {
      "constant": false,
      "inputs": [
        {
          "internalType": "address",
          "name": "candidate",
          "type": "address"
        }
      ],
      "name": "initializedE",
      "outputs": [],
      "payable": false,
      "stateMutability": "nonpayable",
      "type": "function"
    },
    {
      "constant": true,
      "inputs": [
        {
          "internalType": "address",
          "name": "candidate",
          "type": "address"
        }
      ],
      "name": "isInitialized",
      "outputs": [
        {
          "internalType": "bool",
          "name": "",
          "type": "bool"
        }
      ],
      "payable": false,
      "stateMutability": "view",
      "type": "function"
    },
    {
      "constant": true,
      "inputs": [
        {
          "internalType": "address",
          "name": "candidate",
          "type": "address"
        }
      ],
      "name": "isNominated",
      "outputs": [
        {
          "internalType": "bool",
          "name": "",
          "type": "bool"
        }
      ],
      "payable": false,
      "stateMutability": "view",
      "type": "function"
    },
    {
      "constant": false,
      "inputs": [
        {
          "internalType": "address",
          "name": "account",
          "type": "address"
        },
        {
          "internalType": "uint256",
          "name": "amount",
          "type": "uint256"
        }
      ],
      "name": "mintToAccountE",
      "outputs": [],
      "payable": false,
      "stateMutability": "nonpayable",
      "type": "function"
    },
    {
      "constant": false,
      "inputs": [
        {
          "internalType": "address",
          "name": "account",
          "type": "address"
        },
        {
          "internalType": "uint256",
          "name": "amount",
          "type": "uint256"
        }
      ],
      "name": "mintToE",
      "outputs": [],
      "payable": false,
      "stateMutability": "nonpayable",
      "type": "function"
    },
    {
      "constant": true,
      "inputs": [],
      "name": "name",
      "outputs": [
        {
          "internalType": "string",
          "name": "",
          "type": "string"
        }
      ],
      "payable": false,
      "stateMutability": "view",
      "type": "function"
    },
    {
      "constant": true,
      "inputs": [],
      "name": "oracle",
      "outputs": [
        {
          "internalType": "contract IOracle",
          "name": "",
          "type": "address"
        }
      ],
      "payable": false,
      "stateMutability": "view",
      "type": "function"
    },
    {
      "constant": true,
      "inputs": [
        {
          "internalType": "uint256",
          "name": "epoch",
          "type": "uint256"
        }
      ],
      "name": "outstandingCoupons",
      "outputs": [
        {
          "internalType": "uint256",
          "name": "",
          "type": "uint256"
        }
      ],
      "payable": false,
      "stateMutability": "view",
      "type": "function"
    },
    {
      "constant": true,
      "inputs": [
        {
          "internalType": "address",
          "name": "candidate",
          "type": "address"
        }
      ],
      "name": "periodFor",
      "outputs": [
        {
          "internalType": "uint256",
          "name": "",
          "type": "uint256"
        }
      ],
      "payable": false,
      "stateMutability": "view",
      "type": "function"
    },
    {
      "constant": false,
      "inputs": [
        {
          "internalType": "address",
          "name": "account",
          "type": "address"
        },
        {
          "internalType": "address",
          "name": "candidate",
          "type": "address"
        }
      ],
      "name": "placeLockE",
      "outputs": [],
      "payable": false,
      "stateMutability": "nonpayable",
      "type": "function"
    },
    {
      "constant": true,
      "inputs": [],
      "name": "pool",
      "outputs": [
        {
          "internalType": "address",
          "name": "",
          "type": "address"
        }
      ],
      "payable": false,
      "stateMutability": "view",
      "type": "function"
    },
    {
      "constant": false,
      "inputs": [
        {
          "internalType": "address",
          "name": "account",
          "type": "address"
        },
        {
          "internalType": "address",
          "name": "candidate",
          "type": "address"
        },
        {
          "internalType": "enum Candidate.Vote",
          "name": "vote",
          "type": "uint8"
        }
      ],
      "name": "recordVoteE",
      "outputs": [],
      "payable": false,
      "stateMutability": "nonpayable",
      "type": "function"
    },
    {
      "constant": true,
      "inputs": [
        {
          "internalType": "address",
          "name": "account",
          "type": "address"
        },
        {
          "internalType": "address",
          "name": "candidate",
          "type": "address"
        }
      ],
      "name": "recordedVote",
      "outputs": [
        {
          "internalType": "enum Candidate.Vote",
          "name": "",
          "type": "uint8"
        }
      ],
      "payable": false,
      "stateMutability": "view",
      "type": "function"
    },
    {
      "constant": false,
      "inputs": [
        {
          "internalType": "address",
          "name": "account",
          "type": "address"
        },
        {
          "internalType": "uint256",
          "name": "amount",
          "type": "uint256"
        }
      ],
      "name": "redeemToAccountE",
      "outputs": [],
      "payable": false,
      "stateMutability": "nonpayable",
      "type": "function"
    },
    {
      "constant": true,
      "inputs": [
        {
          "internalType": "address",
          "name": "candidate",
          "type": "address"
        }
      ],
      "name": "rejectFor",
      "outputs": [
        {
          "internalType": "uint256",
          "name": "",
          "type": "uint256"
        }
      ],
      "payable": false,
      "stateMutability": "view",
      "type": "function"
    },
    {
      "constant": false,
      "inputs": [
        {
          "internalType": "uint256",
          "name": "percent",
          "type": "uint256"
        }
      ],
      "name": "resetDebtE",
      "outputs": [],
      "payable": false,
      "stateMutability": "nonpayable",
      "type": "function"
    },
    {
      "constant": false,
      "inputs": [
        {
          "internalType": "uint256",
          "name": "timestamp",
          "type": "uint256"
        }
      ],
      "name": "setBlockTimestamp",
      "outputs": [],
      "payable": false,
      "stateMutability": "nonpayable",
      "type": "function"
    },
    {
      "constant": false,
      "inputs": [
        {
          "internalType": "uint256",
          "name": "start",
          "type": "uint256"
        },
        {
          "internalType": "uint256",
          "name": "period",
          "type": "uint256"
        }
      ],
      "name": "setEpochParamsE",
      "outputs": [],
      "payable": false,
      "stateMutability": "nonpayable",
      "type": "function"
    },
    {
      "constant": false,
      "inputs": [],
      "name": "snapshotTotalBondedE",
      "outputs": [],
      "payable": false,
      "stateMutability": "nonpayable",
      "type": "function"
    },
    {
      "constant": true,
      "inputs": [
        {
          "internalType": "address",
          "name": "candidate",
          "type": "address"
        }
      ],
      "name": "startFor",
      "outputs": [
        {
          "internalType": "uint256",
          "name": "",
          "type": "uint256"
        }
      ],
      "payable": false,
      "stateMutability": "view",
      "type": "function"
    },
    {
      "constant": true,
      "inputs": [
        {
          "internalType": "address",
          "name": "account",
          "type": "address"
        }
      ],
      "name": "statusOf",
      "outputs": [
        {
          "internalType": "enum Account.Status",
          "name": "",
          "type": "uint8"
        }
      ],
      "payable": false,
      "stateMutability": "view",
      "type": "function"
    },
    {
      "constant": true,
      "inputs": [],
      "name": "symbol",
      "outputs": [
        {
          "internalType": "string",
          "name": "",
          "type": "string"
        }
      ],
      "payable": false,
      "stateMutability": "view",
      "type": "function"
    },
    {
      "constant": true,
      "inputs": [],
      "name": "totalBonded",
      "outputs": [
        {
          "internalType": "uint256",
          "name": "",
          "type": "uint256"
        }
      ],
      "payable": false,
      "stateMutability": "view",
      "type": "function"
    },
    {
      "constant": true,
      "inputs": [
        {
          "internalType": "uint256",
          "name": "epoch",
          "type": "uint256"
        }
      ],
      "name": "totalBondedAt",
      "outputs": [
        {
          "internalType": "uint256",
          "name": "",
          "type": "uint256"
        }
      ],
      "payable": false,
      "stateMutability": "view",
      "type": "function"
    },
    {
      "constant": true,
      "inputs": [],
      "name": "totalCoupons",
      "outputs": [
        {
          "internalType": "uint256",
          "name": "",
          "type": "uint256"
        }
      ],
      "payable": false,
      "stateMutability": "view",
      "type": "function"
    },
    {
      "constant": true,
      "inputs": [],
      "name": "totalDebt",
      "outputs": [
        {
          "internalType": "uint256",
          "name": "",
          "type": "uint256"
        }
      ],
      "payable": false,
      "stateMutability": "view",
      "type": "function"
    },
    {
      "constant": true,
      "inputs": [],
      "name": "totalNet",
      "outputs": [
        {
          "internalType": "uint256",
          "name": "",
          "type": "uint256"
        }
      ],
      "payable": false,
      "stateMutability": "view",
      "type": "function"
    },
    {
      "constant": true,
      "inputs": [],
      "name": "totalRedeemable",
      "outputs": [
        {
          "internalType": "uint256",
          "name": "",
          "type": "uint256"
        }
      ],
      "payable": false,
      "stateMutability": "view",
      "type": "function"
    },
    {
      "constant": true,
      "inputs": [],
      "name": "totalStaged",
      "outputs": [
        {
          "internalType": "uint256",
          "name": "",
          "type": "uint256"
        }
      ],
      "payable": false,
      "stateMutability": "view",
      "type": "function"
    },
    {
      "constant": true,
      "inputs": [],
      "name": "totalSupply",
      "outputs": [
        {
          "internalType": "uint256",
          "name": "",
          "type": "uint256"
        }
      ],
      "payable": false,
      "stateMutability": "view",
      "type": "function"
    },
    {
      "constant": false,
      "inputs": [
        {
          "internalType": "address",
          "name": "recipient",
          "type": "address"
        },
        {
          "internalType": "uint256",
          "name": "amount",
          "type": "uint256"
        }
      ],
      "name": "transfer",
      "outputs": [
        {
          "internalType": "bool",
          "name": "",
          "type": "bool"
        }
      ],
      "payable": false,
      "stateMutability": "nonpayable",
      "type": "function"
    },
    {
      "constant": false,
      "inputs": [
        {
          "internalType": "address",
          "name": "sender",
          "type": "address"
        },
        {
          "internalType": "address",
          "name": "recipient",
          "type": "address"
        },
        {
          "internalType": "uint256",
          "name": "amount",
          "type": "uint256"
        }
      ],
      "name": "transferFrom",
      "outputs": [
        {
          "internalType": "bool",
          "name": "",
          "type": "bool"
        }
      ],
      "payable": false,
      "stateMutability": "nonpayable",
      "type": "function"
    },
    {
      "constant": false,
      "inputs": [
        {
          "internalType": "address",
          "name": "account",
          "type": "address"
        }
      ],
      "name": "unfreezeE",
      "outputs": [],
      "payable": false,
      "stateMutability": "nonpayable",
      "type": "function"
    },
    {
      "constant": false,
      "inputs": [
        {
          "internalType": "address",
          "name": "owner",
          "type": "address"
        },
        {
          "internalType": "address",
          "name": "spender",
          "type": "address"
        },
        {
          "internalType": "uint256",
          "name": "amount",
          "type": "uint256"
        }
      ],
      "name": "updateAllowanceCouponsE",
      "outputs": [],
      "payable": false,
      "stateMutability": "nonpayable",
      "type": "function"
    },
    {
      "constant": true,
      "inputs": [
        {
          "internalType": "address",
          "name": "candidate",
          "type": "address"
        }
      ],
      "name": "votesFor",
      "outputs": [
        {
          "internalType": "uint256",
          "name": "",
          "type": "uint256"
        }
      ],
      "payable": false,
      "stateMutability": "view",
      "type": "function"
    },
    {
      "constant": false,
      "inputs": [],
      "name": "stepE",
      "outputs": [],
      "payable": false,
      "stateMutability": "nonpayable",
      "type": "function"
    },
    {
      "constant": true,
      "inputs": [
        {
          "internalType": "uint256",
          "name": "epoch",
          "type": "uint256"
        }
      ],
      "name": "bootstrappingAt",
      "outputs": [
        {
          "internalType": "bool",
          "name": "",
          "type": "bool"
        }
      ],
      "payable": false,
      "stateMutability": "view",
      "type": "function"
    }
  ],
  "bytecode": "0x60806040523480156200001157600080fd5b5060405162004fc338038062004fc38339810160408190526200003491620000cd565b42600f5560405181906200004890620000ac565b604051809103906000f08015801562000065573d6000803e3d6000fd5b50600980546001600160a01b03199081166001600160a01b0393841617909155600b8054821693831693909317909255600a80549092169316929092179091555062000138565b611c1180620033b283390190565b8051620000c7816200011e565b92915050565b60008060408385031215620000e157600080fd5b6000620000ef8585620000ba565b92505060206200010285828601620000ba565b9150509250929050565b60006001600160a01b038216620000c7565b62000129816200010c565b81146200013557600080fd5b50565b61326a80620001486000396000f3fe608060405234801561001057600080fd5b506004361061046a5760003560e01c8063825ad6071161024c578063b11ee0e311610146578063d60b347f116100c3578063f1b7cf4911610087578063f1b7cf491461096d578063f35adf7e14610980578063f7a3181814610988578063fc7b9c181461099b578063ffbe3b73146109a35761046a565b8063d60b347f14610913578063d6d8816d14610926578063d83d3ed514610939578063dd62ed3e1461094c578063e0abdf661461095a5761046a565b8063c2aeb5fe1161010a578063c2aeb5fe146108bf578063c45a3e0a146108d2578063c9aff70c146108e5578063cc8d823c146108f8578063cf0237791461090b5761046a565b8063b11ee0e314610860578063b16144a314610873578063b32a2f9014610886578063bc7513e214610899578063c1410c02146108ac5761046a565b80639be46493116101d4578063a6f37b5311610198578063a6f37b5314610814578063a9059cbb1461048d578063a9b3cf1514610827578063adbff2be1461083a578063ae5c23811461084d5761046a565b80639be46493146107c05780639f6e1b26146107d3578063a00e14d1146107e6578063a50cd8e7146107f9578063a6c409f11461080c5761046a565b8063900cf0cf1161021b578063900cf0cf1461078257806395d89b411461078a57806397a5d5b5146107925780639a649edc146107a55780639b82b49b146107ad5761046a565b8063825ad607146107365780638413e52a1461074957806386cf9f141461075c5780638de2e5731461076f5761046a565b80633fbba9a6116103685780635f14fec8116102e557806371c511eb116102a957806371c511eb146106ed57806372924d2a146106f557806375d5024b146107085780637cb95a321461071b5780637dc0d1d01461072e5761046a565b80635f14fec81461068e57806364668022146106a15780636a39e328146106b45780636b862d66146106c757806370a08231146106da5761046a565b80634c7360991161032c5780634c736099146106435780635053e4611461065657806351adeb571461065e5780635c60da1b146106735780635dbf800a1461067b5761046a565b80633fbba9a6146105ed5780633fd4973c1461060d578063416a23cc14610620578063438735261461062857806344d96e951461063b5761046a565b80631fac9732116103f6578063313ce567116103ba578063313ce5671461058c57806332347422146105a1578063353a420c146105b45780633a3e6c81146105c75780633f7bcaf3146105da5761046a565b80631fac97321461052d57806320f6bc901461054057806323b872dd14610553578063259f7adf14610566578063277805a9146105795761046a565b806315e14bf61161043d57806315e14bf6146104e257806316f0115b146104f557806318160ddd1461050a5780631a08e22a146105125780631edbcf6c146105255761046a565b806306fdde031461046f578063095ea7b31461048d5780630dc6d3a3146104ad57806310e95b6c146104c2575b600080fd5b6104776109b6565b604051610484919061302e565b60405180910390f35b6104a061049b366004612c33565b6109d7565b6040516104849190613004565b6104c06104bb366004612bb5565b6109e0565b005b6104d56104d0366004612d80565b610a29565b604051610484919061305f565b6104d56104f0366004612acd565b610a41565b6104fd610a5f565b6040516104849190612fb3565b6104d5610a6e565b6104c0610520366004612e12565b610a74565b6104d5610a82565b6104c061053b366004612d80565b610a88565b6104c061054e366004612c33565b610a94565b6104a0610561366004612b72565b610a9e565b6104c0610574366004612d80565b610aa8565b6104c0610587366004612c33565b610ab1565b610594610b3d565b60405161048491906130b0565b6104c06105af366004612dbc565b610b42565b6104d56105c2366004612acd565b610b82565b6104a06105d5366004612acd565b610ba0565b6104c06105e8366004612b72565b610bbd565b6106006105fb366004612aeb565b610bc8565b6040516104849190613020565b6104c061061b366004612c63565b610bfb565b6104c0610c42565b6104c0610636366004612d80565b610c4c565b6104d5610c55565b6104d5610651366004612e12565b610c5b565b6104d5610c8b565b610666610cae565b6040516104849190613012565b6104fd610cbd565b6104c0610689366004612d80565b610ce2565b6104c061069c366004612c33565b610ceb565b6104d56106af366004612acd565b610cf5565b6104d56106c2366004612d80565b610d13565b6104c06106d5366004612ccb565b610d28565b6104d56106e8366004612acd565b610d33565b6104c0610d51565b6104c0610703366004612dbc565b610d59565b6104a0610716366004612d80565b610d99565b6104c0610729366004612c63565b610da0565b610666610de1565b6104d5610744366004612acd565b610df0565b6104c0610757366004612b25565b610e3c565b6104d561076a366004612acd565b610e47565b6104c061077d366004612d80565b610e62565b6104d5610e6b565b610477610e71565b6106006107a0366004612acd565b610e90565b6104d5610ef5565b6104c06107bb366004612dbc565b610efb565b6104c06107ce366004612acd565b610f3b565b6104d56107e1366004612aeb565b610f44565b6104c06107f4366004612e12565b610f73565b6104d5610807366004612acd565b610f7e565b6104d5610fa1565b6104c0610822366004612acd565b611037565b6104c0610835366004612d80565b611040565b6104c0610848366004612c63565b611049565b6104c061085b366004612c33565b61108a565b6104c061086e366004612c33565b611094565b6104c0610881366004612d80565b61109e565b6104c0610894366004612c63565b6110b1565b6104d56108a7366004612c33565b6110f2565b6104c06108ba366004612aeb565b611136565b6104c06108cd366004612cfd565b611140565b6104c06108e0366004612c33565b611182565b6104d56108f3366004612d80565b61118c565b6104c0610906366004612c33565b6111a1565b6104d56111ab565b6104a0610921366004612acd565b6111b1565b6104c0610934366004612d80565b6111d2565b6104c0610947366004612c33565b6111db565b6104d561049b366004612aeb565b6104c0610968366004612d80565b6111e5565b6104d561097b366004612acd565b6111ea565b6104c0611205565b6104c0610996366004612c33565b61120d565b6104d5611217565b6104d56109b1366004612d80565b61121d565b60606040518060600160405280602181526020016131b56021913990505b90565b60005b92915050565b610a2285858585858080601f01602080910402602001604051908101604052809392919081815260200183838082843760009201919091525061122f92505050565b5050505050565b6000818152600d60205260409020600201545b919050565b6001600160a01b03166000908152600e602052604090206001015490565b600b546001600160a01b031690565b60035490565b610a7e82826112a0565b5050565b60065490565b610a91816112d2565b50565b610a7e8282611319565b60005b9392505050565b610a91816113c1565b610ab9610cae565b6001600160a01b03166340c10f1983836040518363ffffffff1660e01b8152600401610ae6929190612fe9565b602060405180830381600087803b158015610b0057600080fd5b505af1158015610b14573d6000803e3d6000fd5b505050506040513d601f19601f82011682018060405250610b389190810190612d32565b505050565b601290565b610b388383838080601f0160208091040260200160405190810160405280939291908181526020018383808284376000920191909152506113da92505050565b6001600160a01b03166000908152600e602052604090206003015490565b6001600160a01b03166000908152600e6020526040902054151590565b610b388383836113f5565b6001600160a01b038082166000908152600e60209081526040808320938616835260049093019052205460ff1692915050565b610c3c848484848080601f01602080910402602001604051908101604052809392919081815260200183838082843760009201919091525061142592505050565b50505050565b610c4a611476565b565b610a9181611516565b60045490565b6000828152600d60205260408120600301805483908110610c7857fe5b9060005260206000200154905092915050565b6000610c956129e6565b610c9d61152a565b9050610ca881611559565b91505090565b6009546001600160a01b031690565b7f360894a13ba1a3210667c828492db98dca3e2076cc3735a920a3ca505d382bbc5490565b610a918161157b565b610a7e8282611602565b6001600160a01b03166000908152600e602052604090206002015490565b6000908152600d602052604090206003015490565b610b38838383611713565b6001600160a01b03166000908152600c602052604090206001015490565b610c4a6117ba565b610b388383838080601f0160208091040260200160405190810160405280939291908181526020018383808284376000920191909152506117e192505050565b6005101590565b610c3c848484848080601f0160208091040260200160405190810160405280939291908181526020018383808284376000920191909152506117fc92505050565b600a546001600160a01b031690565b600080610dfb610a6e565b905080610e0c576000915050610a3c565b610aa181610e30610e1c86610d33565b610e24610c55565b9063ffffffff61184d16565b9063ffffffff61189016565b610b388383836118d2565b6001600160a01b03166000908152600c602052604090205490565b610a918161191c565b60025490565b6040805180820190915260058152644551442d5360d81b602082015290565b6000610e9a610e6b565b6001600160a01b0383166000908152600c60205260409020600501541115610ec457506002610a3c565b6001600160a01b0382166000908152600c6020526040902060040154610ee8610e6b565b10156109d75760016109da565b60085490565b610b388383838080601f01602080910402602001604051908101604052809392919081815260200183838082843760009201919091525061193592505050565b610a9181611950565b6001600160a01b039182166000908152600c602090815260408083209390941682526003909201909152205490565b600091909155600155565b60006109da610f8c83610b82565b610f9584610cf5565b9063ffffffff61198216565b6000611032610fae611217565b610fb6610cae565b6001600160a01b03166318160ddd6040518163ffffffff1660e01b815260040160206040518083038186803b158015610fee57600080fd5b505afa158015611002573d6000803e3d6000fd5b505050506040513d601f19601f820116820180604052506110269190810190612d9e565b9063ffffffff6119a716565b905090565b610a91816119e9565b610a9181611a10565b610c3c848484848080601f016020809104026020016040519081016040528093929190818152602001838380828437600092019190915250611a5392505050565b610a7e8282611afe565b610a7e8282611ba6565b610a916110ac826064611c02565b611c31565b610c3c848484848080601f016020809104026020016040519081016040528093929190818152602001838380828437600092019190915250611cf692505050565b60006110fd8261118c565b611109575060006109da565b506001600160a01b03919091166000908152600c6020908152604080832093835260029093019052205490565b610a7e8282611d55565b610a2285858585858080601f016020809104026020016040519081016040528093929190818152602001838380828437600092019190915250611db592505050565b610a7e8282611e60565b6000908152600d602052604090206001015490565b610a7e8282611f0a565b60055490565b6001600160a01b03166000908152600e602052604090206005015460ff1690565b610a9181611f59565b610a7e8282611f72565b600f55565b6001600160a01b03166000908152600e602052604090205490565b610c4a611f9e565b610a7e8282611fb7565b60075490565b6000908152600d602052604090205490565b6001600160a01b038085166000908152600c60209081526040808320938716835260039093019052205461126a90838363ffffffff61200616565b6001600160a01b039485166000908152600c60209081526040808320969097168252600390950190945293909220929092555050565b6000828152600d6020908152604080832060020184905592825291812060030180546001810182559082529190200155565b611311816040518060400160405280601c81526020017f436f6d7074726f6c6c65723a206e6f7420656e6f7567682064656274000000008152506117e1565b610a91612032565b611321610cae565b6001600160a01b03166340c10f1983836040518363ffffffff1660e01b815260040161134e929190612fe9565b602060405180830381600087803b15801561136857600080fd5b505af115801561137c573d6000803e3d6000fd5b505050506040513d601f19601f820116820180604052506113a09190810190612d32565b506113ac610716610e6b565b6113b9576113b981611516565b610a7e612032565b6004546113d4908263ffffffff61198216565b60045550565b6006546113ee90838363ffffffff61200616565b6006555050565b6001600160a01b039283166000908152600c60209081526040808320949095168252600390930190925291902055565b6001600160a01b0383166000908152600e602052604090206003015461145290838363ffffffff61200616565b6001600160a01b039093166000908152600e60205260409020600301929092555050565b61147e612a07565b611486612105565b90506114a06114936121cd565b829063ffffffff6121ef16565b156114bc576114ad612205565b6114b68161220c565b50610c4a565b6114d46114c76121cd565b829063ffffffff6122c116565b156114e2576114b6816122d5565b6114ea610e6b565b6040517fff7db5a0dc69b02c191ba632db46961b7d0daa1bd30709ddba9b80ad0a15d2c090600090a250565b61151f8161191c565b6113116110ac61235c565b6115326129e6565b60405180606001604052806000815260200163600450f08152602001610e10815250905090565b60006109da8260000151610f958460400151610e30866020015161102661237e565b611583610cae565b6001600160a01b03166342966c68826040518263ffffffff1660e01b81526004016115ae919061305f565b600060405180830381600087803b1580156115c857600080fd5b505af11580156115dc573d6000803e3d6000fd5b50505050611311816040518060600160405280602a81526020016131fe602a91396113da565b61160a610cae565b6001600160a01b03166323b872dd8330846040518463ffffffff1660e01b815260040161163993929190612fc1565b602060405180830381600087803b15801561165357600080fd5b505af1158015611667573d6000803e3d6000fd5b505050506040513d601f19601f8201168201806040525061168b9190810190612d32565b50611694610cae565b6001600160a01b03166342966c68826040518263ffffffff1660e01b81526004016116bf919061305f565b600060405180830381600087803b1580156116d957600080fd5b505af11580156116ed573d6000803e3d6000fd5b505050506113b9816040518060600160405280602881526020016131d6602891396117e1565b6001600160a01b0383166000908152600c6020908152604080832085845260020190915290205461174a908263ffffffff61198216565b6001600160a01b0384166000908152600c60209081526040808320868452600201825280832093909355600d9052206001015461178d908263ffffffff61198216565b6000838152600d60205260409020600101556008546117b2908263ffffffff61198216565b600855505050565b6117c2610a6e565b600d60006117ce610e6b565b8152602081019190915260400160002055565b6007546117f590838363ffffffff61200616565b6007555050565b6001600160a01b0383166000908152600e602052604090206002015461182990838363ffffffff61200616565b6001600160a01b039093166000908152600e60205260409020600201929092555050565b60008261185c575060006109da565b8282028284828161186957fe5b0414610aa15760405162461bcd60e51b81526004016118879061304f565b60405180910390fd5b6000610aa183836040518060400160405280601a81526020017f536166654d6174683a206469766973696f6e206279207a65726f000000000000815250612384565b6001600160a01b038083166000908152600e6020908152604080832093871683526004909301905220805482919060ff1916600183600281111561191257fe5b0217905550505050565b60075461192f908263ffffffff61198216565b60075550565b60045461194990838363ffffffff61200616565b6004555050565b61196361195b6123bb565b610f95610e6b565b6001600160a01b039091166000908152600c6020526040902060040155565b600082820183811015610aa15760405162461bcd60e51b81526004016118879061303f565b6000610aa183836040518060400160405280601e81526020017f536166654d6174683a207375627472616374696f6e206f766572666c6f770000815250612006565b6001600160a01b03166000908152600e60205260409020600501805460ff19166001179055565b6000611a1b8261118c565b905080611a285750610a91565b600854611a3b908263ffffffff6119a716565b600855506000908152600d6020526040812060010155565b6001600160a01b0383166000908152600c6020526040902060010154611a8090838363ffffffff61200616565b6001600160a01b0384166000908152600c6020526040902060010155600354611ab090838363ffffffff61200616565b6003556040516000906001600160a01b038516907fddf252ad1be2c89b69c2b068fc378daa952ba7f163c4a11628f55a4df523b3ef90611af190869061305f565b60405180910390a3505050565b6001600160a01b0382166000908152600c6020526040902060010154611b2a908263ffffffff61198216565b6001600160a01b0383166000908152600c6020526040902060010155600354611b59908263ffffffff61198216565b6003556040516001600160a01b038316906000907fddf252ad1be2c89b69c2b068fc378daa952ba7f163c4a11628f55a4df523b3ef90611b9a90859061305f565b60405180910390a35050565b6001600160a01b0382166000908152600c6020526040902054611bcf908263ffffffff61198216565b6001600160a01b0383166000908152600c6020526040902055600554611bfb908263ffffffff61198216565b6005555050565b611c0a612a07565b6040518060200160405280611c2885670de0b6b3a7640000866123c0565b90529392505050565b6000611cc3611cbe611c41610cae565b6001600160a01b03166318160ddd6040518163ffffffff1660e01b815260040160206040518083038186803b158015611c7957600080fd5b505afa158015611c8d573d6000803e3d6000fd5b505050506040513d601f19601f82011682018060405250611cb19190810190612d9e565b849063ffffffff6123de16565b612405565b90506000611ccf611217565b905081811115610b38576000611ceb828463ffffffff6119a716565b9050610c3c816112d2565b6001600160a01b0383166000908152600c6020526040902054611d2090838363ffffffff61200616565b6001600160a01b0384166000908152600c6020526040902055600554611d4d90838363ffffffff61200616565b600555505050565b6001600160a01b0382166000908152600c602052604081206005015490611d87611d7e84610a41565b610f95856111ea565b905081811115610c3c576001600160a01b0384166000908152600c6020526040902060050181905550505050565b6001600160a01b0384166000908152600c60209081526040808320868452600201909152902054611ded90838363ffffffff61200616565b6001600160a01b0385166000908152600c60209081526040808320878452600201825280832093909355600d90522060010154611e3190838363ffffffff61200616565b6000848152600d6020526040902060010155600854611e5790838363ffffffff61200616565b60085550505050565b611e68610cae565b6001600160a01b031663a9059cbb83836040518363ffffffff1660e01b8152600401611e95929190612fe9565b602060405180830381600087803b158015611eaf57600080fd5b505af1158015611ec3573d6000803e3d6000fd5b505050506040513d601f19601f82011682018060405250611ee79190810190612d32565b506113b9816040518060600160405280602a81526020016131fe602a91396113da565b6001600160a01b0382166000908152600e6020526040902060030154611f36908263ffffffff61198216565b6001600160a01b039092166000908152600e602052604090206003019190915550565b600654611f6c908263ffffffff61198216565b60065550565b611f7a610e6b565b6001600160a01b039092166000908152600e60205260409020918255600190910155565b600254611fb290600163ffffffff61198216565b600255565b6001600160a01b0382166000908152600e6020526040902060020154611fe3908263ffffffff61198216565b6001600160a01b039092166000908152600e602052604090206002019190915550565b6000818484111561202a5760405162461bcd60e51b8152600401611887919061302e565b505050900390565b610c4a612053612040610a82565b610f9561204b6111ab565b610f95610c55565b61205b610cae565b6001600160a01b03166370a08231306040518263ffffffff1660e01b81526004016120869190612fb3565b60206040518083038186803b15801561209e57600080fd5b505afa1580156120b2573d6000803e3d6000fd5b505050506040513d601f19601f820116820180604052506120d69190810190612d9e565b10156a21b7b6b83a3937b63632b960a91b74496e636f6e73697374656e742062616c616e63657360581b612422565b61210d612a07565b612115612a07565b600061211f610de1565b6001600160a01b031663d4a3e9d76040518163ffffffff1660e01b81526004016040805180830381600087803b15801561215857600080fd5b505af115801561216c573d6000803e3d6000fd5b505050506040513d601f19601f820116820180604052506121909190810190612d50565b915091506121a46107166001611026610e6b565b156121ba576121b1612477565b925050506109d4565b806121c7576121b16121cd565b50905090565b6121d5612a07565b506040805160208101909152670de0b6b3a7640000815290565b60006121fb8383612499565b6002149392505050565b6000600755565b612214612a07565b61224b6122466122226124cb565b61223a61222d6121cd565b869063ffffffff6124ed16565b9063ffffffff61251616565b612544565b9050600061225d611cbe611cb1610fa1565b9050600080600061226d84612578565b92509250925061227b610e6b565b86516040517f32fcaa1e76ed9517f4749d8ec9a77dd5e7329456d740b9bf9665d900eef5e283916122b19187908790879061307b565b60405180910390a2505050505050565b60006122cd8383612499565b159392505050565b6122dd612a07565b6122f8612246836122ec6121cd565b9063ffffffff6124ed16565b9050600061230a611cbe611cb1610fa1565b905061231581611516565b61231d610e6b565b83516040517f5e139d4b8080a4a00dcc151e8217694aeebae893936326aa22096924a99066779161234f91859061306d565b60405180910390a2505050565b612364612a07565b5060408051602081019091526704db732547630000815290565b600f5490565b600081836123a55760405162461bcd60e51b8152600401611887919061302e565b5060008385816123b157fe5b0495945050505050565b601890565b60006123d682610e30868663ffffffff61184d16565b949350505050565b6123e6612a07565b604080516020810190915283518190611c28908563ffffffff61184d16565b80516000906109da90670de0b6b3a764000063ffffffff61189016565b82610b3857612430826126e4565b6101d160f51b61243f836126e4565b60405160200161245193929190612f82565b60408051601f198184030181529082905262461bcd60e51b82526118879160040161302e565b61247f612a07565b5060408051602081019091526710ee4f8941fa0000815290565b8051825160009114156124ae575060016109da565b81518351116124be5760006124c1565b60025b60ff169392505050565b6124d3612a07565b506040805160208101909152678ac7230489e80000815290565b6124f5612a07565b6040805160208101909152825184518291611c28919063ffffffff6119a716565b61251e612a07565b6040518060200160405280611c288560000151670de0b6b3a764000086600001516123c0565b61254c612a07565b612554612a07565b61255c612764565b905061256e838263ffffffff6121ef16565b6109da5782610aa1565b6000808080808080612588610a82565b90506000612594610ef5565b905080821015612651576125ae818363ffffffff6119a716565b94506125d66125c560646125c0612785565b6119a7565b610e3087606463ffffffff61184d16565b94508885116125e557846125e7565b885b94506126066064610e306125f9612785565b889063ffffffff61184d16565b9250612618858463ffffffff6119a716565b94506126238361278a565b61262c8561281e565b61263c898463ffffffff6119a716565b985061264e898663ffffffff6119a716565b98505b600061265b611217565b905060008a11801561266d5750600081115b1561269f5789811161267f5780612681565b895b945061268c856112d2565b61269c8a8663ffffffff6119a716565b99505b6126a7610c55565b6126b057600099505b89156126bf576126bf8a6128af565b85856126d18c8763ffffffff61198216565b9850985098505050505050509193909250565b606080826040516020016126f89190612f6d565b60408051601f19818403018152919052905060205b801561274d5781516000199091019082908290811061272857fe5b01602001516001600160f81b031916156127485760010181529050610a3c565b61270d565b505060408051600081526020810190915292915050565b61276c612a07565b506040805160208101909152666a94d74f430000815290565b602890565b8015610a9157612798610cae565b6001600160a01b03166340c10f196127ae610a5f565b836040518363ffffffff1660e01b81526004016127cc929190612fe9565b602060405180830381600087803b1580156127e657600080fd5b505af11580156127fa573d6000803e3d6000fd5b505050506040513d601f19601f82011682018060405250610a7e9190810190612d32565b612826610cae565b6001600160a01b03166340c10f1930836040518363ffffffff1660e01b8152600401612853929190612fe9565b602060405180830381600087803b15801561286d57600080fd5b505af1158015612881573d6000803e3d6000fd5b505050506040513d601f19601f820116820180604052506128a59190810190612d32565b5061131181611f59565b6128f260006128bc610c55565b116a21b7b6b83a3937b63632b960a91b7f43616e74206d696e7420746f20656d70747920706f6f6c000000000000000000612422565b60006129116064610e30612904612785565b859063ffffffff61184d16565b90506000818311612923576000612933565b612933838363ffffffff6119a716565b905061293e8261278a565b6129478161294f565b610b38612032565b8015610a915761295d610cae565b6001600160a01b03166340c10f1930836040518363ffffffff1660e01b815260040161298a929190612fe9565b602060405180830381600087803b1580156129a457600080fd5b505af11580156129b8573d6000803e3d6000fd5b505050506040513d601f19601f820116820180604052506129dc9190810190612d32565b50610a91816113c1565b60405180606001604052806000815260200160008152602001600081525090565b6040518060200160405280600081525090565b80356109da81613181565b80516109da81613195565b80356109da8161319e565b60008083601f840112612a4d57600080fd5b50813567ffffffffffffffff811115612a6557600080fd5b602083019150836001820283011115612a7d57600080fd5b9250929050565b600060208284031215612a9657600080fd5b612aa060206130be565b90506000612aae8484612ac2565b82525092915050565b80356109da816131ab565b80516109da816131ab565b600060208284031215612adf57600080fd5b60006123d68484612a1a565b60008060408385031215612afe57600080fd5b6000612b0a8585612a1a565b9250506020612b1b85828601612a1a565b9150509250929050565b600080600060608486031215612b3a57600080fd5b6000612b468686612a1a565b9350506020612b5786828701612a1a565b9250506040612b6886828701612a30565b9150509250925092565b600080600060608486031215612b8757600080fd5b6000612b938686612a1a565b9350506020612ba486828701612a1a565b9250506040612b6886828701612ab7565b600080600080600060808688031215612bcd57600080fd5b6000612bd98888612a1a565b9550506020612bea88828901612a1a565b9450506040612bfb88828901612ab7565b935050606086013567ffffffffffffffff811115612c1857600080fd5b612c2488828901612a3b565b92509250509295509295909350565b60008060408385031215612c4657600080fd5b6000612c528585612a1a565b9250506020612b1b85828601612ab7565b60008060008060608587031215612c7957600080fd5b6000612c858787612a1a565b9450506020612c9687828801612ab7565b935050604085013567ffffffffffffffff811115612cb357600080fd5b612cbf87828801612a3b565b95989497509550505050565b600080600060608486031215612ce057600080fd5b6000612cec8686612a1a565b9350506020612ba486828701612ab7565b600080600080600060808688031215612d1557600080fd5b6000612d218888612a1a565b9550506020612bea88828901612ab7565b600060208284031215612d4457600080fd5b60006123d68484612a25565b60008060408385031215612d6357600080fd5b6000612d6f8585612a84565b9250506020612b1b85828601612a25565b600060208284031215612d9257600080fd5b60006123d68484612ab7565b600060208284031215612db057600080fd5b60006123d68484612ac2565b600080600060408486031215612dd157600080fd5b6000612ddd8686612ab7565b935050602084013567ffffffffffffffff811115612dfa57600080fd5b612e0686828701612a3b565b92509250509250925092565b60008060408385031215612e2557600080fd5b6000612c528585612ab7565b612e3a816130f2565b82525050565b612e3a816130fd565b612e3a612e5582613102565b6109d4565b612e3a612e55826109d4565b6000612e71826130e5565b612e7b8185610a3c565b9350612e8b818560208601613141565b9290920192915050565b612e3a8161312b565b612e3a81613136565b6000612eb2826130e5565b612ebc81856130e9565b9350612ecc818560208601613141565b612ed58161316d565b9093019392505050565b6000612eec601b836130e9565b7f536166654d6174683a206164646974696f6e206f766572666c6f770000000000815260200192915050565b6000612f256021836130e9565b7f536166654d6174683a206d756c7469706c69636174696f6e206f766572666c6f8152607760f81b602082015260400192915050565b612e3a816109d4565b612e3a81613125565b6000612f798284612e5a565b50602001919050565b6000612f8e8286612e66565b9150612f9a8285612e49565b600282019150612faa8284612e66565b95945050505050565b602081016109da8284612e31565b60608101612fcf8286612e31565b612fdc6020830185612e31565b6123d66040830184612f5b565b60408101612ff78285612e31565b610aa16020830184612f5b565b602081016109da8284612e40565b602081016109da8284612e95565b602081016109da8284612e9e565b60208082528101610aa18184612ea7565b602080825281016109da81612edf565b602080825281016109da81612f18565b602081016109da8284612f5b565b60408101612ff78285612f5b565b608081016130898287612f5b565b6130966020830186612f5b565b6130a36040830185612f5b565b612faa6060830184612f5b565b602081016109da8284612f64565b60405181810167ffffffffffffffff811182821017156130dd57600080fd5b604052919050565b5190565b90815260200190565b60006109da82613119565b151590565b6001600160f01b03191690565b80610a3c81613177565b6001600160a01b031690565b60ff1690565b60006109da826130f2565b60006109da8261310f565b60005b8381101561315c578181015183820152602001613144565b83811115610c3c5750506000910152565b601f01601f191690565b60038110610a9157fe5b61318a816130f2565b8114610a9157600080fd5b61318a816130fd565b60038110610a9157600080fd5b61318a816109d456fe457175696c69627269756d20446f6c6c61722050726f746f636f6c205374616b65436f6d7074726f6c6c65723a206e6f7420656e6f756768206f75747374616e64696e672064656274436f6d7074726f6c6c65723a206e6f7420656e6f7567682072656465656d61626c652062616c616e6365a365627a7a7231582004ac3665eb4d0788d764da99be20c2fe8688d7d8c1050c85408ab775bf0234496c6578706572696d656e74616cf564736f6c6343000511004060806040523480156200001157600080fd5b506040518060400160405280601b81526020017f457175696c69627269756d20446f6c6c61722050726f746f636f6c00000000008152506040518060400160405280600381526020016211545160ea1b8152506012620000896200007a6200012460201b60201c565b6001600160e01b036200012916565b82516200009e9060019060208601906200031e565b508151620000b49060029060208501906200031e565b506003805460ff191660ff92909216919091179055506200011b9050620000da6200017b565b604051806040016040528060018152602001603160f81b815250620001096200021460201b620016341760201c565b306200021960201b620016391760201c565b60075562000474565b335b90565b620001448160006200027060201b62000d7e1790919060201c565b6040516001600160a01b038216907f6ae172837ea30b801fbfcdd4108aa1d5bf8ff775444fd70256b44e6bf3dfc3f690600090a250565b60018054604080516020601f600260001961010087891615020190951694909404938401819004810282018101909252828152606093909290918301828280156200020a5780601f10620001de576101008083540402835291602001916200020a565b820191906000526020600020905b815481529060010190602001808311620001ec57829003601f168201915b5050505050905090565b603890565b8351602094850120835193850193909320604080517f8b73c3c69bb8fe3d512ecc4cf759cc79239f7b179b0ffacaa9a75d522b39400f815295860194909452928401929092526060830152608082015260a0902090565b6200028582826001600160e01b03620002d316565b15620002ae5760405162461bcd60e51b8152600401620002a59062000441565b60405180910390fd5b6001600160a01b0316600090815260209190915260409020805460ff19166001179055565b60006001600160a01b038216620002fe5760405162461bcd60e51b8152600401620002a59062000459565b506001600160a01b03166000908152602091909152604090205460ff1690565b828054600181600116156101000203166002900490600052602060002090601f016020900481019282601f106200036157805160ff191683800117855562000391565b8280016001018555821562000391579182015b828111156200039157825182559160200191906001019062000374565b506200039f929150620003a3565b5090565b6200012691905b808211156200039f5760008155600101620003aa565b6000620003cf601f836200046b565b7f526f6c65733a206163636f756e7420616c72656164792068617320726f6c6500815260200192915050565b60006200040a6022836200046b565b7f526f6c65733a206163636f756e7420697320746865207a65726f206164647265815261737360f01b602082015260400192915050565b602080825281016200045381620003c0565b92915050565b602080825281016200045381620003fb565b90815260200190565b61178d80620004846000396000f3fe608060405234801561001057600080fd5b506004361061012c5760003560e01c806395d89b41116100ad578063aa271e1a11610071578063aa271e1a14610256578063d505accf14610269578063dab400f31461027c578063dd62ed3e14610284578063e879c19f146102975761012c565b806395d89b411461020d578063983b2d56146102155780639865027514610228578063a457c2d714610230578063a9059cbb146102435761012c565b806339509351116100f457806339509351146101ac57806340c10f19146101bf57806342966c68146101d257806370a08231146101e757806379cc6790146101fa5761012c565b806306fdde0314610131578063095ea7b31461014f57806318160ddd1461016f57806323b872dd14610184578063313ce56714610197575b600080fd5b61013961029f565b60405161014691906114c6565b60405180910390f35b61016261015d366004610ffc565b610334565b604051610146919061141b565b610177610352565b6040516101469190611429565b610162610192366004610f13565b610358565b61019f6103ca565b6040516101469190611587565b6101626101ba366004610ffc565b6103d3565b6101626101cd366004610ffc565b610427565b6101e56101e036600461102c565b610463565b005b6101776101f5366004610eb3565b610477565b6101e5610208366004610ffc565b610496565b6101396104a4565b6101e5610223366004610eb3565b610502565b6101e5610532565b61016261023e366004610ffc565b610544565b610162610251366004610ffc565b6105b2565b610162610264366004610eb3565b6105c6565b6101e5610277366004610f60565b6105d8565b61017761075f565b610177610292366004610ed9565b610765565b610177610790565b60018054604080516020601f6002600019610100878916150201909516949094049384018190048102820181019092528281526060939092909183018282801561032a5780601f106102ff5761010080835404028352916020019161032a565b820191906000526020600020905b81548152906001019060200180831161030d57829003601f168201915b5050505050905090565b60006103486103416107b4565b84846107b8565b5060015b92915050565b60065490565b600061036584848461086c565b600019610374856102926107b4565b146103c0576103c0846103856107b4565b6103bb856040518060600160405280602981526020016116fd602991396103ae8a6102926107b4565b919063ffffffff61098216565b6107b8565b5060019392505050565b60035460ff1690565b60006103486103e06107b4565b846103bb85600560006103f16107b4565b6001600160a01b03908116825260208083019390935260409182016000908120918c16815292529020549063ffffffff6109ae16565b60006104346102646107b4565b6104595760405162461bcd60e51b815260040161045090611517565b60405180910390fd5b61034883836109da565b61047461046e6107b4565b82610a9a565b50565b6001600160a01b0381166000908152600460205260409020545b919050565b6104a08282610b70565b5050565b60028054604080516020601f600019610100600187161502019094168590049384018190048102820181019092528281526060939092909183018282801561032a5780601f106102ff5761010080835404028352916020019161032a565b61050d6102646107b4565b6105295760405162461bcd60e51b815260040161045090611517565b61047481610beb565b61054261053d6107b4565b610c33565b565b60006103486105516107b4565b846103bb85604051806060016040528060258152602001611726602591396005600061057b6107b4565b6001600160a01b03908116825260208083019390935260409182016000908120918d1681529252902054919063ffffffff61098216565b60006103486105bf6107b4565b848461086c565b600061034c818363ffffffff610c7b16565b6007546001600160a01b03881660009081526008602090815260408083208054600181019091559051929361065a93909261063f927f6e71edae12b1b97f4d1f60370fef10105fa2faae0126114a169c64845d6126c9928e928e928e9290918e9101611437565b60405160208183030381529060405280519060200120610cc3565b90506000600182868686604051600081526020016040526040516106819493929190611491565b6020604051602081039080840390855afa1580156106a3573d6000803e3d6000fd5b5050506020604051035190506106f0896001600160a01b0316826001600160a01b0316146a5065726d69747461626c6560a81b70496e76616c6964207369676e617475726560781b610ce2565b6107236001600160a01b03821615156a5065726d69747461626c6560a81b6b5a65726f206164647265737360a01b610ce2565b610749864211156a5065726d69747461626c6560a81b66115e1c1a5c995960ca1b610ce2565b6107548989896107b8565b505050505050505050565b60075481565b6001600160a01b03918216600090815260056020908152604080832093909416825291909152205490565b7f6e71edae12b1b97f4d1f60370fef10105fa2faae0126114a169c64845d6126c981565b3390565b6001600160a01b0383166107de5760405162461bcd60e51b815260040161045090611567565b6001600160a01b0382166108045760405162461bcd60e51b8152600401610450906114f7565b6001600160a01b0380841660008181526005602090815260408083209487168084529490915290819020849055517f8c5be1e5ebec7d5bd14f71427d1e84f3dd0314c0f7b2291e5b200ac8c7c3b9259061085f908590611429565b60405180910390a3505050565b6001600160a01b0383166108925760405162461bcd60e51b815260040161045090611557565b6001600160a01b0382166108b85760405162461bcd60e51b8152600401610450906114d7565b6108fb816040518060600160405280602681526020016116b3602691396001600160a01b038616600090815260046020526040902054919063ffffffff61098216565b6001600160a01b038085166000908152600460205260408082209390935590841681522054610930908263ffffffff6109ae16565b6001600160a01b0380841660008181526004602052604090819020939093559151908516907fddf252ad1be2c89b69c2b068fc378daa952ba7f163c4a11628f55a4df523b3ef9061085f908590611429565b600081848411156109a65760405162461bcd60e51b815260040161045091906114c6565b505050900390565b6000828201838110156109d35760405162461bcd60e51b815260040161045090611507565b9392505050565b6001600160a01b038216610a005760405162461bcd60e51b815260040161045090611577565b600654610a13908263ffffffff6109ae16565b6006556001600160a01b038216600090815260046020526040902054610a3f908263ffffffff6109ae16565b6001600160a01b0383166000818152600460205260408082209390935591519091907fddf252ad1be2c89b69c2b068fc378daa952ba7f163c4a11628f55a4df523b3ef90610a8e908590611429565b60405180910390a35050565b6001600160a01b038216610ac05760405162461bcd60e51b815260040161045090611547565b610b0381604051806060016040528060228152602001611691602291396001600160a01b038516600090815260046020526040902054919063ffffffff61098216565b6001600160a01b038316600090815260046020526040902055600654610b2f908263ffffffff610d3c16565b6006556040516000906001600160a01b038416907fddf252ad1be2c89b69c2b068fc378daa952ba7f163c4a11628f55a4df523b3ef90610a8e908590611429565b610b7a8282610a9a565b6104a082610b866107b4565b6103bb846040518060600160405280602481526020016116d9602491396001600160a01b038816600090815260056020526040812090610bc46107b4565b6001600160a01b03168152602081019190915260400160002054919063ffffffff61098216565b610bfc60008263ffffffff610d7e16565b6040516001600160a01b038216907f6ae172837ea30b801fbfcdd4108aa1d5bf8ff775444fd70256b44e6bf3dfc3f690600090a250565b610c4460008263ffffffff610dca16565b6040516001600160a01b038216907fe94479a9f7e1952cc78f2d6baab678adc1b772d936c6583def489e524cb6669290600090a250565b60006001600160a01b038216610ca35760405162461bcd60e51b815260040161045090611537565b506001600160a01b03166000908152602091909152604090205460ff1690565b60405161190160f01b8152600281019290925260228201526042902090565b82610d3757610cf082610e12565b6101d160f51b610cff83610e12565b604051602001610d11939291906113ea565b60408051601f198184030181529082905262461bcd60e51b8252610450916004016114c6565b505050565b60006109d383836040518060400160405280601e81526020017f536166654d6174683a207375627472616374696f6e206f766572666c6f770000815250610982565b610d888282610c7b565b15610da55760405162461bcd60e51b8152600401610450906114e7565b6001600160a01b0316600090815260209190915260409020805460ff19166001179055565b610dd48282610c7b565b610df05760405162461bcd60e51b815260040161045090611527565b6001600160a01b0316600090815260209190915260409020805460ff19169055565b60608082604051602001610e2691906113d5565b60408051601f19818403018152919052905060205b8015610e7b57815160001990910190829082908110610e5657fe5b01602001516001600160f81b03191615610e765760010181529050610491565b610e3b565b505060408051600081526020810190915292915050565b803561034c8161160e565b803561034c81611622565b803561034c8161162b565b600060208284031215610ec557600080fd5b6000610ed18484610e92565b949350505050565b60008060408385031215610eec57600080fd5b6000610ef88585610e92565b9250506020610f0985828601610e92565b9150509250929050565b600080600060608486031215610f2857600080fd5b6000610f348686610e92565b9350506020610f4586828701610e92565b9250506040610f5686828701610e9d565b9150509250925092565b600080600080600080600060e0888a031215610f7b57600080fd5b6000610f878a8a610e92565b9750506020610f988a828b01610e92565b9650506040610fa98a828b01610e9d565b9550506060610fba8a828b01610e9d565b9450506080610fcb8a828b01610ea8565b93505060a0610fdc8a828b01610e9d565b92505060c0610fed8a828b01610e9d565b91505092959891949750929550565b6000806040838503121561100f57600080fd5b600061101b8585610e92565b9250506020610f0985828601610e9d565b60006020828403121561103e57600080fd5b6000610ed18484610e9d565b611053816115a2565b82525050565b611053816115ad565b61105361106e826115b2565b6115bf565b611053816115bf565b61105361106e826115bf565b600061109382611595565b61109d8185610491565b93506110ad8185602086016115d4565b9290920192915050565b60006110c282611595565b6110cc8185611599565b93506110dc8185602086016115d4565b6110e581611604565b9093019392505050565b60006110fc602383611599565b7f45524332303a207472616e7366657220746f20746865207a65726f206164647281526265737360e81b602082015260400192915050565b6000611141601f83611599565b7f526f6c65733a206163636f756e7420616c72656164792068617320726f6c6500815260200192915050565b600061117a602283611599565b7f45524332303a20617070726f766520746f20746865207a65726f206164647265815261737360f01b602082015260400192915050565b60006111be601b83611599565b7f536166654d6174683a206164646974696f6e206f766572666c6f770000000000815260200192915050565b60006111f7603083611599565b7f4d696e746572526f6c653a2063616c6c657220646f6573206e6f74206861766581526f20746865204d696e74657220726f6c6560801b602082015260400192915050565b6000611249602183611599565b7f526f6c65733a206163636f756e7420646f6573206e6f74206861766520726f6c8152606560f81b602082015260400192915050565b600061128c602283611599565b7f526f6c65733a206163636f756e7420697320746865207a65726f206164647265815261737360f01b602082015260400192915050565b60006112d0602183611599565b7f45524332303a206275726e2066726f6d20746865207a65726f206164647265738152607360f81b602082015260400192915050565b6000611313602583611599565b7f45524332303a207472616e736665722066726f6d20746865207a65726f206164815264647265737360d81b602082015260400192915050565b600061135a602483611599565b7f45524332303a20617070726f76652066726f6d20746865207a65726f206164648152637265737360e01b602082015260400192915050565b60006113a0601f83611599565b7f45524332303a206d696e7420746f20746865207a65726f206164647265737300815260200192915050565b611053816115ce565b60006113e1828461107c565b50602001919050565b60006113f68286611088565b91506114028285611062565b6002820191506114128284611088565b95945050505050565b6020810161034c8284611059565b6020810161034c8284611073565b60c081016114458289611073565b611452602083018861104a565b61145f604083018761104a565b61146c6060830186611073565b6114796080830185611073565b61148660a0830184611073565b979650505050505050565b6080810161149f8287611073565b6114ac60208301866113cc565b6114b96040830185611073565b6114126060830184611073565b602080825281016109d381846110b7565b6020808252810161034c816110ef565b6020808252810161034c81611134565b6020808252810161034c8161116d565b6020808252810161034c816111b1565b6020808252810161034c816111ea565b6020808252810161034c8161123c565b6020808252810161034c8161127f565b6020808252810161034c816112c3565b6020808252810161034c81611306565b6020808252810161034c8161134d565b6020808252810161034c81611393565b6020810161034c82846113cc565b5190565b90815260200190565b600061034c826115c2565b151590565b6001600160f01b03191690565b90565b6001600160a01b031690565b60ff1690565b60005b838110156115ef5781810151838201526020016115d7565b838111156115fe576000848401525b50505050565b601f01601f191690565b611617816115a2565b811461047457600080fd5b611617816115bf565b611617816115ce565b603890565b8351602094850120835193850193909320604080517f8b73c3c69bb8fe3d512ecc4cf759cc79239f7b179b0ffacaa9a75d522b39400f815295860194909452928401929092526060830152608082015260a090209056fe45524332303a206275726e20616d6f756e7420657863656564732062616c616e636545524332303a207472616e7366657220616d6f756e7420657863656564732062616c616e636545524332303a206275726e20616d6f756e74206578636565647320616c6c6f77616e6365446f6c6c61723a207472616e7366657220616d6f756e74206578636565647320616c6c6f77616e636545524332303a2064656372656173656420616c6c6f77616e63652062656c6f77207a65726fa365627a7a723158204694b69abad0392de6c6e24c32ff990134454b52668a4ecc34088fbbb051539e6c6578706572696d656e74616cf564736f6c63430005110040",
  "source": "/*\r\n    Copyright 2021 Equilibrium Dollar Protocol, based on the works of the Empty Set Squad and Dynamic Dollar Devs\r\n\r\n    Licensed under the Apache License, Version 2.0 (the \"License\");\r\n    you may not use this file except in compliance with the License.\r\n    You may obtain a copy of the License at\r\n\r\n    http://www.apache.org/licenses/LICENSE-2.0\r\n\r\n    Unless required by applicable law or agreed to in writing, software\r\n    distributed under the License is distributed on an \"AS IS\" BASIS,\r\n    WITHOUT WARRANTIES OR CONDITIONS OF ANY KIND, either express or implied.\r\n    See the License for the specific language governing permissions and\r\n    limitations under the License.\r\n*/\r\n\r\npragma solidity ^0.5.17;\r\npragma experimental ABIEncoderV2;\r\n\r\nimport \"../dao/Regulator.sol\";\r\nimport \"../oracle/IOracle.sol\";\r\nimport \"./MockComptroller.sol\";\r\nimport \"./MockState.sol\";\r\n\r\ncontract MockRegulator is MockComptroller, Regulator {\r\n    constructor (address oracle, address pool) MockComptroller(pool) public {\r\n        _state.provider.oracle = IOracle(oracle);\r\n    }\r\n\r\n    function stepE() external {\r\n        super.step();\r\n    }\r\n\r\n    function bootstrappingAt(uint256 epoch) public view returns (bool) {\r\n        return epoch <= 5;\r\n    }\r\n}\r\n",
  "sourcePath": "D:/10012021/fix-project/equilibrium-protocol/contracts/mock/MockRegulator.sol",
  "compiler": {
    "name": "solc",
    "version": "0.5.17+commit.d19bba13.Emscripten.clang"
  },
  "schemaVersion": "3.3.3",
  "updatedAt": "2021-01-16T10:09:32.060Z",
  "devdoc": {
    "methods": {}
  },
  "userdoc": {
    "methods": {
      "balanceOfStaged(address)": {
        "notice": "Account"
      },
      "createCandidateE(address,uint256)": {
        "notice": "Governance"
      },
      "dollar()": {
        "notice": "Global"
      },
      "epoch()": {
        "notice": "Epoch"
      },
      "incrementBalanceOfE(address,uint256)": {
        "notice": "Account"
      },
      "incrementTotalBondedE(uint256)": {
        "notice": "Global"
      },
      "name()": {
        "notice": "ERC20 Interface"
      },
      "recordedVote(address,address)": {
        "notice": "Governance"
      },
      "setBlockTimestamp(uint256)": {
        "notice": "Mock"
      },
      "setEpochParamsE(uint256,uint256)": {
        "notice": "Epoch"
      },
      "transfer(address,uint256)": {
        "notice": "ERC20 Interface"
      }
    }
  }
}