{
  "contractName": "MockGovern",
  "abi": [
    {
      "inputs": [],
      "payable": false,
      "stateMutability": "nonpayable",
      "type": "constructor"
    },
    {
      "anonymous": false,
      "inputs": [
        {
          "indexed": true,
          "internalType": "address",
          "name": "account",
          "type": "address"
        },
        {
          "indexed": true,
          "internalType": "address",
          "name": "candidate",
          "type": "address"
        }
      ],
      "name": "Commit",
      "type": "event"
    },
    {
      "anonymous": false,
      "inputs": [
        {
          "indexed": true,
          "internalType": "address",
          "name": "candidate",
          "type": "address"
        },
        {
          "indexed": true,
          "internalType": "address",
          "name": "account",
          "type": "address"
        },
        {
          "indexed": true,
          "internalType": "uint256",
          "name": "start",
          "type": "uint256"
        },
        {
          "indexed": false,
          "internalType": "uint256",
          "name": "period",
          "type": "uint256"
        }
      ],
      "name": "Proposal",
      "type": "event"
    },
    {
      "anonymous": false,
      "inputs": [
        {
          "indexed": true,
          "internalType": "address",
          "name": "from",
          "type": "address"
        },
        {
          "indexed": true,
          "internalType": "address",
          "name": "to",
          "type": "address"
        },
        {
          "indexed": false,
          "internalType": "uint256",
          "name": "value",
          "type": "uint256"
        }
      ],
      "name": "Transfer",
      "type": "event"
    },
    {
      "anonymous": false,
      "inputs": [
        {
          "indexed": true,
          "internalType": "address",
          "name": "implementation",
          "type": "address"
        }
      ],
      "name": "Upgraded",
      "type": "event"
    },
    {
      "anonymous": false,
      "inputs": [
        {
          "indexed": true,
          "internalType": "address",
          "name": "account",
          "type": "address"
        },
        {
          "indexed": true,
          "internalType": "address",
          "name": "candidate",
          "type": "address"
        },
        {
          "indexed": false,
          "internalType": "enum Candidate.Vote",
          "name": "vote",
          "type": "uint8"
        },
        {
          "indexed": false,
          "internalType": "uint256",
          "name": "bonded",
          "type": "uint256"
        }
      ],
      "name": "Vote",
      "type": "event"
    },
    {
      "constant": true,
      "inputs": [
        {
          "internalType": "address",
          "name": "owner",
          "type": "address"
        },
        {
          "internalType": "address",
          "name": "spender",
          "type": "address"
        }
      ],
      "name": "allowance",
      "outputs": [
        {
          "internalType": "uint256",
          "name": "",
          "type": "uint256"
        }
      ],
      "payable": false,
      "stateMutability": "view",
      "type": "function"
    },
    {
      "constant": true,
      "inputs": [
        {
          "internalType": "address",
          "name": "owner",
          "type": "address"
        },
        {
          "internalType": "address",
          "name": "spender",
          "type": "address"
        }
      ],
      "name": "allowanceCoupons",
      "outputs": [
        {
          "internalType": "uint256",
          "name": "",
          "type": "uint256"
        }
      ],
      "payable": false,
      "stateMutability": "view",
      "type": "function"
    },
    {
      "constant": false,
      "inputs": [
        {
          "internalType": "address",
          "name": "spender",
          "type": "address"
        },
        {
          "internalType": "uint256",
          "name": "amount",
          "type": "uint256"
        }
      ],
      "name": "approve",
      "outputs": [
        {
          "internalType": "bool",
          "name": "",
          "type": "bool"
        }
      ],
      "payable": false,
      "stateMutability": "nonpayable",
      "type": "function"
    },
    {
      "constant": true,
      "inputs": [
        {
          "internalType": "address",
          "name": "candidate",
          "type": "address"
        }
      ],
      "name": "approveFor",
      "outputs": [
        {
          "internalType": "uint256",
          "name": "",
          "type": "uint256"
        }
      ],
      "payable": false,
      "stateMutability": "view",
      "type": "function"
    },
    {
      "constant": true,
      "inputs": [
        {
          "internalType": "address",
          "name": "account",
          "type": "address"
        }
      ],
      "name": "balanceOf",
      "outputs": [
        {
          "internalType": "uint256",
          "name": "",
          "type": "uint256"
        }
      ],
      "payable": false,
      "stateMutability": "view",
      "type": "function"
    },
    {
      "constant": true,
      "inputs": [
        {
          "internalType": "address",
          "name": "account",
          "type": "address"
        }
      ],
      "name": "balanceOfBonded",
      "outputs": [
        {
          "internalType": "uint256",
          "name": "",
          "type": "uint256"
        }
      ],
      "payable": false,
      "stateMutability": "view",
      "type": "function"
    },
    {
      "constant": true,
      "inputs": [
        {
          "internalType": "address",
          "name": "account",
          "type": "address"
        },
        {
          "internalType": "uint256",
          "name": "epoch",
          "type": "uint256"
        }
      ],
      "name": "balanceOfCoupons",
      "outputs": [
        {
          "internalType": "uint256",
          "name": "",
          "type": "uint256"
        }
      ],
      "payable": false,
      "stateMutability": "view",
      "type": "function"
    },
    {
      "constant": true,
      "inputs": [
        {
          "internalType": "address",
          "name": "account",
          "type": "address"
        }
      ],
      "name": "balanceOfStaged",
      "outputs": [
        {
          "internalType": "uint256",
          "name": "",
          "type": "uint256"
        }
      ],
      "payable": false,
      "stateMutability": "view",
      "type": "function"
    },
    {
      "constant": true,
      "inputs": [
        {
          "internalType": "uint256",
          "name": "epoch",
          "type": "uint256"
        }
      ],
      "name": "bootstrappingAt",
      "outputs": [
        {
          "internalType": "bool",
          "name": "",
          "type": "bool"
        }
      ],
      "payable": false,
      "stateMutability": "view",
      "type": "function"
    },
    {
      "constant": false,
      "inputs": [
        {
          "internalType": "address",
          "name": "account",
          "type": "address"
        },
        {
          "internalType": "uint256",
          "name": "amount",
          "type": "uint256"
        }
      ],
      "name": "burnFromAccountE",
      "outputs": [],
      "payable": false,
      "stateMutability": "nonpayable",
      "type": "function"
    },
    {
      "constant": false,
      "inputs": [
        {
          "internalType": "uint256",
          "name": "amount",
          "type": "uint256"
        }
      ],
      "name": "burnRedeemableE",
      "outputs": [],
      "payable": false,
      "stateMutability": "nonpayable",
      "type": "function"
    },
    {
      "constant": false,
      "inputs": [
        {
          "internalType": "address",
          "name": "candidate",
          "type": "address"
        }
      ],
      "name": "commit",
      "outputs": [],
      "payable": false,
      "stateMutability": "nonpayable",
      "type": "function"
    },
    {
      "constant": true,
      "inputs": [
        {
          "internalType": "uint256",
          "name": "epoch",
          "type": "uint256"
        }
      ],
      "name": "couponsExpiration",
      "outputs": [
        {
          "internalType": "uint256",
          "name": "",
          "type": "uint256"
        }
      ],
      "payable": false,
      "stateMutability": "view",
      "type": "function"
    },
    {
      "constant": false,
      "inputs": [
        {
          "internalType": "address",
          "name": "candidate",
          "type": "address"
        },
        {
          "internalType": "uint256",
          "name": "period",
          "type": "uint256"
        }
      ],
      "name": "createCandidateE",
      "outputs": [],
      "payable": false,
      "stateMutability": "nonpayable",
      "type": "function"
    },
    {
      "constant": true,
      "inputs": [],
      "name": "decimals",
      "outputs": [
        {
          "internalType": "uint8",
          "name": "",
          "type": "uint8"
        }
      ],
      "payable": false,
      "stateMutability": "view",
      "type": "function"
    },
    {
      "constant": false,
      "inputs": [
        {
          "internalType": "uint256",
          "name": "amount",
          "type": "uint256"
        }
      ],
      "name": "decreaseDebtE",
      "outputs": [],
      "payable": false,
      "stateMutability": "nonpayable",
      "type": "function"
    },
    {
      "constant": false,
      "inputs": [
        {
          "internalType": "address",
          "name": "owner",
          "type": "address"
        },
        {
          "internalType": "address",
          "name": "spender",
          "type": "address"
        },
        {
          "internalType": "uint256",
          "name": "amount",
          "type": "uint256"
        },
        {
          "internalType": "string",
          "name": "reason",
          "type": "string"
        }
      ],
      "name": "decrementAllowanceCouponsE",
      "outputs": [],
      "payable": false,
      "stateMutability": "nonpayable",
      "type": "function"
    },
    {
      "constant": false,
      "inputs": [
        {
          "internalType": "address",
          "name": "candidate",
          "type": "address"
        },
        {
          "internalType": "uint256",
          "name": "amount",
          "type": "uint256"
        },
        {
          "internalType": "string",
          "name": "reason",
          "type": "string"
        }
      ],
      "name": "decrementApproveForE",
      "outputs": [],
      "payable": false,
      "stateMutability": "nonpayable",
      "type": "function"
    },
    {
      "constant": false,
      "inputs": [
        {
          "internalType": "address",
          "name": "account",
          "type": "address"
        },
        {
          "internalType": "uint256",
          "name": "epoch",
          "type": "uint256"
        },
        {
          "internalType": "uint256",
          "name": "amount",
          "type": "uint256"
        },
        {
          "internalType": "string",
          "name": "reason",
          "type": "string"
        }
      ],
      "name": "decrementBalanceOfCouponsE",
      "outputs": [],
      "payable": false,
      "stateMutability": "nonpayable",
      "type": "function"
    },
    {
      "constant": false,
      "inputs": [
        {
          "internalType": "address",
          "name": "account",
          "type": "address"
        },
        {
          "internalType": "uint256",
          "name": "amount",
          "type": "uint256"
        },
        {
          "internalType": "string",
          "name": "reason",
          "type": "string"
        }
      ],
      "name": "decrementBalanceOfE",
      "outputs": [],
      "payable": false,
      "stateMutability": "nonpayable",
      "type": "function"
    },
    {
      "constant": false,
      "inputs": [
        {
          "internalType": "address",
          "name": "account",
          "type": "address"
        },
        {
          "internalType": "uint256",
          "name": "amount",
          "type": "uint256"
        },
        {
          "internalType": "string",
          "name": "reason",
          "type": "string"
        }
      ],
      "name": "decrementBalanceOfStagedE",
      "outputs": [],
      "payable": false,
      "stateMutability": "nonpayable",
      "type": "function"
    },
    {
      "constant": false,
      "inputs": [
        {
          "internalType": "address",
          "name": "candidate",
          "type": "address"
        },
        {
          "internalType": "uint256",
          "name": "amount",
          "type": "uint256"
        },
        {
          "internalType": "string",
          "name": "reason",
          "type": "string"
        }
      ],
      "name": "decrementRejectForE",
      "outputs": [],
      "payable": false,
      "stateMutability": "nonpayable",
      "type": "function"
    },
    {
      "constant": false,
      "inputs": [
        {
          "internalType": "uint256",
          "name": "amount",
          "type": "uint256"
        },
        {
          "internalType": "string",
          "name": "reason",
          "type": "string"
        }
      ],
      "name": "decrementTotalBondedE",
      "outputs": [],
      "payable": false,
      "stateMutability": "nonpayable",
      "type": "function"
    },
    {
      "constant": false,
      "inputs": [
        {
          "internalType": "uint256",
          "name": "amount",
          "type": "uint256"
        },
        {
          "internalType": "string",
          "name": "reason",
          "type": "string"
        }
      ],
      "name": "decrementTotalDebtE",
      "outputs": [],
      "payable": false,
      "stateMutability": "nonpayable",
      "type": "function"
    },
    {
      "constant": false,
      "inputs": [
        {
          "internalType": "uint256",
          "name": "amount",
          "type": "uint256"
        },
        {
          "internalType": "string",
          "name": "reason",
          "type": "string"
        }
      ],
      "name": "decrementTotalRedeemableE",
      "outputs": [],
      "payable": false,
      "stateMutability": "nonpayable",
      "type": "function"
    },
    {
      "constant": true,
      "inputs": [],
      "name": "dollar",
      "outputs": [
        {
          "internalType": "contract IDollar",
          "name": "",
          "type": "address"
        }
      ],
      "payable": false,
      "stateMutability": "view",
      "type": "function"
    },
    {
      "constant": false,
      "inputs": [
        {
          "internalType": "uint256",
          "name": "epoch",
          "type": "uint256"
        }
      ],
      "name": "eliminateOutstandingCouponsE",
      "outputs": [],
      "payable": false,
      "stateMutability": "nonpayable",
      "type": "function"
    },
    {
      "constant": false,
      "inputs": [
        {
          "internalType": "address",
          "name": "candidate",
          "type": "address"
        }
      ],
      "name": "emergencyCommit",
      "outputs": [],
      "payable": false,
      "stateMutability": "nonpayable",
      "type": "function"
    },
    {
      "constant": true,
      "inputs": [],
      "name": "epoch",
      "outputs": [
        {
          "internalType": "uint256",
          "name": "",
          "type": "uint256"
        }
      ],
      "payable": false,
      "stateMutability": "view",
      "type": "function"
    },
    {
      "constant": true,
      "inputs": [
        {
          "internalType": "uint256",
          "name": "epoch",
          "type": "uint256"
        }
      ],
      "name": "expiringCoupons",
      "outputs": [
        {
          "internalType": "uint256",
          "name": "",
          "type": "uint256"
        }
      ],
      "payable": false,
      "stateMutability": "view",
      "type": "function"
    },
    {
      "constant": true,
      "inputs": [
        {
          "internalType": "uint256",
          "name": "epoch",
          "type": "uint256"
        },
        {
          "internalType": "uint256",
          "name": "i",
          "type": "uint256"
        }
      ],
      "name": "expiringCouponsAtIndex",
      "outputs": [
        {
          "internalType": "uint256",
          "name": "",
          "type": "uint256"
        }
      ],
      "payable": false,
      "stateMutability": "view",
      "type": "function"
    },
    {
      "constant": true,
      "inputs": [],
      "name": "implementation",
      "outputs": [
        {
          "internalType": "address",
          "name": "impl",
          "type": "address"
        }
      ],
      "payable": false,
      "stateMutability": "view",
      "type": "function"
    },
    {
      "constant": false,
      "inputs": [
        {
          "internalType": "uint256",
          "name": "amount",
          "type": "uint256"
        }
      ],
      "name": "increaseDebtE",
      "outputs": [],
      "payable": false,
      "stateMutability": "nonpayable",
      "type": "function"
    },
    {
      "constant": false,
      "inputs": [
        {
          "internalType": "address",
          "name": "candidate",
          "type": "address"
        },
        {
          "internalType": "uint256",
          "name": "amount",
          "type": "uint256"
        }
      ],
      "name": "incrementApproveForE",
      "outputs": [],
      "payable": false,
      "stateMutability": "nonpayable",
      "type": "function"
    },
    {
      "constant": false,
      "inputs": [
        {
          "internalType": "address",
          "name": "account",
          "type": "address"
        },
        {
          "internalType": "uint256",
          "name": "epoch",
          "type": "uint256"
        },
        {
          "internalType": "uint256",
          "name": "amount",
          "type": "uint256"
        }
      ],
      "name": "incrementBalanceOfCouponsE",
      "outputs": [],
      "payable": false,
      "stateMutability": "nonpayable",
      "type": "function"
    },
    {
      "constant": false,
      "inputs": [
        {
          "internalType": "address",
          "name": "account",
          "type": "address"
        },
        {
          "internalType": "uint256",
          "name": "amount",
          "type": "uint256"
        }
      ],
      "name": "incrementBalanceOfE",
      "outputs": [],
      "payable": false,
      "stateMutability": "nonpayable",
      "type": "function"
    },
    {
      "constant": false,
      "inputs": [
        {
          "internalType": "address",
          "name": "account",
          "type": "address"
        },
        {
          "internalType": "uint256",
          "name": "amount",
          "type": "uint256"
        }
      ],
      "name": "incrementBalanceOfStagedE",
      "outputs": [],
      "payable": false,
      "stateMutability": "nonpayable",
      "type": "function"
    },
    {
      "constant": false,
      "inputs": [],
      "name": "incrementEpochE",
      "outputs": [],
      "payable": false,
      "stateMutability": "nonpayable",
      "type": "function"
    },
    {
      "constant": false,
      "inputs": [
        {
          "internalType": "address",
          "name": "candidate",
          "type": "address"
        },
        {
          "internalType": "uint256",
          "name": "amount",
          "type": "uint256"
        }
      ],
      "name": "incrementRejectForE",
      "outputs": [],
      "payable": false,
      "stateMutability": "nonpayable",
      "type": "function"
    },
    {
      "constant": false,
      "inputs": [
        {
          "internalType": "uint256",
          "name": "amount",
          "type": "uint256"
        }
      ],
      "name": "incrementTotalBondedE",
      "outputs": [],
      "payable": false,
      "stateMutability": "nonpayable",
      "type": "function"
    },
    {
      "constant": false,
      "inputs": [
        {
          "internalType": "uint256",
          "name": "amount",
          "type": "uint256"
        }
      ],
      "name": "incrementTotalDebtE",
      "outputs": [],
      "payable": false,
      "stateMutability": "nonpayable",
      "type": "function"
    },
    {
      "constant": false,
      "inputs": [
        {
          "internalType": "uint256",
          "name": "amount",
          "type": "uint256"
        }
      ],
      "name": "incrementTotalRedeemableE",
      "outputs": [],
      "payable": false,
      "stateMutability": "nonpayable",
      "type": "function"
    },
    {
      "constant": false,
      "inputs": [
        {
          "internalType": "uint256",
          "name": "epoch",
          "type": "uint256"
        },
        {
          "internalType": "uint256",
          "name": "expiration",
          "type": "uint256"
        }
      ],
      "name": "initializeCouponsExpirationE",
      "outputs": [],
      "payable": false,
      "stateMutability": "nonpayable",
      "type": "function"
    },
    {
      "constant": false,
      "inputs": [
        {
          "internalType": "address",
          "name": "candidate",
          "type": "address"
        }
      ],
      "name": "initializedE",
      "outputs": [],
      "payable": false,
      "stateMutability": "nonpayable",
      "type": "function"
    },
    {
      "constant": true,
      "inputs": [
        {
          "internalType": "address",
          "name": "candidate",
          "type": "address"
        }
      ],
      "name": "isInitialized",
      "outputs": [
        {
          "internalType": "bool",
          "name": "",
          "type": "bool"
        }
      ],
      "payable": false,
      "stateMutability": "view",
      "type": "function"
    },
    {
      "constant": true,
      "inputs": [
        {
          "internalType": "address",
          "name": "candidate",
          "type": "address"
        }
      ],
      "name": "isNominated",
      "outputs": [
        {
          "internalType": "bool",
          "name": "",
          "type": "bool"
        }
      ],
      "payable": false,
      "stateMutability": "view",
      "type": "function"
    },
    {
      "constant": false,
      "inputs": [
        {
          "internalType": "address",
          "name": "account",
          "type": "address"
        },
        {
          "internalType": "uint256",
          "name": "amount",
          "type": "uint256"
        }
      ],
      "name": "mintToAccountE",
      "outputs": [],
      "payable": false,
      "stateMutability": "nonpayable",
      "type": "function"
    },
    {
      "constant": false,
      "inputs": [
        {
          "internalType": "address",
          "name": "account",
          "type": "address"
        },
        {
          "internalType": "uint256",
          "name": "amount",
          "type": "uint256"
        }
      ],
      "name": "mintToE",
      "outputs": [],
      "payable": false,
      "stateMutability": "nonpayable",
      "type": "function"
    },
    {
      "constant": true,
      "inputs": [],
      "name": "name",
      "outputs": [
        {
          "internalType": "string",
          "name": "",
          "type": "string"
        }
      ],
      "payable": false,
      "stateMutability": "view",
      "type": "function"
    },
    {
      "constant": true,
      "inputs": [],
      "name": "oracle",
      "outputs": [
        {
          "internalType": "contract IOracle",
          "name": "",
          "type": "address"
        }
      ],
      "payable": false,
      "stateMutability": "view",
      "type": "function"
    },
    {
      "constant": true,
      "inputs": [
        {
          "internalType": "uint256",
          "name": "epoch",
          "type": "uint256"
        }
      ],
      "name": "outstandingCoupons",
      "outputs": [
        {
          "internalType": "uint256",
          "name": "",
          "type": "uint256"
        }
      ],
      "payable": false,
      "stateMutability": "view",
      "type": "function"
    },
    {
      "constant": true,
      "inputs": [
        {
          "internalType": "address",
          "name": "candidate",
          "type": "address"
        }
      ],
      "name": "periodFor",
      "outputs": [
        {
          "internalType": "uint256",
          "name": "",
          "type": "uint256"
        }
      ],
      "payable": false,
      "stateMutability": "view",
      "type": "function"
    },
    {
      "constant": false,
      "inputs": [
        {
          "internalType": "address",
          "name": "account",
          "type": "address"
        },
        {
          "internalType": "address",
          "name": "candidate",
          "type": "address"
        }
      ],
      "name": "placeLockE",
      "outputs": [],
      "payable": false,
      "stateMutability": "nonpayable",
      "type": "function"
    },
    {
      "constant": true,
      "inputs": [],
      "name": "pool",
      "outputs": [
        {
          "internalType": "address",
          "name": "",
          "type": "address"
        }
      ],
      "payable": false,
      "stateMutability": "view",
      "type": "function"
    },
    {
      "constant": false,
      "inputs": [
        {
          "internalType": "address",
          "name": "account",
          "type": "address"
        },
        {
          "internalType": "address",
          "name": "candidate",
          "type": "address"
        },
        {
          "internalType": "enum Candidate.Vote",
          "name": "vote",
          "type": "uint8"
        }
      ],
      "name": "recordVoteE",
      "outputs": [],
      "payable": false,
      "stateMutability": "nonpayable",
      "type": "function"
    },
    {
      "constant": true,
      "inputs": [
        {
          "internalType": "address",
          "name": "account",
          "type": "address"
        },
        {
          "internalType": "address",
          "name": "candidate",
          "type": "address"
        }
      ],
      "name": "recordedVote",
      "outputs": [
        {
          "internalType": "enum Candidate.Vote",
          "name": "",
          "type": "uint8"
        }
      ],
      "payable": false,
      "stateMutability": "view",
      "type": "function"
    },
    {
      "constant": false,
      "inputs": [
        {
          "internalType": "address",
          "name": "account",
          "type": "address"
        },
        {
          "internalType": "uint256",
          "name": "amount",
          "type": "uint256"
        }
      ],
      "name": "redeemToAccountE",
      "outputs": [],
      "payable": false,
      "stateMutability": "nonpayable",
      "type": "function"
    },
    {
      "constant": true,
      "inputs": [
        {
          "internalType": "address",
          "name": "candidate",
          "type": "address"
        }
      ],
      "name": "rejectFor",
      "outputs": [
        {
          "internalType": "uint256",
          "name": "",
          "type": "uint256"
        }
      ],
      "payable": false,
      "stateMutability": "view",
      "type": "function"
    },
    {
      "constant": false,
      "inputs": [
        {
          "internalType": "uint256",
          "name": "percent",
          "type": "uint256"
        }
      ],
      "name": "resetDebtE",
      "outputs": [],
      "payable": false,
      "stateMutability": "nonpayable",
      "type": "function"
    },
    {
      "constant": false,
      "inputs": [
        {
          "internalType": "uint256",
          "name": "timestamp",
          "type": "uint256"
        }
      ],
      "name": "setBlockTimestamp",
      "outputs": [],
      "payable": false,
      "stateMutability": "nonpayable",
      "type": "function"
    },
    {
      "constant": false,
      "inputs": [
        {
          "internalType": "uint256",
          "name": "start",
          "type": "uint256"
        },
        {
          "internalType": "uint256",
          "name": "period",
          "type": "uint256"
        }
      ],
      "name": "setEpochParamsE",
      "outputs": [],
      "payable": false,
      "stateMutability": "nonpayable",
      "type": "function"
    },
    {
      "constant": false,
      "inputs": [],
      "name": "snapshotTotalBondedE",
      "outputs": [],
      "payable": false,
      "stateMutability": "nonpayable",
      "type": "function"
    },
    {
      "constant": true,
      "inputs": [
        {
          "internalType": "address",
          "name": "candidate",
          "type": "address"
        }
      ],
      "name": "startFor",
      "outputs": [
        {
          "internalType": "uint256",
          "name": "",
          "type": "uint256"
        }
      ],
      "payable": false,
      "stateMutability": "view",
      "type": "function"
    },
    {
      "constant": true,
      "inputs": [
        {
          "internalType": "address",
          "name": "account",
          "type": "address"
        }
      ],
      "name": "statusOf",
      "outputs": [
        {
          "internalType": "enum Account.Status",
          "name": "",
          "type": "uint8"
        }
      ],
      "payable": false,
      "stateMutability": "view",
      "type": "function"
    },
    {
      "constant": true,
      "inputs": [],
      "name": "symbol",
      "outputs": [
        {
          "internalType": "string",
          "name": "",
          "type": "string"
        }
      ],
      "payable": false,
      "stateMutability": "view",
      "type": "function"
    },
    {
      "constant": true,
      "inputs": [],
      "name": "totalBonded",
      "outputs": [
        {
          "internalType": "uint256",
          "name": "",
          "type": "uint256"
        }
      ],
      "payable": false,
      "stateMutability": "view",
      "type": "function"
    },
    {
      "constant": true,
      "inputs": [
        {
          "internalType": "uint256",
          "name": "epoch",
          "type": "uint256"
        }
      ],
      "name": "totalBondedAt",
      "outputs": [
        {
          "internalType": "uint256",
          "name": "",
          "type": "uint256"
        }
      ],
      "payable": false,
      "stateMutability": "view",
      "type": "function"
    },
    {
      "constant": true,
      "inputs": [],
      "name": "totalCoupons",
      "outputs": [
        {
          "internalType": "uint256",
          "name": "",
          "type": "uint256"
        }
      ],
      "payable": false,
      "stateMutability": "view",
      "type": "function"
    },
    {
      "constant": true,
      "inputs": [],
      "name": "totalDebt",
      "outputs": [
        {
          "internalType": "uint256",
          "name": "",
          "type": "uint256"
        }
      ],
      "payable": false,
      "stateMutability": "view",
      "type": "function"
    },
    {
      "constant": true,
      "inputs": [],
      "name": "totalNet",
      "outputs": [
        {
          "internalType": "uint256",
          "name": "",
          "type": "uint256"
        }
      ],
      "payable": false,
      "stateMutability": "view",
      "type": "function"
    },
    {
      "constant": true,
      "inputs": [],
      "name": "totalRedeemable",
      "outputs": [
        {
          "internalType": "uint256",
          "name": "",
          "type": "uint256"
        }
      ],
      "payable": false,
      "stateMutability": "view",
      "type": "function"
    },
    {
      "constant": true,
      "inputs": [],
      "name": "totalStaged",
      "outputs": [
        {
          "internalType": "uint256",
          "name": "",
          "type": "uint256"
        }
      ],
      "payable": false,
      "stateMutability": "view",
      "type": "function"
    },
    {
      "constant": true,
      "inputs": [],
      "name": "totalSupply",
      "outputs": [
        {
          "internalType": "uint256",
          "name": "",
          "type": "uint256"
        }
      ],
      "payable": false,
      "stateMutability": "view",
      "type": "function"
    },
    {
      "constant": false,
      "inputs": [
        {
          "internalType": "address",
          "name": "recipient",
          "type": "address"
        },
        {
          "internalType": "uint256",
          "name": "amount",
          "type": "uint256"
        }
      ],
      "name": "transfer",
      "outputs": [
        {
          "internalType": "bool",
          "name": "",
          "type": "bool"
        }
      ],
      "payable": false,
      "stateMutability": "nonpayable",
      "type": "function"
    },
    {
      "constant": false,
      "inputs": [
        {
          "internalType": "address",
          "name": "sender",
          "type": "address"
        },
        {
          "internalType": "address",
          "name": "recipient",
          "type": "address"
        },
        {
          "internalType": "uint256",
          "name": "amount",
          "type": "uint256"
        }
      ],
      "name": "transferFrom",
      "outputs": [
        {
          "internalType": "bool",
          "name": "",
          "type": "bool"
        }
      ],
      "payable": false,
      "stateMutability": "nonpayable",
      "type": "function"
    },
    {
      "constant": false,
      "inputs": [
        {
          "internalType": "address",
          "name": "account",
          "type": "address"
        }
      ],
      "name": "unfreezeE",
      "outputs": [],
      "payable": false,
      "stateMutability": "nonpayable",
      "type": "function"
    },
    {
      "constant": false,
      "inputs": [
        {
          "internalType": "address",
          "name": "owner",
          "type": "address"
        },
        {
          "internalType": "address",
          "name": "spender",
          "type": "address"
        },
        {
          "internalType": "uint256",
          "name": "amount",
          "type": "uint256"
        }
      ],
      "name": "updateAllowanceCouponsE",
      "outputs": [],
      "payable": false,
      "stateMutability": "nonpayable",
      "type": "function"
    },
    {
      "constant": false,
      "inputs": [
        {
          "internalType": "address",
          "name": "candidate",
          "type": "address"
        },
        {
          "internalType": "enum Candidate.Vote",
          "name": "vote",
          "type": "uint8"
        }
      ],
      "name": "vote",
      "outputs": [],
      "payable": false,
      "stateMutability": "nonpayable",
      "type": "function"
    },
    {
      "constant": true,
      "inputs": [
        {
          "internalType": "address",
          "name": "candidate",
          "type": "address"
        }
      ],
      "name": "votesFor",
      "outputs": [
        {
          "internalType": "uint256",
          "name": "",
          "type": "uint256"
        }
      ],
      "payable": false,
      "stateMutability": "view",
      "type": "function"
    },
    {
      "constant": false,
      "inputs": [],
      "name": "initialize",
      "outputs": [],
      "payable": false,
      "stateMutability": "nonpayable",
      "type": "function"
    },
    {
      "constant": false,
      "inputs": [
        {
          "internalType": "address",
          "name": "newImplementation",
          "type": "address"
        }
      ],
      "name": "upgradeToE",
      "outputs": [],
      "payable": false,
      "stateMutability": "nonpayable",
      "type": "function"
    },
    {
      "constant": false,
      "inputs": [
        {
          "internalType": "uint256",
          "name": "epochTime",
          "type": "uint256"
        }
      ],
      "name": "setEpochTime",
      "outputs": [],
      "payable": false,
      "stateMutability": "nonpayable",
      "type": "function"
    },
    {
      "constant": true,
      "inputs": [],
      "name": "epochTime",
      "outputs": [
        {
          "internalType": "uint256",
          "name": "",
          "type": "uint256"
        }
      ],
      "payable": false,
      "stateMutability": "view",
      "type": "function"
    }
  ],
  "bytecode": "0x60806040523480156200001157600080fd5b5042600f5560405160009062000027906200007a565b604051809103906000f08015801562000044573d6000803e3d6000fd5b50600980546001600160a01b039283166001600160a01b031991821617909155600b805493909216921691909117905562000088565b611c11806200329d83390190565b61320580620000986000396000f3fe608060405234801561001057600080fd5b50600436106104a15760003560e01c80638129fc1c1161026d578063b11ee0e311610151578063cf023779116100ce578063e0abdf6611610092578063e0abdf66146109f0578063f1b7cf4914610a03578063f35adf7e14610a16578063f7a3181814610a1e578063fc7b9c1814610a31578063ffbe3b7314610a39576104a1565b8063cf023779146109a1578063d60b347f146109a9578063d6d8816d146109bc578063d83d3ed5146109cf578063dd62ed3e146109e2576104a1565b8063c1410c0211610115578063c1410c0214610942578063c2aeb5fe14610955578063c45a3e0a14610968578063c9aff70c1461097b578063cc8d823c1461098e576104a1565b8063b11ee0e3146108e3578063b16144a3146108f6578063b32a2f9014610909578063bc7513e21461091c578063bceb514d1461092f576104a1565b80639b82b49b116101ea578063a6c409f1116101ae578063a6c409f11461088f578063a6f37b5314610897578063a9059cbb146104c4578063a9b3cf15146108aa578063adbff2be146108bd578063ae5c2381146108d0576104a1565b80639b82b49b146108305780639be46493146108435780639f6e1b2614610856578063a00e14d114610869578063a50cd8e71461087c576104a1565b80638de2e573116102315780638de2e573146107f2578063900cf0cf1461080557806395d89b411461080d57806397a5d5b5146108155780639a649edc14610828576104a1565b80638129fc1c1461079e578063825ad607146107a65780638413e52a146107b957806386cf9f14146107cc5780638a558b04146107df576104a1565b80633fbba9a6116103945780635f14fec81161031157806371c511eb116102d557806371c511eb1461074257806372924d2a1461074a57806375d5024b1461075d5780637a26ec28146107705780637cb95a32146107835780637dc0d1d014610796576104a1565b80635f14fec8146106e357806364668022146106f65780636a39e328146107095780636b862d661461071c57806370a082311461072f576104a1565b80634c736099116103585780634c736099146106985780635053e461146106ab57806351adeb57146106b35780635c60da1b146106c85780635dbf800a146106d0576104a1565b80633fbba9a6146106375780633fd4973c14610657578063438735261461066a57806344d96e951461067d57806347c0506914610685576104a1565b806320f6bc901161042257806332347422116103e657806332347422146105d8578063353a420c146105eb578063369e8c1d146105fe5780633a3e6c81146106115780633f7bcaf314610624576104a1565b806320f6bc901461057757806323b872dd1461058a578063259f7adf1461059d578063277805a9146105b0578063313ce567146105c3576104a1565b806316f0115b1161046957806316f0115b1461052c57806318160ddd146105415780631a08e22a146105495780631edbcf6c1461055c5780631fac973214610564576104a1565b806306fdde03146104a6578063095ea7b3146104c45780630dc6d3a3146104e457806310e95b6c146104f957806315e14bf614610519575b600080fd5b6104ae610a4c565b6040516104bb9190613010565b60405180910390f35b6104d76104d2366004612ba1565b610a6c565b6040516104bb9190612fd8565b6104f76104f2366004612af3565b610a75565b005b61050c610507366004612cbe565b610abe565b6040516104bb9190613061565b61050c610527366004612a0b565b610ad6565b610534610af4565b6040516104bb9190612f87565b61050c610b03565b6104f7610557366004612d50565b610b09565b61050c610b17565b6104f7610572366004612cbe565b610b1d565b6104f7610585366004612ba1565b610b29565b6104d7610598366004612ab0565b610b33565b6104f76105ab366004612cbe565b610b3d565b6104f76105be366004612ba1565b610b46565b6105cb610bd2565b6040516104bb919061306f565b6104f76105e6366004612cfa565b610bd7565b61050c6105f9366004612a0b565b610c17565b6104f761060c366004612a0b565b610c35565b6104d761061f366004612a0b565b610d8f565b6104f7610632366004612ab0565b610dac565b61064a610645366004612a29565b610db7565b6040516104bb9190612ff4565b6104f7610665366004612bd1565b610dea565b6104f7610678366004612cbe565b610e31565b61050c610e3a565b6104f7610693366004612a0b565b610e40565b61050c6106a6366004612d50565b610f33565b61050c610f63565b6106bb610f69565b6040516104bb9190612fe6565b610534610f78565b6104f76106de366004612cbe565b610f9d565b6104f76106f1366004612ba1565b610fa6565b61050c610704366004612a0b565b610fb0565b61050c610717366004612cbe565b610fce565b6104f761072a366004612c39565b610fe3565b61050c61073d366004612a0b565b610fee565b6104f761100c565b6104f7610758366004612cfa565b611016565b6104d761076b366004612cbe565b611056565b6104f761077e366004612cbe565b611069565b6104f7610791366004612bd1565b61106e565b6106bb6110af565b6104f76110be565b61050c6107b4366004612a0b565b6110df565b6104f76107c7366004612a63565b61112b565b61050c6107da366004612a0b565b611136565b6104f76107ed366004612a0b565b611151565b6104f7610800366004612cbe565b61115a565b61050c611163565b6104ae611169565b61064a610823366004612a0b565b611188565b61050c6111ed565b6104f761083e366004612cfa565b6111f3565b6104f7610851366004612a0b565b611233565b61050c610864366004612a29565b61123c565b6104f7610877366004612d50565b61126b565b61050c61088a366004612a0b565b611276565b61050c61128d565b6104f76108a5366004612a0b565b611317565b6104f76108b8366004612cbe565b611320565b6104f76108cb366004612bd1565b611329565b6104f76108de366004612ba1565b61136a565b6104f76108f1366004612ba1565b611374565b6104f7610904366004612cbe565b61137e565b6104f7610917366004612bd1565b611391565b61050c61092a366004612ba1565b6113d2565b6104f761093d366004612b71565b611416565b6104f7610950366004612a29565b6116f7565b6104f7610963366004612c6b565b611701565b6104f7610976366004612ba1565b611743565b61050c610989366004612cbe565b61174d565b6104f761099c366004612ba1565b611762565b61050c61176c565b6104d76109b7366004612a0b565b611772565b6104f76109ca366004612cbe565b611793565b6104f76109dd366004612ba1565b61179c565b61050c6104d2366004612a29565b6104f76109fe366004612cbe565b6117a6565b61050c610a11366004612a0b565b6117ab565b6104f76117c6565b6104f7610a2c366004612ba1565b6117ce565b61050c6117d8565b61050c610a47366004612cbe565b6117de565b606060405180606001604052806021815260200161315060219139905090565b60005b92915050565b610ab785858585858080601f0160208091040260200160405190810160405280939291908181526020018383808284376000920191909152506117f092505050565b5050505050565b6000818152600d60205260409020600201545b919050565b6001600160a01b03166000908152600e602052604090206001015490565b600b546001600160a01b031690565b60035490565b610b138282611861565b5050565b60065490565b610b2681611893565b50565b610b1382826118da565b60005b9392505050565b610b2681611982565b610b4e610f69565b6001600160a01b03166340c10f1983836040518363ffffffff1660e01b8152600401610b7b929190612fbd565b602060405180830381600087803b158015610b9557600080fd5b505af1158015610ba9573d6000803e3d6000fd5b505050506040513d601f19601f82011682018060405250610bcd9190810190612ca0565b505050565b601290565b610bcd8383838080601f01602080910402602001604051908101604052809392919081815260200183838082843760009201919091525061199b92505050565b6001600160a01b03166000908152600e602052604090206003015490565b610c61610c4182610d8f565b6523b7bb32b93760d11b6c139bdd081b9bdb5a5b985d1959609a1b6119b6565b6000610c956001610c89610c7485610ad6565b610c7d866117ab565b9063ffffffff611a0b16565b9063ffffffff611a3016565b9050610cc081610ca3611163565b116523b7bb32b93760d11b68139bdd08195b99195960ba1b6119b6565b610d17610cf4610cce611a72565b610ce8610cda86611276565b610ce3866117de565b611a94565b9063ffffffff611ac316565b6523b7bb32b93760d11b6f4d75737420686176652071756f726f6d60801b6119b6565b610d4c610d2383610c17565b610d2c84610fb0565b116523b7bb32b93760d11b6b139bdd08185c1c1c9bdd995960a21b6119b6565b610d5582611ad9565b6040516001600160a01b0383169033907f815ca4497ab9fc80c76f210e6e842a5e198e195aa136034557eee144f790e7bb90600090a35050565b6001600160a01b03166000908152600e6020526040902054151590565b610bcd838383611bc5565b6001600160a01b038082166000908152600e60209081526040808320938616835260049093019052205460ff1692915050565b610e2b848484848080601f016020809104026020016040519081016040528093929190818152602001838380828437600092019190915250611bf592505050565b50505050565b610b2681611c46565b60045490565b610e4c610c4182610d8f565b610e8a610e62610e5a611c5a565b610c7d611163565b610e6a610f63565b116523b7bb32b93760d11b6b115c1bd8da081cde5b98d95960a21b6119b6565b610edc610eac610e98611c5f565b610ce8610ea485610fb0565b610ce3610b03565b6523b7bb32b93760d11b7f4d7573742068617665207375706572206d616a6f7269747900000000000000006119b6565b610ef1610ee882610c17565b610d2c83610fb0565b610efa81611ad9565b6040516001600160a01b0382169033907f815ca4497ab9fc80c76f210e6e842a5e198e195aa136034557eee144f790e7bb90600090a350565b6000828152600d60205260408120600301805483908110610f5057fe5b9060005260206000200154905092915050565b60105490565b6009546001600160a01b031690565b7f360894a13ba1a3210667c828492db98dca3e2076cc3735a920a3ca505d382bbc5490565b610b2681611c81565b610b138282611d08565b6001600160a01b03166000908152600e602052604090206002015490565b6000908152600d602052604090206003015490565b610bcd838383611e19565b6001600160a01b03166000908152600c602052604090206001015490565b611014611ec0565b565b610bcd8383838080601f016020809104026020016040519081016040528093929190818152602001838380828437600092019190915250611ee792505050565b6000611060611f02565b90911115919050565b601055565b610e2b848484848080601f016020809104026020016040519081016040528093929190818152602001838380828437600092019190915250611f0892505050565b600a546001600160a01b031690565b60405162461bcd60e51b81526004016110d690613051565b60405180910390fd5b6000806110ea610b03565b9050806110fb576000915050610ad1565b610b368161111f61110b86610fee565b611113610e3a565b9063ffffffff611f5916565b9063ffffffff611f9316565b610bcd838383611fd5565b6001600160a01b03166000908152600c602052604090205490565b610b2681611ad9565b610b268161201f565b60025490565b6040805180820190915260058152644551442d5360d81b602082015290565b6000611192611163565b6001600160a01b0383166000908152600c602052604090206005015411156111bc57506002610ad1565b6001600160a01b0382166000908152600c60205260409020600401546111e0611163565b1015610a6c576001610a6f565b60085490565b610bcd8383838080601f01602080910402602001604051908101604052809392919081815260200183838082843760009201919091525061203892505050565b610b2681612053565b6001600160a01b039182166000908152600c602090815260408083209390941682526003909201909152205490565b600091909155600155565b6000610a6f61128483610c17565b610c7d84610fb0565b600061131261129a6117d8565b6112a2610f69565b6001600160a01b03166318160ddd6040518163ffffffff1660e01b815260040160206040518083038186803b1580156112da57600080fd5b505afa1580156112ee573d6000803e3d6000fd5b505050506040513d601f19601f82011682018060405250610c899190810190612cdc565b905090565b610b268161207d565b610b26816120a4565b610e2b848484848080601f0160208091040260200160405190810160405280939291908181526020018383808284376000920191909152506120e792505050565b610b138282612192565b610b13828261223a565b610b2661138c826064611a94565b612296565b610e2b848484848080601f01602080910402602001604051908101604052809392919081815260200183838082843760009201919091525061235b92505050565b60006113dd8261174d565b6113e957506000610a6f565b506001600160a01b03919091166000908152600c6020908152604080832093835260029093019052205490565b3361145d600161142583611188565b600281111561143057fe5b1415692832b936b4b9b9b4b7b760b11b73139bdd08199c9bde995b881bdc881b1bd8dad95960621b6119b6565b61148e600061146b33610fee565b116523b7bb32b93760d11b6e4d7573742068617665207374616b6560881b6119b6565b61149783610d8f565b61153a576114d76114a7336123ba565b6523b7bb32b93760d11b7f4e6f7420656e6f756768207374616b6520746f2070726f706f736500000000006119b6565b6114e8836114e3612402565b612407565b6114f0611163565b336001600160a01b0385167fd15e38a680a427478883cd2d32eb664cb6bb2090b0126a23ebaf3e3784b8c56b611524612402565b6040516115319190613061565b60405180910390a45b61156a611549610c7485610ad6565b611551611163565b106523b7bb32b93760d11b64115b99195960da1b6119b6565b600061157533610fee565b905060006115833386610db7565b905080600281111561159157fe5b84600281111561159d57fe5b14156115aa575050610bcd565b60028160028111156115b857fe5b14156115fe576115fe85836040518060400160405280601b81526020017f476f7665726e3a20496e73756666696369656e742072656a6563740000000000815250611bf5565b600181600281111561160c57fe5b14156116525761165285836040518060400160405280601c81526020017f476f7665726e3a20496e73756666696369656e7420617070726f766500000000815250611f08565b600284600281111561166057fe5b1415611670576116708583612433565b600184600281111561167e57fe5b141561168e5761168e8583612482565b611699338686611fd5565b6116a333866124d1565b846001600160a01b0316336001600160a01b03167fbe50c78cbc15b0864819aadea36c6499da421b33c38e2ef19bebda583c708c7886856040516116e8929190613002565b60405180910390a35050505050565b610b1382826124d1565b610ab785858585858080601f01602080910402602001604051908101604052809392919081815260200183838082843760009201919091525061253192505050565b610b1382826125dc565b6000908152600d602052604090206001015490565b610b138282612433565b60055490565b6001600160a01b03166000908152600e602052604090206005015460ff1690565b610b2681612686565b610b138282612407565b600f55565b6001600160a01b03166000908152600e602052604090205490565b61101461269f565b610b138282612482565b60075490565b6000908152600d602052604090205490565b6001600160a01b038085166000908152600c60209081526040808320938716835260039093019052205461182b90838363ffffffff6126b816565b6001600160a01b039485166000908152600c60209081526040808320969097168252600390950190945293909220929092555050565b6000828152600d6020908152604080832060020184905592825291812060030180546001810182559082529190200155565b6118d2816040518060400160405280601c81526020017f436f6d7074726f6c6c65723a206e6f7420656e6f756768206465627400000000815250611ee7565b610b266126e4565b6118e2610f69565b6001600160a01b03166340c10f1983836040518363ffffffff1660e01b815260040161190f929190612fbd565b602060405180830381600087803b15801561192957600080fd5b505af115801561193d573d6000803e3d6000fd5b505050506040513d601f19601f820116820180604052506119619190810190612ca0565b5061196d61076b611163565b61197a5761197a81611c46565b610b136126e4565b600454611995908263ffffffff611a0b16565b60045550565b6006546119af90838363ffffffff6126b816565b6006555050565b82610bcd576119c4826127b7565b6101d160f51b6119d3836127b7565b6040516020016119e593929190612f56565b60408051601f198184030181529082905262461bcd60e51b82526110d691600401613010565b600082820183811015610b365760405162461bcd60e51b81526004016110d690613021565b6000610b3683836040518060400160405280601e81526020017f536166654d6174683a207375627472616374696f6e206f766572666c6f7700008152506126b8565b611a7a612978565b506040805160208101909152670494654067e10000815290565b611a9c612978565b6040518060200160405280611aba85670de0b6b3a764000086612837565b90529392505050565b6000611acf8383612855565b6002149392505050565b611ae281612887565b60408051600481526024810182526020810180516001600160e01b031663204a7f0760e21b17905290516000916060916001600160a01b03851691611b2691612f4a565b600060405180830381855af49150503d8060008114611b61576040519150601f19603f3d011682016040523d82523d6000602084013e611b66565b606091505b5091509150818190611b8b5760405162461bcd60e51b81526004016110d69190613010565b506040516001600160a01b038416907fbc7cd75a20ee27fd9adebab32041f755214dbc6bffa90cc0225b39da2e5c2d3b90600090a2505050565b6001600160a01b039283166000908152600c60209081526040808320949095168252600390930190925291902055565b6001600160a01b0383166000908152600e6020526040902060030154611c2290838363ffffffff6126b816565b6001600160a01b039093166000908152600e60205260409020600301929092555050565b611c4f8161201f565b6118d261138c6128d0565b600690565b611c67612978565b506040805160208101909152670928ca80cfc20000815290565b611c89610f69565b6001600160a01b03166342966c68826040518263ffffffff1660e01b8152600401611cb49190613061565b600060405180830381600087803b158015611cce57600080fd5b505af1158015611ce2573d6000803e3d6000fd5b505050506118d2816040518060600160405280602a8152602001613199602a913961199b565b611d10610f69565b6001600160a01b03166323b872dd8330846040518463ffffffff1660e01b8152600401611d3f93929190612f95565b602060405180830381600087803b158015611d5957600080fd5b505af1158015611d6d573d6000803e3d6000fd5b505050506040513d601f19601f82011682018060405250611d919190810190612ca0565b50611d9a610f69565b6001600160a01b03166342966c68826040518263ffffffff1660e01b8152600401611dc59190613061565b600060405180830381600087803b158015611ddf57600080fd5b505af1158015611df3573d6000803e3d6000fd5b5050505061197a8160405180606001604052806028815260200161317160289139611ee7565b6001600160a01b0383166000908152600c60209081526040808320858452600201909152902054611e50908263ffffffff611a0b16565b6001600160a01b0384166000908152600c60209081526040808320868452600201825280832093909355600d90522060010154611e93908263ffffffff611a0b16565b6000838152600d6020526040902060010155600854611eb8908263ffffffff611a0b16565b600855505050565b611ec8610b03565b600d6000611ed4611163565b8152602081019190915260400160002055565b600754611efb90838363ffffffff6126b816565b6007555050565b61016890565b6001600160a01b0383166000908152600e6020526040902060020154611f3590838363ffffffff6126b816565b6001600160a01b039093166000908152600e60205260409020600201929092555050565b600082611f6857506000610a6f565b82820282848281611f7557fe5b0414610b365760405162461bcd60e51b81526004016110d690613031565b6000610b3683836040518060400160405280601a81526020017f536166654d6174683a206469766973696f6e206279207a65726f0000000000008152506128f2565b6001600160a01b038083166000908152600e6020908152604080832093871683526004909301905220805482919060ff1916600183600281111561201557fe5b0217905550505050565b600754612032908263ffffffff611a0b16565b60075550565b60045461204c90838363ffffffff6126b816565b6004555050565b61205e610e5a612929565b6001600160a01b039091166000908152600c6020526040902060040155565b6001600160a01b03166000908152600e60205260409020600501805460ff19166001179055565b60006120af8261174d565b9050806120bc5750610b26565b6008546120cf908263ffffffff611a3016565b600855506000908152600d6020526040812060010155565b6001600160a01b0383166000908152600c602052604090206001015461211490838363ffffffff6126b816565b6001600160a01b0384166000908152600c602052604090206001015560035461214490838363ffffffff6126b816565b6003556040516000906001600160a01b038516907fddf252ad1be2c89b69c2b068fc378daa952ba7f163c4a11628f55a4df523b3ef90612185908690613061565b60405180910390a3505050565b6001600160a01b0382166000908152600c60205260409020600101546121be908263ffffffff611a0b16565b6001600160a01b0383166000908152600c60205260409020600101556003546121ed908263ffffffff611a0b16565b6003556040516001600160a01b038316906000907fddf252ad1be2c89b69c2b068fc378daa952ba7f163c4a11628f55a4df523b3ef9061222e908590613061565b60405180910390a35050565b6001600160a01b0382166000908152600c6020526040902054612263908263ffffffff611a0b16565b6001600160a01b0383166000908152600c602052604090205560055461228f908263ffffffff611a0b16565b6005555050565b60006123286123236122a6610f69565b6001600160a01b03166318160ddd6040518163ffffffff1660e01b815260040160206040518083038186803b1580156122de57600080fd5b505afa1580156122f2573d6000803e3d6000fd5b505050506040513d601f19601f820116820180604052506123169190810190612cdc565b849063ffffffff61292e16565b612955565b905060006123346117d8565b905081811115610bcd576000612350828463ffffffff611a3016565b9050610e2b81611893565b6001600160a01b0383166000908152600c602052604090205461238590838363ffffffff6126b816565b6001600160a01b0384166000908152600c60205260409020556005546123b290838363ffffffff6126b816565b600555505050565b60006123c4610e3a565b6123d057506000610ad1565b6123d8612978565b6123e4610ea484610fee565b9050610b366123f560016064611a94565b829063ffffffff611ac316565b601490565b61240f611163565b6001600160a01b039092166000908152600e60205260409020918255600190910155565b6001600160a01b0382166000908152600e602052604090206003015461245f908263ffffffff611a0b16565b6001600160a01b039092166000908152600e602052604090206003019190915550565b6001600160a01b0382166000908152600e60205260409020600201546124ae908263ffffffff611a0b16565b6001600160a01b039092166000908152600e602052604090206002019190915550565b6001600160a01b0382166000908152600c6020526040812060050154906125036124fa84610ad6565b610c7d856117ab565b905081811115610e2b576001600160a01b0384166000908152600c6020526040902060050181905550505050565b6001600160a01b0384166000908152600c6020908152604080832086845260020190915290205461256990838363ffffffff6126b816565b6001600160a01b0385166000908152600c60209081526040808320878452600201825280832093909355600d905220600101546125ad90838363ffffffff6126b816565b6000848152600d60205260409020600101556008546125d390838363ffffffff6126b816565b60085550505050565b6125e4610f69565b6001600160a01b031663a9059cbb83836040518363ffffffff1660e01b8152600401612611929190612fbd565b602060405180830381600087803b15801561262b57600080fd5b505af115801561263f573d6000803e3d6000fd5b505050506040513d601f19601f820116820180604052506126639190810190612ca0565b5061197a816040518060600160405280602a8152602001613199602a913961199b565b600654612699908263ffffffff611a0b16565b60065550565b6002546126b390600163ffffffff611a0b16565b600255565b600081848411156126dc5760405162461bcd60e51b81526004016110d69190613010565b505050900390565b6110146127056126f2610b17565b610c7d6126fd61176c565b610c7d610e3a565b61270d610f69565b6001600160a01b03166370a08231306040518263ffffffff1660e01b81526004016127389190612f87565b60206040518083038186803b15801561275057600080fd5b505afa158015612764573d6000803e3d6000fd5b505050506040513d601f19601f820116820180604052506127889190810190612cdc565b10156a21b7b6b83a3937b63632b960a91b74496e636f6e73697374656e742062616c616e63657360581b6119b6565b606080826040516020016127cb9190612f35565b60408051601f19818403018152919052905060205b8015612820578151600019909101908290829081106127fb57fe5b01602001516001600160f81b0319161561281b5760010181529050610ad1565b6127e0565b505060408051600081526020810190915292915050565b600061284d8261111f868663ffffffff611f5916565b949350505050565b80518251600091141561286a57506001610a6f565b815183511161287a57600061287d565b60025b60ff169392505050565b61289081612972565b6128ac5760405162461bcd60e51b81526004016110d690613041565b7f360894a13ba1a3210667c828492db98dca3e2076cc3735a920a3ca505d382bbc55565b6128d8612978565b5060408051602081019091526704db732547630000815290565b600081836129135760405162461bcd60e51b81526004016110d69190613010565b50600083858161291f57fe5b0495945050505050565b601890565b612936612978565b604080516020810190915283518190611aba908563ffffffff611f5916565b8051600090610a6f90670de0b6b3a764000063ffffffff611f9316565b3b151590565b6040518060200160405280600081525090565b8035610a6f8161311c565b8051610a6f81613130565b8035610a6f81613139565b60008083601f8401126129be57600080fd5b50813567ffffffffffffffff8111156129d657600080fd5b6020830191508360018202830111156129ee57600080fd5b9250929050565b8035610a6f81613146565b8051610a6f81613146565b600060208284031215612a1d57600080fd5b600061284d848461298b565b60008060408385031215612a3c57600080fd5b6000612a48858561298b565b9250506020612a598582860161298b565b9150509250929050565b600080600060608486031215612a7857600080fd5b6000612a84868661298b565b9350506020612a958682870161298b565b9250506040612aa6868287016129a1565b9150509250925092565b600080600060608486031215612ac557600080fd5b6000612ad1868661298b565b9350506020612ae28682870161298b565b9250506040612aa6868287016129f5565b600080600080600060808688031215612b0b57600080fd5b6000612b17888861298b565b9550506020612b288882890161298b565b9450506040612b39888289016129f5565b935050606086013567ffffffffffffffff811115612b5657600080fd5b612b62888289016129ac565b92509250509295509295909350565b60008060408385031215612b8457600080fd5b6000612b90858561298b565b9250506020612a59858286016129a1565b60008060408385031215612bb457600080fd5b6000612bc0858561298b565b9250506020612a59858286016129f5565b60008060008060608587031215612be757600080fd5b6000612bf3878761298b565b9450506020612c04878288016129f5565b935050604085013567ffffffffffffffff811115612c2157600080fd5b612c2d878288016129ac565b95989497509550505050565b600080600060608486031215612c4e57600080fd5b6000612c5a868661298b565b9350506020612ae2868287016129f5565b600080600080600060808688031215612c8357600080fd5b6000612c8f888861298b565b9550506020612b28888289016129f5565b600060208284031215612cb257600080fd5b600061284d8484612996565b600060208284031215612cd057600080fd5b600061284d84846129f5565b600060208284031215612cee57600080fd5b600061284d8484612a00565b600080600060408486031215612d0f57600080fd5b6000612d1b86866129f5565b935050602084013567ffffffffffffffff811115612d3857600080fd5b612d44868287016129ac565b92509250509250925092565b60008060408385031215612d6357600080fd5b6000612bc085856129f5565b612d788161308a565b82525050565b612d7881613095565b612d78612d938261309a565b6130a7565b612d78612d93826130a7565b6000612daf8261307d565b612db98185610ad1565b9350612dc98185602086016130dc565b9290920192915050565b612d78816130c6565b612d78816130d1565b6000612df08261307d565b612dfa8185613081565b9350612e0a8185602086016130dc565b612e1381613108565b9093019392505050565b6000612e2a601b83613081565b7f536166654d6174683a206164646974696f6e206f766572666c6f770000000000815260200192915050565b6000612e63602183613081565b7f536166654d6174683a206d756c7469706c69636174696f6e206f766572666c6f8152607760f81b602082015260400192915050565b6000612ea6603b83613081565b7f43616e6e6f742073657420612070726f787920696d706c656d656e746174696f81527f6e20746f2061206e6f6e2d636f6e747261637420616464726573730000000000602082015260400192915050565b6000612f05600f83613081565b6e14da1bdd5b19081b9bdd0818d85b1b608a1b815260200192915050565b612d78816130a7565b612d78816130c0565b6000612f418284612d98565b50602001919050565b6000610b368284612da4565b6000612f628286612da4565b9150612f6e8285612d87565b600282019150612f7e8284612da4565b95945050505050565b60208101610a6f8284612d6f565b60608101612fa38286612d6f565b612fb06020830185612d6f565b61284d6040830184612f23565b60408101612fcb8285612d6f565b610b366020830184612f23565b60208101610a6f8284612d7e565b60208101610a6f8284612dd3565b60208101610a6f8284612ddc565b60408101612fcb8285612ddc565b60208082528101610b368184612de5565b60208082528101610a6f81612e1d565b60208082528101610a6f81612e56565b60208082528101610a6f81612e99565b60208082528101610a6f81612ef8565b60208101610a6f8284612f23565b60208101610a6f8284612f2c565b5190565b90815260200190565b6000610a6f826130b4565b151590565b6001600160f01b03191690565b90565b80610ad181613112565b6001600160a01b031690565b60ff1690565b6000610a6f8261308a565b6000610a6f826130aa565b60005b838110156130f75781810151838201526020016130df565b83811115610e2b5750506000910152565b601f01601f191690565b60038110610b2657fe5b6131258161308a565b8114610b2657600080fd5b61312581613095565b60038110610b2657600080fd5b613125816130a756fe457175696c69627269756d20446f6c6c61722050726f746f636f6c205374616b65436f6d7074726f6c6c65723a206e6f7420656e6f756768206f75747374616e64696e672064656274436f6d7074726f6c6c65723a206e6f7420656e6f7567682072656465656d61626c652062616c616e6365a365627a7a7231582005b9e1040e996a0394991a5b079f132a379186f54603cd7b3eb7c23da105a3cc6c6578706572696d656e74616cf564736f6c6343000511004060806040523480156200001157600080fd5b506040518060400160405280601b81526020017f457175696c69627269756d20446f6c6c61722050726f746f636f6c00000000008152506040518060400160405280600381526020016211545160ea1b8152506012620000896200007a6200012460201b60201c565b6001600160e01b036200012916565b82516200009e9060019060208601906200031e565b508151620000b49060029060208501906200031e565b506003805460ff191660ff92909216919091179055506200011b9050620000da6200017b565b604051806040016040528060018152602001603160f81b815250620001096200021460201b620016341760201c565b306200021960201b620016391760201c565b60075562000474565b335b90565b620001448160006200027060201b62000d7e1790919060201c565b6040516001600160a01b038216907f6ae172837ea30b801fbfcdd4108aa1d5bf8ff775444fd70256b44e6bf3dfc3f690600090a250565b60018054604080516020601f600260001961010087891615020190951694909404938401819004810282018101909252828152606093909290918301828280156200020a5780601f10620001de576101008083540402835291602001916200020a565b820191906000526020600020905b815481529060010190602001808311620001ec57829003601f168201915b5050505050905090565b603890565b8351602094850120835193850193909320604080517f8b73c3c69bb8fe3d512ecc4cf759cc79239f7b179b0ffacaa9a75d522b39400f815295860194909452928401929092526060830152608082015260a0902090565b6200028582826001600160e01b03620002d316565b15620002ae5760405162461bcd60e51b8152600401620002a59062000441565b60405180910390fd5b6001600160a01b0316600090815260209190915260409020805460ff19166001179055565b60006001600160a01b038216620002fe5760405162461bcd60e51b8152600401620002a59062000459565b506001600160a01b03166000908152602091909152604090205460ff1690565b828054600181600116156101000203166002900490600052602060002090601f016020900481019282601f106200036157805160ff191683800117855562000391565b8280016001018555821562000391579182015b828111156200039157825182559160200191906001019062000374565b506200039f929150620003a3565b5090565b6200012691905b808211156200039f5760008155600101620003aa565b6000620003cf601f836200046b565b7f526f6c65733a206163636f756e7420616c72656164792068617320726f6c6500815260200192915050565b60006200040a6022836200046b565b7f526f6c65733a206163636f756e7420697320746865207a65726f206164647265815261737360f01b602082015260400192915050565b602080825281016200045381620003c0565b92915050565b602080825281016200045381620003fb565b90815260200190565b61178d80620004846000396000f3fe608060405234801561001057600080fd5b506004361061012c5760003560e01c806395d89b41116100ad578063aa271e1a11610071578063aa271e1a14610256578063d505accf14610269578063dab400f31461027c578063dd62ed3e14610284578063e879c19f146102975761012c565b806395d89b411461020d578063983b2d56146102155780639865027514610228578063a457c2d714610230578063a9059cbb146102435761012c565b806339509351116100f457806339509351146101ac57806340c10f19146101bf57806342966c68146101d257806370a08231146101e757806379cc6790146101fa5761012c565b806306fdde0314610131578063095ea7b31461014f57806318160ddd1461016f57806323b872dd14610184578063313ce56714610197575b600080fd5b61013961029f565b60405161014691906114c6565b60405180910390f35b61016261015d366004610ffc565b610334565b604051610146919061141b565b610177610352565b6040516101469190611429565b610162610192366004610f13565b610358565b61019f6103ca565b6040516101469190611587565b6101626101ba366004610ffc565b6103d3565b6101626101cd366004610ffc565b610427565b6101e56101e036600461102c565b610463565b005b6101776101f5366004610eb3565b610477565b6101e5610208366004610ffc565b610496565b6101396104a4565b6101e5610223366004610eb3565b610502565b6101e5610532565b61016261023e366004610ffc565b610544565b610162610251366004610ffc565b6105b2565b610162610264366004610eb3565b6105c6565b6101e5610277366004610f60565b6105d8565b61017761075f565b610177610292366004610ed9565b610765565b610177610790565b60018054604080516020601f6002600019610100878916150201909516949094049384018190048102820181019092528281526060939092909183018282801561032a5780601f106102ff5761010080835404028352916020019161032a565b820191906000526020600020905b81548152906001019060200180831161030d57829003601f168201915b5050505050905090565b60006103486103416107b4565b84846107b8565b5060015b92915050565b60065490565b600061036584848461086c565b600019610374856102926107b4565b146103c0576103c0846103856107b4565b6103bb856040518060600160405280602981526020016116fd602991396103ae8a6102926107b4565b919063ffffffff61098216565b6107b8565b5060019392505050565b60035460ff1690565b60006103486103e06107b4565b846103bb85600560006103f16107b4565b6001600160a01b03908116825260208083019390935260409182016000908120918c16815292529020549063ffffffff6109ae16565b60006104346102646107b4565b6104595760405162461bcd60e51b815260040161045090611517565b60405180910390fd5b61034883836109da565b61047461046e6107b4565b82610a9a565b50565b6001600160a01b0381166000908152600460205260409020545b919050565b6104a08282610b70565b5050565b60028054604080516020601f600019610100600187161502019094168590049384018190048102820181019092528281526060939092909183018282801561032a5780601f106102ff5761010080835404028352916020019161032a565b61050d6102646107b4565b6105295760405162461bcd60e51b815260040161045090611517565b61047481610beb565b61054261053d6107b4565b610c33565b565b60006103486105516107b4565b846103bb85604051806060016040528060258152602001611726602591396005600061057b6107b4565b6001600160a01b03908116825260208083019390935260409182016000908120918d1681529252902054919063ffffffff61098216565b60006103486105bf6107b4565b848461086c565b600061034c818363ffffffff610c7b16565b6007546001600160a01b03881660009081526008602090815260408083208054600181019091559051929361065a93909261063f927f6e71edae12b1b97f4d1f60370fef10105fa2faae0126114a169c64845d6126c9928e928e928e9290918e9101611437565b60405160208183030381529060405280519060200120610cc3565b90506000600182868686604051600081526020016040526040516106819493929190611491565b6020604051602081039080840390855afa1580156106a3573d6000803e3d6000fd5b5050506020604051035190506106f0896001600160a01b0316826001600160a01b0316146a5065726d69747461626c6560a81b70496e76616c6964207369676e617475726560781b610ce2565b6107236001600160a01b03821615156a5065726d69747461626c6560a81b6b5a65726f206164647265737360a01b610ce2565b610749864211156a5065726d69747461626c6560a81b66115e1c1a5c995960ca1b610ce2565b6107548989896107b8565b505050505050505050565b60075481565b6001600160a01b03918216600090815260056020908152604080832093909416825291909152205490565b7f6e71edae12b1b97f4d1f60370fef10105fa2faae0126114a169c64845d6126c981565b3390565b6001600160a01b0383166107de5760405162461bcd60e51b815260040161045090611567565b6001600160a01b0382166108045760405162461bcd60e51b8152600401610450906114f7565b6001600160a01b0380841660008181526005602090815260408083209487168084529490915290819020849055517f8c5be1e5ebec7d5bd14f71427d1e84f3dd0314c0f7b2291e5b200ac8c7c3b9259061085f908590611429565b60405180910390a3505050565b6001600160a01b0383166108925760405162461bcd60e51b815260040161045090611557565b6001600160a01b0382166108b85760405162461bcd60e51b8152600401610450906114d7565b6108fb816040518060600160405280602681526020016116b3602691396001600160a01b038616600090815260046020526040902054919063ffffffff61098216565b6001600160a01b038085166000908152600460205260408082209390935590841681522054610930908263ffffffff6109ae16565b6001600160a01b0380841660008181526004602052604090819020939093559151908516907fddf252ad1be2c89b69c2b068fc378daa952ba7f163c4a11628f55a4df523b3ef9061085f908590611429565b600081848411156109a65760405162461bcd60e51b815260040161045091906114c6565b505050900390565b6000828201838110156109d35760405162461bcd60e51b815260040161045090611507565b9392505050565b6001600160a01b038216610a005760405162461bcd60e51b815260040161045090611577565b600654610a13908263ffffffff6109ae16565b6006556001600160a01b038216600090815260046020526040902054610a3f908263ffffffff6109ae16565b6001600160a01b0383166000818152600460205260408082209390935591519091907fddf252ad1be2c89b69c2b068fc378daa952ba7f163c4a11628f55a4df523b3ef90610a8e908590611429565b60405180910390a35050565b6001600160a01b038216610ac05760405162461bcd60e51b815260040161045090611547565b610b0381604051806060016040528060228152602001611691602291396001600160a01b038516600090815260046020526040902054919063ffffffff61098216565b6001600160a01b038316600090815260046020526040902055600654610b2f908263ffffffff610d3c16565b6006556040516000906001600160a01b038416907fddf252ad1be2c89b69c2b068fc378daa952ba7f163c4a11628f55a4df523b3ef90610a8e908590611429565b610b7a8282610a9a565b6104a082610b866107b4565b6103bb846040518060600160405280602481526020016116d9602491396001600160a01b038816600090815260056020526040812090610bc46107b4565b6001600160a01b03168152602081019190915260400160002054919063ffffffff61098216565b610bfc60008263ffffffff610d7e16565b6040516001600160a01b038216907f6ae172837ea30b801fbfcdd4108aa1d5bf8ff775444fd70256b44e6bf3dfc3f690600090a250565b610c4460008263ffffffff610dca16565b6040516001600160a01b038216907fe94479a9f7e1952cc78f2d6baab678adc1b772d936c6583def489e524cb6669290600090a250565b60006001600160a01b038216610ca35760405162461bcd60e51b815260040161045090611537565b506001600160a01b03166000908152602091909152604090205460ff1690565b60405161190160f01b8152600281019290925260228201526042902090565b82610d3757610cf082610e12565b6101d160f51b610cff83610e12565b604051602001610d11939291906113ea565b60408051601f198184030181529082905262461bcd60e51b8252610450916004016114c6565b505050565b60006109d383836040518060400160405280601e81526020017f536166654d6174683a207375627472616374696f6e206f766572666c6f770000815250610982565b610d888282610c7b565b15610da55760405162461bcd60e51b8152600401610450906114e7565b6001600160a01b0316600090815260209190915260409020805460ff19166001179055565b610dd48282610c7b565b610df05760405162461bcd60e51b815260040161045090611527565b6001600160a01b0316600090815260209190915260409020805460ff19169055565b60608082604051602001610e2691906113d5565b60408051601f19818403018152919052905060205b8015610e7b57815160001990910190829082908110610e5657fe5b01602001516001600160f81b03191615610e765760010181529050610491565b610e3b565b505060408051600081526020810190915292915050565b803561034c8161160e565b803561034c81611622565b803561034c8161162b565b600060208284031215610ec557600080fd5b6000610ed18484610e92565b949350505050565b60008060408385031215610eec57600080fd5b6000610ef88585610e92565b9250506020610f0985828601610e92565b9150509250929050565b600080600060608486031215610f2857600080fd5b6000610f348686610e92565b9350506020610f4586828701610e92565b9250506040610f5686828701610e9d565b9150509250925092565b600080600080600080600060e0888a031215610f7b57600080fd5b6000610f878a8a610e92565b9750506020610f988a828b01610e92565b9650506040610fa98a828b01610e9d565b9550506060610fba8a828b01610e9d565b9450506080610fcb8a828b01610ea8565b93505060a0610fdc8a828b01610e9d565b92505060c0610fed8a828b01610e9d565b91505092959891949750929550565b6000806040838503121561100f57600080fd5b600061101b8585610e92565b9250506020610f0985828601610e9d565b60006020828403121561103e57600080fd5b6000610ed18484610e9d565b611053816115a2565b82525050565b611053816115ad565b61105361106e826115b2565b6115bf565b611053816115bf565b61105361106e826115bf565b600061109382611595565b61109d8185610491565b93506110ad8185602086016115d4565b9290920192915050565b60006110c282611595565b6110cc8185611599565b93506110dc8185602086016115d4565b6110e581611604565b9093019392505050565b60006110fc602383611599565b7f45524332303a207472616e7366657220746f20746865207a65726f206164647281526265737360e81b602082015260400192915050565b6000611141601f83611599565b7f526f6c65733a206163636f756e7420616c72656164792068617320726f6c6500815260200192915050565b600061117a602283611599565b7f45524332303a20617070726f766520746f20746865207a65726f206164647265815261737360f01b602082015260400192915050565b60006111be601b83611599565b7f536166654d6174683a206164646974696f6e206f766572666c6f770000000000815260200192915050565b60006111f7603083611599565b7f4d696e746572526f6c653a2063616c6c657220646f6573206e6f74206861766581526f20746865204d696e74657220726f6c6560801b602082015260400192915050565b6000611249602183611599565b7f526f6c65733a206163636f756e7420646f6573206e6f74206861766520726f6c8152606560f81b602082015260400192915050565b600061128c602283611599565b7f526f6c65733a206163636f756e7420697320746865207a65726f206164647265815261737360f01b602082015260400192915050565b60006112d0602183611599565b7f45524332303a206275726e2066726f6d20746865207a65726f206164647265738152607360f81b602082015260400192915050565b6000611313602583611599565b7f45524332303a207472616e736665722066726f6d20746865207a65726f206164815264647265737360d81b602082015260400192915050565b600061135a602483611599565b7f45524332303a20617070726f76652066726f6d20746865207a65726f206164648152637265737360e01b602082015260400192915050565b60006113a0601f83611599565b7f45524332303a206d696e7420746f20746865207a65726f206164647265737300815260200192915050565b611053816115ce565b60006113e1828461107c565b50602001919050565b60006113f68286611088565b91506114028285611062565b6002820191506114128284611088565b95945050505050565b6020810161034c8284611059565b6020810161034c8284611073565b60c081016114458289611073565b611452602083018861104a565b61145f604083018761104a565b61146c6060830186611073565b6114796080830185611073565b61148660a0830184611073565b979650505050505050565b6080810161149f8287611073565b6114ac60208301866113cc565b6114b96040830185611073565b6114126060830184611073565b602080825281016109d381846110b7565b6020808252810161034c816110ef565b6020808252810161034c81611134565b6020808252810161034c8161116d565b6020808252810161034c816111b1565b6020808252810161034c816111ea565b6020808252810161034c8161123c565b6020808252810161034c8161127f565b6020808252810161034c816112c3565b6020808252810161034c81611306565b6020808252810161034c8161134d565b6020808252810161034c81611393565b6020810161034c82846113cc565b5190565b90815260200190565b600061034c826115c2565b151590565b6001600160f01b03191690565b90565b6001600160a01b031690565b60ff1690565b60005b838110156115ef5781810151838201526020016115d7565b838111156115fe576000848401525b50505050565b601f01601f191690565b611617816115a2565b811461047457600080fd5b611617816115bf565b611617816115ce565b603890565b8351602094850120835193850193909320604080517f8b73c3c69bb8fe3d512ecc4cf759cc79239f7b179b0ffacaa9a75d522b39400f815295860194909452928401929092526060830152608082015260a090209056fe45524332303a206275726e20616d6f756e7420657863656564732062616c616e636545524332303a207472616e7366657220616d6f756e7420657863656564732062616c616e636545524332303a206275726e20616d6f756e74206578636565647320616c6c6f77616e6365446f6c6c61723a207472616e7366657220616d6f756e74206578636565647320616c6c6f77616e636545524332303a2064656372656173656420616c6c6f77616e63652062656c6f77207a65726fa365627a7a723158204694b69abad0392de6c6e24c32ff990134454b52668a4ecc34088fbbb051539e6c6578706572696d656e74616cf564736f6c63430005110040",
  "source": "/*\r\n    Copyright 2021 Equilibrium Dollar Protocol, based on the works of the Empty Set Squad and Dynamic Dollar Devs\r\n\r\n    Licensed under the Apache License, Version 2.0 (the \"License\");\r\n    you may not use this file except in compliance with the License.\r\n    You may obtain a copy of the License at\r\n\r\n    http://www.apache.org/licenses/LICENSE-2.0\r\n\r\n    Unless required by applicable law or agreed to in writing, software\r\n    distributed under the License is distributed on an \"AS IS\" BASIS,\r\n    WITHOUT WARRANTIES OR CONDITIONS OF ANY KIND, either express or implied.\r\n    See the License for the specific language governing permissions and\r\n    limitations under the License.\r\n*/\r\n\r\npragma solidity ^0.5.17;\r\npragma experimental ABIEncoderV2;\r\n\r\nimport \"../dao/Govern.sol\";\r\nimport \"./MockUpgradeable.sol\";\r\nimport \"./MockComptroller.sol\";\r\n\r\ncontract MockGovern is Govern, MockComptroller {\r\n    uint256 internal _epochTime;\r\n\r\n    constructor() MockComptroller(address(0)) public { }\r\n\r\n    function initialize() public {\r\n        revert(\"Should not call\");\r\n    }\r\n\r\n    function upgradeToE(address newImplementation) external {\r\n        super.upgradeTo(newImplementation);\r\n    }\r\n\r\n    function setEpochTime(uint256 epochTime) external {\r\n        _epochTime = epochTime;\r\n    }\r\n\r\n    function epochTime() public view returns (uint256) {\r\n        return _epochTime;\r\n    }\r\n}\r\n",
  "sourcePath": "D:/10012021/fix-project/equilibrium-protocol/contracts/mock/MockGovern.sol",
  "compiler": {
    "name": "solc",
    "version": "0.5.17+commit.d19bba13.Emscripten.clang"
  },
  "schemaVersion": "3.3.3",
  "updatedAt": "2021-01-16T10:09:32.041Z",
  "devdoc": {
    "methods": {}
  },
  "userdoc": {
    "methods": {
      "balanceOfStaged(address)": {
        "notice": "Account"
      },
      "createCandidateE(address,uint256)": {
        "notice": "Governance"
      },
      "dollar()": {
        "notice": "Global"
      },
      "epoch()": {
        "notice": "Epoch"
      },
      "incrementBalanceOfE(address,uint256)": {
        "notice": "Account"
      },
      "incrementTotalBondedE(uint256)": {
        "notice": "Global"
      },
      "name()": {
        "notice": "ERC20 Interface"
      },
      "recordedVote(address,address)": {
        "notice": "Governance"
      },
      "setBlockTimestamp(uint256)": {
        "notice": "Mock"
      },
      "setEpochParamsE(uint256,uint256)": {
        "notice": "Epoch"
      },
      "transfer(address,uint256)": {
        "notice": "ERC20 Interface"
      }
    }
  }
}