{
  "contractName": "MockState",
  "abi": [
    {
      "inputs": [],
      "payable": false,
      "stateMutability": "nonpayable",
      "type": "constructor"
    },
    {
      "anonymous": false,
      "inputs": [
        {
          "indexed": true,
          "internalType": "address",
          "name": "from",
          "type": "address"
        },
        {
          "indexed": true,
          "internalType": "address",
          "name": "to",
          "type": "address"
        },
        {
          "indexed": false,
          "internalType": "uint256",
          "name": "value",
          "type": "uint256"
        }
      ],
      "name": "Transfer",
      "type": "event"
    },
    {
      "constant": true,
      "inputs": [
        {
          "internalType": "address",
          "name": "owner",
          "type": "address"
        },
        {
          "internalType": "address",
          "name": "spender",
          "type": "address"
        }
      ],
      "name": "allowance",
      "outputs": [
        {
          "internalType": "uint256",
          "name": "",
          "type": "uint256"
        }
      ],
      "payable": false,
      "stateMutability": "view",
      "type": "function"
    },
    {
      "constant": true,
      "inputs": [
        {
          "internalType": "address",
          "name": "owner",
          "type": "address"
        },
        {
          "internalType": "address",
          "name": "spender",
          "type": "address"
        }
      ],
      "name": "allowanceCoupons",
      "outputs": [
        {
          "internalType": "uint256",
          "name": "",
          "type": "uint256"
        }
      ],
      "payable": false,
      "stateMutability": "view",
      "type": "function"
    },
    {
      "constant": false,
      "inputs": [
        {
          "internalType": "address",
          "name": "spender",
          "type": "address"
        },
        {
          "internalType": "uint256",
          "name": "amount",
          "type": "uint256"
        }
      ],
      "name": "approve",
      "outputs": [
        {
          "internalType": "bool",
          "name": "",
          "type": "bool"
        }
      ],
      "payable": false,
      "stateMutability": "nonpayable",
      "type": "function"
    },
    {
      "constant": true,
      "inputs": [
        {
          "internalType": "address",
          "name": "candidate",
          "type": "address"
        }
      ],
      "name": "approveFor",
      "outputs": [
        {
          "internalType": "uint256",
          "name": "",
          "type": "uint256"
        }
      ],
      "payable": false,
      "stateMutability": "view",
      "type": "function"
    },
    {
      "constant": true,
      "inputs": [
        {
          "internalType": "address",
          "name": "account",
          "type": "address"
        }
      ],
      "name": "balanceOf",
      "outputs": [
        {
          "internalType": "uint256",
          "name": "",
          "type": "uint256"
        }
      ],
      "payable": false,
      "stateMutability": "view",
      "type": "function"
    },
    {
      "constant": true,
      "inputs": [
        {
          "internalType": "address",
          "name": "account",
          "type": "address"
        }
      ],
      "name": "balanceOfBonded",
      "outputs": [
        {
          "internalType": "uint256",
          "name": "",
          "type": "uint256"
        }
      ],
      "payable": false,
      "stateMutability": "view",
      "type": "function"
    },
    {
      "constant": true,
      "inputs": [
        {
          "internalType": "address",
          "name": "account",
          "type": "address"
        },
        {
          "internalType": "uint256",
          "name": "epoch",
          "type": "uint256"
        }
      ],
      "name": "balanceOfCoupons",
      "outputs": [
        {
          "internalType": "uint256",
          "name": "",
          "type": "uint256"
        }
      ],
      "payable": false,
      "stateMutability": "view",
      "type": "function"
    },
    {
      "constant": true,
      "inputs": [
        {
          "internalType": "address",
          "name": "account",
          "type": "address"
        }
      ],
      "name": "balanceOfStaged",
      "outputs": [
        {
          "internalType": "uint256",
          "name": "",
          "type": "uint256"
        }
      ],
      "payable": false,
      "stateMutability": "view",
      "type": "function"
    },
    {
      "constant": true,
      "inputs": [
        {
          "internalType": "uint256",
          "name": "epoch",
          "type": "uint256"
        }
      ],
      "name": "bootstrappingAt",
      "outputs": [
        {
          "internalType": "bool",
          "name": "",
          "type": "bool"
        }
      ],
      "payable": false,
      "stateMutability": "view",
      "type": "function"
    },
    {
      "constant": true,
      "inputs": [
        {
          "internalType": "uint256",
          "name": "epoch",
          "type": "uint256"
        }
      ],
      "name": "couponsExpiration",
      "outputs": [
        {
          "internalType": "uint256",
          "name": "",
          "type": "uint256"
        }
      ],
      "payable": false,
      "stateMutability": "view",
      "type": "function"
    },
    {
      "constant": true,
      "inputs": [],
      "name": "decimals",
      "outputs": [
        {
          "internalType": "uint8",
          "name": "",
          "type": "uint8"
        }
      ],
      "payable": false,
      "stateMutability": "view",
      "type": "function"
    },
    {
      "constant": true,
      "inputs": [],
      "name": "dollar",
      "outputs": [
        {
          "internalType": "contract IDollar",
          "name": "",
          "type": "address"
        }
      ],
      "payable": false,
      "stateMutability": "view",
      "type": "function"
    },
    {
      "constant": true,
      "inputs": [],
      "name": "epoch",
      "outputs": [
        {
          "internalType": "uint256",
          "name": "",
          "type": "uint256"
        }
      ],
      "payable": false,
      "stateMutability": "view",
      "type": "function"
    },
    {
      "constant": true,
      "inputs": [],
      "name": "epochTime",
      "outputs": [
        {
          "internalType": "uint256",
          "name": "",
          "type": "uint256"
        }
      ],
      "payable": false,
      "stateMutability": "view",
      "type": "function"
    },
    {
      "constant": true,
      "inputs": [
        {
          "internalType": "uint256",
          "name": "epoch",
          "type": "uint256"
        }
      ],
      "name": "expiringCoupons",
      "outputs": [
        {
          "internalType": "uint256",
          "name": "",
          "type": "uint256"
        }
      ],
      "payable": false,
      "stateMutability": "view",
      "type": "function"
    },
    {
      "constant": true,
      "inputs": [
        {
          "internalType": "uint256",
          "name": "epoch",
          "type": "uint256"
        },
        {
          "internalType": "uint256",
          "name": "i",
          "type": "uint256"
        }
      ],
      "name": "expiringCouponsAtIndex",
      "outputs": [
        {
          "internalType": "uint256",
          "name": "",
          "type": "uint256"
        }
      ],
      "payable": false,
      "stateMutability": "view",
      "type": "function"
    },
    {
      "constant": true,
      "inputs": [],
      "name": "implementation",
      "outputs": [
        {
          "internalType": "address",
          "name": "impl",
          "type": "address"
        }
      ],
      "payable": false,
      "stateMutability": "view",
      "type": "function"
    },
    {
      "constant": true,
      "inputs": [
        {
          "internalType": "address",
          "name": "candidate",
          "type": "address"
        }
      ],
      "name": "isInitialized",
      "outputs": [
        {
          "internalType": "bool",
          "name": "",
          "type": "bool"
        }
      ],
      "payable": false,
      "stateMutability": "view",
      "type": "function"
    },
    {
      "constant": true,
      "inputs": [
        {
          "internalType": "address",
          "name": "candidate",
          "type": "address"
        }
      ],
      "name": "isNominated",
      "outputs": [
        {
          "internalType": "bool",
          "name": "",
          "type": "bool"
        }
      ],
      "payable": false,
      "stateMutability": "view",
      "type": "function"
    },
    {
      "constant": true,
      "inputs": [],
      "name": "name",
      "outputs": [
        {
          "internalType": "string",
          "name": "",
          "type": "string"
        }
      ],
      "payable": false,
      "stateMutability": "view",
      "type": "function"
    },
    {
      "constant": true,
      "inputs": [],
      "name": "oracle",
      "outputs": [
        {
          "internalType": "contract IOracle",
          "name": "",
          "type": "address"
        }
      ],
      "payable": false,
      "stateMutability": "view",
      "type": "function"
    },
    {
      "constant": true,
      "inputs": [
        {
          "internalType": "uint256",
          "name": "epoch",
          "type": "uint256"
        }
      ],
      "name": "outstandingCoupons",
      "outputs": [
        {
          "internalType": "uint256",
          "name": "",
          "type": "uint256"
        }
      ],
      "payable": false,
      "stateMutability": "view",
      "type": "function"
    },
    {
      "constant": true,
      "inputs": [
        {
          "internalType": "address",
          "name": "candidate",
          "type": "address"
        }
      ],
      "name": "periodFor",
      "outputs": [
        {
          "internalType": "uint256",
          "name": "",
          "type": "uint256"
        }
      ],
      "payable": false,
      "stateMutability": "view",
      "type": "function"
    },
    {
      "constant": true,
      "inputs": [],
      "name": "pool",
      "outputs": [
        {
          "internalType": "address",
          "name": "",
          "type": "address"
        }
      ],
      "payable": false,
      "stateMutability": "view",
      "type": "function"
    },
    {
      "constant": true,
      "inputs": [
        {
          "internalType": "address",
          "name": "account",
          "type": "address"
        },
        {
          "internalType": "address",
          "name": "candidate",
          "type": "address"
        }
      ],
      "name": "recordedVote",
      "outputs": [
        {
          "internalType": "enum Candidate.Vote",
          "name": "",
          "type": "uint8"
        }
      ],
      "payable": false,
      "stateMutability": "view",
      "type": "function"
    },
    {
      "constant": true,
      "inputs": [
        {
          "internalType": "address",
          "name": "candidate",
          "type": "address"
        }
      ],
      "name": "rejectFor",
      "outputs": [
        {
          "internalType": "uint256",
          "name": "",
          "type": "uint256"
        }
      ],
      "payable": false,
      "stateMutability": "view",
      "type": "function"
    },
    {
      "constant": true,
      "inputs": [
        {
          "internalType": "address",
          "name": "candidate",
          "type": "address"
        }
      ],
      "name": "startFor",
      "outputs": [
        {
          "internalType": "uint256",
          "name": "",
          "type": "uint256"
        }
      ],
      "payable": false,
      "stateMutability": "view",
      "type": "function"
    },
    {
      "constant": true,
      "inputs": [
        {
          "internalType": "address",
          "name": "account",
          "type": "address"
        }
      ],
      "name": "statusOf",
      "outputs": [
        {
          "internalType": "enum Account.Status",
          "name": "",
          "type": "uint8"
        }
      ],
      "payable": false,
      "stateMutability": "view",
      "type": "function"
    },
    {
      "constant": true,
      "inputs": [],
      "name": "symbol",
      "outputs": [
        {
          "internalType": "string",
          "name": "",
          "type": "string"
        }
      ],
      "payable": false,
      "stateMutability": "view",
      "type": "function"
    },
    {
      "constant": true,
      "inputs": [],
      "name": "totalBonded",
      "outputs": [
        {
          "internalType": "uint256",
          "name": "",
          "type": "uint256"
        }
      ],
      "payable": false,
      "stateMutability": "view",
      "type": "function"
    },
    {
      "constant": true,
      "inputs": [
        {
          "internalType": "uint256",
          "name": "epoch",
          "type": "uint256"
        }
      ],
      "name": "totalBondedAt",
      "outputs": [
        {
          "internalType": "uint256",
          "name": "",
          "type": "uint256"
        }
      ],
      "payable": false,
      "stateMutability": "view",
      "type": "function"
    },
    {
      "constant": true,
      "inputs": [],
      "name": "totalCoupons",
      "outputs": [
        {
          "internalType": "uint256",
          "name": "",
          "type": "uint256"
        }
      ],
      "payable": false,
      "stateMutability": "view",
      "type": "function"
    },
    {
      "constant": true,
      "inputs": [],
      "name": "totalDebt",
      "outputs": [
        {
          "internalType": "uint256",
          "name": "",
          "type": "uint256"
        }
      ],
      "payable": false,
      "stateMutability": "view",
      "type": "function"
    },
    {
      "constant": true,
      "inputs": [],
      "name": "totalNet",
      "outputs": [
        {
          "internalType": "uint256",
          "name": "",
          "type": "uint256"
        }
      ],
      "payable": false,
      "stateMutability": "view",
      "type": "function"
    },
    {
      "constant": true,
      "inputs": [],
      "name": "totalRedeemable",
      "outputs": [
        {
          "internalType": "uint256",
          "name": "",
          "type": "uint256"
        }
      ],
      "payable": false,
      "stateMutability": "view",
      "type": "function"
    },
    {
      "constant": true,
      "inputs": [],
      "name": "totalStaged",
      "outputs": [
        {
          "internalType": "uint256",
          "name": "",
          "type": "uint256"
        }
      ],
      "payable": false,
      "stateMutability": "view",
      "type": "function"
    },
    {
      "constant": true,
      "inputs": [],
      "name": "totalSupply",
      "outputs": [
        {
          "internalType": "uint256",
          "name": "",
          "type": "uint256"
        }
      ],
      "payable": false,
      "stateMutability": "view",
      "type": "function"
    },
    {
      "constant": false,
      "inputs": [
        {
          "internalType": "address",
          "name": "recipient",
          "type": "address"
        },
        {
          "internalType": "uint256",
          "name": "amount",
          "type": "uint256"
        }
      ],
      "name": "transfer",
      "outputs": [
        {
          "internalType": "bool",
          "name": "",
          "type": "bool"
        }
      ],
      "payable": false,
      "stateMutability": "nonpayable",
      "type": "function"
    },
    {
      "constant": false,
      "inputs": [
        {
          "internalType": "address",
          "name": "sender",
          "type": "address"
        },
        {
          "internalType": "address",
          "name": "recipient",
          "type": "address"
        },
        {
          "internalType": "uint256",
          "name": "amount",
          "type": "uint256"
        }
      ],
      "name": "transferFrom",
      "outputs": [
        {
          "internalType": "bool",
          "name": "",
          "type": "bool"
        }
      ],
      "payable": false,
      "stateMutability": "nonpayable",
      "type": "function"
    },
    {
      "constant": true,
      "inputs": [
        {
          "internalType": "address",
          "name": "candidate",
          "type": "address"
        }
      ],
      "name": "votesFor",
      "outputs": [
        {
          "internalType": "uint256",
          "name": "",
          "type": "uint256"
        }
      ],
      "payable": false,
      "stateMutability": "view",
      "type": "function"
    },
    {
      "constant": false,
      "inputs": [
        {
          "internalType": "uint256",
          "name": "amount",
          "type": "uint256"
        }
      ],
      "name": "incrementTotalBondedE",
      "outputs": [],
      "payable": false,
      "stateMutability": "nonpayable",
      "type": "function"
    },
    {
      "constant": false,
      "inputs": [
        {
          "internalType": "uint256",
          "name": "amount",
          "type": "uint256"
        },
        {
          "internalType": "string",
          "name": "reason",
          "type": "string"
        }
      ],
      "name": "decrementTotalBondedE",
      "outputs": [],
      "payable": false,
      "stateMutability": "nonpayable",
      "type": "function"
    },
    {
      "constant": false,
      "inputs": [
        {
          "internalType": "uint256",
          "name": "amount",
          "type": "uint256"
        }
      ],
      "name": "incrementTotalDebtE",
      "outputs": [],
      "payable": false,
      "stateMutability": "nonpayable",
      "type": "function"
    },
    {
      "constant": false,
      "inputs": [
        {
          "internalType": "uint256",
          "name": "amount",
          "type": "uint256"
        },
        {
          "internalType": "string",
          "name": "reason",
          "type": "string"
        }
      ],
      "name": "decrementTotalDebtE",
      "outputs": [],
      "payable": false,
      "stateMutability": "nonpayable",
      "type": "function"
    },
    {
      "constant": false,
      "inputs": [
        {
          "internalType": "uint256",
          "name": "amount",
          "type": "uint256"
        }
      ],
      "name": "incrementTotalRedeemableE",
      "outputs": [],
      "payable": false,
      "stateMutability": "nonpayable",
      "type": "function"
    },
    {
      "constant": false,
      "inputs": [
        {
          "internalType": "uint256",
          "name": "amount",
          "type": "uint256"
        },
        {
          "internalType": "string",
          "name": "reason",
          "type": "string"
        }
      ],
      "name": "decrementTotalRedeemableE",
      "outputs": [],
      "payable": false,
      "stateMutability": "nonpayable",
      "type": "function"
    },
    {
      "constant": false,
      "inputs": [
        {
          "internalType": "address",
          "name": "account",
          "type": "address"
        },
        {
          "internalType": "uint256",
          "name": "amount",
          "type": "uint256"
        }
      ],
      "name": "incrementBalanceOfE",
      "outputs": [],
      "payable": false,
      "stateMutability": "nonpayable",
      "type": "function"
    },
    {
      "constant": false,
      "inputs": [
        {
          "internalType": "address",
          "name": "account",
          "type": "address"
        },
        {
          "internalType": "uint256",
          "name": "amount",
          "type": "uint256"
        },
        {
          "internalType": "string",
          "name": "reason",
          "type": "string"
        }
      ],
      "name": "decrementBalanceOfE",
      "outputs": [],
      "payable": false,
      "stateMutability": "nonpayable",
      "type": "function"
    },
    {
      "constant": false,
      "inputs": [
        {
          "internalType": "address",
          "name": "account",
          "type": "address"
        },
        {
          "internalType": "uint256",
          "name": "amount",
          "type": "uint256"
        }
      ],
      "name": "incrementBalanceOfStagedE",
      "outputs": [],
      "payable": false,
      "stateMutability": "nonpayable",
      "type": "function"
    },
    {
      "constant": false,
      "inputs": [
        {
          "internalType": "address",
          "name": "account",
          "type": "address"
        },
        {
          "internalType": "uint256",
          "name": "amount",
          "type": "uint256"
        },
        {
          "internalType": "string",
          "name": "reason",
          "type": "string"
        }
      ],
      "name": "decrementBalanceOfStagedE",
      "outputs": [],
      "payable": false,
      "stateMutability": "nonpayable",
      "type": "function"
    },
    {
      "constant": false,
      "inputs": [
        {
          "internalType": "address",
          "name": "account",
          "type": "address"
        },
        {
          "internalType": "uint256",
          "name": "epoch",
          "type": "uint256"
        },
        {
          "internalType": "uint256",
          "name": "amount",
          "type": "uint256"
        }
      ],
      "name": "incrementBalanceOfCouponsE",
      "outputs": [],
      "payable": false,
      "stateMutability": "nonpayable",
      "type": "function"
    },
    {
      "constant": false,
      "inputs": [
        {
          "internalType": "address",
          "name": "account",
          "type": "address"
        },
        {
          "internalType": "uint256",
          "name": "epoch",
          "type": "uint256"
        },
        {
          "internalType": "uint256",
          "name": "amount",
          "type": "uint256"
        },
        {
          "internalType": "string",
          "name": "reason",
          "type": "string"
        }
      ],
      "name": "decrementBalanceOfCouponsE",
      "outputs": [],
      "payable": false,
      "stateMutability": "nonpayable",
      "type": "function"
    },
    {
      "constant": false,
      "inputs": [
        {
          "internalType": "address",
          "name": "account",
          "type": "address"
        }
      ],
      "name": "unfreezeE",
      "outputs": [],
      "payable": false,
      "stateMutability": "nonpayable",
      "type": "function"
    },
    {
      "constant": false,
      "inputs": [
        {
          "internalType": "address",
          "name": "owner",
          "type": "address"
        },
        {
          "internalType": "address",
          "name": "spender",
          "type": "address"
        },
        {
          "internalType": "uint256",
          "name": "amount",
          "type": "uint256"
        }
      ],
      "name": "updateAllowanceCouponsE",
      "outputs": [],
      "payable": false,
      "stateMutability": "nonpayable",
      "type": "function"
    },
    {
      "constant": false,
      "inputs": [
        {
          "internalType": "address",
          "name": "owner",
          "type": "address"
        },
        {
          "internalType": "address",
          "name": "spender",
          "type": "address"
        },
        {
          "internalType": "uint256",
          "name": "amount",
          "type": "uint256"
        },
        {
          "internalType": "string",
          "name": "reason",
          "type": "string"
        }
      ],
      "name": "decrementAllowanceCouponsE",
      "outputs": [],
      "payable": false,
      "stateMutability": "nonpayable",
      "type": "function"
    },
    {
      "constant": false,
      "inputs": [
        {
          "internalType": "uint256",
          "name": "start",
          "type": "uint256"
        },
        {
          "internalType": "uint256",
          "name": "period",
          "type": "uint256"
        }
      ],
      "name": "setEpochParamsE",
      "outputs": [],
      "payable": false,
      "stateMutability": "nonpayable",
      "type": "function"
    },
    {
      "constant": false,
      "inputs": [],
      "name": "incrementEpochE",
      "outputs": [],
      "payable": false,
      "stateMutability": "nonpayable",
      "type": "function"
    },
    {
      "constant": false,
      "inputs": [],
      "name": "snapshotTotalBondedE",
      "outputs": [],
      "payable": false,
      "stateMutability": "nonpayable",
      "type": "function"
    },
    {
      "constant": false,
      "inputs": [
        {
          "internalType": "uint256",
          "name": "epoch",
          "type": "uint256"
        },
        {
          "internalType": "uint256",
          "name": "expiration",
          "type": "uint256"
        }
      ],
      "name": "initializeCouponsExpirationE",
      "outputs": [],
      "payable": false,
      "stateMutability": "nonpayable",
      "type": "function"
    },
    {
      "constant": false,
      "inputs": [
        {
          "internalType": "uint256",
          "name": "epoch",
          "type": "uint256"
        }
      ],
      "name": "eliminateOutstandingCouponsE",
      "outputs": [],
      "payable": false,
      "stateMutability": "nonpayable",
      "type": "function"
    },
    {
      "constant": false,
      "inputs": [
        {
          "internalType": "address",
          "name": "candidate",
          "type": "address"
        },
        {
          "internalType": "uint256",
          "name": "period",
          "type": "uint256"
        }
      ],
      "name": "createCandidateE",
      "outputs": [],
      "payable": false,
      "stateMutability": "nonpayable",
      "type": "function"
    },
    {
      "constant": false,
      "inputs": [
        {
          "internalType": "address",
          "name": "account",
          "type": "address"
        },
        {
          "internalType": "address",
          "name": "candidate",
          "type": "address"
        },
        {
          "internalType": "enum Candidate.Vote",
          "name": "vote",
          "type": "uint8"
        }
      ],
      "name": "recordVoteE",
      "outputs": [],
      "payable": false,
      "stateMutability": "nonpayable",
      "type": "function"
    },
    {
      "constant": false,
      "inputs": [
        {
          "internalType": "address",
          "name": "candidate",
          "type": "address"
        },
        {
          "internalType": "uint256",
          "name": "amount",
          "type": "uint256"
        }
      ],
      "name": "incrementApproveForE",
      "outputs": [],
      "payable": false,
      "stateMutability": "nonpayable",
      "type": "function"
    },
    {
      "constant": false,
      "inputs": [
        {
          "internalType": "address",
          "name": "candidate",
          "type": "address"
        },
        {
          "internalType": "uint256",
          "name": "amount",
          "type": "uint256"
        },
        {
          "internalType": "string",
          "name": "reason",
          "type": "string"
        }
      ],
      "name": "decrementApproveForE",
      "outputs": [],
      "payable": false,
      "stateMutability": "nonpayable",
      "type": "function"
    },
    {
      "constant": false,
      "inputs": [
        {
          "internalType": "address",
          "name": "candidate",
          "type": "address"
        },
        {
          "internalType": "uint256",
          "name": "amount",
          "type": "uint256"
        }
      ],
      "name": "incrementRejectForE",
      "outputs": [],
      "payable": false,
      "stateMutability": "nonpayable",
      "type": "function"
    },
    {
      "constant": false,
      "inputs": [
        {
          "internalType": "address",
          "name": "candidate",
          "type": "address"
        },
        {
          "internalType": "uint256",
          "name": "amount",
          "type": "uint256"
        },
        {
          "internalType": "string",
          "name": "reason",
          "type": "string"
        }
      ],
      "name": "decrementRejectForE",
      "outputs": [],
      "payable": false,
      "stateMutability": "nonpayable",
      "type": "function"
    },
    {
      "constant": false,
      "inputs": [
        {
          "internalType": "address",
          "name": "account",
          "type": "address"
        },
        {
          "internalType": "address",
          "name": "candidate",
          "type": "address"
        }
      ],
      "name": "placeLockE",
      "outputs": [],
      "payable": false,
      "stateMutability": "nonpayable",
      "type": "function"
    },
    {
      "constant": false,
      "inputs": [
        {
          "internalType": "address",
          "name": "candidate",
          "type": "address"
        }
      ],
      "name": "initializedE",
      "outputs": [],
      "payable": false,
      "stateMutability": "nonpayable",
      "type": "function"
    },
    {
      "constant": false,
      "inputs": [
        {
          "internalType": "uint256",
          "name": "timestamp",
          "type": "uint256"
        }
      ],
      "name": "setBlockTimestamp",
      "outputs": [],
      "payable": false,
      "stateMutability": "nonpayable",
      "type": "function"
    }
  ],
  "bytecode": "0x608060405234801561001057600080fd5b5042600f5561201d806100246000396000f3fe608060405234801561001057600080fd5b50600436106104075760003560e01c806386cf9f1411610220578063b11ee0e311610130578063d6d8816d116100b8578063f1b7cf4911610087578063f1b7cf491461086a578063f35adf7e1461087d578063f7a3181814610885578063fc7b9c1814610898578063ffbe3b73146108a057610407565b8063d6d8816d14610823578063d83d3ed514610836578063dd62ed3e14610849578063e0abdf661461085757610407565b8063c2aeb5fe116100ff578063c2aeb5fe146107cf578063c9aff70c146107e2578063cc8d823c146107f5578063cf02377914610808578063d60b347f1461081057610407565b8063b11ee0e314610783578063b32a2f9014610796578063bc7513e2146107a9578063c1410c02146107bc57610407565b80639f6e1b26116101b3578063a6f37b5311610182578063a6f37b5314610737578063a9059cbb1461042a578063a9b3cf151461074a578063adbff2be1461075d578063ae5c23811461077057610407565b80639f6e1b26146106f6578063a00e14d114610709578063a50cd8e71461071c578063a6c409f11461072f57610407565b806397a5d5b5116101ef57806397a5d5b5146106b55780639a649edc146106c85780639b82b49b146106d05780639be46493146106e357610407565b806386cf9f141461067f5780638de2e57314610692578063900cf0cf146106a557806395d89b41146106ad57610407565b80633fd4973c1161031b5780636b862d66116102ae57806375d5024b1161027d57806375d5024b1461062b5780637cb95a321461063e5780637dc0d1d014610651578063825ad607146106595780638413e52a1461066c57610407565b80636b862d66146105ea57806370a08231146105fd57806371c511eb1461061057806372924d2a1461061857610407565b806351adeb57116102ea57806351adeb57146105a75780635c60da1b146105bc57806364668022146105c45780636a39e328146105d757610407565b80633fd4973c1461057157806344d96e95146105845780634c7360991461058c5780635053e4611461059f57610407565b80631edbcf6c1161039e578063323474221161036d5780633234742214610505578063353a420c146105185780633a3e6c811461052b5780633f7bcaf31461053e5780633fbba9a61461055157610407565b80631edbcf6c146104c257806323b872dd146104ca578063259f7adf146104dd578063313ce567146104f057610407565b806315e14bf6116103da57806315e14bf61461047f57806316f0115b1461049257806318160ddd146104a75780631a08e22a146104af57610407565b806306fdde031461040c578063095ea7b31461042a5780630dc6d3a31461044a57806310e95b6c1461045f575b600080fd5b6104146108b3565b6040516104219190611eb0565b60405180910390f35b61043d610438366004611bd8565b6108d3565b6040516104219190611e86565b61045d610458366004611b5a565b6108dc565b005b61047261046d366004611cd7565b610925565b6040516104219190611ee1565b61047261048d366004611a6a565b61093d565b61049a61095b565b6040516104219190611e78565b61047261096a565b61045d6104bd366004611d69565b610970565b61047261097e565b61043d6104d8366004611b17565b610984565b61045d6104eb366004611cd7565b61098d565b6104f8610999565b6040516104219190611eef565b61045d610513366004611d13565b61099e565b610472610526366004611a6a565b6109e3565b61043d610539366004611a6a565b610a01565b61045d61054c366004611b17565b610a1e565b61056461055f366004611a90565b610a29565b6040516104219190611ea2565b61045d61057f366004611c08565b610a5c565b610472610aa3565b61047261059a366004611d69565b610aa9565b610472610ad9565b6105af610afc565b6040516104219190611e94565b61049a610b0b565b6104726105d2366004611a6a565b610b30565b6104726105e5366004611cd7565b610b4e565b61045d6105f8366004611c70565b610b63565b61047261060b366004611a6a565b610b6e565b61045d610b8c565b61045d610626366004611d13565b610b96565b61043d610639366004611cd7565b610bd6565b61045d61064c366004611c08565b610be9565b6105af610c2a565b610472610667366004611a6a565b610c39565b61045d61067a366004611aca565b610c8c565b61047261068d366004611a6a565b610c97565b61045d6106a0366004611cd7565b610cb2565b610472610cbb565b610414610cc1565b6105646106c3366004611a6a565b610ce0565b610472610d45565b61045d6106de366004611d13565b610d4b565b61045d6106f1366004611a6a565b610d8b565b610472610704366004611a90565b610d94565b61045d610717366004611d69565b610dc3565b61047261072a366004611a6a565b610dce565b610472610df1565b61045d610745366004611a6a565b610e87565b61045d610758366004611cd7565b610e90565b61045d61076b366004611c08565b610e99565b61045d61077e366004611bd8565b610eda565b61045d610791366004611bd8565b610ee4565b61045d6107a4366004611c08565b610eee565b6104726107b7366004611bd8565b610f2f565b61045d6107ca366004611a90565b610f73565b61045d6107dd366004611ca2565b610f7d565b6104726107f0366004611cd7565b610fbf565b61045d610803366004611bd8565b610fd4565b610472610fde565b61043d61081e366004611a6a565b610fe4565b61045d610831366004611cd7565b611005565b61045d610844366004611bd8565b61100e565b610472610438366004611a90565b61045d610865366004611cd7565b611018565b610472610878366004611a6a565b61101d565b61045d611038565b61045d610893366004611bd8565b611040565b61047261104a565b6104726108ae366004611cd7565b611050565b6060604051806060016040528060218152602001611fba60219139905090565b60005b92915050565b61091e85858585858080601f01602080910402602001604051908101604052809392919081815260200183838082843760009201919091525061106292505050565b5050505050565b6000818152600d60205260409020600201545b919050565b6001600160a01b03166000908152600e602052604090206001015490565b600b546001600160a01b031690565b60035490565b61097a82826110d3565b5050565b60065490565b60009392505050565b61099681611105565b50565b601290565b6109de8383838080601f01602080910402602001604051908101604052809392919081815260200183838082843760009201919091525061111e92505050565b505050565b6001600160a01b03166000908152600e602052604090206003015490565b6001600160a01b03166000908152600e6020526040902054151590565b6109de838383611139565b6001600160a01b038082166000908152600e60209081526040808320938616835260049093019052205460ff1692915050565b610a9d848484848080601f01602080910402602001604051908101604052809392919081815260200183838082843760009201919091525061116992505050565b50505050565b60045490565b6000828152600d60205260408120600301805483908110610ac657fe5b9060005260206000200154905092915050565b6000610ae36119d4565b610aeb6111ba565b9050610af6816111e9565b91505090565b6009546001600160a01b031690565b7f360894a13ba1a3210667c828492db98dca3e2076cc3735a920a3ca505d382bbc5490565b6001600160a01b03166000908152600e602052604090206002015490565b6000908152600d602052604090206003015490565b6109de83838361120b565b6001600160a01b03166000908152600c602052604090206001015490565b610b946112b2565b565b6109de8383838080601f0160208091040260200160405190810160405280939291908181526020018383808284376000920191909152506112d992505050565b6000610be06112f4565b90911115919050565b610a9d848484848080601f0160208091040260200160405190810160405280939291908181526020018383808284376000920191909152506112fa92505050565b600a546001600160a01b031690565b600080610c4461096a565b905080610c55576000915050610938565b610c8581610c79610c6586610b6e565b610c6d610aa3565b9063ffffffff61134b16565b9063ffffffff61138e16565b9392505050565b6109de8383836113d0565b6001600160a01b03166000908152600c602052604090205490565b6109968161141a565b60025490565b6040805180820190915260058152644551442d5360d81b602082015290565b6000610cea610cbb565b6001600160a01b0383166000908152600c60205260409020600501541115610d1457506002610938565b6001600160a01b0382166000908152600c6020526040902060040154610d38610cbb565b10156108d35760016108d6565b60085490565b6109de8383838080601f01602080910402602001604051908101604052809392919081815260200183838082843760009201919091525061143392505050565b6109968161144e565b6001600160a01b039182166000908152600c602090815260408083209390941682526003909201909152205490565b600091909155600155565b60006108d6610ddc836109e3565b610de584610b30565b9063ffffffff61148016565b6000610e82610dfe61104a565b610e06610afc565b6001600160a01b03166318160ddd6040518163ffffffff1660e01b815260040160206040518083038186803b158015610e3e57600080fd5b505afa158015610e52573d6000803e3d6000fd5b505050506040513d601f19601f82011682018060405250610e769190810190611cf5565b9063ffffffff6114a516565b905090565b610996816114e7565b6109968161150e565b610a9d848484848080601f01602080910402602001604051908101604052809392919081815260200183838082843760009201919091525061155192505050565b61097a82826115fc565b61097a82826116a4565b610a9d848484848080601f01602080910402602001604051908101604052809392919081815260200183838082843760009201919091525061170092505050565b6000610f3a82610fbf565b610f46575060006108d6565b506001600160a01b03919091166000908152600c6020908152604080832093835260029093019052205490565b61097a828261175f565b61091e85858585858080601f0160208091040260200160405190810160405280939291908181526020018383808284376000920191909152506117bf92505050565b6000908152600d602052604090206001015490565b61097a828261186a565b60055490565b6001600160a01b03166000908152600e602052604090206005015460ff1690565b610996816118b9565b61097a82826118d2565b600f55565b6001600160a01b03166000908152600e602052604090205490565b610b946118fe565b61097a8282611917565b60075490565b6000908152600d602052604090205490565b6001600160a01b038085166000908152600c60209081526040808320938716835260039093019052205461109d90838363ffffffff61196616565b6001600160a01b039485166000908152600c60209081526040808320969097168252600390950190945293909220929092555050565b6000828152600d6020908152604080832060020184905592825291812060030180546001810182559082529190200155565b600454611118908263ffffffff61148016565b60045550565b60065461113290838363ffffffff61196616565b6006555050565b6001600160a01b039283166000908152600c60209081526040808320949095168252600390930190925291902055565b6001600160a01b0383166000908152600e602052604090206003015461119690838363ffffffff61196616565b6001600160a01b039093166000908152600e60205260409020600301929092555050565b6111c26119d4565b60405180606001604052806000815260200163600450f08152602001610e10815250905090565b60006108d68260000151610de58460400151610c798660200151610e76611992565b6001600160a01b0383166000908152600c60209081526040808320858452600201909152902054611242908263ffffffff61148016565b6001600160a01b0384166000908152600c60209081526040808320868452600201825280832093909355600d90522060010154611285908263ffffffff61148016565b6000838152600d60205260409020600101556008546112aa908263ffffffff61148016565b600855505050565b6112ba61096a565b600d60006112c6610cbb565b8152602081019190915260400160002055565b6007546112ed90838363ffffffff61196616565b6007555050565b61016890565b6001600160a01b0383166000908152600e602052604090206002015461132790838363ffffffff61196616565b6001600160a01b039093166000908152600e60205260409020600201929092555050565b60008261135a575060006108d6565b8282028284828161136757fe5b0414610c855760405162461bcd60e51b815260040161138590611ed1565b60405180910390fd5b6000610c8583836040518060400160405280601a81526020017f536166654d6174683a206469766973696f6e206279207a65726f000000000000815250611998565b6001600160a01b038083166000908152600e6020908152604080832093871683526004909301905220805482919060ff1916600183600281111561141057fe5b0217905550505050565b60075461142d908263ffffffff61148016565b60075550565b60045461144790838363ffffffff61196616565b6004555050565b6114616114596119cf565b610de5610cbb565b6001600160a01b039091166000908152600c6020526040902060040155565b600082820183811015610c855760405162461bcd60e51b815260040161138590611ec1565b6000610c8583836040518060400160405280601e81526020017f536166654d6174683a207375627472616374696f6e206f766572666c6f770000815250611966565b6001600160a01b03166000908152600e60205260409020600501805460ff19166001179055565b600061151982610fbf565b9050806115265750610996565b600854611539908263ffffffff6114a516565b600855506000908152600d6020526040812060010155565b6001600160a01b0383166000908152600c602052604090206001015461157e90838363ffffffff61196616565b6001600160a01b0384166000908152600c60205260409020600101556003546115ae90838363ffffffff61196616565b6003556040516000906001600160a01b038516907fddf252ad1be2c89b69c2b068fc378daa952ba7f163c4a11628f55a4df523b3ef906115ef908690611ee1565b60405180910390a3505050565b6001600160a01b0382166000908152600c6020526040902060010154611628908263ffffffff61148016565b6001600160a01b0383166000908152600c6020526040902060010155600354611657908263ffffffff61148016565b6003556040516001600160a01b038316906000907fddf252ad1be2c89b69c2b068fc378daa952ba7f163c4a11628f55a4df523b3ef90611698908590611ee1565b60405180910390a35050565b6001600160a01b0382166000908152600c60205260409020546116cd908263ffffffff61148016565b6001600160a01b0383166000908152600c60205260409020556005546116f9908263ffffffff61148016565b6005555050565b6001600160a01b0383166000908152600c602052604090205461172a90838363ffffffff61196616565b6001600160a01b0384166000908152600c602052604090205560055461175790838363ffffffff61196616565b600555505050565b6001600160a01b0382166000908152600c6020526040812060050154906117916117888461093d565b610de58561101d565b905081811115610a9d576001600160a01b0384166000908152600c6020526040902060050181905550505050565b6001600160a01b0384166000908152600c602090815260408083208684526002019091529020546117f790838363ffffffff61196616565b6001600160a01b0385166000908152600c60209081526040808320878452600201825280832093909355600d9052206001015461183b90838363ffffffff61196616565b6000848152600d602052604090206001015560085461186190838363ffffffff61196616565b60085550505050565b6001600160a01b0382166000908152600e6020526040902060030154611896908263ffffffff61148016565b6001600160a01b039092166000908152600e602052604090206003019190915550565b6006546118cc908263ffffffff61148016565b60065550565b6118da610cbb565b6001600160a01b039092166000908152600e60205260409020918255600190910155565b60025461191290600163ffffffff61148016565b600255565b6001600160a01b0382166000908152600e6020526040902060020154611943908263ffffffff61148016565b6001600160a01b039092166000908152600e602052604090206002019190915550565b6000818484111561198a5760405162461bcd60e51b81526004016113859190611eb0565b505050900390565b600f5490565b600081836119b95760405162461bcd60e51b81526004016113859190611eb0565b5060008385816119c557fe5b0495945050505050565b601890565b60405180606001604052806000815260200160008152602001600081525090565b80356108d681611f8f565b80356108d681611fa3565b60008083601f840112611a1d57600080fd5b50813567ffffffffffffffff811115611a3557600080fd5b602083019150836001820283011115611a4d57600080fd5b9250929050565b80356108d681611fb0565b80516108d681611fb0565b600060208284031215611a7c57600080fd5b6000611a8884846119f5565b949350505050565b60008060408385031215611aa357600080fd5b6000611aaf85856119f5565b9250506020611ac0858286016119f5565b9150509250929050565b600080600060608486031215611adf57600080fd5b6000611aeb86866119f5565b9350506020611afc868287016119f5565b9250506040611b0d86828701611a00565b9150509250925092565b600080600060608486031215611b2c57600080fd5b6000611b3886866119f5565b9350506020611b49868287016119f5565b9250506040611b0d86828701611a54565b600080600080600060808688031215611b7257600080fd5b6000611b7e88886119f5565b9550506020611b8f888289016119f5565b9450506040611ba088828901611a54565b935050606086013567ffffffffffffffff811115611bbd57600080fd5b611bc988828901611a0b565b92509250509295509295909350565b60008060408385031215611beb57600080fd5b6000611bf785856119f5565b9250506020611ac085828601611a54565b60008060008060608587031215611c1e57600080fd5b6000611c2a87876119f5565b9450506020611c3b87828801611a54565b935050604085013567ffffffffffffffff811115611c5857600080fd5b611c6487828801611a0b565b95989497509550505050565b600080600060608486031215611c8557600080fd5b6000611c9186866119f5565b9350506020611b4986828701611a54565b600080600080600060808688031215611cba57600080fd5b6000611cc688886119f5565b9550506020611b8f88828901611a54565b600060208284031215611ce957600080fd5b6000611a888484611a54565b600060208284031215611d0757600080fd5b6000611a888484611a5f565b600080600060408486031215611d2857600080fd5b6000611d348686611a54565b935050602084013567ffffffffffffffff811115611d5157600080fd5b611d5d86828701611a0b565b92509250509250925092565b60008060408385031215611d7c57600080fd5b6000611bf78585611a54565b611d9181611f0a565b82525050565b611d9181611f15565b611d9181611f39565b611d9181611f44565b6000611dbd82611efd565b611dc78185611f01565b9350611dd7818560208601611f4f565b611de081611f7b565b9093019392505050565b6000611df7601b83611f01565b7f536166654d6174683a206164646974696f6e206f766572666c6f770000000000815260200192915050565b6000611e30602183611f01565b7f536166654d6174683a206d756c7469706c69636174696f6e206f766572666c6f8152607760f81b602082015260400192915050565b611d9181611f30565b611d9181611f33565b602081016108d68284611d88565b602081016108d68284611d97565b602081016108d68284611da0565b602081016108d68284611da9565b60208082528101610c858184611db2565b602080825281016108d681611dea565b602080825281016108d681611e23565b602081016108d68284611e66565b602081016108d68284611e6f565b5190565b90815260200190565b60006108d682611f24565b151590565b8061093881611f85565b6001600160a01b031690565b90565b60ff1690565b60006108d682611f0a565b60006108d682611f1a565b60005b83811015611f6a578181015183820152602001611f52565b83811115610a9d5750506000910152565b601f01601f191690565b6003811061099657fe5b611f9881611f0a565b811461099657600080fd5b6003811061099657600080fd5b611f9881611f3056fe457175696c69627269756d20446f6c6c61722050726f746f636f6c205374616b65a365627a7a7231582074d8d35317001aa03b072fe765db0c29256c08dd5a795f33a1b2f9a360aade2f6c6578706572696d656e74616cf564736f6c63430005110040",
  "source": "/*\r\n    Copyright 2021 Equilibrium Dollar Protocol, based on the works of the Empty Set Squad and Dynamic Dollar Devs\r\n\r\n    Licensed under the Apache License, Version 2.0 (the \"License\");\r\n    you may not use this file except in compliance with the License.\r\n    You may obtain a copy of the License at\r\n\r\n    http://www.apache.org/licenses/LICENSE-2.0\r\n\r\n    Unless required by applicable law or agreed to in writing, software\r\n    distributed under the License is distributed on an \"AS IS\" BASIS,\r\n    WITHOUT WARRANTIES OR CONDITIONS OF ANY KIND, either express or implied.\r\n    See the License for the specific language governing permissions and\r\n    limitations under the License.\r\n*/\r\n\r\npragma solidity ^0.5.17;\r\npragma experimental ABIEncoderV2;\r\n\r\nimport \"../dao/Setters.sol\";\r\n\r\ncontract MockState is Setters {\r\n    uint256 internal _blockTimestamp;\r\n\r\n    constructor () public {\r\n        _blockTimestamp = block.timestamp;\r\n    }\r\n\r\n    /**\r\n     * Global\r\n     */\r\n\r\n    function incrementTotalBondedE(uint256 amount) external {\r\n        super.incrementTotalBonded(amount);\r\n    }\r\n\r\n    function decrementTotalBondedE(uint256 amount, string calldata reason) external {\r\n        super.decrementTotalBonded(amount, reason);\r\n    }\r\n\r\n    function incrementTotalDebtE(uint256 amount) external {\r\n        super.incrementTotalDebt(amount);\r\n    }\r\n\r\n    function decrementTotalDebtE(uint256 amount, string calldata reason) external {\r\n        super.decrementTotalDebt(amount, reason);\r\n    }\r\n\r\n    function incrementTotalRedeemableE(uint256 amount) external {\r\n        super.incrementTotalRedeemable(amount);\r\n    }\r\n\r\n    function decrementTotalRedeemableE(uint256 amount, string calldata reason) external {\r\n        super.decrementTotalRedeemable(amount, reason);\r\n    }\r\n\r\n    /**\r\n     * Account\r\n     */\r\n\r\n    function incrementBalanceOfE(address account, uint256 amount) external {\r\n        super.incrementBalanceOf(account, amount);\r\n    }\r\n\r\n    function decrementBalanceOfE(address account, uint256 amount, string calldata reason) external {\r\n        super.decrementBalanceOf(account, amount, reason);\r\n    }\r\n\r\n    function incrementBalanceOfStagedE(address account, uint256 amount) external {\r\n        super.incrementBalanceOfStaged(account, amount);\r\n    }\r\n\r\n    function decrementBalanceOfStagedE(address account, uint256 amount, string calldata reason) external {\r\n        super.decrementBalanceOfStaged(account, amount, reason);\r\n    }\r\n\r\n    function incrementBalanceOfCouponsE(address account, uint256 epoch, uint256 amount) external {\r\n        super.incrementBalanceOfCoupons(account, epoch, amount);\r\n    }\r\n\r\n    function decrementBalanceOfCouponsE(address account, uint256 epoch, uint256 amount, string calldata reason) external {\r\n        super.decrementBalanceOfCoupons(account, epoch, amount, reason);\r\n    }\r\n\r\n    function unfreezeE(address account) external {\r\n        super.unfreeze(account);\r\n    }\r\n\r\n    function updateAllowanceCouponsE(address owner, address spender, uint256 amount) external {\r\n        super.updateAllowanceCoupons(owner, spender, amount);\r\n    }\r\n\r\n    function decrementAllowanceCouponsE(address owner, address spender, uint256 amount, string calldata reason) external {\r\n        super.decrementAllowanceCoupons(owner, spender, amount, reason);\r\n    }\r\n\r\n    /**\r\n     * Epoch\r\n     */\r\n\r\n    function setEpochParamsE(uint256 start, uint256 period) external {\r\n        _state.epoch.start = start;\r\n        _state.epoch.period = period;\r\n    }\r\n\r\n    function incrementEpochE() external {\r\n        super.incrementEpoch();\r\n    }\r\n\r\n    function snapshotTotalBondedE() external {\r\n        super.snapshotTotalBonded();\r\n    }\r\n\r\n    function initializeCouponsExpirationE(uint256 epoch, uint256 expiration) external {\r\n        super.initializeCouponsExpiration(epoch, expiration);\r\n    }\r\n\r\n    function eliminateOutstandingCouponsE(uint256 epoch) external {\r\n       super.eliminateOutstandingCoupons(epoch);\r\n    }\r\n\r\n    /**\r\n     * Governance\r\n     */\r\n\r\n    function createCandidateE(address candidate, uint256 period) external {\r\n        super.createCandidate(candidate, period);\r\n    }\r\n\r\n    function recordVoteE(address account, address candidate, Candidate.Vote vote) external {\r\n        super.recordVote(account, candidate, vote);\r\n    }\r\n\r\n    function incrementApproveForE(address candidate, uint256 amount) external {\r\n        super.incrementApproveFor(candidate, amount);\r\n    }\r\n\r\n    function decrementApproveForE(address candidate, uint256 amount, string calldata reason) external {\r\n        super.decrementApproveFor(candidate, amount, reason);\r\n    }\r\n\r\n    function incrementRejectForE(address candidate, uint256 amount) external {\r\n        super.incrementRejectFor(candidate, amount);\r\n    }\r\n\r\n    function decrementRejectForE(address candidate, uint256 amount, string calldata reason) external {\r\n        super.decrementRejectFor(candidate, amount, reason);\r\n    }\r\n\r\n    function placeLockE(address account, address candidate) external {\r\n        super.placeLock(account, candidate);\r\n    }\r\n\r\n    function initializedE(address candidate) external {\r\n        super.initialized(candidate);\r\n    }\r\n\r\n    /**\r\n     * Mock\r\n     */\r\n\r\n    function setBlockTimestamp(uint256 timestamp) external {\r\n        _blockTimestamp = timestamp;\r\n    }\r\n\r\n    function blockTimestamp() internal view returns (uint256) {\r\n        return _blockTimestamp;\r\n    }\r\n}\r\n",
  "sourcePath": "D:\\10012021\\fix-project\\equilibrium-protocol\\contracts\\mock\\MockState.sol",
  "compiler": {
    "name": "solc",
    "version": "0.5.17+commit.d19bba13.Emscripten.clang"
  },
  "schemaVersion": "3.3.3",
  "updatedAt": "2021-01-16T11:55:51.114Z",
  "devdoc": {
    "methods": {}
  },
  "userdoc": {
    "methods": {
      "balanceOfStaged(address)": {
        "notice": "Account"
      },
      "createCandidateE(address,uint256)": {
        "notice": "Governance"
      },
      "dollar()": {
        "notice": "Global"
      },
      "epoch()": {
        "notice": "Epoch"
      },
      "incrementBalanceOfE(address,uint256)": {
        "notice": "Account"
      },
      "incrementTotalBondedE(uint256)": {
        "notice": "Global"
      },
      "name()": {
        "notice": "ERC20 Interface"
      },
      "recordedVote(address,address)": {
        "notice": "Governance"
      },
      "setBlockTimestamp(uint256)": {
        "notice": "Mock"
      },
      "setEpochParamsE(uint256,uint256)": {
        "notice": "Epoch"
      },
      "transfer(address,uint256)": {
        "notice": "ERC20 Interface"
      }
    }
  }
}