{
  "contractName": "MockMarket",
  "abi": [
    {
      "inputs": [
        {
          "internalType": "address",
          "name": "pool",
          "type": "address"
        }
      ],
      "payable": false,
      "stateMutability": "nonpayable",
      "type": "constructor"
    },
    {
      "anonymous": false,
      "inputs": [
        {
          "indexed": true,
          "internalType": "address",
          "name": "owner",
          "type": "address"
        },
        {
          "indexed": true,
          "internalType": "address",
          "name": "spender",
          "type": "address"
        },
        {
          "indexed": false,
          "internalType": "uint256",
          "name": "value",
          "type": "uint256"
        }
      ],
      "name": "CouponApproval",
      "type": "event"
    },
    {
      "anonymous": false,
      "inputs": [
        {
          "indexed": true,
          "internalType": "address",
          "name": "account",
          "type": "address"
        },
        {
          "indexed": true,
          "internalType": "uint256",
          "name": "epoch",
          "type": "uint256"
        },
        {
          "indexed": false,
          "internalType": "uint256",
          "name": "couponAmount",
          "type": "uint256"
        }
      ],
      "name": "CouponBurn",
      "type": "event"
    },
    {
      "anonymous": false,
      "inputs": [
        {
          "indexed": true,
          "internalType": "uint256",
          "name": "epoch",
          "type": "uint256"
        },
        {
          "indexed": false,
          "internalType": "uint256",
          "name": "couponsExpired",
          "type": "uint256"
        },
        {
          "indexed": false,
          "internalType": "uint256",
          "name": "lessRedeemable",
          "type": "uint256"
        },
        {
          "indexed": false,
          "internalType": "uint256",
          "name": "lessDebt",
          "type": "uint256"
        },
        {
          "indexed": false,
          "internalType": "uint256",
          "name": "newBonded",
          "type": "uint256"
        }
      ],
      "name": "CouponExpiration",
      "type": "event"
    },
    {
      "anonymous": false,
      "inputs": [
        {
          "indexed": true,
          "internalType": "address",
          "name": "account",
          "type": "address"
        },
        {
          "indexed": true,
          "internalType": "uint256",
          "name": "epoch",
          "type": "uint256"
        },
        {
          "indexed": false,
          "internalType": "uint256",
          "name": "dollarAmount",
          "type": "uint256"
        },
        {
          "indexed": false,
          "internalType": "uint256",
          "name": "couponAmount",
          "type": "uint256"
        }
      ],
      "name": "CouponPurchase",
      "type": "event"
    },
    {
      "anonymous": false,
      "inputs": [
        {
          "indexed": true,
          "internalType": "address",
          "name": "account",
          "type": "address"
        },
        {
          "indexed": true,
          "internalType": "uint256",
          "name": "epoch",
          "type": "uint256"
        },
        {
          "indexed": false,
          "internalType": "uint256",
          "name": "couponAmount",
          "type": "uint256"
        }
      ],
      "name": "CouponRedemption",
      "type": "event"
    },
    {
      "anonymous": false,
      "inputs": [
        {
          "indexed": true,
          "internalType": "address",
          "name": "from",
          "type": "address"
        },
        {
          "indexed": true,
          "internalType": "address",
          "name": "to",
          "type": "address"
        },
        {
          "indexed": true,
          "internalType": "uint256",
          "name": "epoch",
          "type": "uint256"
        },
        {
          "indexed": false,
          "internalType": "uint256",
          "name": "value",
          "type": "uint256"
        }
      ],
      "name": "CouponTransfer",
      "type": "event"
    },
    {
      "anonymous": false,
      "inputs": [
        {
          "indexed": true,
          "internalType": "address",
          "name": "from",
          "type": "address"
        },
        {
          "indexed": true,
          "internalType": "address",
          "name": "to",
          "type": "address"
        },
        {
          "indexed": false,
          "internalType": "uint256",
          "name": "value",
          "type": "uint256"
        }
      ],
      "name": "Transfer",
      "type": "event"
    },
    {
      "constant": true,
      "inputs": [
        {
          "internalType": "address",
          "name": "owner",
          "type": "address"
        },
        {
          "internalType": "address",
          "name": "spender",
          "type": "address"
        }
      ],
      "name": "allowance",
      "outputs": [
        {
          "internalType": "uint256",
          "name": "",
          "type": "uint256"
        }
      ],
      "payable": false,
      "stateMutability": "view",
      "type": "function"
    },
    {
      "constant": true,
      "inputs": [
        {
          "internalType": "address",
          "name": "owner",
          "type": "address"
        },
        {
          "internalType": "address",
          "name": "spender",
          "type": "address"
        }
      ],
      "name": "allowanceCoupons",
      "outputs": [
        {
          "internalType": "uint256",
          "name": "",
          "type": "uint256"
        }
      ],
      "payable": false,
      "stateMutability": "view",
      "type": "function"
    },
    {
      "constant": false,
      "inputs": [
        {
          "internalType": "address",
          "name": "spender",
          "type": "address"
        },
        {
          "internalType": "uint256",
          "name": "amount",
          "type": "uint256"
        }
      ],
      "name": "approve",
      "outputs": [
        {
          "internalType": "bool",
          "name": "",
          "type": "bool"
        }
      ],
      "payable": false,
      "stateMutability": "nonpayable",
      "type": "function"
    },
    {
      "constant": false,
      "inputs": [
        {
          "internalType": "address",
          "name": "spender",
          "type": "address"
        },
        {
          "internalType": "uint256",
          "name": "amount",
          "type": "uint256"
        }
      ],
      "name": "approveCoupons",
      "outputs": [],
      "payable": false,
      "stateMutability": "nonpayable",
      "type": "function"
    },
    {
      "constant": true,
      "inputs": [
        {
          "internalType": "address",
          "name": "candidate",
          "type": "address"
        }
      ],
      "name": "approveFor",
      "outputs": [
        {
          "internalType": "uint256",
          "name": "",
          "type": "uint256"
        }
      ],
      "payable": false,
      "stateMutability": "view",
      "type": "function"
    },
    {
      "constant": true,
      "inputs": [
        {
          "internalType": "address",
          "name": "account",
          "type": "address"
        }
      ],
      "name": "balanceOf",
      "outputs": [
        {
          "internalType": "uint256",
          "name": "",
          "type": "uint256"
        }
      ],
      "payable": false,
      "stateMutability": "view",
      "type": "function"
    },
    {
      "constant": true,
      "inputs": [
        {
          "internalType": "address",
          "name": "account",
          "type": "address"
        }
      ],
      "name": "balanceOfBonded",
      "outputs": [
        {
          "internalType": "uint256",
          "name": "",
          "type": "uint256"
        }
      ],
      "payable": false,
      "stateMutability": "view",
      "type": "function"
    },
    {
      "constant": true,
      "inputs": [
        {
          "internalType": "address",
          "name": "account",
          "type": "address"
        },
        {
          "internalType": "uint256",
          "name": "epoch",
          "type": "uint256"
        }
      ],
      "name": "balanceOfCoupons",
      "outputs": [
        {
          "internalType": "uint256",
          "name": "",
          "type": "uint256"
        }
      ],
      "payable": false,
      "stateMutability": "view",
      "type": "function"
    },
    {
      "constant": true,
      "inputs": [
        {
          "internalType": "address",
          "name": "account",
          "type": "address"
        }
      ],
      "name": "balanceOfStaged",
      "outputs": [
        {
          "internalType": "uint256",
          "name": "",
          "type": "uint256"
        }
      ],
      "payable": false,
      "stateMutability": "view",
      "type": "function"
    },
    {
      "constant": true,
      "inputs": [
        {
          "internalType": "uint256",
          "name": "epoch",
          "type": "uint256"
        }
      ],
      "name": "bootstrappingAt",
      "outputs": [
        {
          "internalType": "bool",
          "name": "",
          "type": "bool"
        }
      ],
      "payable": false,
      "stateMutability": "view",
      "type": "function"
    },
    {
      "constant": false,
      "inputs": [
        {
          "internalType": "address",
          "name": "account",
          "type": "address"
        },
        {
          "internalType": "uint256",
          "name": "amount",
          "type": "uint256"
        }
      ],
      "name": "burnFromAccountE",
      "outputs": [],
      "payable": false,
      "stateMutability": "nonpayable",
      "type": "function"
    },
    {
      "constant": false,
      "inputs": [
        {
          "internalType": "uint256",
          "name": "amount",
          "type": "uint256"
        }
      ],
      "name": "burnRedeemableE",
      "outputs": [],
      "payable": false,
      "stateMutability": "nonpayable",
      "type": "function"
    },
    {
      "constant": true,
      "inputs": [
        {
          "internalType": "uint256",
          "name": "amount",
          "type": "uint256"
        }
      ],
      "name": "couponPremium",
      "outputs": [
        {
          "internalType": "uint256",
          "name": "",
          "type": "uint256"
        }
      ],
      "payable": false,
      "stateMutability": "view",
      "type": "function"
    },
    {
      "constant": true,
      "inputs": [
        {
          "internalType": "uint256",
          "name": "couponEpoch",
          "type": "uint256"
        },
        {
          "internalType": "uint256",
          "name": "couponAmount",
          "type": "uint256"
        }
      ],
      "name": "couponRedemptionPenalty",
      "outputs": [
        {
          "internalType": "uint256",
          "name": "",
          "type": "uint256"
        }
      ],
      "payable": false,
      "stateMutability": "view",
      "type": "function"
    },
    {
      "constant": true,
      "inputs": [
        {
          "internalType": "uint256",
          "name": "epoch",
          "type": "uint256"
        }
      ],
      "name": "couponsExpiration",
      "outputs": [
        {
          "internalType": "uint256",
          "name": "",
          "type": "uint256"
        }
      ],
      "payable": false,
      "stateMutability": "view",
      "type": "function"
    },
    {
      "constant": false,
      "inputs": [
        {
          "internalType": "address",
          "name": "candidate",
          "type": "address"
        },
        {
          "internalType": "uint256",
          "name": "period",
          "type": "uint256"
        }
      ],
      "name": "createCandidateE",
      "outputs": [],
      "payable": false,
      "stateMutability": "nonpayable",
      "type": "function"
    },
    {
      "constant": true,
      "inputs": [],
      "name": "decimals",
      "outputs": [
        {
          "internalType": "uint8",
          "name": "",
          "type": "uint8"
        }
      ],
      "payable": false,
      "stateMutability": "view",
      "type": "function"
    },
    {
      "constant": false,
      "inputs": [
        {
          "internalType": "uint256",
          "name": "amount",
          "type": "uint256"
        }
      ],
      "name": "decreaseDebtE",
      "outputs": [],
      "payable": false,
      "stateMutability": "nonpayable",
      "type": "function"
    },
    {
      "constant": false,
      "inputs": [
        {
          "internalType": "address",
          "name": "owner",
          "type": "address"
        },
        {
          "internalType": "address",
          "name": "spender",
          "type": "address"
        },
        {
          "internalType": "uint256",
          "name": "amount",
          "type": "uint256"
        },
        {
          "internalType": "string",
          "name": "reason",
          "type": "string"
        }
      ],
      "name": "decrementAllowanceCouponsE",
      "outputs": [],
      "payable": false,
      "stateMutability": "nonpayable",
      "type": "function"
    },
    {
      "constant": false,
      "inputs": [
        {
          "internalType": "address",
          "name": "candidate",
          "type": "address"
        },
        {
          "internalType": "uint256",
          "name": "amount",
          "type": "uint256"
        },
        {
          "internalType": "string",
          "name": "reason",
          "type": "string"
        }
      ],
      "name": "decrementApproveForE",
      "outputs": [],
      "payable": false,
      "stateMutability": "nonpayable",
      "type": "function"
    },
    {
      "constant": false,
      "inputs": [
        {
          "internalType": "address",
          "name": "account",
          "type": "address"
        },
        {
          "internalType": "uint256",
          "name": "epoch",
          "type": "uint256"
        },
        {
          "internalType": "uint256",
          "name": "amount",
          "type": "uint256"
        },
        {
          "internalType": "string",
          "name": "reason",
          "type": "string"
        }
      ],
      "name": "decrementBalanceOfCouponsE",
      "outputs": [],
      "payable": false,
      "stateMutability": "nonpayable",
      "type": "function"
    },
    {
      "constant": false,
      "inputs": [
        {
          "internalType": "address",
          "name": "account",
          "type": "address"
        },
        {
          "internalType": "uint256",
          "name": "amount",
          "type": "uint256"
        },
        {
          "internalType": "string",
          "name": "reason",
          "type": "string"
        }
      ],
      "name": "decrementBalanceOfE",
      "outputs": [],
      "payable": false,
      "stateMutability": "nonpayable",
      "type": "function"
    },
    {
      "constant": false,
      "inputs": [
        {
          "internalType": "address",
          "name": "account",
          "type": "address"
        },
        {
          "internalType": "uint256",
          "name": "amount",
          "type": "uint256"
        },
        {
          "internalType": "string",
          "name": "reason",
          "type": "string"
        }
      ],
      "name": "decrementBalanceOfStagedE",
      "outputs": [],
      "payable": false,
      "stateMutability": "nonpayable",
      "type": "function"
    },
    {
      "constant": false,
      "inputs": [
        {
          "internalType": "address",
          "name": "candidate",
          "type": "address"
        },
        {
          "internalType": "uint256",
          "name": "amount",
          "type": "uint256"
        },
        {
          "internalType": "string",
          "name": "reason",
          "type": "string"
        }
      ],
      "name": "decrementRejectForE",
      "outputs": [],
      "payable": false,
      "stateMutability": "nonpayable",
      "type": "function"
    },
    {
      "constant": false,
      "inputs": [
        {
          "internalType": "uint256",
          "name": "amount",
          "type": "uint256"
        },
        {
          "internalType": "string",
          "name": "reason",
          "type": "string"
        }
      ],
      "name": "decrementTotalBondedE",
      "outputs": [],
      "payable": false,
      "stateMutability": "nonpayable",
      "type": "function"
    },
    {
      "constant": false,
      "inputs": [
        {
          "internalType": "uint256",
          "name": "amount",
          "type": "uint256"
        },
        {
          "internalType": "string",
          "name": "reason",
          "type": "string"
        }
      ],
      "name": "decrementTotalDebtE",
      "outputs": [],
      "payable": false,
      "stateMutability": "nonpayable",
      "type": "function"
    },
    {
      "constant": false,
      "inputs": [
        {
          "internalType": "uint256",
          "name": "amount",
          "type": "uint256"
        },
        {
          "internalType": "string",
          "name": "reason",
          "type": "string"
        }
      ],
      "name": "decrementTotalRedeemableE",
      "outputs": [],
      "payable": false,
      "stateMutability": "nonpayable",
      "type": "function"
    },
    {
      "constant": true,
      "inputs": [],
      "name": "dollar",
      "outputs": [
        {
          "internalType": "contract IDollar",
          "name": "",
          "type": "address"
        }
      ],
      "payable": false,
      "stateMutability": "view",
      "type": "function"
    },
    {
      "constant": false,
      "inputs": [
        {
          "internalType": "uint256",
          "name": "epoch",
          "type": "uint256"
        }
      ],
      "name": "eliminateOutstandingCouponsE",
      "outputs": [],
      "payable": false,
      "stateMutability": "nonpayable",
      "type": "function"
    },
    {
      "constant": true,
      "inputs": [],
      "name": "epoch",
      "outputs": [
        {
          "internalType": "uint256",
          "name": "",
          "type": "uint256"
        }
      ],
      "payable": false,
      "stateMutability": "view",
      "type": "function"
    },
    {
      "constant": true,
      "inputs": [],
      "name": "epochTime",
      "outputs": [
        {
          "internalType": "uint256",
          "name": "",
          "type": "uint256"
        }
      ],
      "payable": false,
      "stateMutability": "view",
      "type": "function"
    },
    {
      "constant": true,
      "inputs": [
        {
          "internalType": "uint256",
          "name": "epoch",
          "type": "uint256"
        }
      ],
      "name": "expiringCoupons",
      "outputs": [
        {
          "internalType": "uint256",
          "name": "",
          "type": "uint256"
        }
      ],
      "payable": false,
      "stateMutability": "view",
      "type": "function"
    },
    {
      "constant": true,
      "inputs": [
        {
          "internalType": "uint256",
          "name": "epoch",
          "type": "uint256"
        },
        {
          "internalType": "uint256",
          "name": "i",
          "type": "uint256"
        }
      ],
      "name": "expiringCouponsAtIndex",
      "outputs": [
        {
          "internalType": "uint256",
          "name": "",
          "type": "uint256"
        }
      ],
      "payable": false,
      "stateMutability": "view",
      "type": "function"
    },
    {
      "constant": true,
      "inputs": [],
      "name": "implementation",
      "outputs": [
        {
          "internalType": "address",
          "name": "impl",
          "type": "address"
        }
      ],
      "payable": false,
      "stateMutability": "view",
      "type": "function"
    },
    {
      "constant": false,
      "inputs": [
        {
          "internalType": "uint256",
          "name": "amount",
          "type": "uint256"
        }
      ],
      "name": "increaseDebtE",
      "outputs": [],
      "payable": false,
      "stateMutability": "nonpayable",
      "type": "function"
    },
    {
      "constant": false,
      "inputs": [
        {
          "internalType": "address",
          "name": "candidate",
          "type": "address"
        },
        {
          "internalType": "uint256",
          "name": "amount",
          "type": "uint256"
        }
      ],
      "name": "incrementApproveForE",
      "outputs": [],
      "payable": false,
      "stateMutability": "nonpayable",
      "type": "function"
    },
    {
      "constant": false,
      "inputs": [
        {
          "internalType": "address",
          "name": "account",
          "type": "address"
        },
        {
          "internalType": "uint256",
          "name": "epoch",
          "type": "uint256"
        },
        {
          "internalType": "uint256",
          "name": "amount",
          "type": "uint256"
        }
      ],
      "name": "incrementBalanceOfCouponsE",
      "outputs": [],
      "payable": false,
      "stateMutability": "nonpayable",
      "type": "function"
    },
    {
      "constant": false,
      "inputs": [
        {
          "internalType": "address",
          "name": "account",
          "type": "address"
        },
        {
          "internalType": "uint256",
          "name": "amount",
          "type": "uint256"
        }
      ],
      "name": "incrementBalanceOfE",
      "outputs": [],
      "payable": false,
      "stateMutability": "nonpayable",
      "type": "function"
    },
    {
      "constant": false,
      "inputs": [
        {
          "internalType": "address",
          "name": "account",
          "type": "address"
        },
        {
          "internalType": "uint256",
          "name": "amount",
          "type": "uint256"
        }
      ],
      "name": "incrementBalanceOfStagedE",
      "outputs": [],
      "payable": false,
      "stateMutability": "nonpayable",
      "type": "function"
    },
    {
      "constant": false,
      "inputs": [],
      "name": "incrementEpochE",
      "outputs": [],
      "payable": false,
      "stateMutability": "nonpayable",
      "type": "function"
    },
    {
      "constant": false,
      "inputs": [
        {
          "internalType": "address",
          "name": "candidate",
          "type": "address"
        },
        {
          "internalType": "uint256",
          "name": "amount",
          "type": "uint256"
        }
      ],
      "name": "incrementRejectForE",
      "outputs": [],
      "payable": false,
      "stateMutability": "nonpayable",
      "type": "function"
    },
    {
      "constant": false,
      "inputs": [
        {
          "internalType": "uint256",
          "name": "amount",
          "type": "uint256"
        }
      ],
      "name": "incrementTotalBondedE",
      "outputs": [],
      "payable": false,
      "stateMutability": "nonpayable",
      "type": "function"
    },
    {
      "constant": false,
      "inputs": [
        {
          "internalType": "uint256",
          "name": "amount",
          "type": "uint256"
        }
      ],
      "name": "incrementTotalDebtE",
      "outputs": [],
      "payable": false,
      "stateMutability": "nonpayable",
      "type": "function"
    },
    {
      "constant": false,
      "inputs": [
        {
          "internalType": "uint256",
          "name": "amount",
          "type": "uint256"
        }
      ],
      "name": "incrementTotalRedeemableE",
      "outputs": [],
      "payable": false,
      "stateMutability": "nonpayable",
      "type": "function"
    },
    {
      "constant": false,
      "inputs": [
        {
          "internalType": "uint256",
          "name": "epoch",
          "type": "uint256"
        },
        {
          "internalType": "uint256",
          "name": "expiration",
          "type": "uint256"
        }
      ],
      "name": "initializeCouponsExpirationE",
      "outputs": [],
      "payable": false,
      "stateMutability": "nonpayable",
      "type": "function"
    },
    {
      "constant": false,
      "inputs": [
        {
          "internalType": "address",
          "name": "candidate",
          "type": "address"
        }
      ],
      "name": "initializedE",
      "outputs": [],
      "payable": false,
      "stateMutability": "nonpayable",
      "type": "function"
    },
    {
      "constant": true,
      "inputs": [
        {
          "internalType": "address",
          "name": "candidate",
          "type": "address"
        }
      ],
      "name": "isInitialized",
      "outputs": [
        {
          "internalType": "bool",
          "name": "",
          "type": "bool"
        }
      ],
      "payable": false,
      "stateMutability": "view",
      "type": "function"
    },
    {
      "constant": true,
      "inputs": [
        {
          "internalType": "address",
          "name": "candidate",
          "type": "address"
        }
      ],
      "name": "isNominated",
      "outputs": [
        {
          "internalType": "bool",
          "name": "",
          "type": "bool"
        }
      ],
      "payable": false,
      "stateMutability": "view",
      "type": "function"
    },
    {
      "constant": false,
      "inputs": [
        {
          "internalType": "address",
          "name": "account",
          "type": "address"
        },
        {
          "internalType": "uint256",
          "name": "amount",
          "type": "uint256"
        }
      ],
      "name": "mintToAccountE",
      "outputs": [],
      "payable": false,
      "stateMutability": "nonpayable",
      "type": "function"
    },
    {
      "constant": false,
      "inputs": [
        {
          "internalType": "address",
          "name": "account",
          "type": "address"
        },
        {
          "internalType": "uint256",
          "name": "amount",
          "type": "uint256"
        }
      ],
      "name": "mintToE",
      "outputs": [],
      "payable": false,
      "stateMutability": "nonpayable",
      "type": "function"
    },
    {
      "constant": true,
      "inputs": [],
      "name": "name",
      "outputs": [
        {
          "internalType": "string",
          "name": "",
          "type": "string"
        }
      ],
      "payable": false,
      "stateMutability": "view",
      "type": "function"
    },
    {
      "constant": true,
      "inputs": [],
      "name": "oracle",
      "outputs": [
        {
          "internalType": "contract IOracle",
          "name": "",
          "type": "address"
        }
      ],
      "payable": false,
      "stateMutability": "view",
      "type": "function"
    },
    {
      "constant": true,
      "inputs": [
        {
          "internalType": "uint256",
          "name": "epoch",
          "type": "uint256"
        }
      ],
      "name": "outstandingCoupons",
      "outputs": [
        {
          "internalType": "uint256",
          "name": "",
          "type": "uint256"
        }
      ],
      "payable": false,
      "stateMutability": "view",
      "type": "function"
    },
    {
      "constant": true,
      "inputs": [
        {
          "internalType": "address",
          "name": "candidate",
          "type": "address"
        }
      ],
      "name": "periodFor",
      "outputs": [
        {
          "internalType": "uint256",
          "name": "",
          "type": "uint256"
        }
      ],
      "payable": false,
      "stateMutability": "view",
      "type": "function"
    },
    {
      "constant": false,
      "inputs": [
        {
          "internalType": "address",
          "name": "account",
          "type": "address"
        },
        {
          "internalType": "address",
          "name": "candidate",
          "type": "address"
        }
      ],
      "name": "placeLockE",
      "outputs": [],
      "payable": false,
      "stateMutability": "nonpayable",
      "type": "function"
    },
    {
      "constant": true,
      "inputs": [],
      "name": "pool",
      "outputs": [
        {
          "internalType": "address",
          "name": "",
          "type": "address"
        }
      ],
      "payable": false,
      "stateMutability": "view",
      "type": "function"
    },
    {
      "constant": false,
      "inputs": [
        {
          "internalType": "uint256",
          "name": "dollarAmount",
          "type": "uint256"
        }
      ],
      "name": "purchaseCoupons",
      "outputs": [
        {
          "internalType": "uint256",
          "name": "",
          "type": "uint256"
        }
      ],
      "payable": false,
      "stateMutability": "nonpayable",
      "type": "function"
    },
    {
      "constant": false,
      "inputs": [
        {
          "internalType": "address",
          "name": "account",
          "type": "address"
        },
        {
          "internalType": "address",
          "name": "candidate",
          "type": "address"
        },
        {
          "internalType": "enum Candidate.Vote",
          "name": "vote",
          "type": "uint8"
        }
      ],
      "name": "recordVoteE",
      "outputs": [],
      "payable": false,
      "stateMutability": "nonpayable",
      "type": "function"
    },
    {
      "constant": true,
      "inputs": [
        {
          "internalType": "address",
          "name": "account",
          "type": "address"
        },
        {
          "internalType": "address",
          "name": "candidate",
          "type": "address"
        }
      ],
      "name": "recordedVote",
      "outputs": [
        {
          "internalType": "enum Candidate.Vote",
          "name": "",
          "type": "uint8"
        }
      ],
      "payable": false,
      "stateMutability": "view",
      "type": "function"
    },
    {
      "constant": false,
      "inputs": [
        {
          "internalType": "uint256",
          "name": "couponEpoch",
          "type": "uint256"
        },
        {
          "internalType": "uint256",
          "name": "couponAmount",
          "type": "uint256"
        },
        {
          "internalType": "uint256",
          "name": "minOutput",
          "type": "uint256"
        }
      ],
      "name": "redeemCoupons",
      "outputs": [],
      "payable": false,
      "stateMutability": "nonpayable",
      "type": "function"
    },
    {
      "constant": false,
      "inputs": [
        {
          "internalType": "uint256",
          "name": "couponEpoch",
          "type": "uint256"
        },
        {
          "internalType": "uint256",
          "name": "couponAmount",
          "type": "uint256"
        }
      ],
      "name": "redeemCoupons",
      "outputs": [],
      "payable": false,
      "stateMutability": "nonpayable",
      "type": "function"
    },
    {
      "constant": false,
      "inputs": [
        {
          "internalType": "address",
          "name": "account",
          "type": "address"
        },
        {
          "internalType": "uint256",
          "name": "amount",
          "type": "uint256"
        }
      ],
      "name": "redeemToAccountE",
      "outputs": [],
      "payable": false,
      "stateMutability": "nonpayable",
      "type": "function"
    },
    {
      "constant": true,
      "inputs": [
        {
          "internalType": "address",
          "name": "candidate",
          "type": "address"
        }
      ],
      "name": "rejectFor",
      "outputs": [
        {
          "internalType": "uint256",
          "name": "",
          "type": "uint256"
        }
      ],
      "payable": false,
      "stateMutability": "view",
      "type": "function"
    },
    {
      "constant": false,
      "inputs": [
        {
          "internalType": "uint256",
          "name": "percent",
          "type": "uint256"
        }
      ],
      "name": "resetDebtE",
      "outputs": [],
      "payable": false,
      "stateMutability": "nonpayable",
      "type": "function"
    },
    {
      "constant": false,
      "inputs": [
        {
          "internalType": "uint256",
          "name": "timestamp",
          "type": "uint256"
        }
      ],
      "name": "setBlockTimestamp",
      "outputs": [],
      "payable": false,
      "stateMutability": "nonpayable",
      "type": "function"
    },
    {
      "constant": false,
      "inputs": [
        {
          "internalType": "uint256",
          "name": "start",
          "type": "uint256"
        },
        {
          "internalType": "uint256",
          "name": "period",
          "type": "uint256"
        }
      ],
      "name": "setEpochParamsE",
      "outputs": [],
      "payable": false,
      "stateMutability": "nonpayable",
      "type": "function"
    },
    {
      "constant": false,
      "inputs": [],
      "name": "snapshotTotalBondedE",
      "outputs": [],
      "payable": false,
      "stateMutability": "nonpayable",
      "type": "function"
    },
    {
      "constant": true,
      "inputs": [
        {
          "internalType": "address",
          "name": "candidate",
          "type": "address"
        }
      ],
      "name": "startFor",
      "outputs": [
        {
          "internalType": "uint256",
          "name": "",
          "type": "uint256"
        }
      ],
      "payable": false,
      "stateMutability": "view",
      "type": "function"
    },
    {
      "constant": true,
      "inputs": [
        {
          "internalType": "address",
          "name": "account",
          "type": "address"
        }
      ],
      "name": "statusOf",
      "outputs": [
        {
          "internalType": "enum Account.Status",
          "name": "",
          "type": "uint8"
        }
      ],
      "payable": false,
      "stateMutability": "view",
      "type": "function"
    },
    {
      "constant": true,
      "inputs": [],
      "name": "symbol",
      "outputs": [
        {
          "internalType": "string",
          "name": "",
          "type": "string"
        }
      ],
      "payable": false,
      "stateMutability": "view",
      "type": "function"
    },
    {
      "constant": true,
      "inputs": [],
      "name": "totalBonded",
      "outputs": [
        {
          "internalType": "uint256",
          "name": "",
          "type": "uint256"
        }
      ],
      "payable": false,
      "stateMutability": "view",
      "type": "function"
    },
    {
      "constant": true,
      "inputs": [
        {
          "internalType": "uint256",
          "name": "epoch",
          "type": "uint256"
        }
      ],
      "name": "totalBondedAt",
      "outputs": [
        {
          "internalType": "uint256",
          "name": "",
          "type": "uint256"
        }
      ],
      "payable": false,
      "stateMutability": "view",
      "type": "function"
    },
    {
      "constant": true,
      "inputs": [],
      "name": "totalCoupons",
      "outputs": [
        {
          "internalType": "uint256",
          "name": "",
          "type": "uint256"
        }
      ],
      "payable": false,
      "stateMutability": "view",
      "type": "function"
    },
    {
      "constant": true,
      "inputs": [],
      "name": "totalDebt",
      "outputs": [
        {
          "internalType": "uint256",
          "name": "",
          "type": "uint256"
        }
      ],
      "payable": false,
      "stateMutability": "view",
      "type": "function"
    },
    {
      "constant": true,
      "inputs": [],
      "name": "totalNet",
      "outputs": [
        {
          "internalType": "uint256",
          "name": "",
          "type": "uint256"
        }
      ],
      "payable": false,
      "stateMutability": "view",
      "type": "function"
    },
    {
      "constant": true,
      "inputs": [],
      "name": "totalRedeemable",
      "outputs": [
        {
          "internalType": "uint256",
          "name": "",
          "type": "uint256"
        }
      ],
      "payable": false,
      "stateMutability": "view",
      "type": "function"
    },
    {
      "constant": true,
      "inputs": [],
      "name": "totalStaged",
      "outputs": [
        {
          "internalType": "uint256",
          "name": "",
          "type": "uint256"
        }
      ],
      "payable": false,
      "stateMutability": "view",
      "type": "function"
    },
    {
      "constant": true,
      "inputs": [],
      "name": "totalSupply",
      "outputs": [
        {
          "internalType": "uint256",
          "name": "",
          "type": "uint256"
        }
      ],
      "payable": false,
      "stateMutability": "view",
      "type": "function"
    },
    {
      "constant": false,
      "inputs": [
        {
          "internalType": "address",
          "name": "recipient",
          "type": "address"
        },
        {
          "internalType": "uint256",
          "name": "amount",
          "type": "uint256"
        }
      ],
      "name": "transfer",
      "outputs": [
        {
          "internalType": "bool",
          "name": "",
          "type": "bool"
        }
      ],
      "payable": false,
      "stateMutability": "nonpayable",
      "type": "function"
    },
    {
      "constant": false,
      "inputs": [
        {
          "internalType": "address",
          "name": "sender",
          "type": "address"
        },
        {
          "internalType": "address",
          "name": "recipient",
          "type": "address"
        },
        {
          "internalType": "uint256",
          "name": "epoch",
          "type": "uint256"
        },
        {
          "internalType": "uint256",
          "name": "amount",
          "type": "uint256"
        }
      ],
      "name": "transferCoupons",
      "outputs": [],
      "payable": false,
      "stateMutability": "nonpayable",
      "type": "function"
    },
    {
      "constant": false,
      "inputs": [
        {
          "internalType": "address",
          "name": "sender",
          "type": "address"
        },
        {
          "internalType": "address",
          "name": "recipient",
          "type": "address"
        },
        {
          "internalType": "uint256",
          "name": "amount",
          "type": "uint256"
        }
      ],
      "name": "transferFrom",
      "outputs": [
        {
          "internalType": "bool",
          "name": "",
          "type": "bool"
        }
      ],
      "payable": false,
      "stateMutability": "nonpayable",
      "type": "function"
    },
    {
      "constant": false,
      "inputs": [
        {
          "internalType": "address",
          "name": "account",
          "type": "address"
        }
      ],
      "name": "unfreezeE",
      "outputs": [],
      "payable": false,
      "stateMutability": "nonpayable",
      "type": "function"
    },
    {
      "constant": false,
      "inputs": [
        {
          "internalType": "address",
          "name": "owner",
          "type": "address"
        },
        {
          "internalType": "address",
          "name": "spender",
          "type": "address"
        },
        {
          "internalType": "uint256",
          "name": "amount",
          "type": "uint256"
        }
      ],
      "name": "updateAllowanceCouponsE",
      "outputs": [],
      "payable": false,
      "stateMutability": "nonpayable",
      "type": "function"
    },
    {
      "constant": true,
      "inputs": [
        {
          "internalType": "address",
          "name": "candidate",
          "type": "address"
        }
      ],
      "name": "votesFor",
      "outputs": [
        {
          "internalType": "uint256",
          "name": "",
          "type": "uint256"
        }
      ],
      "payable": false,
      "stateMutability": "view",
      "type": "function"
    },
    {
      "constant": false,
      "inputs": [],
      "name": "stepE",
      "outputs": [],
      "payable": false,
      "stateMutability": "nonpayable",
      "type": "function"
    }
  ],
  "bytecode": "0x60806040523480156200001157600080fd5b5060405162005986380380620059868339810160408190526200003491620000bd565b42600f55604051819062000048906200009c565b604051809103906000f08015801562000065573d6000803e3d6000fd5b50600980546001600160a01b039283166001600160a01b031991821617909155600b80549390921692169190911790555062000112565b611c118062003d7583390190565b8051620000b781620000f8565b92915050565b600060208284031215620000d057600080fd5b6000620000de8484620000aa565b949350505050565b60006001600160a01b038216620000b7565b6200010381620000e6565b81146200010f57600080fd5b50565b613c5380620001226000396000f3fe608060405234801561001057600080fd5b50600436106104b65760003560e01c80638413e52a11610278578063b32a2f901161015c578063d6d8816d116100ce578063e5f55c7e11610092578063e5f55c7e14610a2b578063f1b7cf4914610a3e578063f35adf7e14610a51578063f7a3181814610a59578063fc7b9c1814610a6c578063ffbe3b7314610a74576104b6565b8063d6d8816d146109d1578063d83d3ed5146109e4578063d8f54138146109f7578063dd62ed3e14610a0a578063e0abdf6614610a18576104b6565b8063c45a3e0a11610120578063c45a3e0a1461096a578063c9aff70c1461097d578063cc8d823c14610990578063cf023779146109a3578063d60b347f146109ab578063d6a9cf08146109be576104b6565b8063b32a2f901461090b578063bc0b1df61461091e578063bc7513e214610931578063c1410c0214610944578063c2aeb5fe14610957576104b6565b8063a00e14d1116101f5578063a9059cbb116101b9578063a9059cbb146104ee578063a9b3cf15146108ac578063adbff2be146108bf578063ae5c2381146108d2578063b11ee0e3146108e5578063b16144a3146108f8576104b6565b8063a00e14d114610858578063a1eb31e81461086b578063a50cd8e71461087e578063a6c409f114610891578063a6f37b5314610899576104b6565b806397a5d5b51161023c57806397a5d5b5146108045780639a649edc146108175780639b82b49b1461081f5780639be46493146108325780639f6e1b2614610845576104b6565b80638413e52a146107bb57806386cf9f14146107ce5780638de2e573146107e1578063900cf0cf146107f457806395d89b41146107fc576104b6565b80633fbba9a61161039f5780635f14fec81161031c57806371c511eb116102e057806371c511eb1461075f57806372924d2a1461076757806375d5024b1461077a5780637cb95a321461078d5780637dc0d1d0146107a0578063825ad607146107a8576104b6565b80635f14fec81461070057806364668022146107135780636a39e328146107265780636b862d661461073957806370a082311461074c576104b6565b80634c736099116103635780634c736099146106b55780635053e461146106c857806351adeb57146106d05780635c60da1b146106e55780635dbf800a146106ed576104b6565b80633fbba9a61461065f5780633fd4973c1461067f578063416a23cc14610692578063438735261461069a57806344d96e95146106ad576104b6565b80631fac9732116104385780632f7f889e116103fc5780632f7f889e146105eb578063313ce567146105fe5780633234742214610613578063353a420c146106265780633a3e6c81146106395780633f7bcaf31461064c576104b6565b80631fac97321461058c57806320f6bc901461059f57806323b872dd146105b2578063259f7adf146105c5578063277805a9146105d8576104b6565b806315e14bf61161047f57806315e14bf61461054157806316f0115b1461055457806318160ddd146105695780631a08e22a146105715780631edbcf6c14610584576104b6565b80625edd37146104bb57806306fdde03146104d0578063095ea7b3146104ee5780630dc6d3a31461050e57806310e95b6c14610521575b600080fd5b6104ce6104c9366004613446565b610a87565b005b6104d8610baa565b6040516104e591906139b4565b60405180910390f35b6105016104fc3660046134a7565b610bca565b6040516104e5919061398a565b6104ce61051c3660046133c8565b610bd3565b61053461052f3660046135c4565b610c1c565b6040516104e59190613a25565b61053461054f3660046132e0565b610c34565b61055c610c52565b6040516104e59190613939565b610534610c61565b6104ce61057f366004613656565b610c67565b610534610c75565b6104ce61059a3660046135c4565b610c7b565b6104ce6105ad3660046134a7565b610c87565b6105016105c0366004613385565b610c91565b6104ce6105d33660046135c4565b610c9b565b6104ce6105e63660046134a7565b610ca4565b6104ce6105f93660046134a7565b610d30565b610606610db0565b6040516104e59190613a76565b6104ce610621366004613600565b610db5565b6105346106343660046132e0565b610df5565b6105016106473660046132e0565b610e13565b6104ce61065a366004613385565b610e30565b61067261066d3660046132fe565b610e3b565b6040516104e591906139a6565b6104ce61068d3660046134d7565b610e6e565b6104ce610eb5565b6104ce6106a83660046135c4565b610ebf565b610534610ec8565b6105346106c3366004613656565b610ece565b610534610efe565b6106d8610f21565b6040516104e59190613998565b61055c610f30565b6104ce6106fb3660046135c4565b610f55565b6104ce61070e3660046134a7565b610f5e565b6105346107213660046132e0565b610f68565b6105346107343660046135c4565b610f86565b6104ce61074736600461353f565b610f9b565b61053461075a3660046132e0565b610fa6565b6104ce610fc4565b6104ce610775366004613600565b610fcc565b6105016107883660046135c4565b61100c565b6104ce61079b3660046134d7565b61101f565b6106d8611060565b6105346107b63660046132e0565b61106f565b6104ce6107c9366004613338565b6110bb565b6105346107dc3660046132e0565b6110c6565b6104ce6107ef3660046135c4565b6110e1565b6105346110ea565b6104d86110f0565b6106726108123660046132e0565b61110f565b610534611174565b6104ce61082d366004613600565b61117a565b6104ce6108403660046132e0565b6111ba565b6105346108533660046132fe565b6111c3565b6104ce610866366004613656565b6111f2565b610534610879366004613656565b6111fd565b61053461088c3660046132e0565b611323565b610534611346565b6104ce6108a73660046132e0565b6113dc565b6104ce6108ba3660046135c4565b6113e5565b6104ce6108cd3660046134d7565b6113ee565b6104ce6108e03660046134a7565b61142f565b6104ce6108f33660046134a7565b611439565b6104ce6109063660046135c4565b611443565b6104ce6109193660046134d7565b611456565b6104ce61092c366004613675565b611497565b61053461093f3660046134a7565b6115cb565b6104ce6109523660046132fe565b61160f565b6104ce610965366004613571565b611619565b6104ce6109783660046134a7565b61165b565b61053461098b3660046135c4565b611665565b6104ce61099e3660046134a7565b61167a565b610534611684565b6105016109b93660046132e0565b61168a565b6104ce6109cc366004613656565b6116ab565b6104ce6109df3660046135c4565b6117a7565b6104ce6109f23660046134a7565b6117b0565b610534610a053660046135c4565b6117ba565b6105346104fc3660046132fe565b6104ce610a263660046135c4565b611845565b610534610a393660046135c4565b61184a565b610534610a4c3660046132e0565b61193c565b6104ce611957565b6104ce610a673660046134a7565b61195f565b610534611969565b610534610a823660046135c4565b61196f565b6001600160a01b038416610ab65760405162461bcd60e51b8152600401610aad90613a05565b60405180910390fd5b6001600160a01b038316610adc5760405162461bcd60e51b8152600401610aad906139d5565b610b00848383604051806060016040528060238152602001613b5760239139611981565b610b0b838383611a2c565b336001600160a01b03851614801590610b2f5750600019610b2c85336111c3565b14155b15610b5857610b58843383604051806060016040528060248152602001613b7a60249139611ad3565b81836001600160a01b0316856001600160a01b03167f0f1dbb1ccbe57a1590c7baad7b01d581b730c9ebc535dcde4345e6db424063d884604051610b9c9190613a25565b60405180910390a450505050565b6060604051806060016040528060218152602001613b9e60219139905090565b60005b92915050565b610c1585858585858080601f016020809104026020016040519081016040528093929190818152602001838380828437600092019190915250611ad392505050565b5050505050565b6000818152600d60205260409020600201545b919050565b6001600160a01b03166000908152600e602052604090206001015490565b600b546001600160a01b031690565b60035490565b610c718282611b44565b5050565b60065490565b610c8481611b76565b50565b610c718282611bbd565b60005b9392505050565b610c8481611c65565b610cac610f21565b6001600160a01b03166340c10f1983836040518363ffffffff1660e01b8152600401610cd992919061396f565b602060405180830381600087803b158015610cf357600080fd5b505af1158015610d07573d6000803e3d6000fd5b505050506040513d601f19601f82011682018060405250610d2b91908101906135a6565b505050565b6001600160a01b038216610d565760405162461bcd60e51b8152600401610aad906139f5565b610d61338383611c7e565b816001600160a01b0316336001600160a01b03167f8ff27e6b95060c1ca851e7c2c28af8b413eb1a8bcb637b0290da9543a709cce383604051610da49190613a25565b60405180910390a35050565b601290565b610d2b8383838080601f016020809104026020016040519081016040528093929190818152602001838380828437600092019190915250611cae92505050565b6001600160a01b03166000908152600e602052604090206003015490565b6001600160a01b03166000908152600e6020526040902054151590565b610d2b838383611c7e565b6001600160a01b038082166000908152600e60209081526040808320938616835260049093019052205460ff1692915050565b610eaf848484848080601f016020809104026020016040519081016040528093929190818152602001838380828437600092019190915250611cc992505050565b50505050565b610ebd611d1a565b565b610c8481611d79565b60045490565b6000828152600d60205260408120600301805483908110610eeb57fe5b9060005260206000200154905092915050565b6000610f0861322c565b610f10611d8d565b9050610f1b81611dbc565b91505090565b6009546001600160a01b031690565b7f360894a13ba1a3210667c828492db98dca3e2076cc3735a920a3ca505d382bbc5490565b610c8481611dde565b610c718282611e65565b6001600160a01b03166000908152600e602052604090206002015490565b6000908152600d602052604090206003015490565b610d2b838383611a2c565b6001600160a01b03166000908152600c602052604090206001015490565b610ebd611f76565b610d2b8383838080601f016020809104026020016040519081016040528093929190818152602001838380828437600092019190915250611f9d92505050565b6000611016611fb8565b90911115919050565b610eaf848484848080601f016020809104026020016040519081016040528093929190818152602001838380828437600092019190915250611fbe92505050565b600a546001600160a01b031690565b60008061107a610c61565b90508061108b576000915050610c2f565b610c94816110af61109b86610fa6565b6110a3610ec8565b9063ffffffff61200f16565b9063ffffffff61204916565b610d2b83838361208b565b6001600160a01b03166000908152600c602052604090205490565b610c84816120d5565b60025490565b6040805180820190915260058152644551442d5360d81b602082015290565b60006111196110ea565b6001600160a01b0383166000908152600c6020526040902060050154111561114357506002610c2f565b6001600160a01b0382166000908152600c60205260409020600401546111676110ea565b1015610bca576001610bcd565b60085490565b610d2b8383838080601f0160208091040260200160405190810160405280939291908181526020018383808284376000920191909152506120ee92505050565b610c8481612109565b6001600160a01b039182166000908152600c602090815260408083209390941682526003909201909152205490565b600091909155600155565b600080611208611d8d565b60400151428161121457fe5b0690506000846112226110ea565b039050600061122f612133565b82611238612133565b03611241612139565b028161124957fe5b049050808311156112605760009350505050610bcd565b61126861324d565b6112bb60405180602001604052808561127f612133565b038152506112af6040518060200160405280611299612133565b90526112a361213f565b9063ffffffff61216116565b9063ffffffff61219816565b90506112c561324d565b6040805160208082018352878603825282519081019092528482526112f5916112af90859063ffffffff61216116565b6040805160208101909152888152909150611316908263ffffffff61219816565b5198975050505050505050565b6000610bcd61133183610df5565b61133a84610f68565b9063ffffffff6121c616565b60006113d7611353611969565b61135b610f21565b6001600160a01b03166318160ddd6040518163ffffffff1660e01b815260040160206040518083038186803b15801561139357600080fd5b505afa1580156113a7573d6000803e3d6000fd5b505050506040513d601f19601f820116820180604052506113cb91908101906135e2565b9063ffffffff6121eb16565b905090565b610c848161222d565b610c8481612254565b610eaf848484848080601f01602080910402602001604051908101604052809392919081815260200183838082843760009201919091525061229792505050565b610c718282612342565b610c7182826123de565b610c8461145182606461243a565b612460565b610eaf848484848080601f01602080910402602001604051908101604052809392919081815260200183838082843760009201919091525061252592505050565b60026114a5846113cb6110ea565b10156114c35760405162461bcd60e51b8152600401610aad90613a15565b6114e7338484604051806060016040528060238152602001613b5760239139611981565b60006114f384846111fd565b905080830361152f838210156513585c9ad95d60d21b7f496e73756666696369656e74206f757470757420616d6f756e74000000000000612584565b61153933826125d9565b81156115825784336001600160a01b03167f1cd1213d4276c260e84170b4a39025dc8398fbf744edee0709261769b456b94b846040516115799190613a25565b60405180910390a35b84336001600160a01b03167f46e9903ae8ac9e9f0c9bc321b05965c1c036e7d4783758703f5cdfc4133c51b6836040516115bc9190613a25565b60405180910390a35050505050565b60006115d682611665565b6115e257506000610bcd565b506001600160a01b03919091166000908152600c6020908152604080832093835260029093019052205490565b610c718282612683565b610c1585858585858080601f01602080910402602001604051908101604052809392919081815260200183838082843760009201919091525061198192505050565b610c7182826125d9565b6000908152600d602052604090206001015490565b610c7182826126e3565b60055490565b6001600160a01b03166000908152600e602052604090206005015460ff1690565b60026116b9836113cb6110ea565b10156116d75760405162461bcd60e51b8152600401610aad90613a15565b6116fb338383604051806060016040528060238152602001613b5760239139611981565b600061170783836111fd565b905080820361171633826125d9565b811561175f5783336001600160a01b03167f1cd1213d4276c260e84170b4a39025dc8398fbf744edee0709261769b456b94b846040516117569190613a25565b60405180910390a35b83336001600160a01b03167f46e9903ae8ac9e9f0c9bc321b05965c1c036e7d4783758703f5cdfc4133c51b6836040516117999190613a25565b60405180910390a350505050565b610c8481612732565b610c71828261274b565b6000610bcd6117c7610f21565b6001600160a01b03166318160ddd6040518163ffffffff1660e01b815260040160206040518083038186803b1580156117ff57600080fd5b505afa158015611813573d6000803e3d6000fd5b505050506040513d601f19601f8201168201806040525061183791908101906135e2565b61183f611969565b84612777565b600f55565b6000611883600083116513585c9ad95d60d21b7f4d757374207075726368617365206e6f6e2d7a65726f20616d6f756e74000000612584565b6118b38261188f611969565b10156513585c9ad95d60d21b6e139bdd08195b9bdd59da081919589d608a1b612584565b60006118bd6110ea565b905060006118da6118cd856117ba565b859063ffffffff6121c616565b90506118e63385611e65565b6118f1338383611a2c565b81336001600160a01b03167fbce252db29f761f815dc2e9ea60005af065efba6eb619d2a0b2a113fdeb61414868460405161192d929190613a33565b60405180910390a39392505050565b6001600160a01b03166000908152600e602052604090205490565b610ebd61279f565b610c7182826127b8565b60075490565b6000908152600d602052604090205490565b6001600160a01b0384166000908152600c602090815260408083208684526002019091529020546119b990838363ffffffff61280716565b6001600160a01b0385166000908152600c60209081526040808320878452600201825280832093909355600d905220600101546119fd90838363ffffffff61280716565b6000848152600d6020526040902060010155600854611a2390838363ffffffff61280716565b60085550505050565b6001600160a01b0383166000908152600c60209081526040808320858452600201909152902054611a63908263ffffffff6121c616565b6001600160a01b0384166000908152600c60209081526040808320868452600201825280832093909355600d90522060010154611aa6908263ffffffff6121c616565b6000838152600d6020526040902060010155600854611acb908263ffffffff6121c616565b600855505050565b6001600160a01b038085166000908152600c602090815260408083209387168352600390930190522054611b0e90838363ffffffff61280716565b6001600160a01b039485166000908152600c60209081526040808320969097168252600390950190945293909220929092555050565b6000828152600d6020908152604080832060020184905592825291812060030180546001810182559082529190200155565b611bb5816040518060400160405280601c81526020017f436f6d7074726f6c6c65723a206e6f7420656e6f756768206465627400000000815250611f9d565b610c84612833565b611bc5610f21565b6001600160a01b03166340c10f1983836040518363ffffffff1660e01b8152600401611bf292919061396f565b602060405180830381600087803b158015611c0c57600080fd5b505af1158015611c20573d6000803e3d6000fd5b505050506040513d601f19601f82011682018060405250611c4491908101906135a6565b50611c506107886110ea565b611c5d57611c5d81611d79565b610c71612833565b600454611c78908263ffffffff6121c616565b60045550565b6001600160a01b039283166000908152600c60209081526040808320949095168252600390930190925291902055565b600654611cc290838363ffffffff61280716565b6006555050565b6001600160a01b0383166000908152600e6020526040902060030154611cf690838363ffffffff61280716565b6001600160a01b039093166000908152600e60205260409020600301929092555050565b60005b611d286107346110ea565b811015611d5057611d48611d43611d3d6110ea565b83610ece565b612906565b600101611d1d565b506000611d66611d5e612133565b61133a6110ea565b9050610c84611d736110ea565b82611b44565b611d82816120d5565b611bb56114516129b2565b611d9561322c565b60405180606001604052806000815260200163600450f08152602001610e10815250905090565b6000610bcd826000015161133a84604001516110af86602001516113cb6129d4565b611de6610f21565b6001600160a01b03166342966c68826040518263ffffffff1660e01b8152600401611e119190613a25565b600060405180830381600087803b158015611e2b57600080fd5b505af1158015611e3f573d6000803e3d6000fd5b50505050611bb5816040518060600160405280602a8152602001613be7602a9139611cae565b611e6d610f21565b6001600160a01b03166323b872dd8330846040518463ffffffff1660e01b8152600401611e9c93929190613947565b602060405180830381600087803b158015611eb657600080fd5b505af1158015611eca573d6000803e3d6000fd5b505050506040513d601f19601f82011682018060405250611eee91908101906135a6565b50611ef7610f21565b6001600160a01b03166342966c68826040518263ffffffff1660e01b8152600401611f229190613a25565b600060405180830381600087803b158015611f3c57600080fd5b505af1158015611f50573d6000803e3d6000fd5b50505050611c5d81604051806060016040528060288152602001613bbf60289139611f9d565b611f7e610c61565b600d6000611f8a6110ea565b8152602081019190915260400160002055565b600754611fb190838363ffffffff61280716565b6007555050565b61016890565b6001600160a01b0383166000908152600e6020526040902060020154611feb90838363ffffffff61280716565b6001600160a01b039093166000908152600e60205260409020600201929092555050565b60008261201e57506000610bcd565b8282028284828161202b57fe5b0414610c945760405162461bcd60e51b8152600401610aad906139e5565b6000610c9483836040518060400160405280601a81526020017f536166654d6174683a206469766973696f6e206279207a65726f0000000000008152506129da565b6001600160a01b038083166000908152600e6020908152604080832093871683526004909301905220805482919060ff191660018360028111156120cb57fe5b0217905550505050565b6007546120e8908263ffffffff6121c616565b60075550565b60045461210290838363ffffffff61280716565b6004555050565b612114611d5e612a11565b6001600160a01b039091166000908152600c6020526040902060040155565b6102d090565b610e1090565b61214761324d565b5060408051602081019091526706f05b59d3b20000815290565b61216961324d565b604051806020016040528061218f8560000151670de0b6b3a76400008660000151612a16565b90529392505050565b6121a061324d565b604051806020016040528061218f85600001518560000151670de0b6b3a7640000612a16565b600082820183811015610c945760405162461bcd60e51b8152600401610aad906139c5565b6000610c9483836040518060400160405280601e81526020017f536166654d6174683a207375627472616374696f6e206f766572666c6f770000815250612807565b6001600160a01b03166000908152600e60205260409020600501805460ff19166001179055565b600061225f82611665565b90508061226c5750610c84565b60085461227f908263ffffffff6121eb16565b600855506000908152600d6020526040812060010155565b6001600160a01b0383166000908152600c60205260409020600101546122c490838363ffffffff61280716565b6001600160a01b0384166000908152600c60205260409020600101556003546122f490838363ffffffff61280716565b6003556040516000906001600160a01b038516907fddf252ad1be2c89b69c2b068fc378daa952ba7f163c4a11628f55a4df523b3ef90612335908690613a25565b60405180910390a3505050565b6001600160a01b0382166000908152600c602052604090206001015461236e908263ffffffff6121c616565b6001600160a01b0383166000908152600c602052604090206001015560035461239d908263ffffffff6121c616565b6003556040516001600160a01b038316906000907fddf252ad1be2c89b69c2b068fc378daa952ba7f163c4a11628f55a4df523b3ef90610da4908590613a25565b6001600160a01b0382166000908152600c6020526040902054612407908263ffffffff6121c616565b6001600160a01b0383166000908152600c6020526040902055600554612433908263ffffffff6121c616565b6005555050565b61244261324d565b604051806020016040528061218f85670de0b6b3a764000086612a16565b60006124f26124ed612470610f21565b6001600160a01b03166318160ddd6040518163ffffffff1660e01b815260040160206040518083038186803b1580156124a857600080fd5b505afa1580156124bc573d6000803e3d6000fd5b505050506040513d601f19601f820116820180604052506124e091908101906135e2565b849063ffffffff612a2c16565b612a53565b905060006124fe611969565b905081811115610d2b57600061251a828463ffffffff6121eb16565b9050610eaf81611b76565b6001600160a01b0383166000908152600c602052604090205461254f90838363ffffffff61280716565b6001600160a01b0384166000908152600c602052604090205560055461257c90838363ffffffff61280716565b600555505050565b82610d2b5761259282612a70565b6101d160f51b6125a183612a70565b6040516020016125b393929190613908565b60408051601f198184030181529082905262461bcd60e51b8252610aad916004016139b4565b6125e1610f21565b6001600160a01b031663a9059cbb83836040518363ffffffff1660e01b815260040161260e92919061396f565b602060405180830381600087803b15801561262857600080fd5b505af115801561263c573d6000803e3d6000fd5b505050506040513d601f19601f8201168201806040525061266091908101906135a6565b50611c5d816040518060600160405280602a8152602001613be7602a9139611cae565b6001600160a01b0382166000908152600c6020526040812060050154906126b56126ac84610c34565b61133a8561193c565b905081811115610eaf576001600160a01b0384166000908152600c6020526040902060050181905550505050565b6001600160a01b0382166000908152600e602052604090206003015461270f908263ffffffff6121c616565b6001600160a01b039092166000908152600e602052604090206003019190915550565b600654612745908263ffffffff6121c616565b60065550565b6127536110ea565b6001600160a01b039092166000908152600e60205260409020918255600190910155565b60006127976124ed8361278b878787612af0565b9063ffffffff612a2c16565b949350505050565b6002546127b390600163ffffffff6121c616565b600255565b6001600160a01b0382166000908152600e60205260409020600201546127e4908263ffffffff6121c616565b6001600160a01b039092166000908152600e602052604090206002019190915550565b6000818484111561282b5760405162461bcd60e51b8152600401610aad91906139b4565b505050900390565b610ebd612854612841610c75565b61133a61284c611684565b61133a610ec8565b61285c610f21565b6001600160a01b03166370a08231306040518263ffffffff1660e01b81526004016128879190613939565b60206040518083038186803b15801561289f57600080fd5b505afa1580156128b3573d6000803e3d6000fd5b505050506040513d601f19601f820116820180604052506128d791908101906135e2565b10156a21b7b6b83a3937b63632b960a91b74496e636f6e73697374656e742062616c616e63657360581b612584565b600061291182611665565b90506000808061292085612254565b600061292a610c75565b90506000612936611174565b90508082111561296b57612950828263ffffffff6121eb16565b945061295b85611dde565b61296485612c5d565b9095509350505b867f753df65b37159bf237ae1fca97ba1bd57cf83bc9498f271a514a4d7bafe87bda878787876040516129a19493929190613a41565b60405180910390a250505050505050565b6129ba61324d565b5060408051602081019091526704db732547630000815290565b600f5490565b600081836129fb5760405162461bcd60e51b8152600401610aad91906139b4565b506000838581612a0757fe5b0495945050505050565b601890565b6000612797826110af868663ffffffff61200f16565b612a3461324d565b60408051602081019091528351819061218f908563ffffffff61200f16565b8051600090610bcd90670de0b6b3a764000063ffffffff61204916565b60608082604051602001612a8491906138f3565b60408051601f19818403018152919052905060205b8015612ad957815160001990910190829082908110612ab457fe5b01602001516001600160f81b03191615612ad45760010181529050610c2f565b612a99565b505060408051600081526020810190915292915050565b612af861324d565b612b0061324d565b612b0a848661243a565b9050612b1461324d565b612b1c6129b2565b90506000612b30878663ffffffff6121eb16565b90506000612b44878763ffffffff6121eb16565b9050612b4e61324d565b612b58828461243a565b9050612b6a858563ffffffff612dc916565b15612c4657612b7f818563ffffffff612dc916565b15612b9957612b8d84612ddf565b95505050505050610c94565b612ba161324d565b612bab8286612e37565b9050612bb561324d565b612bc5868463ffffffff612e9416565b9050612bcf61324d565b612bd887612ddf565b9050612be261324d565b612bf2898963ffffffff612e9416565b9050612c36612c07848363ffffffff612ebd16565b6112a3612c1a858563ffffffff61219816565b612c2a888863ffffffff61219816565b9063ffffffff612ebd16565b9950505050505050505050610c94565b612c508186612e37565b9998505050505050505050565b6000808080808080612c6d610c75565b90506000612c79611174565b905080821015612d3657612c93818363ffffffff6121eb16565b9450612cbb612caa6064612ca5612ee6565b6121eb565b6110af87606463ffffffff61200f16565b9450888511612cca5784612ccc565b885b9450612ceb60646110af612cde612ee6565b889063ffffffff61200f16565b9250612cfd858463ffffffff6121eb16565b9450612d0883612eeb565b612d1185612f7f565b612d21898463ffffffff6121eb16565b9850612d33898663ffffffff6121eb16565b98505b6000612d40611969565b905060008a118015612d525750600081115b15612d8457898111612d645780612d66565b895b9450612d7185611b76565b612d818a8663ffffffff6121eb16565b99505b612d8c610ec8565b612d9557600099505b8915612da457612da48a613010565b8585612db68c8763ffffffff6121c616565b9850985098505050505050509193909250565b6000612dd583836130b0565b6002149392505050565b612de761324d565b610bcd612df66001600361243a565b612e0d612e2f612e256002612e1988612e0d6130e2565b9063ffffffff612e9416565b9063ffffffff61310416565b6112af600361315a565b6112a36130e2565b612e3f61324d565b612e4f838363ffffffff61318e16565b15612e6457612e5d83612ddf565b9050610bcd565b610c94612e736001600361243a565b612e0d612e2f612e8587612e0d6130e2565b6112af612e2588612e0d6130e2565b612e9c61324d565b604080516020810190915282518451829161218f919063ffffffff6121eb16565b612ec561324d565b604080516020810190915282518451829161218f919063ffffffff6121c616565b602890565b8015610c8457612ef9610f21565b6001600160a01b03166340c10f19612f0f610c52565b836040518363ffffffff1660e01b8152600401612f2d92919061396f565b602060405180830381600087803b158015612f4757600080fd5b505af1158015612f5b573d6000803e3d6000fd5b505050506040513d601f19601f82011682018060405250610c7191908101906135a6565b612f87610f21565b6001600160a01b03166340c10f1930836040518363ffffffff1660e01b8152600401612fb492919061396f565b602060405180830381600087803b158015612fce57600080fd5b505af1158015612fe2573d6000803e3d6000fd5b505050506040513d601f19601f8201168201806040525061300691908101906135a6565b50611bb581612732565b613053600061301d610ec8565b116a21b7b6b83a3937b63632b960a91b7f43616e74206d696e7420746f20656d70747920706f6f6c000000000000000000612584565b600061307260646110af613065612ee6565b859063ffffffff61200f16565b90506000818311613084576000613094565b613094838363ffffffff6121eb16565b905061309f82612eeb565b6130a881613195565b610d2b612833565b8051825160009114156130c557506001610bcd565b81518351116130d55760006130d8565b60025b60ff169392505050565b6130ea61324d565b506040805160208101909152670de0b6b3a7640000815290565b61310c61324d565b8161311b57612e5d600161315a565b61312361324d565b5060408051602081019091528351815260015b83811015613152576131488286612198565b9150600101613136565b509392505050565b61316261324d565b60408051602081019091528061318684670de0b6b3a764000063ffffffff61200f16565b905292915050565b5190511490565b8015610c84576131a3610f21565b6001600160a01b03166340c10f1930836040518363ffffffff1660e01b81526004016131d092919061396f565b602060405180830381600087803b1580156131ea57600080fd5b505af11580156131fe573d6000803e3d6000fd5b505050506040513d601f19601f8201168201806040525061322291908101906135a6565b50610c8481611c65565b60405180606001604052806000815260200160008152602001600081525090565b6040518060200160405280600081525090565b8035610bcd81613b23565b8051610bcd81613b37565b8035610bcd81613b40565b60008083601f84011261329357600080fd5b50813567ffffffffffffffff8111156132ab57600080fd5b6020830191508360018202830111156132c357600080fd5b9250929050565b8035610bcd81613b4d565b8051610bcd81613b4d565b6000602082840312156132f257600080fd5b60006127978484613260565b6000806040838503121561331157600080fd5b600061331d8585613260565b925050602061332e85828601613260565b9150509250929050565b60008060006060848603121561334d57600080fd5b60006133598686613260565b935050602061336a86828701613260565b925050604061337b86828701613276565b9150509250925092565b60008060006060848603121561339a57600080fd5b60006133a68686613260565b93505060206133b786828701613260565b925050604061337b868287016132ca565b6000806000806000608086880312156133e057600080fd5b60006133ec8888613260565b95505060206133fd88828901613260565b945050604061340e888289016132ca565b935050606086013567ffffffffffffffff81111561342b57600080fd5b61343788828901613281565b92509250509295509295909350565b6000806000806080858703121561345c57600080fd5b60006134688787613260565b945050602061347987828801613260565b935050604061348a878288016132ca565b925050606061349b878288016132ca565b91505092959194509250565b600080604083850312156134ba57600080fd5b60006134c68585613260565b925050602061332e858286016132ca565b600080600080606085870312156134ed57600080fd5b60006134f98787613260565b945050602061350a878288016132ca565b935050604085013567ffffffffffffffff81111561352757600080fd5b61353387828801613281565b95989497509550505050565b60008060006060848603121561355457600080fd5b60006135608686613260565b93505060206133b7868287016132ca565b60008060008060006080868803121561358957600080fd5b60006135958888613260565b95505060206133fd888289016132ca565b6000602082840312156135b857600080fd5b6000612797848461326b565b6000602082840312156135d657600080fd5b600061279784846132ca565b6000602082840312156135f457600080fd5b600061279784846132d5565b60008060006040848603121561361557600080fd5b600061362186866132ca565b935050602084013567ffffffffffffffff81111561363e57600080fd5b61364a86828701613281565b92509250509250925092565b6000806040838503121561366957600080fd5b60006134c685856132ca565b60008060006060848603121561368a57600080fd5b600061356086866132ca565b61369f81613a91565b82525050565b61369f81613a9c565b61369f6136ba82613aa1565b613aae565b61369f6136ba82613aae565b60006136d682613a84565b6136e08185610c2f565b93506136f0818560208601613ae3565b9290920192915050565b61369f81613acd565b61369f81613ad8565b600061371782613a84565b6137218185613a88565b9350613731818560208601613ae3565b61373a81613b0f565b9093019392505050565b6000613751601b83613a88565b7f536166654d6174683a206164646974696f6e206f766572666c6f770000000000815260200192915050565b600061378a602b83613a88565b7f4d61726b65743a20436f75706f6e207472616e7366657220746f20746865207a81526a65726f206164647265737360a81b602082015260400192915050565b60006137d7602183613a88565b7f536166654d6174683a206d756c7469706c69636174696f6e206f766572666c6f8152607760f81b602082015260400192915050565b600061381a602a83613a88565b7f4d61726b65743a20436f75706f6e20617070726f766520746f20746865207a65815269726f206164647265737360b01b602082015260400192915050565b6000613866602d83613a88565b7f4d61726b65743a20436f75706f6e207472616e736665722066726f6d2074686581526c207a65726f206164647265737360981b602082015260400192915050565b60006138b5601b83613a88565b7f4d61726b65743a20546f6f206561726c7920746f2072656465656d0000000000815260200192915050565b61369f81613aae565b61369f81613ac7565b60006138ff82846136bf565b50602001919050565b600061391482866136cb565b915061392082856136ae565b60028201915061393082846136cb565b95945050505050565b60208101610bcd8284613696565b606081016139558286613696565b6139626020830185613696565b61279760408301846138e1565b6040810161397d8285613696565b610c9460208301846138e1565b60208101610bcd82846136a5565b60208101610bcd82846136fa565b60208101610bcd8284613703565b60208082528101610c94818461370c565b60208082528101610bcd81613744565b60208082528101610bcd8161377d565b60208082528101610bcd816137ca565b60208082528101610bcd8161380d565b60208082528101610bcd81613859565b60208082528101610bcd816138a8565b60208101610bcd82846138e1565b6040810161397d82856138e1565b60808101613a4f82876138e1565b613a5c60208301866138e1565b613a6960408301856138e1565b61393060608301846138e1565b60208101610bcd82846138ea565b5190565b90815260200190565b6000610bcd82613abb565b151590565b6001600160f01b03191690565b90565b80610c2f81613b19565b6001600160a01b031690565b60ff1690565b6000610bcd82613a91565b6000610bcd82613ab1565b60005b83811015613afe578181015183820152602001613ae6565b83811115610eaf5750506000910152565b601f01601f191690565b60038110610c8457fe5b613b2c81613a91565b8114610c8457600080fd5b613b2c81613a9c565b60038110610c8457600080fd5b613b2c81613aae56fe4d61726b65743a20496e73756666696369656e7420636f75706f6e2062616c616e63654d61726b65743a20496e73756666696369656e7420636f75706f6e20617070726f76616c457175696c69627269756d20446f6c6c61722050726f746f636f6c205374616b65436f6d7074726f6c6c65723a206e6f7420656e6f756768206f75747374616e64696e672064656274436f6d7074726f6c6c65723a206e6f7420656e6f7567682072656465656d61626c652062616c616e6365a365627a7a7231582099e4ff6597519b2913001cd5c0f267999b4be9fca8c893b252a12652bb249e8e6c6578706572696d656e74616cf564736f6c6343000511004060806040523480156200001157600080fd5b506040518060400160405280601b81526020017f457175696c69627269756d20446f6c6c61722050726f746f636f6c00000000008152506040518060400160405280600381526020016211545160ea1b8152506012620000896200007a6200012460201b60201c565b6001600160e01b036200012916565b82516200009e9060019060208601906200031e565b508151620000b49060029060208501906200031e565b506003805460ff191660ff92909216919091179055506200011b9050620000da6200017b565b604051806040016040528060018152602001603160f81b815250620001096200021460201b620016341760201c565b306200021960201b620016391760201c565b60075562000474565b335b90565b620001448160006200027060201b62000d7e1790919060201c565b6040516001600160a01b038216907f6ae172837ea30b801fbfcdd4108aa1d5bf8ff775444fd70256b44e6bf3dfc3f690600090a250565b60018054604080516020601f600260001961010087891615020190951694909404938401819004810282018101909252828152606093909290918301828280156200020a5780601f10620001de576101008083540402835291602001916200020a565b820191906000526020600020905b815481529060010190602001808311620001ec57829003601f168201915b5050505050905090565b603890565b8351602094850120835193850193909320604080517f8b73c3c69bb8fe3d512ecc4cf759cc79239f7b179b0ffacaa9a75d522b39400f815295860194909452928401929092526060830152608082015260a0902090565b6200028582826001600160e01b03620002d316565b15620002ae5760405162461bcd60e51b8152600401620002a59062000441565b60405180910390fd5b6001600160a01b0316600090815260209190915260409020805460ff19166001179055565b60006001600160a01b038216620002fe5760405162461bcd60e51b8152600401620002a59062000459565b506001600160a01b03166000908152602091909152604090205460ff1690565b828054600181600116156101000203166002900490600052602060002090601f016020900481019282601f106200036157805160ff191683800117855562000391565b8280016001018555821562000391579182015b828111156200039157825182559160200191906001019062000374565b506200039f929150620003a3565b5090565b6200012691905b808211156200039f5760008155600101620003aa565b6000620003cf601f836200046b565b7f526f6c65733a206163636f756e7420616c72656164792068617320726f6c6500815260200192915050565b60006200040a6022836200046b565b7f526f6c65733a206163636f756e7420697320746865207a65726f206164647265815261737360f01b602082015260400192915050565b602080825281016200045381620003c0565b92915050565b602080825281016200045381620003fb565b90815260200190565b61178d80620004846000396000f3fe608060405234801561001057600080fd5b506004361061012c5760003560e01c806395d89b41116100ad578063aa271e1a11610071578063aa271e1a14610256578063d505accf14610269578063dab400f31461027c578063dd62ed3e14610284578063e879c19f146102975761012c565b806395d89b411461020d578063983b2d56146102155780639865027514610228578063a457c2d714610230578063a9059cbb146102435761012c565b806339509351116100f457806339509351146101ac57806340c10f19146101bf57806342966c68146101d257806370a08231146101e757806379cc6790146101fa5761012c565b806306fdde0314610131578063095ea7b31461014f57806318160ddd1461016f57806323b872dd14610184578063313ce56714610197575b600080fd5b61013961029f565b60405161014691906114c6565b60405180910390f35b61016261015d366004610ffc565b610334565b604051610146919061141b565b610177610352565b6040516101469190611429565b610162610192366004610f13565b610358565b61019f6103ca565b6040516101469190611587565b6101626101ba366004610ffc565b6103d3565b6101626101cd366004610ffc565b610427565b6101e56101e036600461102c565b610463565b005b6101776101f5366004610eb3565b610477565b6101e5610208366004610ffc565b610496565b6101396104a4565b6101e5610223366004610eb3565b610502565b6101e5610532565b61016261023e366004610ffc565b610544565b610162610251366004610ffc565b6105b2565b610162610264366004610eb3565b6105c6565b6101e5610277366004610f60565b6105d8565b61017761075f565b610177610292366004610ed9565b610765565b610177610790565b60018054604080516020601f6002600019610100878916150201909516949094049384018190048102820181019092528281526060939092909183018282801561032a5780601f106102ff5761010080835404028352916020019161032a565b820191906000526020600020905b81548152906001019060200180831161030d57829003601f168201915b5050505050905090565b60006103486103416107b4565b84846107b8565b5060015b92915050565b60065490565b600061036584848461086c565b600019610374856102926107b4565b146103c0576103c0846103856107b4565b6103bb856040518060600160405280602981526020016116fd602991396103ae8a6102926107b4565b919063ffffffff61098216565b6107b8565b5060019392505050565b60035460ff1690565b60006103486103e06107b4565b846103bb85600560006103f16107b4565b6001600160a01b03908116825260208083019390935260409182016000908120918c16815292529020549063ffffffff6109ae16565b60006104346102646107b4565b6104595760405162461bcd60e51b815260040161045090611517565b60405180910390fd5b61034883836109da565b61047461046e6107b4565b82610a9a565b50565b6001600160a01b0381166000908152600460205260409020545b919050565b6104a08282610b70565b5050565b60028054604080516020601f600019610100600187161502019094168590049384018190048102820181019092528281526060939092909183018282801561032a5780601f106102ff5761010080835404028352916020019161032a565b61050d6102646107b4565b6105295760405162461bcd60e51b815260040161045090611517565b61047481610beb565b61054261053d6107b4565b610c33565b565b60006103486105516107b4565b846103bb85604051806060016040528060258152602001611726602591396005600061057b6107b4565b6001600160a01b03908116825260208083019390935260409182016000908120918d1681529252902054919063ffffffff61098216565b60006103486105bf6107b4565b848461086c565b600061034c818363ffffffff610c7b16565b6007546001600160a01b03881660009081526008602090815260408083208054600181019091559051929361065a93909261063f927f6e71edae12b1b97f4d1f60370fef10105fa2faae0126114a169c64845d6126c9928e928e928e9290918e9101611437565b60405160208183030381529060405280519060200120610cc3565b90506000600182868686604051600081526020016040526040516106819493929190611491565b6020604051602081039080840390855afa1580156106a3573d6000803e3d6000fd5b5050506020604051035190506106f0896001600160a01b0316826001600160a01b0316146a5065726d69747461626c6560a81b70496e76616c6964207369676e617475726560781b610ce2565b6107236001600160a01b03821615156a5065726d69747461626c6560a81b6b5a65726f206164647265737360a01b610ce2565b610749864211156a5065726d69747461626c6560a81b66115e1c1a5c995960ca1b610ce2565b6107548989896107b8565b505050505050505050565b60075481565b6001600160a01b03918216600090815260056020908152604080832093909416825291909152205490565b7f6e71edae12b1b97f4d1f60370fef10105fa2faae0126114a169c64845d6126c981565b3390565b6001600160a01b0383166107de5760405162461bcd60e51b815260040161045090611567565b6001600160a01b0382166108045760405162461bcd60e51b8152600401610450906114f7565b6001600160a01b0380841660008181526005602090815260408083209487168084529490915290819020849055517f8c5be1e5ebec7d5bd14f71427d1e84f3dd0314c0f7b2291e5b200ac8c7c3b9259061085f908590611429565b60405180910390a3505050565b6001600160a01b0383166108925760405162461bcd60e51b815260040161045090611557565b6001600160a01b0382166108b85760405162461bcd60e51b8152600401610450906114d7565b6108fb816040518060600160405280602681526020016116b3602691396001600160a01b038616600090815260046020526040902054919063ffffffff61098216565b6001600160a01b038085166000908152600460205260408082209390935590841681522054610930908263ffffffff6109ae16565b6001600160a01b0380841660008181526004602052604090819020939093559151908516907fddf252ad1be2c89b69c2b068fc378daa952ba7f163c4a11628f55a4df523b3ef9061085f908590611429565b600081848411156109a65760405162461bcd60e51b815260040161045091906114c6565b505050900390565b6000828201838110156109d35760405162461bcd60e51b815260040161045090611507565b9392505050565b6001600160a01b038216610a005760405162461bcd60e51b815260040161045090611577565b600654610a13908263ffffffff6109ae16565b6006556001600160a01b038216600090815260046020526040902054610a3f908263ffffffff6109ae16565b6001600160a01b0383166000818152600460205260408082209390935591519091907fddf252ad1be2c89b69c2b068fc378daa952ba7f163c4a11628f55a4df523b3ef90610a8e908590611429565b60405180910390a35050565b6001600160a01b038216610ac05760405162461bcd60e51b815260040161045090611547565b610b0381604051806060016040528060228152602001611691602291396001600160a01b038516600090815260046020526040902054919063ffffffff61098216565b6001600160a01b038316600090815260046020526040902055600654610b2f908263ffffffff610d3c16565b6006556040516000906001600160a01b038416907fddf252ad1be2c89b69c2b068fc378daa952ba7f163c4a11628f55a4df523b3ef90610a8e908590611429565b610b7a8282610a9a565b6104a082610b866107b4565b6103bb846040518060600160405280602481526020016116d9602491396001600160a01b038816600090815260056020526040812090610bc46107b4565b6001600160a01b03168152602081019190915260400160002054919063ffffffff61098216565b610bfc60008263ffffffff610d7e16565b6040516001600160a01b038216907f6ae172837ea30b801fbfcdd4108aa1d5bf8ff775444fd70256b44e6bf3dfc3f690600090a250565b610c4460008263ffffffff610dca16565b6040516001600160a01b038216907fe94479a9f7e1952cc78f2d6baab678adc1b772d936c6583def489e524cb6669290600090a250565b60006001600160a01b038216610ca35760405162461bcd60e51b815260040161045090611537565b506001600160a01b03166000908152602091909152604090205460ff1690565b60405161190160f01b8152600281019290925260228201526042902090565b82610d3757610cf082610e12565b6101d160f51b610cff83610e12565b604051602001610d11939291906113ea565b60408051601f198184030181529082905262461bcd60e51b8252610450916004016114c6565b505050565b60006109d383836040518060400160405280601e81526020017f536166654d6174683a207375627472616374696f6e206f766572666c6f770000815250610982565b610d888282610c7b565b15610da55760405162461bcd60e51b8152600401610450906114e7565b6001600160a01b0316600090815260209190915260409020805460ff19166001179055565b610dd48282610c7b565b610df05760405162461bcd60e51b815260040161045090611527565b6001600160a01b0316600090815260209190915260409020805460ff19169055565b60608082604051602001610e2691906113d5565b60408051601f19818403018152919052905060205b8015610e7b57815160001990910190829082908110610e5657fe5b01602001516001600160f81b03191615610e765760010181529050610491565b610e3b565b505060408051600081526020810190915292915050565b803561034c8161160e565b803561034c81611622565b803561034c8161162b565b600060208284031215610ec557600080fd5b6000610ed18484610e92565b949350505050565b60008060408385031215610eec57600080fd5b6000610ef88585610e92565b9250506020610f0985828601610e92565b9150509250929050565b600080600060608486031215610f2857600080fd5b6000610f348686610e92565b9350506020610f4586828701610e92565b9250506040610f5686828701610e9d565b9150509250925092565b600080600080600080600060e0888a031215610f7b57600080fd5b6000610f878a8a610e92565b9750506020610f988a828b01610e92565b9650506040610fa98a828b01610e9d565b9550506060610fba8a828b01610e9d565b9450506080610fcb8a828b01610ea8565b93505060a0610fdc8a828b01610e9d565b92505060c0610fed8a828b01610e9d565b91505092959891949750929550565b6000806040838503121561100f57600080fd5b600061101b8585610e92565b9250506020610f0985828601610e9d565b60006020828403121561103e57600080fd5b6000610ed18484610e9d565b611053816115a2565b82525050565b611053816115ad565b61105361106e826115b2565b6115bf565b611053816115bf565b61105361106e826115bf565b600061109382611595565b61109d8185610491565b93506110ad8185602086016115d4565b9290920192915050565b60006110c282611595565b6110cc8185611599565b93506110dc8185602086016115d4565b6110e581611604565b9093019392505050565b60006110fc602383611599565b7f45524332303a207472616e7366657220746f20746865207a65726f206164647281526265737360e81b602082015260400192915050565b6000611141601f83611599565b7f526f6c65733a206163636f756e7420616c72656164792068617320726f6c6500815260200192915050565b600061117a602283611599565b7f45524332303a20617070726f766520746f20746865207a65726f206164647265815261737360f01b602082015260400192915050565b60006111be601b83611599565b7f536166654d6174683a206164646974696f6e206f766572666c6f770000000000815260200192915050565b60006111f7603083611599565b7f4d696e746572526f6c653a2063616c6c657220646f6573206e6f74206861766581526f20746865204d696e74657220726f6c6560801b602082015260400192915050565b6000611249602183611599565b7f526f6c65733a206163636f756e7420646f6573206e6f74206861766520726f6c8152606560f81b602082015260400192915050565b600061128c602283611599565b7f526f6c65733a206163636f756e7420697320746865207a65726f206164647265815261737360f01b602082015260400192915050565b60006112d0602183611599565b7f45524332303a206275726e2066726f6d20746865207a65726f206164647265738152607360f81b602082015260400192915050565b6000611313602583611599565b7f45524332303a207472616e736665722066726f6d20746865207a65726f206164815264647265737360d81b602082015260400192915050565b600061135a602483611599565b7f45524332303a20617070726f76652066726f6d20746865207a65726f206164648152637265737360e01b602082015260400192915050565b60006113a0601f83611599565b7f45524332303a206d696e7420746f20746865207a65726f206164647265737300815260200192915050565b611053816115ce565b60006113e1828461107c565b50602001919050565b60006113f68286611088565b91506114028285611062565b6002820191506114128284611088565b95945050505050565b6020810161034c8284611059565b6020810161034c8284611073565b60c081016114458289611073565b611452602083018861104a565b61145f604083018761104a565b61146c6060830186611073565b6114796080830185611073565b61148660a0830184611073565b979650505050505050565b6080810161149f8287611073565b6114ac60208301866113cc565b6114b96040830185611073565b6114126060830184611073565b602080825281016109d381846110b7565b6020808252810161034c816110ef565b6020808252810161034c81611134565b6020808252810161034c8161116d565b6020808252810161034c816111b1565b6020808252810161034c816111ea565b6020808252810161034c8161123c565b6020808252810161034c8161127f565b6020808252810161034c816112c3565b6020808252810161034c81611306565b6020808252810161034c8161134d565b6020808252810161034c81611393565b6020810161034c82846113cc565b5190565b90815260200190565b600061034c826115c2565b151590565b6001600160f01b03191690565b90565b6001600160a01b031690565b60ff1690565b60005b838110156115ef5781810151838201526020016115d7565b838111156115fe576000848401525b50505050565b601f01601f191690565b611617816115a2565b811461047457600080fd5b611617816115bf565b611617816115ce565b603890565b8351602094850120835193850193909320604080517f8b73c3c69bb8fe3d512ecc4cf759cc79239f7b179b0ffacaa9a75d522b39400f815295860194909452928401929092526060830152608082015260a090209056fe45524332303a206275726e20616d6f756e7420657863656564732062616c616e636545524332303a207472616e7366657220616d6f756e7420657863656564732062616c616e636545524332303a206275726e20616d6f756e74206578636565647320616c6c6f77616e6365446f6c6c61723a207472616e7366657220616d6f756e74206578636565647320616c6c6f77616e636545524332303a2064656372656173656420616c6c6f77616e63652062656c6f77207a65726fa365627a7a723158204694b69abad0392de6c6e24c32ff990134454b52668a4ecc34088fbbb051539e6c6578706572696d656e74616cf564736f6c63430005110040",
  "source": "/*\r\n    Copyright 2021 Equilibrium Dollar Protocol, based on the works of the Empty Set Squad and Dynamic Dollar Devs\r\n\r\n    Licensed under the Apache License, Version 2.0 (the \"License\");\r\n    you may not use this file except in compliance with the License.\r\n    You may obtain a copy of the License at\r\n\r\n    http://www.apache.org/licenses/LICENSE-2.0\r\n\r\n    Unless required by applicable law or agreed to in writing, software\r\n    distributed under the License is distributed on an \"AS IS\" BASIS,\r\n    WITHOUT WARRANTIES OR CONDITIONS OF ANY KIND, either express or implied.\r\n    See the License for the specific language governing permissions and\r\n    limitations under the License.\r\n*/\r\n\r\npragma solidity ^0.5.17;\r\npragma experimental ABIEncoderV2;\r\n\r\nimport \"../dao/Market.sol\";\r\nimport \"./MockState.sol\";\r\nimport \"./MockComptroller.sol\";\r\n\r\ncontract MockMarket is MockState, MockComptroller, Market {\r\n    constructor(address pool) MockComptroller(pool) public { }\r\n\r\n    function stepE() external {\r\n        Market.step();\r\n    }\r\n}\r\n",
  "sourcePath": "D:/10012021/fix-project/equilibrium-protocol/contracts/mock/MockMarket.sol",
  "compiler": {
    "name": "solc",
    "version": "0.5.17+commit.d19bba13.Emscripten.clang"
  },
  "schemaVersion": "3.3.3",
  "updatedAt": "2021-01-16T10:09:32.046Z",
  "devdoc": {
    "methods": {}
  },
  "userdoc": {
    "methods": {
      "balanceOfStaged(address)": {
        "notice": "Account"
      },
      "createCandidateE(address,uint256)": {
        "notice": "Governance"
      },
      "dollar()": {
        "notice": "Global"
      },
      "epoch()": {
        "notice": "Epoch"
      },
      "incrementBalanceOfE(address,uint256)": {
        "notice": "Account"
      },
      "incrementTotalBondedE(uint256)": {
        "notice": "Global"
      },
      "name()": {
        "notice": "ERC20 Interface"
      },
      "recordedVote(address,address)": {
        "notice": "Governance"
      },
      "setBlockTimestamp(uint256)": {
        "notice": "Mock"
      },
      "setEpochParamsE(uint256,uint256)": {
        "notice": "Epoch"
      },
      "transfer(address,uint256)": {
        "notice": "ERC20 Interface"
      }
    }
  }
}