{
  "contractName": "Regulator",
  "abi": [
    {
      "anonymous": false,
      "inputs": [
        {
          "indexed": true,
          "internalType": "uint256",
          "name": "epoch",
          "type": "uint256"
        },
        {
          "indexed": false,
          "internalType": "uint256",
          "name": "price",
          "type": "uint256"
        },
        {
          "indexed": false,
          "internalType": "uint256",
          "name": "newDebt",
          "type": "uint256"
        }
      ],
      "name": "SupplyDecrease",
      "type": "event"
    },
    {
      "anonymous": false,
      "inputs": [
        {
          "indexed": true,
          "internalType": "uint256",
          "name": "epoch",
          "type": "uint256"
        },
        {
          "indexed": false,
          "internalType": "uint256",
          "name": "price",
          "type": "uint256"
        },
        {
          "indexed": false,
          "internalType": "uint256",
          "name": "newRedeemable",
          "type": "uint256"
        },
        {
          "indexed": false,
          "internalType": "uint256",
          "name": "lessDebt",
          "type": "uint256"
        },
        {
          "indexed": false,
          "internalType": "uint256",
          "name": "newBonded",
          "type": "uint256"
        }
      ],
      "name": "SupplyIncrease",
      "type": "event"
    },
    {
      "anonymous": false,
      "inputs": [
        {
          "indexed": true,
          "internalType": "uint256",
          "name": "epoch",
          "type": "uint256"
        }
      ],
      "name": "SupplyNeutral",
      "type": "event"
    },
    {
      "anonymous": false,
      "inputs": [
        {
          "indexed": true,
          "internalType": "address",
          "name": "from",
          "type": "address"
        },
        {
          "indexed": true,
          "internalType": "address",
          "name": "to",
          "type": "address"
        },
        {
          "indexed": false,
          "internalType": "uint256",
          "name": "value",
          "type": "uint256"
        }
      ],
      "name": "Transfer",
      "type": "event"
    },
    {
      "constant": true,
      "inputs": [
        {
          "internalType": "address",
          "name": "owner",
          "type": "address"
        },
        {
          "internalType": "address",
          "name": "spender",
          "type": "address"
        }
      ],
      "name": "allowance",
      "outputs": [
        {
          "internalType": "uint256",
          "name": "",
          "type": "uint256"
        }
      ],
      "payable": false,
      "stateMutability": "view",
      "type": "function"
    },
    {
      "constant": true,
      "inputs": [
        {
          "internalType": "address",
          "name": "owner",
          "type": "address"
        },
        {
          "internalType": "address",
          "name": "spender",
          "type": "address"
        }
      ],
      "name": "allowanceCoupons",
      "outputs": [
        {
          "internalType": "uint256",
          "name": "",
          "type": "uint256"
        }
      ],
      "payable": false,
      "stateMutability": "view",
      "type": "function"
    },
    {
      "constant": false,
      "inputs": [
        {
          "internalType": "address",
          "name": "spender",
          "type": "address"
        },
        {
          "internalType": "uint256",
          "name": "amount",
          "type": "uint256"
        }
      ],
      "name": "approve",
      "outputs": [
        {
          "internalType": "bool",
          "name": "",
          "type": "bool"
        }
      ],
      "payable": false,
      "stateMutability": "nonpayable",
      "type": "function"
    },
    {
      "constant": true,
      "inputs": [
        {
          "internalType": "address",
          "name": "candidate",
          "type": "address"
        }
      ],
      "name": "approveFor",
      "outputs": [
        {
          "internalType": "uint256",
          "name": "",
          "type": "uint256"
        }
      ],
      "payable": false,
      "stateMutability": "view",
      "type": "function"
    },
    {
      "constant": true,
      "inputs": [
        {
          "internalType": "address",
          "name": "account",
          "type": "address"
        }
      ],
      "name": "balanceOf",
      "outputs": [
        {
          "internalType": "uint256",
          "name": "",
          "type": "uint256"
        }
      ],
      "payable": false,
      "stateMutability": "view",
      "type": "function"
    },
    {
      "constant": true,
      "inputs": [
        {
          "internalType": "address",
          "name": "account",
          "type": "address"
        }
      ],
      "name": "balanceOfBonded",
      "outputs": [
        {
          "internalType": "uint256",
          "name": "",
          "type": "uint256"
        }
      ],
      "payable": false,
      "stateMutability": "view",
      "type": "function"
    },
    {
      "constant": true,
      "inputs": [
        {
          "internalType": "address",
          "name": "account",
          "type": "address"
        },
        {
          "internalType": "uint256",
          "name": "epoch",
          "type": "uint256"
        }
      ],
      "name": "balanceOfCoupons",
      "outputs": [
        {
          "internalType": "uint256",
          "name": "",
          "type": "uint256"
        }
      ],
      "payable": false,
      "stateMutability": "view",
      "type": "function"
    },
    {
      "constant": true,
      "inputs": [
        {
          "internalType": "address",
          "name": "account",
          "type": "address"
        }
      ],
      "name": "balanceOfStaged",
      "outputs": [
        {
          "internalType": "uint256",
          "name": "",
          "type": "uint256"
        }
      ],
      "payable": false,
      "stateMutability": "view",
      "type": "function"
    },
    {
      "constant": true,
      "inputs": [
        {
          "internalType": "uint256",
          "name": "epoch",
          "type": "uint256"
        }
      ],
      "name": "bootstrappingAt",
      "outputs": [
        {
          "internalType": "bool",
          "name": "",
          "type": "bool"
        }
      ],
      "payable": false,
      "stateMutability": "view",
      "type": "function"
    },
    {
      "constant": true,
      "inputs": [
        {
          "internalType": "uint256",
          "name": "epoch",
          "type": "uint256"
        }
      ],
      "name": "couponsExpiration",
      "outputs": [
        {
          "internalType": "uint256",
          "name": "",
          "type": "uint256"
        }
      ],
      "payable": false,
      "stateMutability": "view",
      "type": "function"
    },
    {
      "constant": true,
      "inputs": [],
      "name": "decimals",
      "outputs": [
        {
          "internalType": "uint8",
          "name": "",
          "type": "uint8"
        }
      ],
      "payable": false,
      "stateMutability": "view",
      "type": "function"
    },
    {
      "constant": true,
      "inputs": [],
      "name": "dollar",
      "outputs": [
        {
          "internalType": "contract IDollar",
          "name": "",
          "type": "address"
        }
      ],
      "payable": false,
      "stateMutability": "view",
      "type": "function"
    },
    {
      "constant": true,
      "inputs": [],
      "name": "epoch",
      "outputs": [
        {
          "internalType": "uint256",
          "name": "",
          "type": "uint256"
        }
      ],
      "payable": false,
      "stateMutability": "view",
      "type": "function"
    },
    {
      "constant": true,
      "inputs": [],
      "name": "epochTime",
      "outputs": [
        {
          "internalType": "uint256",
          "name": "",
          "type": "uint256"
        }
      ],
      "payable": false,
      "stateMutability": "view",
      "type": "function"
    },
    {
      "constant": true,
      "inputs": [
        {
          "internalType": "uint256",
          "name": "epoch",
          "type": "uint256"
        }
      ],
      "name": "expiringCoupons",
      "outputs": [
        {
          "internalType": "uint256",
          "name": "",
          "type": "uint256"
        }
      ],
      "payable": false,
      "stateMutability": "view",
      "type": "function"
    },
    {
      "constant": true,
      "inputs": [
        {
          "internalType": "uint256",
          "name": "epoch",
          "type": "uint256"
        },
        {
          "internalType": "uint256",
          "name": "i",
          "type": "uint256"
        }
      ],
      "name": "expiringCouponsAtIndex",
      "outputs": [
        {
          "internalType": "uint256",
          "name": "",
          "type": "uint256"
        }
      ],
      "payable": false,
      "stateMutability": "view",
      "type": "function"
    },
    {
      "constant": true,
      "inputs": [],
      "name": "implementation",
      "outputs": [
        {
          "internalType": "address",
          "name": "impl",
          "type": "address"
        }
      ],
      "payable": false,
      "stateMutability": "view",
      "type": "function"
    },
    {
      "constant": true,
      "inputs": [
        {
          "internalType": "address",
          "name": "candidate",
          "type": "address"
        }
      ],
      "name": "isInitialized",
      "outputs": [
        {
          "internalType": "bool",
          "name": "",
          "type": "bool"
        }
      ],
      "payable": false,
      "stateMutability": "view",
      "type": "function"
    },
    {
      "constant": true,
      "inputs": [
        {
          "internalType": "address",
          "name": "candidate",
          "type": "address"
        }
      ],
      "name": "isNominated",
      "outputs": [
        {
          "internalType": "bool",
          "name": "",
          "type": "bool"
        }
      ],
      "payable": false,
      "stateMutability": "view",
      "type": "function"
    },
    {
      "constant": true,
      "inputs": [],
      "name": "name",
      "outputs": [
        {
          "internalType": "string",
          "name": "",
          "type": "string"
        }
      ],
      "payable": false,
      "stateMutability": "view",
      "type": "function"
    },
    {
      "constant": true,
      "inputs": [],
      "name": "oracle",
      "outputs": [
        {
          "internalType": "contract IOracle",
          "name": "",
          "type": "address"
        }
      ],
      "payable": false,
      "stateMutability": "view",
      "type": "function"
    },
    {
      "constant": true,
      "inputs": [
        {
          "internalType": "uint256",
          "name": "epoch",
          "type": "uint256"
        }
      ],
      "name": "outstandingCoupons",
      "outputs": [
        {
          "internalType": "uint256",
          "name": "",
          "type": "uint256"
        }
      ],
      "payable": false,
      "stateMutability": "view",
      "type": "function"
    },
    {
      "constant": true,
      "inputs": [
        {
          "internalType": "address",
          "name": "candidate",
          "type": "address"
        }
      ],
      "name": "periodFor",
      "outputs": [
        {
          "internalType": "uint256",
          "name": "",
          "type": "uint256"
        }
      ],
      "payable": false,
      "stateMutability": "view",
      "type": "function"
    },
    {
      "constant": true,
      "inputs": [],
      "name": "pool",
      "outputs": [
        {
          "internalType": "address",
          "name": "",
          "type": "address"
        }
      ],
      "payable": false,
      "stateMutability": "view",
      "type": "function"
    },
    {
      "constant": true,
      "inputs": [
        {
          "internalType": "address",
          "name": "account",
          "type": "address"
        },
        {
          "internalType": "address",
          "name": "candidate",
          "type": "address"
        }
      ],
      "name": "recordedVote",
      "outputs": [
        {
          "internalType": "enum Candidate.Vote",
          "name": "",
          "type": "uint8"
        }
      ],
      "payable": false,
      "stateMutability": "view",
      "type": "function"
    },
    {
      "constant": true,
      "inputs": [
        {
          "internalType": "address",
          "name": "candidate",
          "type": "address"
        }
      ],
      "name": "rejectFor",
      "outputs": [
        {
          "internalType": "uint256",
          "name": "",
          "type": "uint256"
        }
      ],
      "payable": false,
      "stateMutability": "view",
      "type": "function"
    },
    {
      "constant": true,
      "inputs": [
        {
          "internalType": "address",
          "name": "candidate",
          "type": "address"
        }
      ],
      "name": "startFor",
      "outputs": [
        {
          "internalType": "uint256",
          "name": "",
          "type": "uint256"
        }
      ],
      "payable": false,
      "stateMutability": "view",
      "type": "function"
    },
    {
      "constant": true,
      "inputs": [
        {
          "internalType": "address",
          "name": "account",
          "type": "address"
        }
      ],
      "name": "statusOf",
      "outputs": [
        {
          "internalType": "enum Account.Status",
          "name": "",
          "type": "uint8"
        }
      ],
      "payable": false,
      "stateMutability": "view",
      "type": "function"
    },
    {
      "constant": true,
      "inputs": [],
      "name": "symbol",
      "outputs": [
        {
          "internalType": "string",
          "name": "",
          "type": "string"
        }
      ],
      "payable": false,
      "stateMutability": "view",
      "type": "function"
    },
    {
      "constant": true,
      "inputs": [],
      "name": "totalBonded",
      "outputs": [
        {
          "internalType": "uint256",
          "name": "",
          "type": "uint256"
        }
      ],
      "payable": false,
      "stateMutability": "view",
      "type": "function"
    },
    {
      "constant": true,
      "inputs": [
        {
          "internalType": "uint256",
          "name": "epoch",
          "type": "uint256"
        }
      ],
      "name": "totalBondedAt",
      "outputs": [
        {
          "internalType": "uint256",
          "name": "",
          "type": "uint256"
        }
      ],
      "payable": false,
      "stateMutability": "view",
      "type": "function"
    },
    {
      "constant": true,
      "inputs": [],
      "name": "totalCoupons",
      "outputs": [
        {
          "internalType": "uint256",
          "name": "",
          "type": "uint256"
        }
      ],
      "payable": false,
      "stateMutability": "view",
      "type": "function"
    },
    {
      "constant": true,
      "inputs": [],
      "name": "totalDebt",
      "outputs": [
        {
          "internalType": "uint256",
          "name": "",
          "type": "uint256"
        }
      ],
      "payable": false,
      "stateMutability": "view",
      "type": "function"
    },
    {
      "constant": true,
      "inputs": [],
      "name": "totalNet",
      "outputs": [
        {
          "internalType": "uint256",
          "name": "",
          "type": "uint256"
        }
      ],
      "payable": false,
      "stateMutability": "view",
      "type": "function"
    },
    {
      "constant": true,
      "inputs": [],
      "name": "totalRedeemable",
      "outputs": [
        {
          "internalType": "uint256",
          "name": "",
          "type": "uint256"
        }
      ],
      "payable": false,
      "stateMutability": "view",
      "type": "function"
    },
    {
      "constant": true,
      "inputs": [],
      "name": "totalStaged",
      "outputs": [
        {
          "internalType": "uint256",
          "name": "",
          "type": "uint256"
        }
      ],
      "payable": false,
      "stateMutability": "view",
      "type": "function"
    },
    {
      "constant": true,
      "inputs": [],
      "name": "totalSupply",
      "outputs": [
        {
          "internalType": "uint256",
          "name": "",
          "type": "uint256"
        }
      ],
      "payable": false,
      "stateMutability": "view",
      "type": "function"
    },
    {
      "constant": false,
      "inputs": [
        {
          "internalType": "address",
          "name": "recipient",
          "type": "address"
        },
        {
          "internalType": "uint256",
          "name": "amount",
          "type": "uint256"
        }
      ],
      "name": "transfer",
      "outputs": [
        {
          "internalType": "bool",
          "name": "",
          "type": "bool"
        }
      ],
      "payable": false,
      "stateMutability": "nonpayable",
      "type": "function"
    },
    {
      "constant": false,
      "inputs": [
        {
          "internalType": "address",
          "name": "sender",
          "type": "address"
        },
        {
          "internalType": "address",
          "name": "recipient",
          "type": "address"
        },
        {
          "internalType": "uint256",
          "name": "amount",
          "type": "uint256"
        }
      ],
      "name": "transferFrom",
      "outputs": [
        {
          "internalType": "bool",
          "name": "",
          "type": "bool"
        }
      ],
      "payable": false,
      "stateMutability": "nonpayable",
      "type": "function"
    },
    {
      "constant": true,
      "inputs": [
        {
          "internalType": "address",
          "name": "candidate",
          "type": "address"
        }
      ],
      "name": "votesFor",
      "outputs": [
        {
          "internalType": "uint256",
          "name": "",
          "type": "uint256"
        }
      ],
      "payable": false,
      "stateMutability": "view",
      "type": "function"
    }
  ],
  "bytecode": "0x608060405234801561001057600080fd5b50610f23806100206000396000f3fe608060405234801561001057600080fd5b50600436106102485760003560e01c806375d5024b1161013b578063a6c409f1116100b8578063d60b347f1161007c578063d60b347f14610492578063dd62ed3e146104a5578063f1b7cf49146104b3578063fc7b9c18146104c6578063ffbe3b73146104ce57610248565b8063a6c409f11461045c578063a9059cbb1461026b578063bc7513e214610464578063c9aff70c14610477578063cf0237791461048a57610248565b806395d89b41116100ff57806395d89b411461041357806397a5d5b51461041b5780639a649edc1461042e5780639f6e1b2614610436578063a50cd8e71461044957610248565b806375d5024b146103ca5780637dc0d1d0146103dd578063825ad607146103e557806386cf9f14146103f8578063900cf0cf1461040b57610248565b80633a3e6c81116101c957806351adeb571161018d57806351adeb57146103745780635c60da1b1461038957806364668022146103915780636a39e328146103a457806370a08231146103b757610248565b80633a3e6c811461031e5780633fbba9a61461033157806344d96e95146103515780634c736099146103595780635053e4611461036c57610248565b806318160ddd1161021057806318160ddd146102d35780631edbcf6c146102db57806323b872dd146102e3578063313ce567146102f6578063353a420c1461030b57610248565b806306fdde031461024d578063095ea7b31461026b57806310e95b6c1461028b57806315e14bf6146102ab57806316f0115b146102be575b600080fd5b6102556104e1565b6040516102629190610dbc565b60405180910390f35b61027e610279366004610c09565b610501565b6040516102629190610d92565b61029e610299366004610c39565b61050a565b6040516102629190610ded565b61029e6102b9366004610b5c565b610522565b6102c6610540565b6040516102629190610d84565b61029e61054f565b61029e610555565b61027e6102f1366004610bbc565b61055b565b6102fe610564565b6040516102629190610dfb565b61029e610319366004610b5c565b610569565b61027e61032c366004610b5c565b610587565b61034461033f366004610b82565b6105a4565b6040516102629190610dae565b61029e6105d7565b61029e610367366004610c75565b6105dd565b61029e61060d565b61037c610630565b6040516102629190610da0565b6102c661063f565b61029e61039f366004610b5c565b610664565b61029e6103b2366004610c39565b610682565b61029e6103c5366004610b5c565b610697565b61027e6103d8366004610c39565b6106b5565b61037c6106c8565b61029e6103f3366004610b5c565b6106d7565b61029e610406366004610b5c565b61072a565b61029e610745565b61025561074b565b610344610429366004610b5c565b61076a565b61029e6107cf565b61029e610444366004610b82565b6107d5565b61029e610457366004610b5c565b610804565b61029e610827565b61029e610472366004610c09565b6108bd565b61029e610485366004610c39565b610901565b61029e610916565b61027e6104a0366004610b5c565b61091c565b61029e610279366004610b82565b61029e6104c1366004610b5c565b61093d565b61029e610958565b61029e6104dc366004610c39565b61095e565b6060604051806060016040528060218152602001610ec060219139905090565b60005b92915050565b6000818152600d60205260409020600201545b919050565b6001600160a01b03166000908152600e602052604090206001015490565b600b546001600160a01b031690565b60035490565b60065490565b60009392505050565b601290565b6001600160a01b03166000908152600e602052604090206003015490565b6001600160a01b03166000908152600e6020526040902054151590565b6001600160a01b038082166000908152600e60209081526040808320938616835260049093019052205460ff1692915050565b60045490565b6000828152600d602052604081206003018054839081106105fa57fe5b9060005260206000200154905092915050565b6000610617610b1a565b61061f610970565b905061062a8161099f565b91505090565b6009546001600160a01b031690565b7f360894a13ba1a3210667c828492db98dca3e2076cc3735a920a3ca505d382bbc5490565b6001600160a01b03166000908152600e602052604090206002015490565b6000908152600d602052604090206003015490565b6001600160a01b03166000908152600c602052604090206001015490565b60006106bf6109c1565b90911115919050565b600a546001600160a01b031690565b6000806106e261054f565b9050806106f357600091505061051d565b6107238161071761070386610697565b61070b6105d7565b9063ffffffff6109c716565b9063ffffffff610a0a16565b9392505050565b6001600160a01b03166000908152600c602052604090205490565b60025490565b6040805180820190915260058152644551442d5360d81b602082015290565b6000610774610745565b6001600160a01b0383166000908152600c6020526040902060050154111561079e5750600261051d565b6001600160a01b0382166000908152600c60205260409020600401546107c2610745565b1015610501576001610504565b60085490565b6001600160a01b039182166000908152600c602090815260408083209390941682526003909201909152205490565b600061050461081283610569565b61081b84610664565b9063ffffffff610a4c16565b60006108b8610834610958565b61083c610630565b6001600160a01b03166318160ddd6040518163ffffffff1660e01b815260040160206040518083038186803b15801561087457600080fd5b505afa158015610888573d6000803e3d6000fd5b505050506040513d601f19601f820116820180604052506108ac9190810190610c57565b9063ffffffff610a7116565b905090565b60006108c882610901565b6108d457506000610504565b506001600160a01b03919091166000908152600c6020908152604080832093835260029093019052205490565b6000908152600d602052604090206001015490565b60055490565b6001600160a01b03166000908152600e602052604090206005015460ff1690565b6001600160a01b03166000908152600e602052604090205490565b60075490565b6000908152600d602052604090205490565b610978610b1a565b60405180606001604052806000815260200163600450f08152602001610e10815250905090565b6000610504826000015161081b846040015161071786602001516108ac610ab3565b61016890565b6000826109d657506000610504565b828202828482816109e357fe5b04146107235760405162461bcd60e51b8152600401610a0190610ddd565b60405180910390fd5b600061072383836040518060400160405280601a81526020017f536166654d6174683a206469766973696f6e206279207a65726f000000000000815250610ab7565b6000828201838110156107235760405162461bcd60e51b8152600401610a0190610dcd565b600061072383836040518060400160405280601e81526020017f536166654d6174683a207375627472616374696f6e206f766572666c6f770000815250610aee565b4290565b60008183610ad85760405162461bcd60e51b8152600401610a019190610dbc565b506000838581610ae457fe5b0495945050505050565b60008184841115610b125760405162461bcd60e51b8152600401610a019190610dbc565b505050900390565b60405180606001604052806000815260200160008152602001600081525090565b803561050481610ea2565b803561050481610eb6565b805161050481610eb6565b600060208284031215610b6e57600080fd5b6000610b7a8484610b3b565b949350505050565b60008060408385031215610b9557600080fd5b6000610ba18585610b3b565b9250506020610bb285828601610b3b565b9150509250929050565b600080600060608486031215610bd157600080fd5b6000610bdd8686610b3b565b9350506020610bee86828701610b3b565b9250506040610bff86828701610b46565b9150509250925092565b60008060408385031215610c1c57600080fd5b6000610c288585610b3b565b9250506020610bb285828601610b46565b600060208284031215610c4b57600080fd5b6000610b7a8484610b46565b600060208284031215610c6957600080fd5b6000610b7a8484610b51565b60008060408385031215610c8857600080fd5b6000610c288585610b46565b610c9d81610e16565b82525050565b610c9d81610e21565b610c9d81610e45565b610c9d81610e50565b6000610cc982610e09565b610cd38185610e0d565b9350610ce3818560208601610e5b565b610cec81610e8b565b9093019392505050565b6000610d03601b83610e0d565b7f536166654d6174683a206164646974696f6e206f766572666c6f770000000000815260200192915050565b6000610d3c602183610e0d565b7f536166654d6174683a206d756c7469706c69636174696f6e206f766572666c6f8152607760f81b602082015260400192915050565b610c9d81610e3c565b610c9d81610e3f565b602081016105048284610c94565b602081016105048284610ca3565b602081016105048284610cac565b602081016105048284610cb5565b602080825281016107238184610cbe565b6020808252810161050481610cf6565b6020808252810161050481610d2f565b602081016105048284610d72565b602081016105048284610d7b565b5190565b90815260200190565b600061050482610e30565b151590565b8061051d81610e95565b6001600160a01b031690565b90565b60ff1690565b600061050482610e16565b600061050482610e26565b60005b83811015610e76578181015183820152602001610e5e565b83811115610e85576000848401525b50505050565b601f01601f191690565b60038110610e9f57fe5b50565b610eab81610e16565b8114610e9f57600080fd5b610eab81610e3c56fe457175696c69627269756d20446f6c6c61722050726f746f636f6c205374616b65a365627a7a72315820e0bbcb0af0ad6d08ab7c4f16673f3aa3e076e4a2f01d4d3b05704f062d95ebeb6c6578706572696d656e74616cf564736f6c63430005110040",
  "source": "/*\r\n    Copyright 2021 Equilibrium Dollar Protocol, based on the works of the Empty Set Squad and Dynamic Dollar Devs\r\n\r\n    Licensed under the Apache License, Version 2.0 (the \"License\");\r\n    you may not use this file except in compliance with the License.\r\n    You may obtain a copy of the License at\r\n\r\n    http://www.apache.org/licenses/LICENSE-2.0\r\n\r\n    Unless required by applicable law or agreed to in writing, software\r\n    distributed under the License is distributed on an \"AS IS\" BASIS,\r\n    WITHOUT WARRANTIES OR CONDITIONS OF ANY KIND, either express or implied.\r\n    See the License for the specific language governing permissions and\r\n    limitations under the License.\r\n*/\r\n\r\npragma solidity ^0.5.17;\r\npragma experimental ABIEncoderV2;\r\n\r\nimport \"@openzeppelin/contracts/math/SafeMath.sol\";\r\nimport \"./Comptroller.sol\";\r\nimport \"../external/Decimal.sol\";\r\nimport \"../Constants.sol\";\r\n\r\ncontract Regulator is Comptroller {\r\n    using SafeMath for uint256;\r\n    using Decimal for Decimal.D256;\r\n\r\n    event SupplyIncrease(uint256 indexed epoch, uint256 price, uint256 newRedeemable, uint256 lessDebt, uint256 newBonded);\r\n    event SupplyDecrease(uint256 indexed epoch, uint256 price, uint256 newDebt);\r\n    event SupplyNeutral(uint256 indexed epoch);\r\n\r\n    function step() internal {\r\n        Decimal.D256 memory price = oracleCapture();\r\n\r\n        if (price.greaterThan(Decimal.one())) {\r\n            setDebtToZero();\r\n            growSupply(price);\r\n            return;\r\n        }\r\n\r\n        if (price.lessThan(Decimal.one())) {\r\n            shrinkSupply(price);\r\n            return;\r\n        }\r\n\r\n        emit SupplyNeutral(epoch());\r\n    }\r\n\r\n    function shrinkSupply(Decimal.D256 memory price) private {\r\n        Decimal.D256 memory delta = limit(Decimal.one().sub(price));\r\n        uint256 newDebt = delta.mul(totalNet()).asUint256();\r\n        increaseDebt(newDebt);\r\n\r\n        emit SupplyDecrease(epoch(), price.value, newDebt);\r\n        return;\r\n    }\r\n\r\n    function growSupply(Decimal.D256 memory price) private {\r\n        Decimal.D256 memory delta = limit(price.sub(Decimal.one()).div(Constants.getSupplyChangeDivisor()));\r\n        uint256 newSupply = delta.mul(totalNet()).asUint256();\r\n        (uint256 newRedeemable, uint256 lessDebt, uint256 newBonded) = increaseSupply(newSupply);\r\n        emit SupplyIncrease(epoch(), price.value, newRedeemable, lessDebt, newBonded);\r\n    }\r\n\r\n    function limit(Decimal.D256 memory delta) private view returns (Decimal.D256 memory) {\r\n        Decimal.D256 memory supplyChangeLimit = Constants.getSupplyChangeLimit();\r\n\r\n        return delta.greaterThan(supplyChangeLimit) ? supplyChangeLimit : delta;\r\n\r\n    }\r\n\r\n    function oracleCapture() private returns (Decimal.D256 memory) {\r\n        (Decimal.D256 memory price, bool valid) = oracle().capture();\r\n\r\n        if (bootstrappingAt(epoch().sub(1))) {\r\n            return Constants.getBootstrappingPrice();\r\n        }\r\n        if (!valid) {\r\n            return Decimal.one();\r\n        }\r\n\r\n        return price;\r\n    }\r\n}\r\n",
  "sourcePath": "D:\\10012021\\fix-project\\equilibrium-protocol\\contracts\\dao\\Regulator.sol",
  "compiler": {
    "name": "solc",
    "version": "0.5.17+commit.d19bba13.Emscripten.clang"
  },
  "schemaVersion": "3.3.3",
  "updatedAt": "2021-01-16T11:55:51.043Z",
  "devdoc": {
    "methods": {}
  },
  "userdoc": {
    "methods": {
      "balanceOfStaged(address)": {
        "notice": "Account"
      },
      "dollar()": {
        "notice": "Global"
      },
      "epoch()": {
        "notice": "Epoch"
      },
      "name()": {
        "notice": "ERC20 Interface"
      },
      "recordedVote(address,address)": {
        "notice": "Governance"
      },
      "transfer(address,uint256)": {
        "notice": "ERC20 Interface"
      }
    }
  }
}